{
  "address": "0xdD5FCC4992C5C8795c557B2865B2ceE6c2CF6316",
  "abi": [
    {
      "inputs": [
        {
          "internalType": "address",
          "name": "_token",
          "type": "address"
        },
        {
          "internalType": "address",
          "name": "_quote",
          "type": "address"
        },
        {
          "internalType": "address payable",
          "name": "_wallet",
          "type": "address"
        },
        {
          "internalType": "uint256",
          "name": "_price",
          "type": "uint256"
        },
        {
          "internalType": "uint256",
          "name": "_minTokenBuyAmount",
          "type": "uint256"
        }
      ],
      "stateMutability": "nonpayable",
      "type": "constructor"
    },
    {
      "anonymous": false,
      "inputs": [
        {
          "indexed": true,
          "internalType": "address",
          "name": "previousOwner",
          "type": "address"
        },
        {
          "indexed": true,
          "internalType": "address",
          "name": "newOwner",
          "type": "address"
        }
      ],
      "name": "OwnershipTransferred",
      "type": "event"
    },
    {
      "anonymous": false,
      "inputs": [
        {
          "indexed": false,
          "internalType": "address",
          "name": "account",
          "type": "address"
        }
      ],
      "name": "Paused",
      "type": "event"
    },
    {
      "anonymous": false,
      "inputs": [
        {
          "indexed": false,
          "internalType": "uint256",
          "name": "prevPrice",
          "type": "uint256"
        },
        {
          "indexed": false,
          "internalType": "uint256",
          "name": "newPrice",
          "type": "uint256"
        }
      ],
      "name": "PriceChanged",
      "type": "event"
    },
    {
      "anonymous": false,
      "inputs": [
        {
          "indexed": true,
          "internalType": "address",
          "name": "purchaser",
          "type": "address"
        },
        {
          "indexed": true,
          "internalType": "address",
          "name": "beneficiary",
          "type": "address"
        },
        {
          "indexed": false,
          "internalType": "uint256",
          "name": "value",
          "type": "uint256"
        },
        {
          "indexed": false,
          "internalType": "uint256",
          "name": "amount",
          "type": "uint256"
        }
      ],
      "name": "TokensPurchased",
      "type": "event"
    },
    {
      "anonymous": false,
      "inputs": [
        {
          "indexed": false,
          "internalType": "address",
          "name": "account",
          "type": "address"
        }
      ],
      "name": "Unpaused",
      "type": "event"
    },
    {
      "inputs": [
        {
          "internalType": "uint256",
          "name": "weiAmount",
          "type": "uint256"
        }
      ],
      "name": "buy",
      "outputs": [],
      "stateMutability": "nonpayable",
      "type": "function"
    },
    {
      "inputs": [
        {
          "internalType": "address",
          "name": "beneficiary",
          "type": "address"
        },
        {
          "internalType": "uint256",
          "name": "weiAmount",
          "type": "uint256"
        }
      ],
      "name": "buyFor",
      "outputs": [],
      "stateMutability": "nonpayable",
      "type": "function"
    },
    {
      "inputs": [],
      "name": "minTokenBuyAmount",
      "outputs": [
        {
          "internalType": "uint256",
          "name": "",
          "type": "uint256"
        }
      ],
      "stateMutability": "view",
      "type": "function"
    },
    {
      "inputs": [],
      "name": "owner",
      "outputs": [
        {
          "internalType": "address",
          "name": "",
          "type": "address"
        }
      ],
      "stateMutability": "view",
      "type": "function"
    },
    {
      "inputs": [],
      "name": "pause",
      "outputs": [],
      "stateMutability": "nonpayable",
      "type": "function"
    },
    {
      "inputs": [],
      "name": "paused",
      "outputs": [
        {
          "internalType": "bool",
          "name": "",
          "type": "bool"
        }
      ],
      "stateMutability": "view",
      "type": "function"
    },
    {
      "inputs": [],
      "name": "price",
      "outputs": [
        {
          "internalType": "uint256",
          "name": "",
          "type": "uint256"
        }
      ],
      "stateMutability": "view",
      "type": "function"
    },
    {
      "inputs": [],
      "name": "quote",
      "outputs": [
        {
          "internalType": "contract IERC20",
          "name": "",
          "type": "address"
        }
      ],
      "stateMutability": "view",
      "type": "function"
    },
    {
      "inputs": [],
      "name": "remainingTokens",
      "outputs": [
        {
          "internalType": "uint256",
          "name": "",
          "type": "uint256"
        }
      ],
      "stateMutability": "view",
      "type": "function"
    },
    {
      "inputs": [],
      "name": "renounceOwnership",
      "outputs": [],
      "stateMutability": "nonpayable",
      "type": "function"
    },
    {
      "inputs": [
        {
          "internalType": "uint256",
          "name": "_price",
          "type": "uint256"
        }
      ],
      "name": "setPrice",
      "outputs": [],
      "stateMutability": "nonpayable",
      "type": "function"
    },
    {
      "inputs": [],
      "name": "token",
      "outputs": [
        {
          "internalType": "contract IERC20",
          "name": "",
          "type": "address"
        }
      ],
      "stateMutability": "view",
      "type": "function"
    },
    {
      "inputs": [
        {
          "internalType": "address",
          "name": "newOwner",
          "type": "address"
        }
      ],
      "name": "transferOwnership",
      "outputs": [],
      "stateMutability": "nonpayable",
      "type": "function"
    },
    {
      "inputs": [],
      "name": "unpause",
      "outputs": [],
      "stateMutability": "nonpayable",
      "type": "function"
    },
    {
      "inputs": [],
      "name": "wallet",
      "outputs": [
        {
          "internalType": "address payable",
          "name": "",
          "type": "address"
        }
      ],
      "stateMutability": "view",
      "type": "function"
    },
    {
      "inputs": [],
      "name": "weiRaised",
      "outputs": [
        {
          "internalType": "uint256",
          "name": "",
          "type": "uint256"
        }
      ],
      "stateMutability": "view",
      "type": "function"
    }
  ],
  "transactionHash": "0xb2135013762cdce0e083fd16a272c36ee0514ce22824d0f8e518eaf899de542f",
  "args": [
    "0x5Bc8e45E6c0019F12bE2979De614AF3cc63538e9",
    "0x31042e8498A6939d174A2D91FB4f98128089b330",
    "0x4410c9De0B7523b48B6EF4190eEb439aACC5F4D3",
    "150000000000000000000",
    "500000000000000000"
  ],
  "numDeployments": 1,
  "solcInputHash": "2cfa9fd16ccb4ea87446dcd78df92a64",
  "bytecode": "0x6101006040526806f05b59d3b200000060e0523480156200001f57600080fd5b5060405162001550380380620015508339810160408190526200004291620003a6565b6001600055620000523362000186565b6001805460ff60a01b191690556001600160a01b038316620000c95760405162461bcd60e51b815260206004820152602560248201527f43726f776473616c653a2077616c6c657420697320746865207a65726f206164604482015264647265737360d81b60648201526084015b60405180910390fd5b6001600160a01b0385166200012d5760405162461bcd60e51b8152602060048201526024808201527f43726f776473616c653a20746f6b656e20697320746865207a65726f206164646044820152637265737360e01b6064820152608401620000c0565b6001600160a01b03808616608081905290851660a05262000150906012620001d8565b60a05162000160906012620001d8565b6001600160a01b03831660c052620001788262000305565b600355506200043792505050565b600180546001600160a01b038381166001600160a01b0319831681179093556040519116919082907f8be0079c531659141344cd1fd0a4f28419497f9722a3daafe3b4186f6b6457e090600090a35050565b816001600160a01b031663313ce5676040518163ffffffff1660e01b815260040160206040518083038186803b1580156200021257600080fd5b505afa92505050801562000245575060408051601f3d908101601f1916820190925262000242918101906200040b565b60015b6200029e5760405162461bcd60e51b815260206004820152602260248201527f556e61626c6520746f2067756172616e74656520746f6b656e20646563696d616044820152616c7360f01b6064820152608401620000c0565b8160ff168160ff1614620003005760405162461bcd60e51b815260206004820152602260248201527f57726f6e67206e756d626572206f6620646563696d616c7320666f7220746f6b60448201526132b760f11b6064820152608401620000c0565b505050565b60e051811015620003485760405162461bcd60e51b815260206004820152600c60248201526b507269636520746f206c6f7760a01b6044820152606401620000c0565b600280549082905560408051828152602081018490527f8aa4fa52648a6d15edce8a179c792c86f3719d0cc3c572cf90f91948f0f2cb68910160405180910390a15050565b6001600160a01b0381168114620003a357600080fd5b50565b600080600080600060a08688031215620003bf57600080fd5b8551620003cc816200038d565b6020870151909550620003df816200038d565b6040870151909450620003f2816200038d565b6060870151608090970151959894975095949392505050565b6000602082840312156200041e57600080fd5b815160ff811681146200043057600080fd5b9392505050565b60805160a05160c05160e0516110a7620004a9600039600061084a0152600081816101430152818161034c0152818161042501528181610a7a0152610ace0152600081816101d30152610a4f01526000818161023a0152818161037b015281816104530152610aac01526110a76000f3fe608060405234801561001057600080fd5b50600436106101005760003560e01c806391b7f5ed11610097578063d96a094a11610066578063d96a094a14610206578063df4c0dc214610219578063f2fde38b14610222578063fc0c546a1461023557600080fd5b806391b7f5ed146101bb578063999b93af146101ce578063a035b1fe146101f5578063bf583903146101fe57600080fd5b80635c975abb116100d35780635c975abb1461017d578063715018a61461019a5780638456cb59146101a25780638da5cb5b146101aa57600080fd5b806306501a6a146101055780633f4ba83a1461011a5780634042b66f14610122578063521eb2731461013e575b600080fd5b610118610113366004610e80565b61025c565b005b6101186102d4565b61012b60045481565b6040519081526020015b60405180910390f35b6101657f000000000000000000000000000000000000000000000000000000000000000081565b6040516001600160a01b039091168152602001610135565b600154600160a01b900460ff166040519015158152602001610135565b6101186102e6565b6101186102f8565b6001546001600160a01b0316610165565b6101186101c9366004610eaa565b610308565b6101657f000000000000000000000000000000000000000000000000000000000000000081565b61012b60025481565b61012b61031c565b610118610214366004610eaa565b6104d7565b61012b60035481565b610118610230366004610ec3565b610549565b6101657f000000000000000000000000000000000000000000000000000000000000000081565b600260005414156102b45760405162461bcd60e51b815260206004820152601f60248201527f5265656e7472616e637947756172643a207265656e7472616e742063616c6c0060448201526064015b60405180910390fd5b60026000556102c16105d6565b6102cb8282610630565b50506001600055565b6102dc6106b6565b6102e4610710565b565b6102ee6106b6565b6102e46000610780565b6103006106b6565b6102e46107ea565b6103106106b6565b61031981610848565b50565b6040517f70a082310000000000000000000000000000000000000000000000000000000081526001600160a01b037f0000000000000000000000000000000000000000000000000000000000000000811660048301526000916104d2917f000000000000000000000000000000000000000000000000000000000000000016906370a082319060240160206040518083038186803b1580156103bd57600080fd5b505afa1580156103d1573d6000803e3d6000fd5b505050506040513d601f19601f820116820180604052508101906103f59190610ede565b6040517fdd62ed3e0000000000000000000000000000000000000000000000000000000081526001600160a01b037f0000000000000000000000000000000000000000000000000000000000000000811660048301523060248301527f0000000000000000000000000000000000000000000000000000000000000000169063dd62ed3e9060440160206040518083038186803b15801561049557600080fd5b505afa1580156104a9573d6000803e3d6000fd5b505050506040513d601f19601f820116820180604052508101906104cd9190610ede565b6108fd565b905090565b6002600054141561052a5760405162461bcd60e51b815260206004820152601f60248201527f5265656e7472616e637947756172643a207265656e7472616e742063616c6c0060448201526064016102ab565b60026000556105376105d6565b6105413382610630565b506001600055565b6105516106b6565b6001600160a01b0381166105cd5760405162461bcd60e51b815260206004820152602660248201527f4f776e61626c653a206e6577206f776e657220697320746865207a65726f206160448201527f646472657373000000000000000000000000000000000000000000000000000060648201526084016102ab565b61031981610780565b600154600160a01b900460ff16156102e45760405162461bcd60e51b815260206004820152601060248201527f5061757361626c653a207061757365640000000000000000000000000000000060448201526064016102ab565b600061063b82610915565b90506106478383610946565b6004546106549082610a3e565b60045561066081610a4a565b61066a8383610a9f565b604080518381526020810183905233916001600160a01b038616917f6faf93231a456e552dbc9961f58d9713ee4f2e69d15f1975b050ef0911053a7b910160405180910390a35b505050565b6001546001600160a01b031633146102e45760405162461bcd60e51b815260206004820181905260248201527f4f776e61626c653a2063616c6c6572206973206e6f7420746865206f776e657260448201526064016102ab565b610718610af4565b600180547fffffffffffffffffffffff00ffffffffffffffffffffffffffffffffffffffff1690557f5db9ee0a495bf2e6ff9c91a7834c1ba4fdd244a5e8aa4e537bd38aeae4b073aa335b6040516001600160a01b03909116815260200160405180910390a1565b600180546001600160a01b038381167fffffffffffffffffffffffff0000000000000000000000000000000000000000831681179093556040519116919082907f8be0079c531659141344cd1fd0a4f28419497f9722a3daafe3b4186f6b6457e090600090a35050565b6107f26105d6565b600180547fffffffffffffffffffffff00ffffffffffffffffffffffffffffffffffffffff16600160a01b1790557f62e78cea01bee320cd4e420270b5ea74000d11b0c9f74754ebdbfc544b05a2586107633390565b7f00000000000000000000000000000000000000000000000000000000000000008110156108b85760405162461bcd60e51b815260206004820152600c60248201527f507269636520746f206c6f77000000000000000000000000000000000000000060448201526064016102ab565b600280549082905560408051828152602081018490527f8aa4fa52648a6d15edce8a179c792c86f3719d0cc3c572cf90f91948f0f2cb68910160405180910390a15050565b600081831061090c578161090e565b825b9392505050565b600061094061092b662386f26fc1000084610f26565b606460025461093a9190610f26565b90610b4d565b92915050565b6001600160a01b0382166109c25760405162461bcd60e51b815260206004820152602a60248201527f43726f776473616c653a2062656e656669636961727920697320746865207a6560448201527f726f20616464726573730000000000000000000000000000000000000000000060648201526084016102ab565b600354811015610a3a5760405162461bcd60e51b815260206004820152602960248201527f43726f776473616c653a206d696e696d756e20616d6f756e7420746f2062757960448201527f207265717569726564000000000000000000000000000000000000000000000060648201526084016102ab565b5050565b600061090e8284610f61565b6103197f00000000000000000000000000000000000000000000000000000000000000006001600160a01b0316337f000000000000000000000000000000000000000000000000000000000000000084610b59565b610a3a6001600160a01b037f0000000000000000000000000000000000000000000000000000000000000000167f00000000000000000000000000000000000000000000000000000000000000008484610b59565b600154600160a01b900460ff166102e45760405162461bcd60e51b815260206004820152601460248201527f5061757361626c653a206e6f742070617573656400000000000000000000000060448201526064016102ab565b600061090e8284610f79565b604080516001600160a01b0385811660248301528416604482015260648082018490528251808303909101815260849091019091526020810180517bffffffffffffffffffffffffffffffffffffffffffffffffffffffff167f23b872dd00000000000000000000000000000000000000000000000000000000179052610be1908590610be7565b50505050565b6000610c3c826040518060400160405280602081526020017f5361666545524332303a206c6f772d6c6576656c2063616c6c206661696c6564815250856001600160a01b0316610ccc9092919063ffffffff16565b8051909150156106b15780806020019051810190610c5a9190610fb6565b6106b15760405162461bcd60e51b815260206004820152602a60248201527f5361666545524332303a204552433230206f7065726174696f6e20646964206e60448201527f6f7420737563636565640000000000000000000000000000000000000000000060648201526084016102ab565b6060610cdb8484600085610ce3565b949350505050565b606082471015610d5b5760405162461bcd60e51b815260206004820152602660248201527f416464726573733a20696e73756666696369656e742062616c616e636520666f60448201527f722063616c6c000000000000000000000000000000000000000000000000000060648201526084016102ab565b6001600160a01b0385163b610db25760405162461bcd60e51b815260206004820152601d60248201527f416464726573733a2063616c6c20746f206e6f6e2d636f6e747261637400000060448201526064016102ab565b600080866001600160a01b03168587604051610dce9190611004565b60006040518083038185875af1925050503d8060008114610e0b576040519150601f19603f3d011682016040523d82523d6000602084013e610e10565b606091505b5091509150610e20828286610e2b565b979650505050505050565b60608315610e3a57508161090e565b825115610e4a5782518084602001fd5b8160405162461bcd60e51b81526004016102ab9190611020565b80356001600160a01b0381168114610e7b57600080fd5b919050565b60008060408385031215610e9357600080fd5b610e9c83610e64565b946020939093013593505050565b600060208284031215610ebc57600080fd5b5035919050565b600060208284031215610ed557600080fd5b61090e82610e64565b600060208284031215610ef057600080fd5b5051919050565b7f4e487b7100000000000000000000000000000000000000000000000000000000600052601160045260246000fd5b600082610f5c577f4e487b7100000000000000000000000000000000000000000000000000000000600052601260045260246000fd5b500490565b60008219821115610f7457610f74610ef7565b500190565b6000817fffffffffffffffffffffffffffffffffffffffffffffffffffffffffffffffff0483118215151615610fb157610fb1610ef7565b500290565b600060208284031215610fc857600080fd5b8151801515811461090e57600080fd5b60005b83811015610ff3578181015183820152602001610fdb565b83811115610be15750506000910152565b60008251611016818460208701610fd8565b9190910192915050565b602081526000825180602084015261103f816040850160208701610fd8565b601f017fffffffffffffffffffffffffffffffffffffffffffffffffffffffffffffffe016919091016040019291505056fea2646970667358221220798494815ec38244b6fbcd7175c6affa8760a2dfc3ab27517dc56049560d8fea64736f6c63430008090033",
  "devdoc": {
    "events": {
      "PriceChanged(uint256,uint256)": {
        "params": {
          "newPrice": "current set price",
          "prevPrice": "price before the change"
        }
      },
      "TokensPurchased(address,address,uint256,uint256)": {
        "params": {
          "amount": "amount of tokens purchased",
          "beneficiary": "who got the tokens",
          "purchaser": "who paid for the tokens",
          "value": "weis paid for purchase"
        }
      }
    },
    "kind": "dev",
    "methods": {
      "buy(uint256)": {
        "details": "Sender buys tokens to be paid from his wallet and sent to his wallet.",
        "params": {
          "weiAmount": "amount of tokens to be bought with min unit of quote token Requirements: - The contract must not be paused."
        }
      },
      "buyFor(address,uint256)": {
        "details": "Sender buys tokens to be sent to another wallet.",
        "params": {
          "beneficiary": "address to deliver the tokens",
          "weiAmount": "amount of tokens to be bought with min unit of quote token Requirements: - The contract must not be paused."
        }
      },
      "constructor": {
        "params": {
          "_minTokenBuyAmount": "min allowed buy Initializes: - Ownable: setting owner to the deployer - Pausable: initial setting to not paused Requires: - Both token and quote ERC20s to have 18 decimals",
          "_price": "price in wei for a unit (ether)",
          "_quote": "token to buy",
          "_token": "Token to sell",
          "_wallet": "wallet holding the tokens to sell, must approve this contract to move the funds"
        }
      },
      "owner()": {
        "details": "Returns the address of the current owner."
      },
      "pause()": {
        "details": "Pause buys. Requirements: - Only Owner."
      },
      "paused()": {
        "details": "Returns true if the contract is paused, and false otherwise."
      },
      "remainingTokens()": {
        "details": "Checks the amount of tokens left in the allowance.",
        "returns": {
          "_0": "Amount of tokens left in the allowance"
        }
      },
      "renounceOwnership()": {
        "details": "Leaves the contract without owner. It will not be possible to call `onlyOwner` functions anymore. Can only be called by the current owner. NOTE: Renouncing ownership will leave the contract without an owner, thereby removing any functionality that is only available to the owner."
      },
      "setPrice(uint256)": {
        "details": "Changes the price.",
        "params": {
          "_price": "new Price in wei Requirements: - Only Owner."
        }
      },
      "transferOwnership(address)": {
        "details": "Transfers ownership of the contract to a new account (`newOwner`). Can only be called by the current owner."
      },
      "unpause()": {
        "details": "Unpause buys. Requirements: - Only Owner."
      }
    },
    "version": 1
  },
  "userdoc": {
    "events": {
      "PriceChanged(uint256,uint256)": {
        "notice": "Event for price change logging"
      },
      "TokensPurchased(address,address,uint256,uint256)": {
        "notice": "Event for token purchase logging"
      }
    },
    "kind": "user",
    "methods": {
      "constructor": {
        "notice": "Constructor"
      }
    },
    "version": 1
  },
  "storageLayout": {
    "storage": [
      {
        "astId": 3446,
        "contract": "src/Crowdsale/Crowdsale.sol:Crowdsale",
        "label": "_status",
        "offset": 0,
        "slot": "0",
        "type": "t_uint256"
      },
      {
        "astId": 3222,
        "contract": "src/Crowdsale/Crowdsale.sol:Crowdsale",
        "label": "_owner",
        "offset": 0,
        "slot": "1",
        "type": "t_address"
      },
      {
        "astId": 3345,
        "contract": "src/Crowdsale/Crowdsale.sol:Crowdsale",
        "label": "_paused",
        "offset": 20,
        "slot": "1",
        "type": "t_bool"
      },
      {
        "astId": 10742,
        "contract": "src/Crowdsale/Crowdsale.sol:Crowdsale",
        "label": "price",
        "offset": 0,
        "slot": "2",
        "type": "t_uint256"
      },
      {
        "astId": 10747,
        "contract": "src/Crowdsale/Crowdsale.sol:Crowdsale",
        "label": "minTokenBuyAmount",
        "offset": 0,
        "slot": "3",
        "type": "t_uint256"
      },
      {
        "astId": 10749,
        "contract": "src/Crowdsale/Crowdsale.sol:Crowdsale",
        "label": "weiRaised",
        "offset": 0,
        "slot": "4",
        "type": "t_uint256"
      }
    ],
    "types": {
      "t_address": {
        "encoding": "inplace",
        "label": "address",
        "numberOfBytes": "20"
      },
      "t_bool": {
        "encoding": "inplace",
        "label": "bool",
        "numberOfBytes": "1"
      },
      "t_uint256": {
        "encoding": "inplace",
        "label": "uint256",
        "numberOfBytes": "32"
      }
    }
  }
}