{
  "address": "0x35F675527543c59676B85717948e7B76Cf9C6939",
  "abi": [
    {
      "anonymous": false,
      "inputs": [
        {
          "indexed": false,
          "internalType": "uint8",
          "name": "version",
          "type": "uint8"
        }
      ],
      "name": "Initialized",
      "type": "event"
    },
    {
      "anonymous": false,
      "inputs": [
        {
          "indexed": true,
          "internalType": "address",
          "name": "previousOwner",
          "type": "address"
        },
        {
          "indexed": true,
          "internalType": "address",
          "name": "newOwner",
          "type": "address"
        }
      ],
      "name": "OwnershipTransferStarted",
      "type": "event"
    },
    {
      "anonymous": false,
      "inputs": [
        {
          "indexed": true,
          "internalType": "address",
          "name": "previousOwner",
          "type": "address"
        },
        {
          "indexed": true,
          "internalType": "address",
          "name": "newOwner",
          "type": "address"
        }
      ],
      "name": "OwnershipTransferred",
      "type": "event"
    },
    {
      "anonymous": false,
      "inputs": [
        {
          "indexed": false,
          "internalType": "address",
          "name": "account",
          "type": "address"
        }
      ],
      "name": "Paused",
      "type": "event"
    },
    {
      "anonymous": false,
      "inputs": [
        {
          "indexed": false,
          "internalType": "address",
          "name": "to",
          "type": "address"
        },
        {
          "indexed": false,
          "internalType": "uint256",
          "name": "amount",
          "type": "uint256"
        }
      ],
      "name": "SuccessBuy",
      "type": "event"
    },
    {
      "anonymous": false,
      "inputs": [
        {
          "indexed": false,
          "internalType": "address",
          "name": "account",
          "type": "address"
        }
      ],
      "name": "Unpaused",
      "type": "event"
    },
    {
      "inputs": [],
      "name": "MAX_BUYABLE_AMOUNT_PER_WALLET",
      "outputs": [
        {
          "internalType": "uint256",
          "name": "",
          "type": "uint256"
        }
      ],
      "stateMutability": "view",
      "type": "function"
    },
    {
      "inputs": [],
      "name": "acceptOwnership",
      "outputs": [],
      "stateMutability": "nonpayable",
      "type": "function"
    },
    {
      "inputs": [
        {
          "internalType": "uint256",
          "name": "amount",
          "type": "uint256"
        }
      ],
      "name": "buy",
      "outputs": [],
      "stateMutability": "nonpayable",
      "type": "function"
    },
    {
      "inputs": [],
      "name": "calculateCurrentPrice",
      "outputs": [
        {
          "internalType": "uint256",
          "name": "_currentPrice",
          "type": "uint256"
        }
      ],
      "stateMutability": "view",
      "type": "function"
    },
    {
      "inputs": [
        {
          "internalType": "uint256",
          "name": "amount",
          "type": "uint256"
        }
      ],
      "name": "calculateTotalCost",
      "outputs": [
        {
          "internalType": "uint256",
          "name": "newPrice",
          "type": "uint256"
        },
        {
          "internalType": "uint256",
          "name": "totalCost",
          "type": "uint256"
        }
      ],
      "stateMutability": "view",
      "type": "function"
    },
    {
      "inputs": [],
      "name": "currentPrice",
      "outputs": [
        {
          "internalType": "uint256",
          "name": "",
          "type": "uint256"
        }
      ],
      "stateMutability": "view",
      "type": "function"
    },
    {
      "inputs": [
        {
          "internalType": "address",
          "name": "token_",
          "type": "address"
        },
        {
          "internalType": "address",
          "name": "quote_",
          "type": "address"
        },
        {
          "internalType": "address",
          "name": "minter_",
          "type": "address"
        },
        {
          "internalType": "address",
          "name": "treasury_",
          "type": "address"
        }
      ],
      "name": "initialize",
      "outputs": [],
      "stateMutability": "nonpayable",
      "type": "function"
    },
    {
      "inputs": [],
      "name": "minter",
      "outputs": [
        {
          "internalType": "contract IMinterDAO",
          "name": "",
          "type": "address"
        }
      ],
      "stateMutability": "view",
      "type": "function"
    },
    {
      "inputs": [],
      "name": "owner",
      "outputs": [
        {
          "internalType": "address",
          "name": "",
          "type": "address"
        }
      ],
      "stateMutability": "view",
      "type": "function"
    },
    {
      "inputs": [],
      "name": "pause",
      "outputs": [],
      "stateMutability": "nonpayable",
      "type": "function"
    },
    {
      "inputs": [],
      "name": "paused",
      "outputs": [
        {
          "internalType": "bool",
          "name": "",
          "type": "bool"
        }
      ],
      "stateMutability": "view",
      "type": "function"
    },
    {
      "inputs": [],
      "name": "pendingOwner",
      "outputs": [
        {
          "internalType": "address",
          "name": "",
          "type": "address"
        }
      ],
      "stateMutability": "view",
      "type": "function"
    },
    {
      "inputs": [],
      "name": "priceCurveMaxValue",
      "outputs": [
        {
          "internalType": "uint256",
          "name": "",
          "type": "uint256"
        }
      ],
      "stateMutability": "view",
      "type": "function"
    },
    {
      "inputs": [],
      "name": "priceCurveMinValue",
      "outputs": [
        {
          "internalType": "uint256",
          "name": "",
          "type": "uint256"
        }
      ],
      "stateMutability": "view",
      "type": "function"
    },
    {
      "inputs": [],
      "name": "quote",
      "outputs": [
        {
          "internalType": "contract IERC20Upgradeable",
          "name": "",
          "type": "address"
        }
      ],
      "stateMutability": "view",
      "type": "function"
    },
    {
      "inputs": [],
      "name": "renounceOwnership",
      "outputs": [],
      "stateMutability": "nonpayable",
      "type": "function"
    },
    {
      "inputs": [],
      "name": "saleHardCap",
      "outputs": [
        {
          "internalType": "uint256",
          "name": "",
          "type": "uint256"
        }
      ],
      "stateMutability": "view",
      "type": "function"
    },
    {
      "inputs": [
        {
          "internalType": "uint256",
          "name": "supply",
          "type": "uint256"
        }
      ],
      "name": "setMaxLiquidSupply",
      "outputs": [],
      "stateMutability": "nonpayable",
      "type": "function"
    },
    {
      "inputs": [
        {
          "internalType": "uint256",
          "name": "newPrice",
          "type": "uint256"
        }
      ],
      "name": "setNewPrice",
      "outputs": [],
      "stateMutability": "nonpayable",
      "type": "function"
    },
    {
      "inputs": [
        {
          "internalType": "address",
          "name": "treasury_",
          "type": "address"
        }
      ],
      "name": "setTreasury",
      "outputs": [],
      "stateMutability": "nonpayable",
      "type": "function"
    },
    {
      "inputs": [],
      "name": "token",
      "outputs": [
        {
          "internalType": "contract IERC20Upgradeable",
          "name": "",
          "type": "address"
        }
      ],
      "stateMutability": "view",
      "type": "function"
    },
    {
      "inputs": [
        {
          "internalType": "address",
          "name": "newOwner",
          "type": "address"
        }
      ],
      "name": "transferOwnership",
      "outputs": [],
      "stateMutability": "nonpayable",
      "type": "function"
    },
    {
      "inputs": [],
      "name": "treasury",
      "outputs": [
        {
          "internalType": "address",
          "name": "",
          "type": "address"
        }
      ],
      "stateMutability": "view",
      "type": "function"
    },
    {
      "inputs": [],
      "name": "unpause",
      "outputs": [],
      "stateMutability": "nonpayable",
      "type": "function"
    }
  ],
  "transactionHash": "0x3dce3922d87507ec667f45dd0713eb557f66a02c3a2cc6d4668ea7b651d03089",
  "args": [],
  "numDeployments": 2,
  "solcInputHash": "18aa71866d817d9cfe92aef42ac4bf3b",
  "bytecode": "0x608060405234801561001057600080fd5b50611c7f806100206000396000f3fe608060405234801561001057600080fd5b50600436106101985760003560e01c8063999b93af116100e3578063e30c39781161008c578063f2fde38b11610066578063f2fde38b1461030e578063f8c8765e14610321578063fc0c546a1461033457600080fd5b8063e30c3978146102d7578063ee8cdd4e146102e8578063f0f44260146102fb57600080fd5b8063b22520c9116100bd578063b22520c9146102b0578063b33a4207146102ba578063d96a094a146102c457600080fd5b8063999b93af146102815780639d1b464a14610294578063adb132e41461029d57600080fd5b8063715018a6116101455780638da5cb5b1161011f5780638da5cb5b146102385780638dd963031461024957806398efca541461025957600080fd5b8063715018a61461022057806379ba5097146102285780638456cb591461023057600080fd5b80635c975abb116101765780635c975abb146101ed57806361d027b31461020357806365baf2431461021757600080fd5b8063075461721461019d5780633f4ba83a146101cd5780634d31c57a146101d7575b600080fd5b60fd546101b0906001600160a01b031681565b6040516001600160a01b0390911681526020015b60405180910390f35b6101d5610347565b005b6101df610359565b6040519081526020016101c4565b60c95460ff1660405190151581526020016101c4565b610100546101b0906001600160a01b031681565b6101df60ff5481565b6101d56103f3565b6101d5610405565b6101d5610498565b6065546001600160a01b03166101b0565b6101df68319a2d041f4a6c000081565b61026c6102673660046117ae565b6104a8565b604080519283526020830191909152016101c4565b60fc546101b0906001600160a01b031681565b6101df60fe5481565b6101d56102ab3660046117ae565b6107e1565b6101df6101015481565b6101df6101025481565b6101d56102d23660046117ae565b6107ee565b6097546001600160a01b03166101b0565b6101d56102f63660046117ae565b610bf8565b6101d56103093660046117e3565b610c7c565b6101d561031c3660046117e3565b610cb4565b6101d561032f366004611805565b610d32565b60fb546101b0906001600160a01b031681565b61034f610e5b565b610357610eb5565b565b60008060fb60009054906101000a90046001600160a01b03166001600160a01b03166318160ddd6040518163ffffffff1660e01b815260040160206040518083038186803b1580156103aa57600080fd5b505afa1580156103be573d6000803e3d6000fd5b505050506040513d601f19601f820116820180604052508101906103e29190611859565b90506103ed81610f07565b91505090565b6103fb610e5b565b6103576000610f86565b60975433906001600160a01b0316811461048c5760405162461bcd60e51b815260206004820152602960248201527f4f776e61626c6532537465703a2063616c6c6572206973206e6f74207468652060448201527f6e6577206f776e6572000000000000000000000000000000000000000000000060648201526084015b60405180910390fd5b61049581610f86565b50565b6104a0610e5b565b610357610fac565b600080600060fb60009054906101000a90046001600160a01b03166001600160a01b03166318160ddd6040518163ffffffff1660e01b815260040160206040518083038186803b1580156104fb57600080fd5b505afa15801561050f573d6000803e3d6000fd5b505050506040513d601f19601f820116820180604052508101906105339190611859565b9050610101548110156105ae5760405162461bcd60e51b815260206004820152602860248201527f44796e616d696353616c653a2063757272656e7420746f74616c537570706c7960448201527f20746f6f206c6f770000000000000000000000000000000000000000000000006064820152608401610483565b610102546105bc85836118a1565b11156106305760405162461bcd60e51b815260206004820152602660248201527f44796e616d696353616c653a20746f74616c537570706c79206c696d6974207260448201527f65616368656400000000000000000000000000000000000000000000000000006064820152608401610483565b6101a47c012fdcd0410f3309ce43d7fab69021edb6b391c08174c000000000000073020bc07cac791dd0df0980a09e195da00000000083600061067389836118b9565b90506000610682600284611a2a565b6106a390760a70c3c40a64e6c51999090b65f67d9240000000000000611a68565b6106ae600284611a2a565b6106cf90760a70c3c40a64e6c51999090b65f67d9240000000000000611a68565b6106d99190611ab4565b6106e4600287611a68565b6106ee9190611af3565b61070f84760a70c3c40a64e6c51999090b65f67d9240000000000000611a68565b61073084760a70c3c40a64e6c51999090b65f67d9240000000000000611a68565b61073a9190611ab4565b6107449086611af3565b61074e8585611ab4565b61076f89760a70c3c40a64e6c51999090b65f67d9240000000000000611af3565b6107799190611af3565b61078391906118b9565b61078d9190611ab4565b905061079882610f07565b98506107c27d0172ebad6ddc73c86d67c5faa71c245689c107950240000000000000000082611a68565b6107d390662386f26fc10000611af3565b975050505050505050915091565b6107e9610e5b565b60ff55565b6107f6610fe9565b8033670de0b6b3a76400008210156108765760405162461bcd60e51b815260206004820152603260248201527f44796e616d696353616c653a20284d696e42757929207265717569726564203160448201527f206574686572206d696e696d756d2062757900000000000000000000000000006064820152608401610483565b610888670de0b6b3a764000083611b7a565b156108fb5760405162461bcd60e51b815260206004820152603460248201527f44796e616d696353616c653a20284e6f6e57686f6c65556e697429206f6e6c7960448201527f2077686f6c6520756e69747320616c6c6f7765640000000000000000000000006064820152608401610483565b68056bc75e2d6310000082111561097a5760405162461bcd60e51b815260206004820152603a60248201527f44796e616d696353616c653a20286d6178427579416c6c6f77656429206d617860448201527f696d756d2062757961626c6520616d6f756e74206973203130300000000000006064820152608401610483565b60fb546040517f70a082310000000000000000000000000000000000000000000000000000000081526001600160a01b03838116600483015268319a2d041f4a6c00009285929116906370a082319060240160206040518083038186803b1580156109e457600080fd5b505afa1580156109f8573d6000803e3d6000fd5b505050506040513d601f19601f82011682018060405250810190610a1c9190611859565b610a2691906118a1565b1115610ac05760405162461bcd60e51b815260206004820152604a60248201527f44796e616d696353616c653a2077616c6c65742062616c616e6365202b20627560448201527f7920616d6f756e742065786365656473206d617842757961626c65416d6f756e60648201527f7450657257616c6c657400000000000000000000000000000000000000000000608482015260a401610483565b60ff5460fb54604080517f18160ddd000000000000000000000000000000000000000000000000000000008152905185926001600160a01b0316916318160ddd916004808301926020929190829003018186803b158015610b2057600080fd5b505afa158015610b34573d6000803e3d6000fd5b505050506040513d601f19601f82011682018060405250810190610b589190611859565b610b6291906118a1565b1115610bd65760405162461bcd60e51b815260206004820152602f60248201527f44796e616d696353616c653a20284d6178537570706c7929206d6178696d756d60448201527f20737570706c79207265616368656400000000000000000000000000000000006064820152608401610483565b610bde61103c565b610be9333385611096565b610bf36001603355565b505050565b610c00610e5b565b60fe548111610c775760405162461bcd60e51b815260206004820152602f60248201527f4e65772070726963652063616e6e6f7420626520736d616c6c6572207468616e60448201527f2070726576696f757320707269636500000000000000000000000000000000006064820152608401610483565b60fe55565b610c84610e5b565b610100805473ffffffffffffffffffffffffffffffffffffffff19166001600160a01b0392909216919091179055565b610cbc610e5b565b609780546001600160a01b03831673ffffffffffffffffffffffffffffffffffffffff199091168117909155610cfa6065546001600160a01b031690565b6001600160a01b03167f38d16b8cac22d99fc7c124b9cd0de2d3fa1faef420bfe791d8c362d765e2270060405160405180910390a350565b600054610100900460ff1615808015610d525750600054600160ff909116105b80610d6c5750303b158015610d6c575060005460ff166001145b610dde5760405162461bcd60e51b815260206004820152602e60248201527f496e697469616c697a61626c653a20636f6e747261637420697320616c72656160448201527f647920696e697469616c697a65640000000000000000000000000000000000006064820152608401610483565b6000805460ff191660011790558015610e01576000805461ff0019166101001790555b610e0d8585858561118c565b8015610e54576000805461ff0019169055604051600181527f7f26b83ff96e1f2b6a682f133852f6798a09c465da95921460cefb3847402498906020015b60405180910390a15b5050505050565b6065546001600160a01b031633146103575760405162461bcd60e51b815260206004820181905260248201527f4f776e61626c653a2063616c6c6572206973206e6f7420746865206f776e65726044820152606401610483565b610ebd611211565b60c9805460ff191690557f5db9ee0a495bf2e6ff9c91a7834c1ba4fdd244a5e8aa4e537bd38aeae4b073aa335b6040516001600160a01b03909116815260200160405180910390a1565b60006101a47c012fdcd0410f3309ce43d7fab69021edb6b391c08174c000000000000073020bc07cac791dd0df0980a09e195da000000000610f4a600386611a2a565b610f549083611a68565b610f5f600287611a2a565b610f699083611a68565b610f739085611ab4565b610f7d91906118b9565b95945050505050565b6097805473ffffffffffffffffffffffffffffffffffffffff1916905561049581611263565b610fb4610fe9565b60c9805460ff191660011790557f62e78cea01bee320cd4e420270b5ea74000d11b0c9f74754ebdbfc544b05a258610eea3390565b60c95460ff16156103575760405162461bcd60e51b815260206004820152601060248201527f5061757361626c653a20706175736564000000000000000000000000000000006044820152606401610483565b6002603354141561108f5760405162461bcd60e51b815260206004820152601f60248201527f5265656e7472616e637947756172643a207265656e7472616e742063616c6c006044820152606401610483565b6002603355565b6000806110a2836104a8565b6101005460fc549294509092506110c8916001600160a01b0390811691889116846112c2565b60fe82905560fd546040517fda3d89500000000000000000000000000000000000000000000000000000000081526001600160a01b038681166004830152602482018690529091169063da3d895090604401600060405180830381600087803b15801561113457600080fd5b505af1158015611148573d6000803e3d6000fd5b5050604080516001600160a01b0388168152602081018790527f713df3a1a4347e31b25b460935fa547a51731eb4ba8af71edde8e0a1fe0a6d469350019050610e4b565b600054610100900460ff166111f75760405162461bcd60e51b815260206004820152602b60248201527f496e697469616c697a61626c653a20636f6e7472616374206973206e6f74206960448201526a6e697469616c697a696e6760a81b6064820152608401610483565b6112038484848461134a565b61120b61143e565b50505050565b60c95460ff166103575760405162461bcd60e51b815260206004820152601460248201527f5061757361626c653a206e6f74207061757365640000000000000000000000006044820152606401610483565b606580546001600160a01b0383811673ffffffffffffffffffffffffffffffffffffffff19831681179093556040519116919082907f8be0079c531659141344cd1fd0a4f28419497f9722a3daafe3b4186f6b6457e090600090a35050565b604080516001600160a01b0385811660248301528416604482015260648082018490528251808303909101815260849091019091526020810180517bffffffffffffffffffffffffffffffffffffffffffffffffffffffff167f23b872dd0000000000000000000000000000000000000000000000000000000017905261120b9085906114b1565b600054610100900460ff166113b55760405162461bcd60e51b815260206004820152602b60248201527f496e697469616c697a61626c653a20636f6e7472616374206973206e6f74206960448201526a6e697469616c697a696e6760a81b6064820152608401610483565b60fb80546001600160a01b0395861673ffffffffffffffffffffffffffffffffffffffff199182161790915560fc80549486169482169490941790935560fd8054928516928416929092179091556901697916cf6c00b0000060ff55610100805491909316911617905568debfd48195c014000061010155692a5a058fc295ed00000061010255565b600054610100900460ff166114a95760405162461bcd60e51b815260206004820152602b60248201527f496e697469616c697a61626c653a20636f6e7472616374206973206e6f74206960448201526a6e697469616c697a696e6760a81b6064820152608401610483565b610357611596565b6000611506826040518060400160405280602081526020017f5361666545524332303a206c6f772d6c6576656c2063616c6c206661696c6564815250856001600160a01b031661160a9092919063ffffffff16565b805190915015610bf357808060200190518101906115249190611b8e565b610bf35760405162461bcd60e51b815260206004820152602a60248201527f5361666545524332303a204552433230206f7065726174696f6e20646964206e60448201527f6f742073756363656564000000000000000000000000000000000000000000006064820152608401610483565b600054610100900460ff166116015760405162461bcd60e51b815260206004820152602b60248201527f496e697469616c697a61626c653a20636f6e7472616374206973206e6f74206960448201526a6e697469616c697a696e6760a81b6064820152608401610483565b61035733610f86565b60606116198484600085611621565b949350505050565b6060824710156116995760405162461bcd60e51b815260206004820152602660248201527f416464726573733a20696e73756666696369656e742062616c616e636520666f60448201527f722063616c6c00000000000000000000000000000000000000000000000000006064820152608401610483565b600080866001600160a01b031685876040516116b59190611bdc565b60006040518083038185875af1925050503d80600081146116f2576040519150601f19603f3d011682016040523d82523d6000602084013e6116f7565b606091505b509150915061170887838387611713565b979650505050505050565b6060831561177f578251611778576001600160a01b0385163b6117785760405162461bcd60e51b815260206004820152601d60248201527f416464726573733a2063616c6c20746f206e6f6e2d636f6e74726163740000006044820152606401610483565b5081611619565b61161983838151156117945781518083602001fd5b8060405162461bcd60e51b81526004016104839190611bf8565b6000602082840312156117c057600080fd5b5035919050565b80356001600160a01b03811681146117de57600080fd5b919050565b6000602082840312156117f557600080fd5b6117fe826117c7565b9392505050565b6000806000806080858703121561181b57600080fd5b611824856117c7565b9350611832602086016117c7565b9250611840604086016117c7565b915061184e606086016117c7565b905092959194509250565b60006020828403121561186b57600080fd5b5051919050565b7f4e487b7100000000000000000000000000000000000000000000000000000000600052601160045260246000fd5b600082198211156118b4576118b4611872565b500190565b6000808212826001600160ff1b03038413811516156118da576118da611872565b82600160ff1b0384128116156118f2576118f2611872565b50500190565b80825b600180861161190a575061193c565b816001600160ff1b030482111561192357611923611872565b8086161561193057918102915b9490941c9380026118fb565b935093915050565b600082801561195a57600181146119645761196d565b6001915050611a24565b82915050611a24565b508161197b57506000611a24565b506001600082138082146119945780156119b2576119cb565b826001600160ff1b03048311156119ad576119ad611872565b6119cb565b826001600160ff1b03058312156119cb576119cb611872565b50808316156119d75750805b6119e78360011c838402836118f8565b806001600160ff1b03048211600083131615611a0557611a05611872565b80600160ff1b058212600083121615611a2057611a20611872565b0290505b92915050565b60006117fe60ff841683611944565b7f4e487b7100000000000000000000000000000000000000000000000000000000600052601260045260246000fd5b600082611a7757611a77611a39565b7fffffffffffffffffffffffffffffffffffffffffffffffffffffffffffffffff8314600160ff1b83141615611aaf57611aaf611872565b500590565b600080831283600160ff1b01831281151615611ad257611ad2611872565b836001600160ff1b03018313811615611aed57611aed611872565b50500390565b60006001600160ff1b03600084136000841385830485118282161615611b1b57611b1b611872565b600160ff1b6000871286820588128184161615611b3a57611b3a611872565b60008712925087820587128484161615611b5657611b56611872565b87850587128184161615611b6c57611b6c611872565b505050929093029392505050565b600082611b8957611b89611a39565b500690565b600060208284031215611ba057600080fd5b815180151581146117fe57600080fd5b60005b83811015611bcb578181015183820152602001611bb3565b8381111561120b5750506000910152565b60008251611bee818460208701611bb0565b9190910192915050565b6020815260008251806020840152611c17816040850160208701611bb0565b601f017fffffffffffffffffffffffffffffffffffffffffffffffffffffffffffffffe016919091016040019291505056fea2646970667358221220061257e75a35dff9ee25962784de896984cd00474032902d49ad581ffbe4286964736f6c63430008090033",
  "devdoc": {
    "kind": "dev",
    "methods": {
      "acceptOwnership()": {
        "details": "The new owner accepts the ownership transfer."
      },
      "calculateCurrentPrice()": {
        "details": "calculates the current price of the token",
        "returns": {
          "_currentPrice": "The current price of the token, based on the current supply"
        }
      },
      "calculateTotalCost(uint256)": {
        "details": "the cost function based on formula as stated in the whitepaper",
        "params": {
          "amount": "amount of token to be bought"
        },
        "returns": {
          "newPrice": "TODO",
          "totalCost": "TODO"
        }
      },
      "owner()": {
        "details": "Returns the address of the current owner."
      },
      "paused()": {
        "details": "Returns true if the contract is paused, and false otherwise."
      },
      "pendingOwner()": {
        "details": "Returns the address of the pending owner."
      },
      "renounceOwnership()": {
        "details": "Leaves the contract without owner. It will not be possible to call `onlyOwner` functions anymore. Can only be called by the current owner. NOTE: Renouncing ownership will leave the contract without an owner, thereby removing any functionality that is only available to the owner."
      },
      "transferOwnership(address)": {
        "details": "Starts the ownership transfer of the contract to a new account. Replaces the pending transfer if there is one. Can only be called by the current owner."
      }
    },
    "stateVariables": {
      "priceCurveMaxValue": {
        "details": "maximum safe value for curve to protect against integer overflows"
      },
      "priceCurveMinValue": {
        "details": "mininum value for usable part of the curve"
      }
    },
    "version": 1
  },
  "userdoc": {
    "kind": "user",
    "methods": {
      "calculateCurrentPrice()": {
        "notice": "calculates the current price on the bonding curve"
      },
      "calculateTotalCost(uint256)": {
        "notice": "calculates the total cost of the amount to be bought from curve"
      }
    },
    "version": 1
  },
  "storageLayout": {
    "storage": [
      {
        "astId": 244,
        "contract": "src/Crowdsale/DynamicPriceSale.sol:DynamicSale",
        "label": "_initialized",
        "offset": 0,
        "slot": "0",
        "type": "t_uint8"
      },
      {
        "astId": 247,
        "contract": "src/Crowdsale/DynamicPriceSale.sol:DynamicSale",
        "label": "_initializing",
        "offset": 1,
        "slot": "0",
        "type": "t_bool"
      },
      {
        "astId": 1963,
        "contract": "src/Crowdsale/DynamicPriceSale.sol:DynamicSale",
        "label": "__gap",
        "offset": 0,
        "slot": "1",
        "type": "t_array(t_uint256)50_storage"
      },
      {
        "astId": 547,
        "contract": "src/Crowdsale/DynamicPriceSale.sol:DynamicSale",
        "label": "_status",
        "offset": 0,
        "slot": "51",
        "type": "t_uint256"
      },
      {
        "astId": 605,
        "contract": "src/Crowdsale/DynamicPriceSale.sol:DynamicSale",
        "label": "__gap",
        "offset": 0,
        "slot": "52",
        "type": "t_array(t_uint256)49_storage"
      },
      {
        "astId": 116,
        "contract": "src/Crowdsale/DynamicPriceSale.sol:DynamicSale",
        "label": "_owner",
        "offset": 0,
        "slot": "101",
        "type": "t_address"
      },
      {
        "astId": 236,
        "contract": "src/Crowdsale/DynamicPriceSale.sol:DynamicSale",
        "label": "__gap",
        "offset": 0,
        "slot": "102",
        "type": "t_array(t_uint256)49_storage"
      },
      {
        "astId": 25,
        "contract": "src/Crowdsale/DynamicPriceSale.sol:DynamicSale",
        "label": "_pendingOwner",
        "offset": 0,
        "slot": "151",
        "type": "t_address"
      },
      {
        "astId": 104,
        "contract": "src/Crowdsale/DynamicPriceSale.sol:DynamicSale",
        "label": "__gap",
        "offset": 0,
        "slot": "152",
        "type": "t_array(t_uint256)49_storage"
      },
      {
        "astId": 427,
        "contract": "src/Crowdsale/DynamicPriceSale.sol:DynamicSale",
        "label": "_paused",
        "offset": 0,
        "slot": "201",
        "type": "t_bool"
      },
      {
        "astId": 532,
        "contract": "src/Crowdsale/DynamicPriceSale.sol:DynamicSale",
        "label": "__gap",
        "offset": 0,
        "slot": "202",
        "type": "t_array(t_uint256)49_storage"
      },
      {
        "astId": 11171,
        "contract": "src/Crowdsale/DynamicPriceSale.sol:DynamicSale",
        "label": "token",
        "offset": 0,
        "slot": "251",
        "type": "t_contract(IERC20Upgradeable)1296"
      },
      {
        "astId": 11174,
        "contract": "src/Crowdsale/DynamicPriceSale.sol:DynamicSale",
        "label": "quote",
        "offset": 0,
        "slot": "252",
        "type": "t_contract(IERC20Upgradeable)1296"
      },
      {
        "astId": 11177,
        "contract": "src/Crowdsale/DynamicPriceSale.sol:DynamicSale",
        "label": "minter",
        "offset": 0,
        "slot": "253",
        "type": "t_contract(IMinterDAO)11150"
      },
      {
        "astId": 11179,
        "contract": "src/Crowdsale/DynamicPriceSale.sol:DynamicSale",
        "label": "currentPrice",
        "offset": 0,
        "slot": "254",
        "type": "t_uint256"
      },
      {
        "astId": 11181,
        "contract": "src/Crowdsale/DynamicPriceSale.sol:DynamicSale",
        "label": "saleHardCap",
        "offset": 0,
        "slot": "255",
        "type": "t_uint256"
      },
      {
        "astId": 11183,
        "contract": "src/Crowdsale/DynamicPriceSale.sol:DynamicSale",
        "label": "treasury",
        "offset": 0,
        "slot": "256",
        "type": "t_address"
      },
      {
        "astId": 11186,
        "contract": "src/Crowdsale/DynamicPriceSale.sol:DynamicSale",
        "label": "priceCurveMinValue",
        "offset": 0,
        "slot": "257",
        "type": "t_uint256"
      },
      {
        "astId": 11189,
        "contract": "src/Crowdsale/DynamicPriceSale.sol:DynamicSale",
        "label": "priceCurveMaxValue",
        "offset": 0,
        "slot": "258",
        "type": "t_uint256"
      }
    ],
    "types": {
      "t_address": {
        "encoding": "inplace",
        "label": "address",
        "numberOfBytes": "20"
      },
      "t_array(t_uint256)49_storage": {
        "base": "t_uint256",
        "encoding": "inplace",
        "label": "uint256[49]",
        "numberOfBytes": "1568"
      },
      "t_array(t_uint256)50_storage": {
        "base": "t_uint256",
        "encoding": "inplace",
        "label": "uint256[50]",
        "numberOfBytes": "1600"
      },
      "t_bool": {
        "encoding": "inplace",
        "label": "bool",
        "numberOfBytes": "1"
      },
      "t_contract(IERC20Upgradeable)1296": {
        "encoding": "inplace",
        "label": "contract IERC20Upgradeable",
        "numberOfBytes": "20"
      },
      "t_contract(IMinterDAO)11150": {
        "encoding": "inplace",
        "label": "contract IMinterDAO",
        "numberOfBytes": "20"
      },
      "t_uint256": {
        "encoding": "inplace",
        "label": "uint256",
        "numberOfBytes": "32"
      },
      "t_uint8": {
        "encoding": "inplace",
        "label": "uint8",
        "numberOfBytes": "1"
      }
    }
  }
}