{
  "address": "0xc035042D32f4f4549D5C2D35902Bc85A3Ec0cb2f",
  "abi": [
    {
      "anonymous": false,
      "inputs": [
        {
          "indexed": false,
          "internalType": "uint8",
          "name": "version",
          "type": "uint8"
        }
      ],
      "name": "Initialized",
      "type": "event"
    },
    {
      "anonymous": false,
      "inputs": [
        {
          "indexed": true,
          "internalType": "address",
          "name": "previousOwner",
          "type": "address"
        },
        {
          "indexed": true,
          "internalType": "address",
          "name": "newOwner",
          "type": "address"
        }
      ],
      "name": "OwnershipTransferStarted",
      "type": "event"
    },
    {
      "anonymous": false,
      "inputs": [
        {
          "indexed": true,
          "internalType": "address",
          "name": "previousOwner",
          "type": "address"
        },
        {
          "indexed": true,
          "internalType": "address",
          "name": "newOwner",
          "type": "address"
        }
      ],
      "name": "OwnershipTransferred",
      "type": "event"
    },
    {
      "anonymous": false,
      "inputs": [
        {
          "indexed": false,
          "internalType": "address",
          "name": "account",
          "type": "address"
        }
      ],
      "name": "Paused",
      "type": "event"
    },
    {
      "anonymous": false,
      "inputs": [
        {
          "indexed": false,
          "internalType": "address",
          "name": "to",
          "type": "address"
        },
        {
          "indexed": false,
          "internalType": "uint256",
          "name": "amount",
          "type": "uint256"
        }
      ],
      "name": "SuccessBuy",
      "type": "event"
    },
    {
      "anonymous": false,
      "inputs": [
        {
          "indexed": false,
          "internalType": "address",
          "name": "account",
          "type": "address"
        }
      ],
      "name": "Unpaused",
      "type": "event"
    },
    {
      "inputs": [],
      "name": "MAX_BUYABLE_AMOUNT_PER_WALLET",
      "outputs": [
        {
          "internalType": "uint256",
          "name": "",
          "type": "uint256"
        }
      ],
      "stateMutability": "view",
      "type": "function"
    },
    {
      "inputs": [],
      "name": "acceptOwnership",
      "outputs": [],
      "stateMutability": "nonpayable",
      "type": "function"
    },
    {
      "inputs": [
        {
          "internalType": "uint256",
          "name": "amount",
          "type": "uint256"
        }
      ],
      "name": "buy",
      "outputs": [],
      "stateMutability": "nonpayable",
      "type": "function"
    },
    {
      "inputs": [
        {
          "internalType": "address",
          "name": "spender",
          "type": "address"
        },
        {
          "internalType": "address",
          "name": "to",
          "type": "address"
        },
        {
          "internalType": "uint256",
          "name": "amount",
          "type": "uint256"
        }
      ],
      "name": "buyFrom",
      "outputs": [],
      "stateMutability": "nonpayable",
      "type": "function"
    },
    {
      "inputs": [],
      "name": "calculateCurrentPrice",
      "outputs": [
        {
          "internalType": "uint256",
          "name": "_currentPrice",
          "type": "uint256"
        }
      ],
      "stateMutability": "view",
      "type": "function"
    },
    {
      "inputs": [
        {
          "internalType": "uint256",
          "name": "amount",
          "type": "uint256"
        }
      ],
      "name": "calculateTotalCost",
      "outputs": [
        {
          "internalType": "uint256",
          "name": "newPrice",
          "type": "uint256"
        },
        {
          "internalType": "uint256",
          "name": "totalCost",
          "type": "uint256"
        }
      ],
      "stateMutability": "view",
      "type": "function"
    },
    {
      "inputs": [],
      "name": "currentPrice",
      "outputs": [
        {
          "internalType": "uint256",
          "name": "",
          "type": "uint256"
        }
      ],
      "stateMutability": "view",
      "type": "function"
    },
    {
      "inputs": [
        {
          "internalType": "address",
          "name": "token_",
          "type": "address"
        },
        {
          "internalType": "address",
          "name": "quote_",
          "type": "address"
        },
        {
          "internalType": "address",
          "name": "minter_",
          "type": "address"
        },
        {
          "internalType": "address",
          "name": "treasury_",
          "type": "address"
        }
      ],
      "name": "initialize",
      "outputs": [],
      "stateMutability": "nonpayable",
      "type": "function"
    },
    {
      "inputs": [],
      "name": "minter",
      "outputs": [
        {
          "internalType": "contract IMinterDAO",
          "name": "",
          "type": "address"
        }
      ],
      "stateMutability": "view",
      "type": "function"
    },
    {
      "inputs": [],
      "name": "owner",
      "outputs": [
        {
          "internalType": "address",
          "name": "",
          "type": "address"
        }
      ],
      "stateMutability": "view",
      "type": "function"
    },
    {
      "inputs": [],
      "name": "pause",
      "outputs": [],
      "stateMutability": "nonpayable",
      "type": "function"
    },
    {
      "inputs": [],
      "name": "paused",
      "outputs": [
        {
          "internalType": "bool",
          "name": "",
          "type": "bool"
        }
      ],
      "stateMutability": "view",
      "type": "function"
    },
    {
      "inputs": [],
      "name": "pendingOwner",
      "outputs": [
        {
          "internalType": "address",
          "name": "",
          "type": "address"
        }
      ],
      "stateMutability": "view",
      "type": "function"
    },
    {
      "inputs": [],
      "name": "priceCurveMaxValue",
      "outputs": [
        {
          "internalType": "uint256",
          "name": "",
          "type": "uint256"
        }
      ],
      "stateMutability": "view",
      "type": "function"
    },
    {
      "inputs": [],
      "name": "priceCurveMinValue",
      "outputs": [
        {
          "internalType": "uint256",
          "name": "",
          "type": "uint256"
        }
      ],
      "stateMutability": "view",
      "type": "function"
    },
    {
      "inputs": [],
      "name": "quote",
      "outputs": [
        {
          "internalType": "contract IERC20Upgradeable",
          "name": "",
          "type": "address"
        }
      ],
      "stateMutability": "view",
      "type": "function"
    },
    {
      "inputs": [],
      "name": "renounceOwnership",
      "outputs": [],
      "stateMutability": "nonpayable",
      "type": "function"
    },
    {
      "inputs": [],
      "name": "saleHardCap",
      "outputs": [
        {
          "internalType": "uint256",
          "name": "",
          "type": "uint256"
        }
      ],
      "stateMutability": "view",
      "type": "function"
    },
    {
      "inputs": [
        {
          "internalType": "uint256",
          "name": "supply",
          "type": "uint256"
        }
      ],
      "name": "setMaxLiquidSupply",
      "outputs": [],
      "stateMutability": "nonpayable",
      "type": "function"
    },
    {
      "inputs": [
        {
          "internalType": "uint256",
          "name": "newPrice",
          "type": "uint256"
        }
      ],
      "name": "setNewPrice",
      "outputs": [],
      "stateMutability": "nonpayable",
      "type": "function"
    },
    {
      "inputs": [
        {
          "internalType": "address",
          "name": "treasury_",
          "type": "address"
        }
      ],
      "name": "setTreasury",
      "outputs": [],
      "stateMutability": "nonpayable",
      "type": "function"
    },
    {
      "inputs": [],
      "name": "token",
      "outputs": [
        {
          "internalType": "contract IERC20Upgradeable",
          "name": "",
          "type": "address"
        }
      ],
      "stateMutability": "view",
      "type": "function"
    },
    {
      "inputs": [
        {
          "internalType": "address",
          "name": "newOwner",
          "type": "address"
        }
      ],
      "name": "transferOwnership",
      "outputs": [],
      "stateMutability": "nonpayable",
      "type": "function"
    },
    {
      "inputs": [],
      "name": "treasury",
      "outputs": [
        {
          "internalType": "address",
          "name": "",
          "type": "address"
        }
      ],
      "stateMutability": "view",
      "type": "function"
    },
    {
      "inputs": [],
      "name": "unpause",
      "outputs": [],
      "stateMutability": "nonpayable",
      "type": "function"
    }
  ],
  "transactionHash": "0x0f572290ad9c1c5a85d64220ba037cb8e00be426b73fe6b917b0962a4f258eea",
  "args": [],
  "numDeployments": 1,
  "solcInputHash": "2cfa9fd16ccb4ea87446dcd78df92a64",
  "bytecode": "0x608060405234801561001057600080fd5b506120e8806100206000396000f3fe608060405234801561001057600080fd5b50600436106101a35760003560e01c8063999b93af116100ee578063d96a094a11610097578063f0f4426011610071578063f0f4426014610319578063f2fde38b1461032c578063f8c8765e1461033f578063fc0c546a1461035257600080fd5b8063d96a094a146102e2578063e30c3978146102f5578063ee8cdd4e1461030657600080fd5b8063b03e591c116100c8578063b03e591c146102bb578063b22520c9146102ce578063b33a4207146102d857600080fd5b8063999b93af1461028c5780639d1b464a1461029f578063adb132e4146102a857600080fd5b8063715018a6116101505780638da5cb5b1161012a5780638da5cb5b146102435780638dd963031461025457806398efca541461026457600080fd5b8063715018a61461022b57806379ba5097146102335780638456cb591461023b57600080fd5b80635c975abb116101815780635c975abb146101f857806361d027b31461020e57806365baf2431461022257600080fd5b806307546172146101a85780633f4ba83a146101d85780634d31c57a146101e2575b600080fd5b60fd546101bb906001600160a01b031681565b6040516001600160a01b0390911681526020015b60405180910390f35b6101e0610365565b005b6101ea610377565b6040519081526020016101cf565b60c95460ff1660405190151581526020016101cf565b610100546101bb906001600160a01b031681565b6101ea60ff5481565b6101e0610411565b6101e0610423565b6101e06104b6565b6065546001600160a01b03166101bb565b6101ea68319a2d041f4a6c000081565b610277610272366004611bd7565b6104c6565b604080519283526020830191909152016101cf565b60fc546101bb906001600160a01b031681565b6101ea60fe5481565b6101e06102b6366004611bd7565b6107ff565b6101e06102c9366004611c0c565b61080c565b6101ea6101015481565b6101ea6101025481565b6101e06102f0366004611bd7565b610c18565b6097546001600160a01b03166101bb565b6101e0610314366004611bd7565b611022565b6101e0610327366004611c48565b6110a6565b6101e061033a366004611c48565b6110de565b6101e061034d366004611c6a565b61115c565b60fb546101bb906001600160a01b031681565b61036d611284565b6103756112de565b565b60008060fb60009054906101000a90046001600160a01b03166001600160a01b03166318160ddd6040518163ffffffff1660e01b815260040160206040518083038186803b1580156103c857600080fd5b505afa1580156103dc573d6000803e3d6000fd5b505050506040513d601f19601f820116820180604052508101906104009190611cbe565b905061040b81611330565b91505090565b610419611284565b61037560006113af565b60975433906001600160a01b031681146104aa5760405162461bcd60e51b815260206004820152602960248201527f4f776e61626c6532537465703a2063616c6c6572206973206e6f74207468652060448201527f6e6577206f776e6572000000000000000000000000000000000000000000000060648201526084015b60405180910390fd5b6104b3816113af565b50565b6104be611284565b6103756113d5565b600080600060fb60009054906101000a90046001600160a01b03166001600160a01b03166318160ddd6040518163ffffffff1660e01b815260040160206040518083038186803b15801561051957600080fd5b505afa15801561052d573d6000803e3d6000fd5b505050506040513d601f19601f820116820180604052508101906105519190611cbe565b9050610101548110156105cc5760405162461bcd60e51b815260206004820152602860248201527f44796e616d696353616c653a2063757272656e7420746f74616c537570706c7960448201527f20746f6f206c6f7700000000000000000000000000000000000000000000000060648201526084016104a1565b610102546105da8583611d06565b111561064e5760405162461bcd60e51b815260206004820152602660248201527f44796e616d696353616c653a20746f74616c537570706c79206c696d6974207260448201527f656163686564000000000000000000000000000000000000000000000000000060648201526084016104a1565b6101a47c012fdcd0410f3309ce43d7fab69021edb6b391c08174c000000000000073020bc07cac791dd0df0980a09e195da0000000008360006106918983611d1e565b905060006106a0600284611e93565b6106c190760a70c3c40a64e6c51999090b65f67d9240000000000000611ed1565b6106cc600284611e93565b6106ed90760a70c3c40a64e6c51999090b65f67d9240000000000000611ed1565b6106f79190611f1d565b610702600287611ed1565b61070c9190611f5c565b61072d84760a70c3c40a64e6c51999090b65f67d9240000000000000611ed1565b61074e84760a70c3c40a64e6c51999090b65f67d9240000000000000611ed1565b6107589190611f1d565b6107629086611f5c565b61076c8585611f1d565b61078d89760a70c3c40a64e6c51999090b65f67d9240000000000000611f5c565b6107979190611f5c565b6107a19190611d1e565b6107ab9190611f1d565b90506107b682611330565b98506107e07d0172ebad6ddc73c86d67c5faa71c245689c107950240000000000000000082611ed1565b6107f190662386f26fc10000611f5c565b975050505050505050915091565b610807611284565b60ff55565b610814611412565b8082670de0b6b3a76400008210156108945760405162461bcd60e51b815260206004820152603260248201527f44796e616d696353616c653a20284d696e42757929207265717569726564203160448201527f206574686572206d696e696d756d20627579000000000000000000000000000060648201526084016104a1565b6108a6670de0b6b3a764000083611fe3565b156109195760405162461bcd60e51b815260206004820152603460248201527f44796e616d696353616c653a20284e6f6e57686f6c65556e697429206f6e6c7960448201527f2077686f6c6520756e69747320616c6c6f77656400000000000000000000000060648201526084016104a1565b68056bc75e2d631000008211156109985760405162461bcd60e51b815260206004820152603a60248201527f44796e616d696353616c653a20286d6178427579416c6c6f77656429206d617860448201527f696d756d2062757961626c6520616d6f756e742069732031303000000000000060648201526084016104a1565b60fb546040517f70a082310000000000000000000000000000000000000000000000000000000081526001600160a01b03838116600483015268319a2d041f4a6c00009285929116906370a082319060240160206040518083038186803b158015610a0257600080fd5b505afa158015610a16573d6000803e3d6000fd5b505050506040513d601f19601f82011682018060405250810190610a3a9190611cbe565b610a449190611d06565b1115610ade5760405162461bcd60e51b815260206004820152604a60248201527f44796e616d696353616c653a2077616c6c65742062616c616e6365202b20627560448201527f7920616d6f756e742065786365656473206d617842757961626c65416d6f756e60648201527f7450657257616c6c657400000000000000000000000000000000000000000000608482015260a4016104a1565b60ff5460fb54604080517f18160ddd000000000000000000000000000000000000000000000000000000008152905185926001600160a01b0316916318160ddd916004808301926020929190829003018186803b158015610b3e57600080fd5b505afa158015610b52573d6000803e3d6000fd5b505050506040513d601f19601f82011682018060405250810190610b769190611cbe565b610b809190611d06565b1115610bf45760405162461bcd60e51b815260206004820152602f60248201527f44796e616d696353616c653a20284d6178537570706c7929206d6178696d756d60448201527f20737570706c792072656163686564000000000000000000000000000000000060648201526084016104a1565b610bfc611465565b610c078585856114bf565b610c116001603355565b5050505050565b610c20611412565b8033670de0b6b3a7640000821015610ca05760405162461bcd60e51b815260206004820152603260248201527f44796e616d696353616c653a20284d696e42757929207265717569726564203160448201527f206574686572206d696e696d756d20627579000000000000000000000000000060648201526084016104a1565b610cb2670de0b6b3a764000083611fe3565b15610d255760405162461bcd60e51b815260206004820152603460248201527f44796e616d696353616c653a20284e6f6e57686f6c65556e697429206f6e6c7960448201527f2077686f6c6520756e69747320616c6c6f77656400000000000000000000000060648201526084016104a1565b68056bc75e2d63100000821115610da45760405162461bcd60e51b815260206004820152603a60248201527f44796e616d696353616c653a20286d6178427579416c6c6f77656429206d617860448201527f696d756d2062757961626c6520616d6f756e742069732031303000000000000060648201526084016104a1565b60fb546040517f70a082310000000000000000000000000000000000000000000000000000000081526001600160a01b03838116600483015268319a2d041f4a6c00009285929116906370a082319060240160206040518083038186803b158015610e0e57600080fd5b505afa158015610e22573d6000803e3d6000fd5b505050506040513d601f19601f82011682018060405250810190610e469190611cbe565b610e509190611d06565b1115610eea5760405162461bcd60e51b815260206004820152604a60248201527f44796e616d696353616c653a2077616c6c65742062616c616e6365202b20627560448201527f7920616d6f756e742065786365656473206d617842757961626c65416d6f756e60648201527f7450657257616c6c657400000000000000000000000000000000000000000000608482015260a4016104a1565b60ff5460fb54604080517f18160ddd000000000000000000000000000000000000000000000000000000008152905185926001600160a01b0316916318160ddd916004808301926020929190829003018186803b158015610f4a57600080fd5b505afa158015610f5e573d6000803e3d6000fd5b505050506040513d601f19601f82011682018060405250810190610f829190611cbe565b610f8c9190611d06565b11156110005760405162461bcd60e51b815260206004820152602f60248201527f44796e616d696353616c653a20284d6178537570706c7929206d6178696d756d60448201527f20737570706c792072656163686564000000000000000000000000000000000060648201526084016104a1565b611008611465565b6110133333856114bf565b61101d6001603355565b505050565b61102a611284565b60fe5481116110a15760405162461bcd60e51b815260206004820152602f60248201527f4e65772070726963652063616e6e6f7420626520736d616c6c6572207468616e60448201527f2070726576696f7573207072696365000000000000000000000000000000000060648201526084016104a1565b60fe55565b6110ae611284565b610100805473ffffffffffffffffffffffffffffffffffffffff19166001600160a01b0392909216919091179055565b6110e6611284565b609780546001600160a01b03831673ffffffffffffffffffffffffffffffffffffffff1990911681179091556111246065546001600160a01b031690565b6001600160a01b03167f38d16b8cac22d99fc7c124b9cd0de2d3fa1faef420bfe791d8c362d765e2270060405160405180910390a350565b600054610100900460ff161580801561117c5750600054600160ff909116105b806111965750303b158015611196575060005460ff166001145b6112085760405162461bcd60e51b815260206004820152602e60248201527f496e697469616c697a61626c653a20636f6e747261637420697320616c72656160448201527f647920696e697469616c697a656400000000000000000000000000000000000060648201526084016104a1565b6000805460ff19166001179055801561122b576000805461ff0019166101001790555b611237858585856115b5565b8015610c11576000805461ff0019169055604051600181527f7f26b83ff96e1f2b6a682f133852f6798a09c465da95921460cefb3847402498906020015b60405180910390a15050505050565b6065546001600160a01b031633146103755760405162461bcd60e51b815260206004820181905260248201527f4f776e61626c653a2063616c6c6572206973206e6f7420746865206f776e657260448201526064016104a1565b6112e661163a565b60c9805460ff191690557f5db9ee0a495bf2e6ff9c91a7834c1ba4fdd244a5e8aa4e537bd38aeae4b073aa335b6040516001600160a01b03909116815260200160405180910390a1565b60006101a47c012fdcd0410f3309ce43d7fab69021edb6b391c08174c000000000000073020bc07cac791dd0df0980a09e195da000000000611373600386611e93565b61137d9083611ed1565b611388600287611e93565b6113929083611ed1565b61139c9085611f1d565b6113a69190611d1e565b95945050505050565b6097805473ffffffffffffffffffffffffffffffffffffffff191690556104b38161168c565b6113dd611412565b60c9805460ff191660011790557f62e78cea01bee320cd4e420270b5ea74000d11b0c9f74754ebdbfc544b05a2586113133390565b60c95460ff16156103755760405162461bcd60e51b815260206004820152601060248201527f5061757361626c653a207061757365640000000000000000000000000000000060448201526064016104a1565b600260335414156114b85760405162461bcd60e51b815260206004820152601f60248201527f5265656e7472616e637947756172643a207265656e7472616e742063616c6c0060448201526064016104a1565b6002603355565b6000806114cb836104c6565b6101005460fc549294509092506114f1916001600160a01b0390811691889116846116eb565b60fe82905560fd546040517fda3d89500000000000000000000000000000000000000000000000000000000081526001600160a01b038681166004830152602482018690529091169063da3d895090604401600060405180830381600087803b15801561155d57600080fd5b505af1158015611571573d6000803e3d6000fd5b5050604080516001600160a01b0388168152602081018790527f713df3a1a4347e31b25b460935fa547a51731eb4ba8af71edde8e0a1fe0a6d469350019050611275565b600054610100900460ff166116205760405162461bcd60e51b815260206004820152602b60248201527f496e697469616c697a61626c653a20636f6e7472616374206973206e6f74206960448201526a6e697469616c697a696e6760a81b60648201526084016104a1565b61162c84848484611773565b611634611867565b50505050565b60c95460ff166103755760405162461bcd60e51b815260206004820152601460248201527f5061757361626c653a206e6f742070617573656400000000000000000000000060448201526064016104a1565b606580546001600160a01b0383811673ffffffffffffffffffffffffffffffffffffffff19831681179093556040519116919082907f8be0079c531659141344cd1fd0a4f28419497f9722a3daafe3b4186f6b6457e090600090a35050565b604080516001600160a01b0385811660248301528416604482015260648082018490528251808303909101815260849091019091526020810180517bffffffffffffffffffffffffffffffffffffffffffffffffffffffff167f23b872dd000000000000000000000000000000000000000000000000000000001790526116349085906118da565b600054610100900460ff166117de5760405162461bcd60e51b815260206004820152602b60248201527f496e697469616c697a61626c653a20636f6e7472616374206973206e6f74206960448201526a6e697469616c697a696e6760a81b60648201526084016104a1565b60fb80546001600160a01b0395861673ffffffffffffffffffffffffffffffffffffffff199182161790915560fc80549486169482169490941790935560fd8054928516928416929092179091556901697916cf6c00b0000060ff55610100805491909316911617905568debfd48195c014000061010155692a5a058fc295ed00000061010255565b600054610100900460ff166118d25760405162461bcd60e51b815260206004820152602b60248201527f496e697469616c697a61626c653a20636f6e7472616374206973206e6f74206960448201526a6e697469616c697a696e6760a81b60648201526084016104a1565b6103756119bf565b600061192f826040518060400160405280602081526020017f5361666545524332303a206c6f772d6c6576656c2063616c6c206661696c6564815250856001600160a01b0316611a339092919063ffffffff16565b80519091501561101d578080602001905181019061194d9190611ff7565b61101d5760405162461bcd60e51b815260206004820152602a60248201527f5361666545524332303a204552433230206f7065726174696f6e20646964206e60448201527f6f7420737563636565640000000000000000000000000000000000000000000060648201526084016104a1565b600054610100900460ff16611a2a5760405162461bcd60e51b815260206004820152602b60248201527f496e697469616c697a61626c653a20636f6e7472616374206973206e6f74206960448201526a6e697469616c697a696e6760a81b60648201526084016104a1565b610375336113af565b6060611a428484600085611a4a565b949350505050565b606082471015611ac25760405162461bcd60e51b815260206004820152602660248201527f416464726573733a20696e73756666696369656e742062616c616e636520666f60448201527f722063616c6c000000000000000000000000000000000000000000000000000060648201526084016104a1565b600080866001600160a01b03168587604051611ade9190612045565b60006040518083038185875af1925050503d8060008114611b1b576040519150601f19603f3d011682016040523d82523d6000602084013e611b20565b606091505b5091509150611b3187838387611b3c565b979650505050505050565b60608315611ba8578251611ba1576001600160a01b0385163b611ba15760405162461bcd60e51b815260206004820152601d60248201527f416464726573733a2063616c6c20746f206e6f6e2d636f6e747261637400000060448201526064016104a1565b5081611a42565b611a428383815115611bbd5781518083602001fd5b8060405162461bcd60e51b81526004016104a19190612061565b600060208284031215611be957600080fd5b5035919050565b80356001600160a01b0381168114611c0757600080fd5b919050565b600080600060608486031215611c2157600080fd5b611c2a84611bf0565b9250611c3860208501611bf0565b9150604084013590509250925092565b600060208284031215611c5a57600080fd5b611c6382611bf0565b9392505050565b60008060008060808587031215611c8057600080fd5b611c8985611bf0565b9350611c9760208601611bf0565b9250611ca560408601611bf0565b9150611cb360608601611bf0565b905092959194509250565b600060208284031215611cd057600080fd5b5051919050565b7f4e487b7100000000000000000000000000000000000000000000000000000000600052601160045260246000fd5b60008219821115611d1957611d19611cd7565b500190565b6000808212826001600160ff1b0303841381151615611d3f57611d3f611cd7565b82600160ff1b038412811615611d5757611d57611cd7565b50500190565b80826001600160ff1b035b6001808711611d775750611da4565b828204831115611d8957611d89611cd7565b80871615611d9657928202925b9590951c9490800290611d68565b50935093915050565b6000828015611dc35760018114611dcd57611dd6565b6001915050611e8d565b82915050611e8d565b5081611de457506000611e8d565b50600160008213808214611dfd578015611e1b57611e34565b826001600160ff1b0304831115611e1657611e16611cd7565b611e34565b826001600160ff1b0305831215611e3457611e34611cd7565b5080831615611e405750805b611e508360011c83840283611d5d565b806001600160ff1b03048211600083131615611e6e57611e6e611cd7565b80600160ff1b058212600083121615611e8957611e89611cd7565b0290505b92915050565b6000611c6360ff841683611dad565b7f4e487b7100000000000000000000000000000000000000000000000000000000600052601260045260246000fd5b600082611ee057611ee0611ea2565b7fffffffffffffffffffffffffffffffffffffffffffffffffffffffffffffffff8314600160ff1b83141615611f1857611f18611cd7565b500590565b600080831283600160ff1b01831281151615611f3b57611f3b611cd7565b836001600160ff1b03018313811615611f5657611f56611cd7565b50500390565b60006001600160ff1b03600084136000841385830485118282161615611f8457611f84611cd7565b600160ff1b6000871286820588128184161615611fa357611fa3611cd7565b60008712925087820587128484161615611fbf57611fbf611cd7565b87850587128184161615611fd557611fd5611cd7565b505050929093029392505050565b600082611ff257611ff2611ea2565b500690565b60006020828403121561200957600080fd5b81518015158114611c6357600080fd5b60005b8381101561203457818101518382015260200161201c565b838111156116345750506000910152565b60008251612057818460208701612019565b9190910192915050565b6020815260008251806020840152612080816040850160208701612019565b601f017fffffffffffffffffffffffffffffffffffffffffffffffffffffffffffffffe016919091016040019291505056fea26469706673582212208b24ae96d161b27269181f4702172e7d25237116300499088bcc49bde5395ccd64736f6c63430008090033",
  "devdoc": {
    "kind": "dev",
    "methods": {
      "acceptOwnership()": {
        "details": "The new owner accepts the ownership transfer."
      },
      "calculateCurrentPrice()": {
        "details": "calculates the current price of the token",
        "returns": {
          "_currentPrice": "The current price of the token, based on the current supply"
        }
      },
      "calculateTotalCost(uint256)": {
        "details": "the cost function based on formula as stated in the whitepaper",
        "params": {
          "amount": "amount of token to be bought"
        },
        "returns": {
          "newPrice": "TODO",
          "totalCost": "TODO"
        }
      },
      "owner()": {
        "details": "Returns the address of the current owner."
      },
      "paused()": {
        "details": "Returns true if the contract is paused, and false otherwise."
      },
      "pendingOwner()": {
        "details": "Returns the address of the pending owner."
      },
      "renounceOwnership()": {
        "details": "Leaves the contract without owner. It will not be possible to call `onlyOwner` functions anymore. Can only be called by the current owner. NOTE: Renouncing ownership will leave the contract without an owner, thereby removing any functionality that is only available to the owner."
      },
      "transferOwnership(address)": {
        "details": "Starts the ownership transfer of the contract to a new account. Replaces the pending transfer if there is one. Can only be called by the current owner."
      }
    },
    "stateVariables": {
      "priceCurveMaxValue": {
        "details": "maximum safe value for curve to protect against integer overflows"
      },
      "priceCurveMinValue": {
        "details": "mininum value for usable part of the curve"
      }
    },
    "version": 1
  },
  "userdoc": {
    "kind": "user",
    "methods": {
      "calculateCurrentPrice()": {
        "notice": "calculates the current price on the bonding curve"
      },
      "calculateTotalCost(uint256)": {
        "notice": "calculates the total cost of the amount to be bought from curve"
      }
    },
    "version": 1
  },
  "storageLayout": {
    "storage": [
      {
        "astId": 244,
        "contract": "src/Crowdsale/DynamicPriceSale.sol:DynamicSale",
        "label": "_initialized",
        "offset": 0,
        "slot": "0",
        "type": "t_uint8"
      },
      {
        "astId": 247,
        "contract": "src/Crowdsale/DynamicPriceSale.sol:DynamicSale",
        "label": "_initializing",
        "offset": 1,
        "slot": "0",
        "type": "t_bool"
      },
      {
        "astId": 1963,
        "contract": "src/Crowdsale/DynamicPriceSale.sol:DynamicSale",
        "label": "__gap",
        "offset": 0,
        "slot": "1",
        "type": "t_array(t_uint256)50_storage"
      },
      {
        "astId": 547,
        "contract": "src/Crowdsale/DynamicPriceSale.sol:DynamicSale",
        "label": "_status",
        "offset": 0,
        "slot": "51",
        "type": "t_uint256"
      },
      {
        "astId": 605,
        "contract": "src/Crowdsale/DynamicPriceSale.sol:DynamicSale",
        "label": "__gap",
        "offset": 0,
        "slot": "52",
        "type": "t_array(t_uint256)49_storage"
      },
      {
        "astId": 116,
        "contract": "src/Crowdsale/DynamicPriceSale.sol:DynamicSale",
        "label": "_owner",
        "offset": 0,
        "slot": "101",
        "type": "t_address"
      },
      {
        "astId": 236,
        "contract": "src/Crowdsale/DynamicPriceSale.sol:DynamicSale",
        "label": "__gap",
        "offset": 0,
        "slot": "102",
        "type": "t_array(t_uint256)49_storage"
      },
      {
        "astId": 25,
        "contract": "src/Crowdsale/DynamicPriceSale.sol:DynamicSale",
        "label": "_pendingOwner",
        "offset": 0,
        "slot": "151",
        "type": "t_address"
      },
      {
        "astId": 104,
        "contract": "src/Crowdsale/DynamicPriceSale.sol:DynamicSale",
        "label": "__gap",
        "offset": 0,
        "slot": "152",
        "type": "t_array(t_uint256)49_storage"
      },
      {
        "astId": 427,
        "contract": "src/Crowdsale/DynamicPriceSale.sol:DynamicSale",
        "label": "_paused",
        "offset": 0,
        "slot": "201",
        "type": "t_bool"
      },
      {
        "astId": 532,
        "contract": "src/Crowdsale/DynamicPriceSale.sol:DynamicSale",
        "label": "__gap",
        "offset": 0,
        "slot": "202",
        "type": "t_array(t_uint256)49_storage"
      },
      {
        "astId": 11171,
        "contract": "src/Crowdsale/DynamicPriceSale.sol:DynamicSale",
        "label": "token",
        "offset": 0,
        "slot": "251",
        "type": "t_contract(IERC20Upgradeable)1296"
      },
      {
        "astId": 11174,
        "contract": "src/Crowdsale/DynamicPriceSale.sol:DynamicSale",
        "label": "quote",
        "offset": 0,
        "slot": "252",
        "type": "t_contract(IERC20Upgradeable)1296"
      },
      {
        "astId": 11177,
        "contract": "src/Crowdsale/DynamicPriceSale.sol:DynamicSale",
        "label": "minter",
        "offset": 0,
        "slot": "253",
        "type": "t_contract(IMinterDAO)11150"
      },
      {
        "astId": 11179,
        "contract": "src/Crowdsale/DynamicPriceSale.sol:DynamicSale",
        "label": "currentPrice",
        "offset": 0,
        "slot": "254",
        "type": "t_uint256"
      },
      {
        "astId": 11181,
        "contract": "src/Crowdsale/DynamicPriceSale.sol:DynamicSale",
        "label": "saleHardCap",
        "offset": 0,
        "slot": "255",
        "type": "t_uint256"
      },
      {
        "astId": 11183,
        "contract": "src/Crowdsale/DynamicPriceSale.sol:DynamicSale",
        "label": "treasury",
        "offset": 0,
        "slot": "256",
        "type": "t_address"
      },
      {
        "astId": 11186,
        "contract": "src/Crowdsale/DynamicPriceSale.sol:DynamicSale",
        "label": "priceCurveMinValue",
        "offset": 0,
        "slot": "257",
        "type": "t_uint256"
      },
      {
        "astId": 11189,
        "contract": "src/Crowdsale/DynamicPriceSale.sol:DynamicSale",
        "label": "priceCurveMaxValue",
        "offset": 0,
        "slot": "258",
        "type": "t_uint256"
      }
    ],
    "types": {
      "t_address": {
        "encoding": "inplace",
        "label": "address",
        "numberOfBytes": "20"
      },
      "t_array(t_uint256)49_storage": {
        "base": "t_uint256",
        "encoding": "inplace",
        "label": "uint256[49]",
        "numberOfBytes": "1568"
      },
      "t_array(t_uint256)50_storage": {
        "base": "t_uint256",
        "encoding": "inplace",
        "label": "uint256[50]",
        "numberOfBytes": "1600"
      },
      "t_bool": {
        "encoding": "inplace",
        "label": "bool",
        "numberOfBytes": "1"
      },
      "t_contract(IERC20Upgradeable)1296": {
        "encoding": "inplace",
        "label": "contract IERC20Upgradeable",
        "numberOfBytes": "20"
      },
      "t_contract(IMinterDAO)11150": {
        "encoding": "inplace",
        "label": "contract IMinterDAO",
        "numberOfBytes": "20"
      },
      "t_uint256": {
        "encoding": "inplace",
        "label": "uint256",
        "numberOfBytes": "32"
      },
      "t_uint8": {
        "encoding": "inplace",
        "label": "uint8",
        "numberOfBytes": "1"
      }
    }
  }
}