{
  "address": "0x9195050537C0cE27300cD3d9cD93A3081d30e36a",
  "abi": [
    {
      "anonymous": false,
      "inputs": [
        {
          "indexed": false,
          "internalType": "address",
          "name": "account",
          "type": "address"
        },
        {
          "indexed": false,
          "internalType": "address",
          "name": "executer",
          "type": "address"
        }
      ],
      "name": "MemberAdded",
      "type": "event"
    },
    {
      "anonymous": false,
      "inputs": [
        {
          "indexed": false,
          "internalType": "address",
          "name": "account",
          "type": "address"
        },
        {
          "indexed": false,
          "internalType": "address",
          "name": "executer",
          "type": "address"
        }
      ],
      "name": "MemberRemoved",
      "type": "event"
    },
    {
      "inputs": [
        {
          "internalType": "address",
          "name": "account",
          "type": "address"
        }
      ],
      "name": "addMember",
      "outputs": [],
      "stateMutability": "nonpayable",
      "type": "function"
    },
    {
      "inputs": [
        {
          "internalType": "address",
          "name": "account",
          "type": "address"
        }
      ],
      "name": "isMember",
      "outputs": [
        {
          "internalType": "bool",
          "name": "",
          "type": "bool"
        }
      ],
      "stateMutability": "view",
      "type": "function"
    },
    {
      "inputs": [
        {
          "internalType": "uint256",
          "name": "index_",
          "type": "uint256"
        }
      ],
      "name": "memberAt",
      "outputs": [
        {
          "internalType": "address",
          "name": "",
          "type": "address"
        }
      ],
      "stateMutability": "view",
      "type": "function"
    },
    {
      "inputs": [],
      "name": "memberList",
      "outputs": [
        {
          "internalType": "address[]",
          "name": "",
          "type": "address[]"
        }
      ],
      "stateMutability": "view",
      "type": "function"
    },
    {
      "inputs": [],
      "name": "membersLength",
      "outputs": [
        {
          "internalType": "uint256",
          "name": "",
          "type": "uint256"
        }
      ],
      "stateMutability": "view",
      "type": "function"
    },
    {
      "inputs": [
        {
          "internalType": "address",
          "name": "account",
          "type": "address"
        }
      ],
      "name": "removeMember",
      "outputs": [],
      "stateMutability": "nonpayable",
      "type": "function"
    }
  ],
  "transactionHash": "0xc95a707a9e202f93b273dbc326f4efd55e29c3281ebe6fbaa98355b41ebc5b68",
  "args": [],
  "numDeployments": 1,
  "solcInputHash": "2cfa9fd16ccb4ea87446dcd78df92a64",
  "bytecode": "0x608060405234801561001057600080fd5b50610b18806100206000396000f3fe608060405234801561001057600080fd5b50600436106100725760003560e01c8063ac0250f711610050578063ac0250f7146100ca578063ca6d56dc14610102578063f2ad35d51461011557600080fd5b80630b1ca49a146100775780630f027c671461008c578063a230c524146100a7575b600080fd5b61008a610085366004610898565b61012a565b005b610094610230565b6040519081526020015b60405180910390f35b6100ba6100b5366004610898565b610241565b604051901515815260200161009e565b6100dd6100d83660046108ce565b610254565b60405173ffffffffffffffffffffffffffffffffffffffff909116815260200161009e565b61008a610110366004610898565b610261565b61011d61030c565b60405161009e91906108e7565b7ff10a648816c66bb82e4981275deb41e7b5a299976e94da6857c2183fb90d411e610156600182610318565b610161600883610327565b6101d85760405162461bcd60e51b815260206004820152602760248201527f4d656d6265727368697046616365743a206d656d62657220646f6573206e6f7460448201527f206578697374730000000000000000000000000000000000000000000000000060648201526084015b60405180910390fd5b7faa91016c21c52c58ac64f23f71bbe75becc9ada603e18ee671d09ff15492d1c182335b6040805173ffffffffffffffffffffffffffffffffffffffff93841681529290911660208301520160405180910390a15050565b600061023c600861033a565b905090565b600061024e600883610345565b92915050565b600061024e600883610351565b7ff10a648816c66bb82e4981275deb41e7b5a299976e94da6857c2183fb90d411e61028d600182610318565b61029860088361035d565b6102e45760405162461bcd60e51b815260206004820152601e60248201527f4d656d6265727368697046616365743a206d656d62657220657869737473000060448201526064016101cf565b7f6a2af11b2d73f347f9d5840aea46899e17609730b5cd91bd9c312098038acba682336101fc565b606061023c6008610369565b610323828233610374565b5050565b60006103338383610411565b9392505050565b600061024e82610433565b6000610333838361043d565b6000610333838361046c565b60006103338383610478565b606061024e8261049a565b60008281526020848152604080832073ffffffffffffffffffffffffffffffffffffffff8516845290915290205460ff1661040c576103ca8173ffffffffffffffffffffffffffffffffffffffff1660146104a7565b6103d58360206104a7565b6040516020016103e6929190610971565b60408051601f198184030181529082905262461bcd60e51b82526101cf916004016109f2565b505050565b60006103338373ffffffffffffffffffffffffffffffffffffffff84166106d0565b600061024e825490565b73ffffffffffffffffffffffffffffffffffffffff811660009081526001830160205260408120541515610333565b600061033383836107c3565b60006103338373ffffffffffffffffffffffffffffffffffffffff84166107ed565b606060006103338361083c565b606060006104b6836002610a3b565b6104c1906002610a5a565b67ffffffffffffffff8111156104d9576104d9610a72565b6040519080825280601f01601f191660200182016040528015610503576020820181803683370190505b5090507f30000000000000000000000000000000000000000000000000000000000000008160008151811061053a5761053a610a88565b60200101907effffffffffffffffffffffffffffffffffffffffffffffffffffffffffffff1916908160001a9053507f78000000000000000000000000000000000000000000000000000000000000008160018151811061059d5761059d610a88565b60200101907effffffffffffffffffffffffffffffffffffffffffffffffffffffffffffff1916908160001a90535060006105d9846002610a3b565b6105e4906001610a5a565b90505b6001811115610681577f303132333435363738396162636465660000000000000000000000000000000085600f166010811061062557610625610a88565b1a60f81b82828151811061063b5761063b610a88565b60200101907effffffffffffffffffffffffffffffffffffffffffffffffffffffffffffff1916908160001a90535060049490941c9361067a81610a9e565b90506105e7565b5083156103335760405162461bcd60e51b815260206004820181905260248201527f537472696e67733a20686578206c656e67746820696e73756666696369656e7460448201526064016101cf565b600081815260018301602052604081205480156107b95760006106f4600183610ab5565b855490915060009061070890600190610ab5565b905081811461076d57600086600001828154811061072857610728610a88565b906000526020600020015490508087600001848154811061074b5761074b610a88565b6000918252602080832090910192909255918252600188019052604090208390555b855486908061077e5761077e610acc565b60019003818190600052602060002001600090559055856001016000868152602001908152602001600020600090556001935050505061024e565b600091505061024e565b60008260000182815481106107da576107da610a88565b9060005260206000200154905092915050565b60008181526001830160205260408120546108345750815460018181018455600084815260208082209093018490558454848252828601909352604090209190915561024e565b50600061024e565b60608160000180548060200260200160405190810160405280929190818152602001828054801561088c57602002820191906000526020600020905b815481526020019060010190808311610878575b50505050509050919050565b6000602082840312156108aa57600080fd5b813573ffffffffffffffffffffffffffffffffffffffff8116811461033357600080fd5b6000602082840312156108e057600080fd5b5035919050565b6020808252825182820181905260009190848201906040850190845b8181101561093557835173ffffffffffffffffffffffffffffffffffffffff1683529284019291840191600101610903565b50909695505050505050565b60005b8381101561095c578181015183820152602001610944565b8381111561096b576000848401525b50505050565b7f416363657373436f6e74726f6c3a206163636f756e74200000000000000000008152600083516109a9816017850160208801610941565b7f206973206d697373696e6720726f6c652000000000000000000000000000000060179184019182015283516109e6816028840160208801610941565b01602801949350505050565b6020815260008251806020840152610a11816040850160208701610941565b601f01601f19169190910160400192915050565b634e487b7160e01b600052601160045260246000fd5b6000816000190483118215151615610a5557610a55610a25565b500290565b60008219821115610a6d57610a6d610a25565b500190565b634e487b7160e01b600052604160045260246000fd5b634e487b7160e01b600052603260045260246000fd5b600081610aad57610aad610a25565b506000190190565b600082821015610ac757610ac7610a25565b500390565b634e487b7160e01b600052603160045260246000fdfea264697066735822122098bcf38637c56d1b357a55808e58cd0332ea8a51107a33192a756f53edf765b564736f6c63430008090033",
  "devdoc": {
    "kind": "dev",
    "methods": {},
    "version": 1
  },
  "userdoc": {
    "kind": "user",
    "methods": {},
    "version": 1
  },
  "storageLayout": {
    "storage": [
      {
        "astId": 19057,
        "contract": "src/diamond/facets/MembershipFacet.sol:MembershipFacet",
        "label": "s",
        "offset": 0,
        "slot": "0",
        "type": "t_struct(AppStorage)19025_storage"
      }
    ],
    "types": {
      "t_address": {
        "encoding": "inplace",
        "label": "address",
        "numberOfBytes": "20"
      },
      "t_array(t_bytes32)dyn_storage": {
        "base": "t_bytes32",
        "encoding": "dynamic_array",
        "label": "bytes32[]",
        "numberOfBytes": "32"
      },
      "t_bool": {
        "encoding": "inplace",
        "label": "bool",
        "numberOfBytes": "1"
      },
      "t_bytes32": {
        "encoding": "inplace",
        "label": "bytes32",
        "numberOfBytes": "32"
      },
      "t_contract(IERC20)4139": {
        "encoding": "inplace",
        "label": "contract IERC20",
        "numberOfBytes": "20"
      },
      "t_enum(BookingStatus)19324": {
        "encoding": "inplace",
        "label": "enum BookingMapLib.BookingStatus",
        "numberOfBytes": "1"
      },
      "t_int128": {
        "encoding": "inplace",
        "label": "int128",
        "numberOfBytes": "16"
      },
      "t_mapping(t_address,t_bool)": {
        "encoding": "mapping",
        "key": "t_address",
        "label": "mapping(address => bool)",
        "numberOfBytes": "32",
        "value": "t_bool"
      },
      "t_mapping(t_address,t_struct(Store)20517_storage)": {
        "encoding": "mapping",
        "key": "t_address",
        "label": "mapping(address => struct OrderedStakeLib.Store)",
        "numberOfBytes": "32",
        "value": "t_struct(Store)20517_storage"
      },
      "t_mapping(t_address,t_struct(UserStore)19359_storage)": {
        "encoding": "mapping",
        "key": "t_address",
        "label": "mapping(address => struct BookingMapLib.UserStore)",
        "numberOfBytes": "32",
        "value": "t_struct(UserStore)19359_storage"
      },
      "t_mapping(t_bytes32,t_bytes32)": {
        "encoding": "mapping",
        "key": "t_bytes32",
        "label": "mapping(bytes32 => bytes32)",
        "numberOfBytes": "32",
        "value": "t_bytes32"
      },
      "t_mapping(t_bytes32,t_struct(AddressSet)9466_storage)": {
        "encoding": "mapping",
        "key": "t_bytes32",
        "label": "mapping(bytes32 => struct EnumerableSet.AddressSet)",
        "numberOfBytes": "32",
        "value": "t_struct(AddressSet)9466_storage"
      },
      "t_mapping(t_bytes32,t_struct(Booking)19336_storage)": {
        "encoding": "mapping",
        "key": "t_bytes32",
        "label": "mapping(bytes32 => struct BookingMapLib.Booking)",
        "numberOfBytes": "32",
        "value": "t_struct(Booking)19336_storage"
      },
      "t_mapping(t_bytes32,t_struct(RoleData)18604_storage)": {
        "encoding": "mapping",
        "key": "t_bytes32",
        "label": "mapping(bytes32 => struct AccessControlLib.RoleData)",
        "numberOfBytes": "32",
        "value": "t_struct(RoleData)18604_storage"
      },
      "t_mapping(t_bytes32,t_struct(Year)19370_storage)": {
        "encoding": "mapping",
        "key": "t_bytes32",
        "label": "mapping(bytes32 => struct BookingMapLib.Year)",
        "numberOfBytes": "32",
        "value": "t_struct(Year)19370_storage"
      },
      "t_mapping(t_bytes32,t_uint256)": {
        "encoding": "mapping",
        "key": "t_bytes32",
        "label": "mapping(bytes32 => uint256)",
        "numberOfBytes": "32",
        "value": "t_uint256"
      },
      "t_mapping(t_int128,t_bytes32)": {
        "encoding": "mapping",
        "key": "t_int128",
        "label": "mapping(int128 => bytes32)",
        "numberOfBytes": "32",
        "value": "t_bytes32"
      },
      "t_mapping(t_uint16,t_struct(Bytes32ToUintMap)8971_storage)": {
        "encoding": "mapping",
        "key": "t_uint16",
        "label": "mapping(uint16 => struct EnumerableMap.Bytes32ToUintMap)",
        "numberOfBytes": "32",
        "value": "t_struct(Bytes32ToUintMap)8971_storage"
      },
      "t_mapping(t_uint16,t_uint16)": {
        "encoding": "mapping",
        "key": "t_uint16",
        "label": "mapping(uint16 => uint16)",
        "numberOfBytes": "32",
        "value": "t_uint16"
      },
      "t_mapping(t_uint16,t_uint256)": {
        "encoding": "mapping",
        "key": "t_uint16",
        "label": "mapping(uint16 => uint256)",
        "numberOfBytes": "32",
        "value": "t_uint256"
      },
      "t_struct(AddressSet)9466_storage": {
        "encoding": "inplace",
        "label": "struct EnumerableSet.AddressSet",
        "members": [
          {
            "astId": 9465,
            "contract": "src/diamond/facets/MembershipFacet.sol:MembershipFacet",
            "label": "_inner",
            "offset": 0,
            "slot": "0",
            "type": "t_struct(Set)9165_storage"
          }
        ],
        "numberOfBytes": "64"
      },
      "t_struct(AppStorage)19025_storage": {
        "encoding": "inplace",
        "label": "struct AppStorage",
        "members": [
          {
            "astId": 18998,
            "contract": "src/diamond/facets/MembershipFacet.sol:MembershipFacet",
            "label": "initialized",
            "offset": 0,
            "slot": "0",
            "type": "t_bool"
          },
          {
            "astId": 19000,
            "contract": "src/diamond/facets/MembershipFacet.sol:MembershipFacet",
            "label": "paused",
            "offset": 1,
            "slot": "0",
            "type": "t_bool"
          },
          {
            "astId": 19003,
            "contract": "src/diamond/facets/MembershipFacet.sol:MembershipFacet",
            "label": "communityToken",
            "offset": 2,
            "slot": "0",
            "type": "t_contract(IERC20)4139"
          },
          {
            "astId": 19006,
            "contract": "src/diamond/facets/MembershipFacet.sol:MembershipFacet",
            "label": "_roleStore",
            "offset": 0,
            "slot": "1",
            "type": "t_struct(RoleStore)18615_storage"
          },
          {
            "astId": 19011,
            "contract": "src/diamond/facets/MembershipFacet.sol:MembershipFacet",
            "label": "_accommodationBookings",
            "offset": 0,
            "slot": "3",
            "type": "t_mapping(t_address,t_struct(UserStore)19359_storage)"
          },
          {
            "astId": 19014,
            "contract": "src/diamond/facets/MembershipFacet.sol:MembershipFacet",
            "label": "_accommodationYears",
            "offset": 0,
            "slot": "4",
            "type": "t_struct(YearsStore)19379_storage"
          },
          {
            "astId": 19019,
            "contract": "src/diamond/facets/MembershipFacet.sol:MembershipFacet",
            "label": "staking",
            "offset": 0,
            "slot": "7",
            "type": "t_mapping(t_address,t_struct(Store)20517_storage)"
          },
          {
            "astId": 19022,
            "contract": "src/diamond/facets/MembershipFacet.sol:MembershipFacet",
            "label": "members",
            "offset": 0,
            "slot": "8",
            "type": "t_struct(Store)20391_storage"
          },
          {
            "astId": 19024,
            "contract": "src/diamond/facets/MembershipFacet.sol:MembershipFacet",
            "label": "tdfTreasury",
            "offset": 0,
            "slot": "10",
            "type": "t_address"
          }
        ],
        "numberOfBytes": "352"
      },
      "t_struct(Booking)19336_storage": {
        "encoding": "inplace",
        "label": "struct BookingMapLib.Booking",
        "members": [
          {
            "astId": 19327,
            "contract": "src/diamond/facets/MembershipFacet.sol:MembershipFacet",
            "label": "status",
            "offset": 0,
            "slot": "0",
            "type": "t_enum(BookingStatus)19324"
          },
          {
            "astId": 19329,
            "contract": "src/diamond/facets/MembershipFacet.sol:MembershipFacet",
            "label": "year",
            "offset": 1,
            "slot": "0",
            "type": "t_uint16"
          },
          {
            "astId": 19331,
            "contract": "src/diamond/facets/MembershipFacet.sol:MembershipFacet",
            "label": "dayOfYear",
            "offset": 3,
            "slot": "0",
            "type": "t_uint16"
          },
          {
            "astId": 19333,
            "contract": "src/diamond/facets/MembershipFacet.sol:MembershipFacet",
            "label": "price",
            "offset": 0,
            "slot": "1",
            "type": "t_uint256"
          },
          {
            "astId": 19335,
            "contract": "src/diamond/facets/MembershipFacet.sol:MembershipFacet",
            "label": "timestamp",
            "offset": 0,
            "slot": "2",
            "type": "t_uint256"
          }
        ],
        "numberOfBytes": "96"
      },
      "t_struct(Bytes32Deque)14716_storage": {
        "encoding": "inplace",
        "label": "struct CustomDoubleEndedQueue.Bytes32Deque",
        "members": [
          {
            "astId": 14709,
            "contract": "src/diamond/facets/MembershipFacet.sol:MembershipFacet",
            "label": "_begin",
            "offset": 0,
            "slot": "0",
            "type": "t_int128"
          },
          {
            "astId": 14711,
            "contract": "src/diamond/facets/MembershipFacet.sol:MembershipFacet",
            "label": "_end",
            "offset": 16,
            "slot": "0",
            "type": "t_int128"
          },
          {
            "astId": 14715,
            "contract": "src/diamond/facets/MembershipFacet.sol:MembershipFacet",
            "label": "_data",
            "offset": 0,
            "slot": "1",
            "type": "t_mapping(t_int128,t_bytes32)"
          }
        ],
        "numberOfBytes": "64"
      },
      "t_struct(Bytes32Set)9359_storage": {
        "encoding": "inplace",
        "label": "struct EnumerableSet.Bytes32Set",
        "members": [
          {
            "astId": 9358,
            "contract": "src/diamond/facets/MembershipFacet.sol:MembershipFacet",
            "label": "_inner",
            "offset": 0,
            "slot": "0",
            "type": "t_struct(Set)9165_storage"
          }
        ],
        "numberOfBytes": "64"
      },
      "t_struct(Bytes32ToBytes32Map)8048_storage": {
        "encoding": "inplace",
        "label": "struct EnumerableMap.Bytes32ToBytes32Map",
        "members": [
          {
            "astId": 8043,
            "contract": "src/diamond/facets/MembershipFacet.sol:MembershipFacet",
            "label": "_keys",
            "offset": 0,
            "slot": "0",
            "type": "t_struct(Bytes32Set)9359_storage"
          },
          {
            "astId": 8047,
            "contract": "src/diamond/facets/MembershipFacet.sol:MembershipFacet",
            "label": "_values",
            "offset": 0,
            "slot": "2",
            "type": "t_mapping(t_bytes32,t_bytes32)"
          }
        ],
        "numberOfBytes": "96"
      },
      "t_struct(Bytes32ToUintMap)8971_storage": {
        "encoding": "inplace",
        "label": "struct EnumerableMap.Bytes32ToUintMap",
        "members": [
          {
            "astId": 8970,
            "contract": "src/diamond/facets/MembershipFacet.sol:MembershipFacet",
            "label": "_inner",
            "offset": 0,
            "slot": "0",
            "type": "t_struct(Bytes32ToBytes32Map)8048_storage"
          }
        ],
        "numberOfBytes": "96"
      },
      "t_struct(RoleData)18604_storage": {
        "encoding": "inplace",
        "label": "struct AccessControlLib.RoleData",
        "members": [
          {
            "astId": 18601,
            "contract": "src/diamond/facets/MembershipFacet.sol:MembershipFacet",
            "label": "members",
            "offset": 0,
            "slot": "0",
            "type": "t_mapping(t_address,t_bool)"
          },
          {
            "astId": 18603,
            "contract": "src/diamond/facets/MembershipFacet.sol:MembershipFacet",
            "label": "adminRole",
            "offset": 0,
            "slot": "1",
            "type": "t_bytes32"
          }
        ],
        "numberOfBytes": "64"
      },
      "t_struct(RoleStore)18615_storage": {
        "encoding": "inplace",
        "label": "struct AccessControlLib.RoleStore",
        "members": [
          {
            "astId": 18609,
            "contract": "src/diamond/facets/MembershipFacet.sol:MembershipFacet",
            "label": "_roles",
            "offset": 0,
            "slot": "0",
            "type": "t_mapping(t_bytes32,t_struct(RoleData)18604_storage)"
          },
          {
            "astId": 18614,
            "contract": "src/diamond/facets/MembershipFacet.sol:MembershipFacet",
            "label": "_roleMembers",
            "offset": 0,
            "slot": "1",
            "type": "t_mapping(t_bytes32,t_struct(AddressSet)9466_storage)"
          }
        ],
        "numberOfBytes": "64"
      },
      "t_struct(Set)9165_storage": {
        "encoding": "inplace",
        "label": "struct EnumerableSet.Set",
        "members": [
          {
            "astId": 9160,
            "contract": "src/diamond/facets/MembershipFacet.sol:MembershipFacet",
            "label": "_values",
            "offset": 0,
            "slot": "0",
            "type": "t_array(t_bytes32)dyn_storage"
          },
          {
            "astId": 9164,
            "contract": "src/diamond/facets/MembershipFacet.sol:MembershipFacet",
            "label": "_indexes",
            "offset": 0,
            "slot": "1",
            "type": "t_mapping(t_bytes32,t_uint256)"
          }
        ],
        "numberOfBytes": "64"
      },
      "t_struct(Store)20391_storage": {
        "encoding": "inplace",
        "label": "struct MembershipLib.Store",
        "members": [
          {
            "astId": 20390,
            "contract": "src/diamond/facets/MembershipFacet.sol:MembershipFacet",
            "label": "_inner",
            "offset": 0,
            "slot": "0",
            "type": "t_struct(AddressSet)9466_storage"
          }
        ],
        "numberOfBytes": "64"
      },
      "t_struct(Store)20517_storage": {
        "encoding": "inplace",
        "label": "struct OrderedStakeLib.Store",
        "members": [
          {
            "astId": 20509,
            "contract": "src/diamond/facets/MembershipFacet.sol:MembershipFacet",
            "label": "_balance",
            "offset": 0,
            "slot": "0",
            "type": "t_uint256"
          },
          {
            "astId": 20512,
            "contract": "src/diamond/facets/MembershipFacet.sol:MembershipFacet",
            "label": "_queue",
            "offset": 0,
            "slot": "1",
            "type": "t_struct(Bytes32Deque)14716_storage"
          },
          {
            "astId": 20516,
            "contract": "src/diamond/facets/MembershipFacet.sol:MembershipFacet",
            "label": "_amounts",
            "offset": 0,
            "slot": "3",
            "type": "t_mapping(t_bytes32,t_uint256)"
          }
        ],
        "numberOfBytes": "128"
      },
      "t_struct(UserStore)19359_storage": {
        "encoding": "inplace",
        "label": "struct BookingMapLib.UserStore",
        "members": [
          {
            "astId": 19340,
            "contract": "src/diamond/facets/MembershipFacet.sol:MembershipFacet",
            "label": "nights",
            "offset": 0,
            "slot": "0",
            "type": "t_mapping(t_uint16,t_uint16)"
          },
          {
            "astId": 19344,
            "contract": "src/diamond/facets/MembershipFacet.sol:MembershipFacet",
            "label": "balance",
            "offset": 0,
            "slot": "1",
            "type": "t_mapping(t_uint16,t_uint256)"
          },
          {
            "astId": 19349,
            "contract": "src/diamond/facets/MembershipFacet.sol:MembershipFacet",
            "label": "dates",
            "offset": 0,
            "slot": "2",
            "type": "t_mapping(t_uint16,t_struct(Bytes32ToUintMap)8971_storage)"
          },
          {
            "astId": 19354,
            "contract": "src/diamond/facets/MembershipFacet.sol:MembershipFacet",
            "label": "bookings",
            "offset": 0,
            "slot": "3",
            "type": "t_mapping(t_bytes32,t_struct(Booking)19336_storage)"
          },
          {
            "astId": 19358,
            "contract": "src/diamond/facets/MembershipFacet.sol:MembershipFacet",
            "label": "checkedInNights",
            "offset": 0,
            "slot": "4",
            "type": "t_mapping(t_uint16,t_uint16)"
          }
        ],
        "numberOfBytes": "160"
      },
      "t_struct(Year)19370_storage": {
        "encoding": "inplace",
        "label": "struct BookingMapLib.Year",
        "members": [
          {
            "astId": 19361,
            "contract": "src/diamond/facets/MembershipFacet.sol:MembershipFacet",
            "label": "number",
            "offset": 0,
            "slot": "0",
            "type": "t_uint16"
          },
          {
            "astId": 19363,
            "contract": "src/diamond/facets/MembershipFacet.sol:MembershipFacet",
            "label": "leapYear",
            "offset": 2,
            "slot": "0",
            "type": "t_bool"
          },
          {
            "astId": 19365,
            "contract": "src/diamond/facets/MembershipFacet.sol:MembershipFacet",
            "label": "start",
            "offset": 0,
            "slot": "1",
            "type": "t_uint256"
          },
          {
            "astId": 19367,
            "contract": "src/diamond/facets/MembershipFacet.sol:MembershipFacet",
            "label": "end",
            "offset": 0,
            "slot": "2",
            "type": "t_uint256"
          },
          {
            "astId": 19369,
            "contract": "src/diamond/facets/MembershipFacet.sol:MembershipFacet",
            "label": "enabled",
            "offset": 0,
            "slot": "3",
            "type": "t_bool"
          }
        ],
        "numberOfBytes": "128"
      },
      "t_struct(YearsStore)19379_storage": {
        "encoding": "inplace",
        "label": "struct BookingMapLib.YearsStore",
        "members": [
          {
            "astId": 19373,
            "contract": "src/diamond/facets/MembershipFacet.sol:MembershipFacet",
            "label": "_inner",
            "offset": 0,
            "slot": "0",
            "type": "t_struct(Bytes32Set)9359_storage"
          },
          {
            "astId": 19378,
            "contract": "src/diamond/facets/MembershipFacet.sol:MembershipFacet",
            "label": "elems",
            "offset": 0,
            "slot": "2",
            "type": "t_mapping(t_bytes32,t_struct(Year)19370_storage)"
          }
        ],
        "numberOfBytes": "96"
      },
      "t_uint16": {
        "encoding": "inplace",
        "label": "uint16",
        "numberOfBytes": "2"
      },
      "t_uint256": {
        "encoding": "inplace",
        "label": "uint256",
        "numberOfBytes": "32"
      }
    }
  }
}