{
  "address": "0x06FFe751B58C6A421b32CA47edDBac82686598A7",
  "abi": [
    {
      "inputs": [],
      "name": "ApproveNotAllowed",
      "type": "error"
    },
    {
      "inputs": [
        {
          "internalType": "uint256",
          "name": "nonDecayedAmountToBurn",
          "type": "uint256"
        },
        {
          "internalType": "uint256",
          "name": "decayedAmountToBurn",
          "type": "uint256"
        },
        {
          "internalType": "uint256",
          "name": "nonDecayedUserBalance",
          "type": "uint256"
        },
        {
          "internalType": "uint256",
          "name": "decayedUserBalance",
          "type": "uint256"
        }
      ],
      "name": "BurnAmountExceedsDecayedBalance",
      "type": "error"
    },
    {
      "inputs": [],
      "name": "BurnDataEmpty",
      "type": "error"
    },
    {
      "inputs": [
        {
          "internalType": "address",
          "name": "invalidDaoAddress",
          "type": "address"
        }
      ],
      "name": "InvalidDaoAddress",
      "type": "error"
    },
    {
      "inputs": [
        {
          "internalType": "uint256",
          "name": "value",
          "type": "uint256"
        },
        {
          "internalType": "uint256",
          "name": "maxAllowedValue",
          "type": "uint256"
        }
      ],
      "name": "InvalidDecayRatePerDay",
      "type": "error"
    },
    {
      "inputs": [],
      "name": "MintDataEmpty",
      "type": "error"
    },
    {
      "inputs": [],
      "name": "MintWithZeroAmount",
      "type": "error"
    },
    {
      "inputs": [],
      "name": "TransferNotAllowed",
      "type": "error"
    },
    {
      "inputs": [
        {
          "internalType": "address",
          "name": "sender",
          "type": "address"
        },
        {
          "internalType": "string[]",
          "name": "allowedRoles",
          "type": "string[]"
        }
      ],
      "name": "Unauthorized",
      "type": "error"
    },
    {
      "anonymous": false,
      "inputs": [
        {
          "indexed": true,
          "internalType": "address",
          "name": "owner",
          "type": "address"
        },
        {
          "indexed": true,
          "internalType": "address",
          "name": "spender",
          "type": "address"
        },
        {
          "indexed": false,
          "internalType": "uint256",
          "name": "value",
          "type": "uint256"
        }
      ],
      "name": "Approval",
      "type": "event"
    },
    {
      "anonymous": false,
      "inputs": [
        {
          "indexed": true,
          "internalType": "address",
          "name": "account",
          "type": "address"
        }
      ],
      "name": "BurnAllUserPresence",
      "type": "event"
    },
    {
      "anonymous": false,
      "inputs": [
        {
          "indexed": true,
          "internalType": "address",
          "name": "account",
          "type": "address"
        },
        {
          "indexed": false,
          "internalType": "uint256",
          "name": "burnedAmount",
          "type": "uint256"
        },
        {
          "indexed": false,
          "internalType": "uint256",
          "name": "decayedBurnedAmount",
          "type": "uint256"
        },
        {
          "indexed": false,
          "internalType": "uint256",
          "name": "burnedForDaysAgo",
          "type": "uint256"
        }
      ],
      "name": "BurnWithDecay",
      "type": "event"
    },
    {
      "anonymous": false,
      "inputs": [
        {
          "indexed": true,
          "internalType": "address",
          "name": "oldAddress",
          "type": "address"
        },
        {
          "indexed": true,
          "internalType": "address",
          "name": "newAddress",
          "type": "address"
        }
      ],
      "name": "DaoAddressChanged",
      "type": "event"
    },
    {
      "anonymous": false,
      "inputs": [
        {
          "indexed": false,
          "internalType": "uint256",
          "name": "oldDecayRatePerDay",
          "type": "uint256"
        },
        {
          "indexed": false,
          "internalType": "uint256",
          "name": "newDecayRatePerDay",
          "type": "uint256"
        }
      ],
      "name": "DecayRatePerDayChanged",
      "type": "event"
    },
    {
      "anonymous": false,
      "inputs": [
        {
          "indexed": false,
          "internalType": "uint8",
          "name": "version",
          "type": "uint8"
        }
      ],
      "name": "Initialized",
      "type": "event"
    },
    {
      "anonymous": false,
      "inputs": [
        {
          "indexed": true,
          "internalType": "address",
          "name": "account",
          "type": "address"
        },
        {
          "indexed": false,
          "internalType": "uint256",
          "name": "mintedAmount",
          "type": "uint256"
        },
        {
          "indexed": false,
          "internalType": "uint256",
          "name": "decayedMintedAmount",
          "type": "uint256"
        },
        {
          "indexed": false,
          "internalType": "uint256",
          "name": "mintedForDaysAgo",
          "type": "uint256"
        }
      ],
      "name": "MintWithDecay",
      "type": "event"
    },
    {
      "anonymous": false,
      "inputs": [
        {
          "indexed": true,
          "internalType": "address",
          "name": "previousOwner",
          "type": "address"
        },
        {
          "indexed": true,
          "internalType": "address",
          "name": "newOwner",
          "type": "address"
        }
      ],
      "name": "OwnershipTransferStarted",
      "type": "event"
    },
    {
      "anonymous": false,
      "inputs": [
        {
          "indexed": true,
          "internalType": "address",
          "name": "previousOwner",
          "type": "address"
        },
        {
          "indexed": true,
          "internalType": "address",
          "name": "newOwner",
          "type": "address"
        }
      ],
      "name": "OwnershipTransferred",
      "type": "event"
    },
    {
      "anonymous": false,
      "inputs": [
        {
          "indexed": true,
          "internalType": "address",
          "name": "from",
          "type": "address"
        },
        {
          "indexed": true,
          "internalType": "address",
          "name": "to",
          "type": "address"
        },
        {
          "indexed": false,
          "internalType": "uint256",
          "name": "value",
          "type": "uint256"
        }
      ],
      "name": "Transfer",
      "type": "event"
    },
    {
      "inputs": [],
      "name": "DECAY_RATE_PER_DAY_DECIMALS",
      "outputs": [
        {
          "internalType": "uint256",
          "name": "",
          "type": "uint256"
        }
      ],
      "stateMutability": "view",
      "type": "function"
    },
    {
      "inputs": [],
      "name": "MAX_ALLOWED_ROUNDING_ERROR",
      "outputs": [
        {
          "internalType": "uint256",
          "name": "",
          "type": "uint256"
        }
      ],
      "stateMutability": "view",
      "type": "function"
    },
    {
      "inputs": [],
      "name": "MAX_DECAY_RATE_PER_DAY",
      "outputs": [
        {
          "internalType": "uint256",
          "name": "",
          "type": "uint256"
        }
      ],
      "stateMutability": "view",
      "type": "function"
    },
    {
      "inputs": [],
      "name": "PRECISION_SCALE",
      "outputs": [
        {
          "internalType": "uint256",
          "name": "",
          "type": "uint256"
        }
      ],
      "stateMutability": "view",
      "type": "function"
    },
    {
      "inputs": [],
      "name": "acceptOwnership",
      "outputs": [],
      "stateMutability": "nonpayable",
      "type": "function"
    },
    {
      "inputs": [
        {
          "internalType": "address",
          "name": "owner",
          "type": "address"
        },
        {
          "internalType": "address",
          "name": "spender",
          "type": "address"
        }
      ],
      "name": "allowance",
      "outputs": [
        {
          "internalType": "uint256",
          "name": "",
          "type": "uint256"
        }
      ],
      "stateMutability": "view",
      "type": "function"
    },
    {
      "inputs": [
        {
          "internalType": "address",
          "name": "spender",
          "type": "address"
        },
        {
          "internalType": "uint256",
          "name": "amount",
          "type": "uint256"
        }
      ],
      "name": "approve",
      "outputs": [
        {
          "internalType": "bool",
          "name": "",
          "type": "bool"
        }
      ],
      "stateMutability": "nonpayable",
      "type": "function"
    },
    {
      "inputs": [
        {
          "internalType": "address",
          "name": "account",
          "type": "address"
        }
      ],
      "name": "balanceOf",
      "outputs": [
        {
          "internalType": "uint256",
          "name": "",
          "type": "uint256"
        }
      ],
      "stateMutability": "view",
      "type": "function"
    },
    {
      "inputs": [
        {
          "internalType": "address",
          "name": "account",
          "type": "address"
        },
        {
          "components": [
            {
              "internalType": "uint256",
              "name": "daysAgo",
              "type": "uint256"
            },
            {
              "internalType": "uint256",
              "name": "amount",
              "type": "uint256"
            }
          ],
          "internalType": "struct PresenceToken.BurnData[]",
          "name": "burnDataArray",
          "type": "tuple[]"
        }
      ],
      "name": "burn",
      "outputs": [
        {
          "internalType": "uint256",
          "name": "finalBalance",
          "type": "uint256"
        }
      ],
      "stateMutability": "nonpayable",
      "type": "function"
    },
    {
      "inputs": [
        {
          "internalType": "address",
          "name": "account",
          "type": "address"
        }
      ],
      "name": "burnAll",
      "outputs": [],
      "stateMutability": "nonpayable",
      "type": "function"
    },
    {
      "inputs": [
        {
          "internalType": "uint256",
          "name": "amount",
          "type": "uint256"
        },
        {
          "internalType": "uint256",
          "name": "daysAgo",
          "type": "uint256"
        }
      ],
      "name": "calculateDecayForDays",
      "outputs": [
        {
          "internalType": "uint256",
          "name": "",
          "type": "uint256"
        }
      ],
      "stateMutability": "view",
      "type": "function"
    },
    {
      "inputs": [],
      "name": "daoAddress",
      "outputs": [
        {
          "internalType": "contract TDFDiamondPartial",
          "name": "",
          "type": "address"
        }
      ],
      "stateMutability": "view",
      "type": "function"
    },
    {
      "inputs": [],
      "name": "decayRatePerDay",
      "outputs": [
        {
          "internalType": "uint256",
          "name": "",
          "type": "uint256"
        }
      ],
      "stateMutability": "view",
      "type": "function"
    },
    {
      "inputs": [],
      "name": "decimals",
      "outputs": [
        {
          "internalType": "uint8",
          "name": "",
          "type": "uint8"
        }
      ],
      "stateMutability": "view",
      "type": "function"
    },
    {
      "inputs": [
        {
          "internalType": "address",
          "name": "spender",
          "type": "address"
        },
        {
          "internalType": "uint256",
          "name": "subtractedValue",
          "type": "uint256"
        }
      ],
      "name": "decreaseAllowance",
      "outputs": [
        {
          "internalType": "bool",
          "name": "",
          "type": "bool"
        }
      ],
      "stateMutability": "nonpayable",
      "type": "function"
    },
    {
      "inputs": [],
      "name": "getCurrentDecayRatePerYear",
      "outputs": [
        {
          "internalType": "uint256",
          "name": "",
          "type": "uint256"
        }
      ],
      "stateMutability": "view",
      "type": "function"
    },
    {
      "inputs": [
        {
          "internalType": "uint256",
          "name": "decayRatePerYear",
          "type": "uint256"
        }
      ],
      "name": "getDecayRatePerDay",
      "outputs": [
        {
          "internalType": "uint256",
          "name": "",
          "type": "uint256"
        }
      ],
      "stateMutability": "pure",
      "type": "function"
    },
    {
      "inputs": [
        {
          "internalType": "uint256",
          "name": "decayRatePerDay_",
          "type": "uint256"
        }
      ],
      "name": "getDecayRatePerYear",
      "outputs": [
        {
          "internalType": "uint256",
          "name": "decayRatePerYear",
          "type": "uint256"
        }
      ],
      "stateMutability": "pure",
      "type": "function"
    },
    {
      "inputs": [
        {
          "internalType": "uint256",
          "name": "",
          "type": "uint256"
        }
      ],
      "name": "holders",
      "outputs": [
        {
          "internalType": "address",
          "name": "",
          "type": "address"
        }
      ],
      "stateMutability": "view",
      "type": "function"
    },
    {
      "inputs": [
        {
          "internalType": "address",
          "name": "spender",
          "type": "address"
        },
        {
          "internalType": "uint256",
          "name": "addedValue",
          "type": "uint256"
        }
      ],
      "name": "increaseAllowance",
      "outputs": [
        {
          "internalType": "bool",
          "name": "",
          "type": "bool"
        }
      ],
      "stateMutability": "nonpayable",
      "type": "function"
    },
    {
      "inputs": [
        {
          "internalType": "string",
          "name": "name_",
          "type": "string"
        },
        {
          "internalType": "string",
          "name": "symbol_",
          "type": "string"
        },
        {
          "internalType": "address",
          "name": "daoAddress_",
          "type": "address"
        },
        {
          "internalType": "uint256",
          "name": "decayRatePerDay_",
          "type": "uint256"
        }
      ],
      "name": "initialize",
      "outputs": [],
      "stateMutability": "nonpayable",
      "type": "function"
    },
    {
      "inputs": [
        {
          "internalType": "address",
          "name": "",
          "type": "address"
        }
      ],
      "name": "isHolder",
      "outputs": [
        {
          "internalType": "bool",
          "name": "",
          "type": "bool"
        }
      ],
      "stateMutability": "view",
      "type": "function"
    },
    {
      "inputs": [
        {
          "internalType": "address",
          "name": "",
          "type": "address"
        }
      ],
      "name": "lastDecayTimestamp",
      "outputs": [
        {
          "internalType": "uint256",
          "name": "",
          "type": "uint256"
        }
      ],
      "stateMutability": "view",
      "type": "function"
    },
    {
      "inputs": [
        {
          "internalType": "address",
          "name": "",
          "type": "address"
        }
      ],
      "name": "lastDecayedBalance",
      "outputs": [
        {
          "internalType": "uint256",
          "name": "",
          "type": "uint256"
        }
      ],
      "stateMutability": "view",
      "type": "function"
    },
    {
      "inputs": [
        {
          "internalType": "address",
          "name": "account",
          "type": "address"
        },
        {
          "internalType": "uint256",
          "name": "amount",
          "type": "uint256"
        },
        {
          "internalType": "uint256",
          "name": "daysAgo",
          "type": "uint256"
        }
      ],
      "name": "mint",
      "outputs": [],
      "stateMutability": "nonpayable",
      "type": "function"
    },
    {
      "inputs": [
        {
          "components": [
            {
              "internalType": "address",
              "name": "account",
              "type": "address"
            },
            {
              "internalType": "uint256",
              "name": "amount",
              "type": "uint256"
            },
            {
              "internalType": "uint256",
              "name": "daysAgo",
              "type": "uint256"
            }
          ],
          "internalType": "struct PresenceToken.MintData[]",
          "name": "mintDataArray",
          "type": "tuple[]"
        }
      ],
      "name": "mintBatch",
      "outputs": [],
      "stateMutability": "nonpayable",
      "type": "function"
    },
    {
      "inputs": [],
      "name": "name",
      "outputs": [
        {
          "internalType": "string",
          "name": "",
          "type": "string"
        }
      ],
      "stateMutability": "view",
      "type": "function"
    },
    {
      "inputs": [
        {
          "internalType": "address",
          "name": "account",
          "type": "address"
        }
      ],
      "name": "nonDecayedBalanceOf",
      "outputs": [
        {
          "internalType": "uint256",
          "name": "",
          "type": "uint256"
        }
      ],
      "stateMutability": "view",
      "type": "function"
    },
    {
      "inputs": [],
      "name": "nonDecayedTotalSupply",
      "outputs": [
        {
          "internalType": "uint256",
          "name": "",
          "type": "uint256"
        }
      ],
      "stateMutability": "view",
      "type": "function"
    },
    {
      "inputs": [],
      "name": "owner",
      "outputs": [
        {
          "internalType": "address",
          "name": "",
          "type": "address"
        }
      ],
      "stateMutability": "view",
      "type": "function"
    },
    {
      "inputs": [],
      "name": "pendingOwner",
      "outputs": [
        {
          "internalType": "address",
          "name": "",
          "type": "address"
        }
      ],
      "stateMutability": "view",
      "type": "function"
    },
    {
      "inputs": [],
      "name": "renounceOwnership",
      "outputs": [],
      "stateMutability": "nonpayable",
      "type": "function"
    },
    {
      "inputs": [
        {
          "internalType": "address",
          "name": "newDaoAddress",
          "type": "address"
        }
      ],
      "name": "setDaoAddress",
      "outputs": [],
      "stateMutability": "nonpayable",
      "type": "function"
    },
    {
      "inputs": [
        {
          "internalType": "uint256",
          "name": "newDecayRatePerDay",
          "type": "uint256"
        }
      ],
      "name": "setDecayRatePerDay",
      "outputs": [],
      "stateMutability": "nonpayable",
      "type": "function"
    },
    {
      "inputs": [],
      "name": "symbol",
      "outputs": [
        {
          "internalType": "string",
          "name": "",
          "type": "string"
        }
      ],
      "stateMutability": "view",
      "type": "function"
    },
    {
      "inputs": [],
      "name": "totalSupply",
      "outputs": [
        {
          "internalType": "uint256",
          "name": "decayedTotalSupply",
          "type": "uint256"
        }
      ],
      "stateMutability": "view",
      "type": "function"
    },
    {
      "inputs": [
        {
          "internalType": "address",
          "name": "to",
          "type": "address"
        },
        {
          "internalType": "uint256",
          "name": "amount",
          "type": "uint256"
        }
      ],
      "name": "transfer",
      "outputs": [
        {
          "internalType": "bool",
          "name": "",
          "type": "bool"
        }
      ],
      "stateMutability": "nonpayable",
      "type": "function"
    },
    {
      "inputs": [
        {
          "internalType": "address",
          "name": "from",
          "type": "address"
        },
        {
          "internalType": "address",
          "name": "to",
          "type": "address"
        },
        {
          "internalType": "uint256",
          "name": "amount",
          "type": "uint256"
        }
      ],
      "name": "transferFrom",
      "outputs": [
        {
          "internalType": "bool",
          "name": "",
          "type": "bool"
        }
      ],
      "stateMutability": "pure",
      "type": "function"
    },
    {
      "inputs": [
        {
          "internalType": "address",
          "name": "newOwner",
          "type": "address"
        }
      ],
      "name": "transferOwnership",
      "outputs": [],
      "stateMutability": "nonpayable",
      "type": "function"
    }
  ],
  "transactionHash": "0xa7a53888a1bca00f654051f1b0164889b7270b5a8e9f16f4991bc52bbb728363",
  "args": [],
  "numDeployments": 1,
  "solcInputHash": "4de6f1123007f6317b774501bb0f6368",
  "bytecode": "0x608060405234801561001057600080fd5b50612721806100206000396000f3fe608060405234801561001057600080fd5b50600436106102ad5760003560e01c8063715018a61161017b578063a9059cbb116100d8578063dd62ed3e1161008c578063f0307fd711610071578063f0307fd714610578578063f2fde38b1461058b578063f542033f1461059e57600080fd5b8063dd62ed3e1461052e578063e30c39781461056757600080fd5b8063ad84e871116100bd578063ad84e871146104f3578063d4d7b19a146104fc578063d7050f071461051f57600080fd5b8063a9059cbb146104cd578063a9e76193146104e057600080fd5b80638c5884c11161012f57806395d89b411161011457806395d89b411461049f5780639a3cac6a146104a7578063a457c2d7146104ba57600080fd5b80638c5884c1146104865780638da5cb5b1461048e57600080fd5b80637969be6b116101605780637969be6b1461046357806379ba50971461046b5780637e9d2ac11461047357600080fd5b8063715018a6146104485780637235ab291461045057600080fd5b806323b872dd116102295780634dd85d85116101dd5780636b6eaa06116101c25780636b6eaa061461040f5780636f1066a11461042257806370a082311461043557600080fd5b80634dd85d85146103e55780635d2ece641461040557600080fd5b8063313ce5671161020e578063313ce567146103b057806339509351146103bf5780633cf1d874146103d257600080fd5b806323b872dd1461038a5780632a11ced01461039d57600080fd5b80630ec6a2621161028057806318160ddd1161026557806318160ddd1461034d5780631e01aa93146103555780632131c68c1461035f57600080fd5b80630ec6a26214610325578063156e29f61461033857600080fd5b806303579309146102b257806306fdde03146102e5578063095ea7b3146102fa5780630c7005ea1461031d575b600080fd5b6102d26102c03660046120ba565b60cb6020526000908152604090205481565b6040519081526020015b60405180910390f35b6102ed6105b1565b6040516102dc9190612122565b61030d610308366004612135565b610643565b60405190151581526020016102dc565b6102d261065d565b6102d26103333660046120ba565b61066f565b61034b61034636600461215f565b61068d565b005b6102d26106a5565b6102d2620186a081565b60c954610372906001600160a01b031681565b6040516001600160a01b0390911681526020016102dc565b61030d610398366004612192565b610708565b6103726103ab3660046121ce565b61073c565b604051601281526020016102dc565b61030d6103cd366004612135565b610766565b6102d26103e03660046121ce565b6107a5565b6102d26103f33660046120ba565b60cc6020526000908152604090205481565b6102d26243225f81565b61034b61041d3660046121ce565b610841565b6102d26104303660046121e7565b6108dc565b6102d26104433660046120ba565b610b2f565b61034b610b3a565b6102d261045e3660046121ce565b610b4e565b6102d2610ba4565b61034b610baf565b61034b6104813660046120ba565b610c3d565b6102d2600981565b6065546001600160a01b0316610372565b6102ed610ca8565b61034b6104b53660046120ba565b610cb7565b61030d6104c8366004612135565b610d7e565b61030d6104db366004612135565b610e33565b61034b6104ee36600461226d565b610e41565b6102d260ca5481565b61030d61050a3660046120ba565b60ce6020526000908152604090205460ff1681565b6102d2670de0b6b3a764000081565b6102d261053c3660046122e2565b6001600160a01b03918216600090815260346020908152604080832093909416825291909152205490565b6097546001600160a01b0316610372565b6102d2610586366004612315565b610f02565b61034b6105993660046120ba565b610f77565b61034b6105ac3660046123da565b610ff5565b6060603680546105c090612456565b80601f01602080910402602001604051908101604052809291908181526020018280546105ec90612456565b80156106395780601f1061060e57610100808354040283529160200191610639565b820191906000526020600020905b81548152906001019060200180831161061c57829003601f168201915b5050505050905090565b60003361065181858561111d565b60019150505b92915050565b600061066a60ca546107a5565b905090565b6001600160a01b038116600090815260336020526040812054610657565b61069561114f565b6106a08383836112d6565b505050565b60cd54600090815b81811015610703576106e560cd82815481106106cb576106cb612491565b6000918252602090912001546001600160a01b0316610b2f565b6106ef90846124bd565b9250806106fb816124d5565b9150506106ad565b505090565b60006040517f8cd22d1900000000000000000000000000000000000000000000000000000000815260040160405180910390fd5b60cd818154811061074c57600080fd5b6000918252602090912001546001600160a01b0316905081565b3360008181526034602090815260408083206001600160a01b038716845290915281205490919061065190829086906107a09087906124bd565b61111d565b6000806107b46009600a6125d4565b6107c6670de0b6b3a7640000856125e0565b6107d091906125ff565b905060006107e682670de0b6b3a7640000612621565b905060006107f68261016d6113b7565b9050600061080c82670de0b6b3a7640000612621565b9050670de0b6b3a76400006108236009600a6125d4565b61082d90836125e0565b61083791906125ff565b9695505050505050565b610849611413565b6243225f811115610897576040517f3ea7a580000000000000000000000000000000000000000000000000000000008152600481018290526243225f60248201526044015b60405180910390fd5b60ca80549082905560408051828152602081018490527f4003165e6e939d07c2c57561dd7b9b6b34284496fcdaf4cee19c0103bac44531910160405180910390a15050565b60006108e661114f565b818061091e576040517f4da5dad800000000000000000000000000000000000000000000000000000000815260040160405180910390fd5b60008060005b83811015610a2d5786868281811061093e5761093e612491565b905060400201602001358361095391906124bd565b9250600061099788888481811061096c5761096c612491565b9050604002016020013589898581811061098857610988612491565b90506040020160000135610f02565b90506109a381846124bd565b9250886001600160a01b03167f7b6b5e456ceba756b7ddf5dbe45b0a5dec9ddf6bc9a9fff13f955241d033489b8989858181106109e2576109e2612491565b90506040020160200135838b8b878181106109ff576109ff612491565b604080519586526020860194909452830291909101358383015250519081900360600190a250600101610924565b50610a378761146d565b6001600160a01b038816600090815260cc6020908152604080832084905560cb9091529020429055935083811115610afa576000610a758583612621565b9050620186a0811115610ad7578282610a8d8a61066f565b6040517fc506bc270000000000000000000000000000000000000000000000000000000081526004810193909352602483019190915260448201526064810186905260840161088e565b506001600160a01b038716600090815260cc602052604081208190559350610b1b565b6001600160a01b038716600090815260cc6020526040902093819003938490555b610b2587836114eb565b5050509392505050565b60006106578261146d565b610b42611413565b610b4c6000611662565b565b60008082610b5e6009600a6125d4565b610b689190612621565b90506000610b786009600a6125d4565b610b8a670de0b6b3a7640000846125e0565b610b9491906125ff565b905060006107f68261016d611688565b600061066a60355490565b60975433906001600160a01b03168114610c315760405162461bcd60e51b815260206004820152602960248201527f4f776e61626c6532537465703a2063616c6c6572206973206e6f74207468652060448201527f6e6577206f776e65720000000000000000000000000000000000000000000000606482015260840161088e565b610c3a81611662565b50565b610c45611413565b610c5781610c528361066f565b6114eb565b6001600160a01b038116600081815260cc6020908152604080832083905560cb909152808220429055517f82011752a4fc4085ae0a2f52d77c8e017677c8cbbde3292a7e4daa061bd517bb9190a250565b6060603780546105c090612456565b610cbf611413565b6001600160a01b0381161580610cdd57506001600160a01b0381163b155b15610d1f576040517fff28c19a0000000000000000000000000000000000000000000000000000000081526001600160a01b038216600482015260240161088e565b60c980546001600160a01b0383811673ffffffffffffffffffffffffffffffffffffffff19831681179093556040519116919082907fd5b3b0e6e0098a82fa04cf04faff9109f98389a10c80f20eb7186b927416894690600090a35050565b3360008181526034602090815260408083206001600160a01b038716845290915281205490919083811015610e1b5760405162461bcd60e51b815260206004820152602560248201527f45524332303a2064656372656173656420616c6c6f77616e63652062656c6f7760448201527f207a65726f000000000000000000000000000000000000000000000000000000606482015260840161088e565b610e28828686840361111d565b506001949350505050565b600033610651818585611789565b8080610e79576040517fa288032100000000000000000000000000000000000000000000000000000000815260040160405180910390fd5b610e8161114f565b60005b81811015610efc57610ef4848483818110610ea157610ea1612491565b610eb792602060609092020190810191506120ba565b858584818110610ec957610ec9612491565b90506060020160200135868685818110610ee557610ee5612491565b905060600201604001356112d6565b600101610e84565b50505050565b600081610f10575081610657565b6000610f1e6009600a6125d4565b670de0b6b3a764000060ca54610f3491906125e0565b610f3e91906125ff565b90506000610f5482670de0b6b3a7640000612621565b90506000610f6282866113b7565b90506108378682670de0b6b3a7640000611988565b610f7f611413565b609780546001600160a01b03831673ffffffffffffffffffffffffffffffffffffffff199091168117909155610fbd6065546001600160a01b031690565b6001600160a01b03167f38d16b8cac22d99fc7c124b9cd0de2d3fa1faef420bfe791d8c362d765e2270060405160405180910390a350565b600054610100900460ff16158080156110155750600054600160ff909116105b8061102f5750303b15801561102f575060005460ff166001145b6110a15760405162461bcd60e51b815260206004820152602e60248201527f496e697469616c697a61626c653a20636f6e747261637420697320616c72656160448201527f647920696e697469616c697a6564000000000000000000000000000000000000606482015260840161088e565b6000805460ff1916600117905580156110c4576000805461ff0019166101001790555b6110d0858585856119ae565b8015611116576000805461ff0019169055604051600181527f7f26b83ff96e1f2b6a682f133852f6798a09c465da95921460cefb38474024989060200160405180910390a15b5050505050565b6040517f2028747100000000000000000000000000000000000000000000000000000000815260040160405180910390fd5b6040805160028082526060820183526000926020830190803683370190505090507f7983d5b975f446c722b50a0d87a7ffc796b21c3205166f2727fb8b95675c1b0a816000815181106111a4576111a4612491565b6020026020010181815250507fefa2b23cd542346b38207721a79c51a70b01c47249f50a351696d8f313a8fe1c816001815181106111e4576111e4612491565b602090810291909101015260408051600280825260608201909252600091816020015b60608152602001906001900390816112075790505090506040518060400160405280601581526020017f424f4f4b494e475f504c4154464f524d5f524f4c4500000000000000000000008152508160008151811061126757611267612491565b60200260200101819052506040518060400160405280601481526020017f424f4f4b494e475f4d414e414745525f524f4c45000000000000000000000000815250816001815181106112bb576112bb612491565b60200260200101819052506112d282826001611a35565b5050565b8161130d576040517f5fc8b14300000000000000000000000000000000000000000000000000000000815260040160405180910390fd5b61131683611b81565b5060006113238383610f02565b60408051858152602081018390529081018490529091506001600160a01b038516907fa6a791bf1376cdbad5a2b60701f39298083c280d379caf46c3d8c5c51b12895f9060600160405180910390a28061137c8561146d565b61138691906124bd565b6001600160a01b038516600090815260cc602090815260408083209390935560cb905220429055610efc8484611c1c565b6000670de0b6b3a76400005b821561140c5782600116600114156113eb576113e88185670de0b6b3a7640000611988565b90505b6113fe8485670de0b6b3a7640000611988565b9350600183901c92506113c3565b9392505050565b6065546001600160a01b03163314610b4c5760405162461bcd60e51b815260206004820181905260248201527f4f776e61626c653a2063616c6c6572206973206e6f7420746865206f776e6572604482015260640161088e565b6001600160a01b038116600090815260cb6020526040812054806114945750600092915050565b6001600160a01b038316600090815260cc6020526040902054806114bc575060009392505050565b6000620151806114cc8442612621565b6114d691906125ff565b90506114e28282610f02565b95945050505050565b6001600160a01b0382166115675760405162461bcd60e51b815260206004820152602160248201527f45524332303a206275726e2066726f6d20746865207a65726f2061646472657360448201527f7300000000000000000000000000000000000000000000000000000000000000606482015260840161088e565b61157382600083611ce9565b6001600160a01b038216600090815260336020526040902054818110156116025760405162461bcd60e51b815260206004820152602260248201527f45524332303a206275726e20616d6f756e7420657863656564732062616c616e60448201527f6365000000000000000000000000000000000000000000000000000000000000606482015260840161088e565b6001600160a01b03831660008181526033602090815260408083208686039055603580548790039055518581529192917fddf252ad1be2c89b69c2b068fc378daa952ba7f163c4a11628f55a4df523b3ef910160405180910390a3505050565b6097805473ffffffffffffffffffffffffffffffffffffffff19169055610c3a81611d40565b6000670de0b6b3a7640000836116a2576000915050610657565b826116ae579050610657565b82600114156116c05783915050610657565b600081815b8183111580156116de575060016116dc8484612621565b115b156117375760026116ef83856124bd565b6116f991906125ff565b9050600061170782886113b7565b90508781141561171d5750935061065792505050565b8781101561172d57819350611731565b8192505b506116c5565b600061174384886113b7565b9050600061175184896113b7565b905061175d8982612621565b611767838b612621565b101561177b57849650505050505050610657565b839650505050505050610657565b6001600160a01b0383166118055760405162461bcd60e51b815260206004820152602560248201527f45524332303a207472616e736665722066726f6d20746865207a65726f20616460448201527f6472657373000000000000000000000000000000000000000000000000000000606482015260840161088e565b6001600160a01b0382166118815760405162461bcd60e51b815260206004820152602360248201527f45524332303a207472616e7366657220746f20746865207a65726f206164647260448201527f6573730000000000000000000000000000000000000000000000000000000000606482015260840161088e565b61188c838383611ce9565b6001600160a01b0383166000908152603360205260409020548181101561191b5760405162461bcd60e51b815260206004820152602660248201527f45524332303a207472616e7366657220616d6f756e742065786365656473206260448201527f616c616e63650000000000000000000000000000000000000000000000000000606482015260840161088e565b6001600160a01b0380851660008181526033602052604080822086860390559286168082529083902080548601905591517fddf252ad1be2c89b69c2b068fc378daa952ba7f163c4a11628f55a4df523b3ef9061197b9086815260200190565b60405180910390a3610efc565b828202831584820484141782026119a75763ad251c276000526004601cfd5b0492915050565b600054610100900460ff16611a195760405162461bcd60e51b815260206004820152602b60248201527f496e697469616c697a61626c653a20636f6e7472616374206973206e6f74206960448201526a6e697469616c697a696e6760a81b606482015260840161088e565b611a238484611d9f565b611a2b611e14565b610efc8282611e87565b60c9546001600160a01b0316818015611a5857506065546001600160a01b031633145b15611a635750505050565b835160005b81811015611b4a57826001600160a01b03166391d14854878381518110611a9157611a91612491565b6020026020010151611aa03390565b6040517fffffffff0000000000000000000000000000000000000000000000000000000060e085901b16815260048101929092526001600160a01b0316602482015260440160206040518083038186803b158015611afd57600080fd5b505afa158015611b11573d6000803e3d6000fd5b505050506040513d601f19601f82011682018060405250810190611b359190612638565b15611b4257505050505050565b600101611a68565b5033846040517f4de462e900000000000000000000000000000000000000000000000000000000815260040161088e92919061265a565b6001600160a01b038116600090815260ce602052604081205460ff16611c1757506001600160a01b038116600081815260ce60205260408120805460ff1916600190811790915560cd8054808301825592527f83978b4c69c48dd978ab43fe30f077615294f938fb7f936d9eb340e51ea7db2e909101805473ffffffffffffffffffffffffffffffffffffffff19169092179091555b919050565b6001600160a01b038216611c725760405162461bcd60e51b815260206004820152601f60248201527f45524332303a206d696e7420746f20746865207a65726f206164647265737300604482015260640161088e565b611c7e60008383611ce9565b8060356000828254611c9091906124bd565b90915550506001600160a01b0382166000818152603360209081526040808320805486019055518481527fddf252ad1be2c89b69c2b068fc378daa952ba7f163c4a11628f55a4df523b3ef910160405180910390a35050565b6001600160a01b03831615801590611d0957506001600160a01b03821615155b156106a0576040517f8cd22d1900000000000000000000000000000000000000000000000000000000815260040160405180910390fd5b606580546001600160a01b0383811673ffffffffffffffffffffffffffffffffffffffff19831681179093556040519116919082907f8be0079c531659141344cd1fd0a4f28419497f9722a3daafe3b4186f6b6457e090600090a35050565b600054610100900460ff16611e0a5760405162461bcd60e51b815260206004820152602b60248201527f496e697469616c697a61626c653a20636f6e7472616374206973206e6f74206960448201526a6e697469616c697a696e6760a81b606482015260840161088e565b6112d28282611f04565b600054610100900460ff16611e7f5760405162461bcd60e51b815260206004820152602b60248201527f496e697469616c697a61626c653a20636f6e7472616374206973206e6f74206960448201526a6e697469616c697a696e6760a81b606482015260840161088e565b610b4c611f96565b600054610100900460ff16611ef25760405162461bcd60e51b815260206004820152602b60248201527f496e697469616c697a61626c653a20636f6e7472616374206973206e6f74206960448201526a6e697469616c697a696e6760a81b606482015260840161088e565b611efb82610cb7565b6112d281610841565b600054610100900460ff16611f6f5760405162461bcd60e51b815260206004820152602b60248201527f496e697469616c697a61626c653a20636f6e7472616374206973206e6f74206960448201526a6e697469616c697a696e6760a81b606482015260840161088e565b8151611f8290603690602085019061200a565b5080516106a090603790602084019061200a565b600054610100900460ff166120015760405162461bcd60e51b815260206004820152602b60248201527f496e697469616c697a61626c653a20636f6e7472616374206973206e6f74206960448201526a6e697469616c697a696e6760a81b606482015260840161088e565b610b4c33611662565b82805461201690612456565b90600052602060002090601f016020900481019282612038576000855561207e565b82601f1061205157805160ff191683800117855561207e565b8280016001018555821561207e579182015b8281111561207e578251825591602001919060010190612063565b5061208a92915061208e565b5090565b5b8082111561208a576000815560010161208f565b80356001600160a01b0381168114611c1757600080fd5b6000602082840312156120cc57600080fd5b61140c826120a3565b6000815180845260005b818110156120fb576020818501810151868301820152016120df565b8181111561210d576000602083870101525b50601f01601f19169290920160200192915050565b60208152600061140c60208301846120d5565b6000806040838503121561214857600080fd5b612151836120a3565b946020939093013593505050565b60008060006060848603121561217457600080fd5b61217d846120a3565b95602085013595506040909401359392505050565b6000806000606084860312156121a757600080fd5b6121b0846120a3565b92506121be602085016120a3565b9150604084013590509250925092565b6000602082840312156121e057600080fd5b5035919050565b6000806000604084860312156121fc57600080fd5b612205846120a3565b9250602084013567ffffffffffffffff8082111561222257600080fd5b818601915086601f83011261223657600080fd5b81358181111561224557600080fd5b8760208260061b850101111561225a57600080fd5b6020830194508093505050509250925092565b6000806020838503121561228057600080fd5b823567ffffffffffffffff8082111561229857600080fd5b818501915085601f8301126122ac57600080fd5b8135818111156122bb57600080fd5b8660206060830285010111156122d057600080fd5b60209290920196919550909350505050565b600080604083850312156122f557600080fd5b6122fe836120a3565b915061230c602084016120a3565b90509250929050565b6000806040838503121561232857600080fd5b50508035926020909101359150565b634e487b7160e01b600052604160045260246000fd5b600082601f83011261235e57600080fd5b813567ffffffffffffffff8082111561237957612379612337565b604051601f8301601f19908116603f011681019082821181831017156123a1576123a1612337565b816040528381528660208588010111156123ba57600080fd5b836020870160208301376000602085830101528094505050505092915050565b600080600080608085870312156123f057600080fd5b843567ffffffffffffffff8082111561240857600080fd5b6124148883890161234d565b9550602087013591508082111561242a57600080fd5b506124378782880161234d565b935050612446604086016120a3565b9396929550929360600135925050565b600181811c9082168061246a57607f821691505b6020821081141561248b57634e487b7160e01b600052602260045260246000fd5b50919050565b634e487b7160e01b600052603260045260246000fd5b634e487b7160e01b600052601160045260246000fd5b600082198211156124d0576124d06124a7565b500190565b60006000198214156124e9576124e96124a7565b5060010190565b600181815b8085111561252b578160001904821115612511576125116124a7565b8085161561251e57918102915b93841c93908002906124f5565b509250929050565b60008261254257506001610657565b8161254f57506000610657565b8160018114612565576002811461256f5761258b565b6001915050610657565b60ff841115612580576125806124a7565b50506001821b610657565b5060208310610133831016604e8410600b84101617156125ae575081810a610657565b6125b883836124f0565b80600019048211156125cc576125cc6124a7565b029392505050565b600061140c8383612533565b60008160001904831182151516156125fa576125fa6124a7565b500290565b60008261261c57634e487b7160e01b600052601260045260246000fd5b500490565b600082821015612633576126336124a7565b500390565b60006020828403121561264a57600080fd5b8151801515811461140c57600080fd5b6000604082016001600160a01b0385168352602060408185015281855180845260608601915060608160051b870101935082870160005b828110156126dd577fffffffffffffffffffffffffffffffffffffffffffffffffffffffffffffffa08887030184526126cb8683516120d5565b95509284019290840190600101612691565b50939897505050505050505056fea264697066735822122002343d1a0aa1b386dbcc4c1f4f7523ae803f50ade90633e880e3937e5f0b102a64736f6c63430008090033",
  "devdoc": {
    "details": "The decay functionality is implemented with following logic:          Prerequisites:              - since the PRESENCE token is non-transferrable, the account's balance can only change when:                  - minting                  - burning          The fact that the PRESENCE token is non-transferrable means that we do not need to handle          the balance changes during transfers, but only during the `mint`, `burn` and `balanceOf` functions.          There are 2 additional mappings introduced:              - lastDecayedBalance[account]: this one stores the last calculated decayed balance              - lastDecayedTimestamp[account]: this one stores the timestamp when we last calculated a new decayed balance          Both these mappings are updated only inside the `mint` and `burn` function.          We also override the `balanceOf` function, where we calculate the current decayed balance, using          the 2 mappings `lastDecayedBalance` and `lastDecayedTimestamp`. Additional decay calculation on top of these          2 mappings is necessary inside the `balanceOf` function because the values in these mappings are not regularly updated          so they can contain even e.g. 1 year+ outdated data (if the user did not mint or burn any token during that time),          but inside the `balanceOf` function we want to return the current decayed balance at the time of calling.          Inside `mint` and `burn` we update these 2 mappings to make sure that the decay for each token is calculated correctly.          Example:              - assume ~10% decay per day              1) Mint 1 PRESENCE              2) Wait 2 days              3) Now the balance is ~0.81 PRESENCE              4) Mint 1 PRESENCE, so the total balance is ~1.81 PRESENCE              5) Wait 1 day              6) The final balance is 1.629 PRESENCE          If we would not recalculate the decayed balance on the mint of additional PRESENCE token , at the step 6 we would not know          when each token has been minted. So that's why there are these 2 additional mappings introduced. By recalculating the decayed balance on          every balance change, we do not need to store full history of when each token has been minted, as it's sufficient on balance change to          just recalculate the previous decayed balance and then add the new minted tokens to that.          With burning the situation is a little bit more tricky, as there is a difference if I would like to burn a PRESENCE token          minted 10 days ago or 2 days ago, as the one minted 10 days ago decayed already more than the one 2 days ago. Because of that          it's necessary to pass to the `burn` function also how many days ago the token was minted. Here we assume that the booking platform          will know for which dates it actually wants to burn the PRESENCE tokens, as the burning will most likely happen only when the person          did not stay at the property, despite having the booking.",
    "kind": "dev",
    "methods": {
      "acceptOwnership()": {
        "details": "The new owner accepts the ownership transfer."
      },
      "allowance(address,address)": {
        "details": "See {IERC20-allowance}."
      },
      "approve(address,uint256)": {
        "details": "See {IERC20-approve}. NOTE: If `amount` is the maximum `uint256`, the allowance is not updated on `transferFrom`. This is semantically equivalent to an infinite approval. Requirements: - `spender` cannot be the zero address."
      },
      "balanceOf(address)": {
        "custom:see": "PresenceToken.calculateDecayedBalance for more info about the calculation",
        "returns": {
          "_0": "Current decayed balance of the user."
        }
      },
      "burn(address,(uint256,uint256)[])": {
        "params": {
          "account": "to burn the PRESENCE tokens for",
          "burnDataArray": "array of struct{amount,daysAgo}. It's necessary to pass the `daysAgo` in order to also          correctly calculate and update the decayed balance (=> PRESENCE token minted 10 days ago is already          more decayed than PRESENCE token minted 2 days ago, so for us to correctly calculate the decayed          balance to burn, we need to know when the PRESENCE token was minted)."
        },
        "returns": {
          "finalBalance": "Account's decayed balance after burning. Useful for e.g. preview of the burn operation to make sure          that the passed burnDataArray makes sense and leads to the desireable result."
        }
      },
      "burnAll(address)": {
        "params": {
          "account": "to burn all the PRESENCE tokens for"
        }
      },
      "calculateDecayForDays(uint256,uint256)": {
        "params": {
          "amount": "The initial amount (with 18 decimals)",
          "daysAgo": "Number of days to calculate decay for, when 0 it returns the `amount`"
        },
        "returns": {
          "_0": "The decayed amount (with 18 decimals)"
        }
      },
      "decimals()": {
        "details": "Returns the number of decimals used to get its user representation. For example, if `decimals` equals `2`, a balance of `505` tokens should be displayed to a user as `5.05` (`505 / 10 ** 2`). Tokens usually opt for a value of 18, imitating the relationship between Ether and Wei. This is the value {ERC20} uses, unless this function is overridden; NOTE: This information is only used for _display_ purposes: it in no way affects any of the arithmetic of the contract, including {IERC20-balanceOf} and {IERC20-transfer}."
      },
      "decreaseAllowance(address,uint256)": {
        "details": "Atomically decreases the allowance granted to `spender` by the caller. This is an alternative to {approve} that can be used as a mitigation for problems described in {IERC20-approve}. Emits an {Approval} event indicating the updated allowance. Requirements: - `spender` cannot be the zero address. - `spender` must have allowance for the caller of at least `subtractedValue`."
      },
      "getCurrentDecayRatePerYear()": {
        "returns": {
          "_0": "Decay rate per year for currently used decayRatePerDay in contract. The result is multiplied by 10^DECAY_RATE_PER_DAY_DECIMALS"
        }
      },
      "getDecayRatePerDay(uint256)": {
        "params": {
          "decayRatePerYear": "should be multiplied by 10^DECAY_RATE_PER_DAY_DECIMALS, see the getDecayRatePerYear function docs          for more info about how to format this parameter"
        },
        "returns": {
          "_0": "Daily decay rate multiplied by 10^DECAY_RATE_PER_DAY_DECIMALS"
        }
      },
      "getDecayRatePerYear(uint256)": {
        "params": {
          "decayRatePerDay_": "should be multiplied by 10^DECAY_RATE_PER_DAY_DECIMALS          so for example:              a) start with percentage decay per day: 0.028_8617%              b) now we need to convert it to decimal form: 0.028_8617 / 100 == 0.000_288_617              c) now we multiply by the decimals: 0.000_288_617 * 10^DECAY_RATE_PER_DECIMALS == 288_617"
        },
        "returns": {
          "decayRatePerYear": "multiplied by 10^DECAY_RATE_PER_DAY_DECIMALS"
        }
      },
      "increaseAllowance(address,uint256)": {
        "details": "Atomically increases the allowance granted to `spender` by the caller. This is an alternative to {approve} that can be used as a mitigation for problems described in {IERC20-approve}. Emits an {Approval} event indicating the updated allowance. Requirements: - `spender` cannot be the zero address."
      },
      "mint(address,uint256,uint256)": {
        "custom:see": "PresenceToken._mint function docs for description of additions to mint functionality"
      },
      "mintBatch((address,uint256,uint256)[])": {
        "custom:see": "PresenceToken._mint function docs for description of additions to mint functionality"
      },
      "name()": {
        "details": "Returns the name of the token."
      },
      "owner()": {
        "details": "Returns the address of the current owner."
      },
      "pendingOwner()": {
        "details": "Returns the address of the pending owner."
      },
      "renounceOwnership()": {
        "details": "Leaves the contract without owner. It will not be possible to call `onlyOwner` functions anymore. Can only be called by the current owner. NOTE: Renouncing ownership will leave the contract without an owner, thereby removing any functionality that is only available to the owner."
      },
      "setDaoAddress(address)": {
        "params": {
          "newDaoAddress": "updated dao address"
        }
      },
      "setDecayRatePerDay(uint256)": {
        "params": {
          "newDecayRatePerDay": "updated decay rate"
        }
      },
      "symbol()": {
        "details": "Returns the symbol of the token, usually a shorter version of the name."
      },
      "totalSupply()": {
        "details": "In order to get the decayed balance of each user at the time of calling this function, we need to iterate          over the `holders` array, which makes this function gas expensive. Ideally do not use this inside          state-mutating functions, only in the external getters. I could not change the modifier from `public` to `external`          since the ERC20Upgradeable from OpenZeppelin declares this function with `public` modifier.",
        "returns": {
          "decayedTotalSupply": "decayedTotalSupply"
        }
      },
      "transfer(address,uint256)": {
        "details": "See {IERC20-transfer}. Requirements: - `to` cannot be the zero address. - the caller must have a balance of at least `amount`."
      },
      "transferFrom(address,address,uint256)": {
        "details": "See {IERC20-transferFrom}. Emits an {Approval} event indicating the updated allowance. This is not required by the EIP. See the note at the beginning of {ERC20}. NOTE: Does not update the allowance if the current allowance is the maximum `uint256`. Requirements: - `from` and `to` cannot be the zero address. - `from` must have a balance of at least `amount`. - the caller must have allowance for ``from``'s tokens of at least `amount`."
      },
      "transferOwnership(address)": {
        "details": "Starts the ownership transfer of the contract to a new account. Replaces the pending transfer if there is one. Can only be called by the current owner."
      }
    },
    "stateVariables": {
      "decayRatePerDay": {
        "custom:see": "getDecayRatePerDay function for more info and examples about how to calculate value          for this variable, e.g. for 10% decay rate per year"
      },
      "holders": {
        "details": "necessary for iterating over `lastDecayedBalance` mapping when calculating decayed totalSupply"
      },
      "isHolder": {
        "details": "used for speeding up / gas savings when need to check if the account is in `holders` array"
      }
    },
    "title": "Proof of Presence token with a continous decay functionality. The token is decayed every 24 hours.",
    "version": 1
  },
  "userdoc": {
    "errors": {
      "ApproveNotAllowed()": [
        {
          "notice": "Thrown when trying to call approve. Since PresenceToken is non-transferrable, it does not make sense to enable approvals."
        }
      ],
      "InvalidDecayRatePerDay(uint256,uint256)": [
        {
          "notice": "Thrown when trying to set invalid decayRatePerDay."
        }
      ],
      "TransferNotAllowed()": [
        {
          "notice": "Thrown when trying to transfer PresenceToken from one address to another. Only minting and burning is allowed."
        }
      ],
      "Unauthorized(address,string[])": [
        {
          "notice": "Thrown when a function is called by not allowed address."
        }
      ]
    },
    "kind": "user",
    "methods": {
      "MAX_ALLOWED_ROUNDING_ERROR()": {
        "notice": "denominated in wei, used for preventing underflows when small rounding error happens (e.g. during burn)"
      },
      "balanceOf(address)": {
        "notice": "Override of the standard balanceOf function that takes into the account gradual decay of user balance"
      },
      "burn(address,(uint256,uint256)[])": {
        "notice": "Burn PRESENCE tokens for a user.This function can be only called by the owner of the contract, which will be the TDF Multisig."
      },
      "burnAll(address)": {
        "notice": "Burns all tokens for a given account. Useful e.g. in case of blacklisting a person.This function can be only called by the owner of the contract, which will be the TDF Multisig."
      },
      "calculateDecayForDays(uint256,uint256)": {
        "notice": "Calculates decay over a number of days with high precisionBasic formula: [initialAmount] * (1 - [percentageDecayPerDay] / 100)^[numberOfDays]"
      },
      "daoAddress()": {
        "notice": "used for accessing user roles store in DAO + allow DAO setting a decay rate"
      },
      "decayRatePerDay()": {
        "notice": "Holds decimal decay rate per day, the value is padded by DECAY_RATE_PER_DAY_DECIMALSThis value is set on contract init and after that is possible to overwrite by DAO address"
      },
      "getDecayRatePerDay(uint256)": {
        "notice": "DECAY RATE PER YEAR => DECAY RATE PER DAYConverts a yearly decay rate to a daily decay rateBasic formula: 1 - (1 - [percentageDecayPerYear] / 100)^(1/365)to get the decimal representation, divide the result by `10^DECAY_RATE_PER_DAY_DECIMALS`...to get the percentage representation, divide the result by `10^(DECAY_RATE_PER_DAY_DECIMALS - 2)`"
      },
      "getDecayRatePerYear(uint256)": {
        "notice": "DECAY RATE PER DAY =>. DECAY RATE PER YEARConverts a daily decay rate to a yearly decay rateBasic formula: 1 - (1 - [percentageDecayPerDay] / 100)^365to get the decimal representation, divide the result by `10^DECAY_RATE_PER_DAY_DECIMALS`...to get the percentage representation, divide the result by `10^(DECAY_RATE_PER_DAY_DECIMALS - 2)`"
      },
      "lastDecayTimestamp(address)": {
        "notice": "mapping that holds timestamp of last decay... this value is updated either during `mint` or `burn`"
      },
      "lastDecayedBalance(address)": {
        "notice": "mapping that holds last decayed balances... this value is updated (decayed) either during `mint` or `burn`"
      },
      "mintBatch((address,uint256,uint256)[])": {
        "notice": "Batch mint function, possibly useful for saving gas when want to mint PRESENCE for all people          that stayed in the accomodation during the night."
      },
      "setDaoAddress(address)": {
        "notice": "This function can be only called by the owner of this contract, which is TDF Multisig"
      },
      "setDecayRatePerDay(uint256)": {
        "notice": "This function can be only called by the daoAddress or the owner of this contract, which is TDF Multisig"
      },
      "totalSupply()": {
        "notice": "Override of the standard totalSupply function that takes into the account gradual decay of user balances"
      }
    },
    "version": 1
  },
  "storageLayout": {
    "storage": [
      {
        "astId": 244,
        "contract": "src/ERC20/PresenceToken.sol:PresenceToken",
        "label": "_initialized",
        "offset": 0,
        "slot": "0",
        "type": "t_uint8"
      },
      {
        "astId": 247,
        "contract": "src/ERC20/PresenceToken.sol:PresenceToken",
        "label": "_initializing",
        "offset": 1,
        "slot": "0",
        "type": "t_bool"
      },
      {
        "astId": 1963,
        "contract": "src/ERC20/PresenceToken.sol:PresenceToken",
        "label": "__gap",
        "offset": 0,
        "slot": "1",
        "type": "t_array(t_uint256)50_storage"
      },
      {
        "astId": 625,
        "contract": "src/ERC20/PresenceToken.sol:PresenceToken",
        "label": "_balances",
        "offset": 0,
        "slot": "51",
        "type": "t_mapping(t_address,t_uint256)"
      },
      {
        "astId": 631,
        "contract": "src/ERC20/PresenceToken.sol:PresenceToken",
        "label": "_allowances",
        "offset": 0,
        "slot": "52",
        "type": "t_mapping(t_address,t_mapping(t_address,t_uint256))"
      },
      {
        "astId": 633,
        "contract": "src/ERC20/PresenceToken.sol:PresenceToken",
        "label": "_totalSupply",
        "offset": 0,
        "slot": "53",
        "type": "t_uint256"
      },
      {
        "astId": 635,
        "contract": "src/ERC20/PresenceToken.sol:PresenceToken",
        "label": "_name",
        "offset": 0,
        "slot": "54",
        "type": "t_string_storage"
      },
      {
        "astId": 637,
        "contract": "src/ERC20/PresenceToken.sol:PresenceToken",
        "label": "_symbol",
        "offset": 0,
        "slot": "55",
        "type": "t_string_storage"
      },
      {
        "astId": 1217,
        "contract": "src/ERC20/PresenceToken.sol:PresenceToken",
        "label": "__gap",
        "offset": 0,
        "slot": "56",
        "type": "t_array(t_uint256)45_storage"
      },
      {
        "astId": 116,
        "contract": "src/ERC20/PresenceToken.sol:PresenceToken",
        "label": "_owner",
        "offset": 0,
        "slot": "101",
        "type": "t_address"
      },
      {
        "astId": 236,
        "contract": "src/ERC20/PresenceToken.sol:PresenceToken",
        "label": "__gap",
        "offset": 0,
        "slot": "102",
        "type": "t_array(t_uint256)49_storage"
      },
      {
        "astId": 25,
        "contract": "src/ERC20/PresenceToken.sol:PresenceToken",
        "label": "_pendingOwner",
        "offset": 0,
        "slot": "151",
        "type": "t_address"
      },
      {
        "astId": 104,
        "contract": "src/ERC20/PresenceToken.sol:PresenceToken",
        "label": "__gap",
        "offset": 0,
        "slot": "152",
        "type": "t_array(t_uint256)49_storage"
      },
      {
        "astId": 12489,
        "contract": "src/ERC20/PresenceToken.sol:PresenceToken",
        "label": "daoAddress",
        "offset": 0,
        "slot": "201",
        "type": "t_contract(TDFDiamondPartial)12480"
      },
      {
        "astId": 12505,
        "contract": "src/ERC20/PresenceToken.sol:PresenceToken",
        "label": "decayRatePerDay",
        "offset": 0,
        "slot": "202",
        "type": "t_uint256"
      },
      {
        "astId": 12510,
        "contract": "src/ERC20/PresenceToken.sol:PresenceToken",
        "label": "lastDecayTimestamp",
        "offset": 0,
        "slot": "203",
        "type": "t_mapping(t_address,t_uint256)"
      },
      {
        "astId": 12515,
        "contract": "src/ERC20/PresenceToken.sol:PresenceToken",
        "label": "lastDecayedBalance",
        "offset": 0,
        "slot": "204",
        "type": "t_mapping(t_address,t_uint256)"
      },
      {
        "astId": 12519,
        "contract": "src/ERC20/PresenceToken.sol:PresenceToken",
        "label": "holders",
        "offset": 0,
        "slot": "205",
        "type": "t_array(t_address)dyn_storage"
      },
      {
        "astId": 12524,
        "contract": "src/ERC20/PresenceToken.sol:PresenceToken",
        "label": "isHolder",
        "offset": 0,
        "slot": "206",
        "type": "t_mapping(t_address,t_bool)"
      }
    ],
    "types": {
      "t_address": {
        "encoding": "inplace",
        "label": "address",
        "numberOfBytes": "20"
      },
      "t_array(t_address)dyn_storage": {
        "base": "t_address",
        "encoding": "dynamic_array",
        "label": "address[]",
        "numberOfBytes": "32"
      },
      "t_array(t_uint256)45_storage": {
        "base": "t_uint256",
        "encoding": "inplace",
        "label": "uint256[45]",
        "numberOfBytes": "1440"
      },
      "t_array(t_uint256)49_storage": {
        "base": "t_uint256",
        "encoding": "inplace",
        "label": "uint256[49]",
        "numberOfBytes": "1568"
      },
      "t_array(t_uint256)50_storage": {
        "base": "t_uint256",
        "encoding": "inplace",
        "label": "uint256[50]",
        "numberOfBytes": "1600"
      },
      "t_bool": {
        "encoding": "inplace",
        "label": "bool",
        "numberOfBytes": "1"
      },
      "t_contract(TDFDiamondPartial)12480": {
        "encoding": "inplace",
        "label": "contract TDFDiamondPartial",
        "numberOfBytes": "20"
      },
      "t_mapping(t_address,t_bool)": {
        "encoding": "mapping",
        "key": "t_address",
        "label": "mapping(address => bool)",
        "numberOfBytes": "32",
        "value": "t_bool"
      },
      "t_mapping(t_address,t_mapping(t_address,t_uint256))": {
        "encoding": "mapping",
        "key": "t_address",
        "label": "mapping(address => mapping(address => uint256))",
        "numberOfBytes": "32",
        "value": "t_mapping(t_address,t_uint256)"
      },
      "t_mapping(t_address,t_uint256)": {
        "encoding": "mapping",
        "key": "t_address",
        "label": "mapping(address => uint256)",
        "numberOfBytes": "32",
        "value": "t_uint256"
      },
      "t_string_storage": {
        "encoding": "bytes",
        "label": "string",
        "numberOfBytes": "32"
      },
      "t_uint256": {
        "encoding": "inplace",
        "label": "uint256",
        "numberOfBytes": "32"
      },
      "t_uint8": {
        "encoding": "inplace",
        "label": "uint8",
        "numberOfBytes": "1"
      }
    }
  }
}