{
  "address": "0x319887aBb940ceA93B75C7f120db16bd3b88F2Bc",
  "abi": [
    {
      "anonymous": false,
      "inputs": [
        {
          "indexed": false,
          "internalType": "address",
          "name": "account",
          "type": "address"
        }
      ],
      "name": "Paused",
      "type": "event"
    },
    {
      "anonymous": false,
      "inputs": [
        {
          "indexed": false,
          "internalType": "address",
          "name": "account",
          "type": "address"
        }
      ],
      "name": "Unpaused",
      "type": "event"
    },
    {
      "inputs": [],
      "name": "pause",
      "outputs": [],
      "stateMutability": "nonpayable",
      "type": "function"
    },
    {
      "inputs": [],
      "name": "paused",
      "outputs": [
        {
          "internalType": "bool",
          "name": "",
          "type": "bool"
        }
      ],
      "stateMutability": "view",
      "type": "function"
    },
    {
      "inputs": [],
      "name": "unpause",
      "outputs": [],
      "stateMutability": "nonpayable",
      "type": "function"
    }
  ],
  "transactionHash": "0xcc331938d63e131cc65914f5af3046670ddcadfc7ec7fb705229f8485f32ba81",
  "args": [],
  "numDeployments": 1,
  "solcInputHash": "f106e37aae6a3f7106f3c0e0aa509e22",
  "bytecode": "0x608060405234801561001057600080fd5b506102a0806100206000396000f3fe608060405234801561001057600080fd5b50600436106100415760003560e01c80633f4ba83a146100465780635c975abb146100505780638456cb591461006a575b600080fd5b61004e610072565b005b60085460ff16604051901515815260200160405180910390f35b61004e6100c2565b61007a61010f565b610082610168565b6008805460ff191690556040513381527f5db9ee0a495bf2e6ff9c91a7834c1ba4fdd244a5e8aa4e537bd38aeae4b073aa906020015b60405180910390a1565b6100ca610217565b6100d2610168565b6008805460ff191660011790556040513381527f62e78cea01bee320cd4e420270b5ea74000d11b0c9f74754ebdbfc544b05a258906020016100b8565b60085460ff166101665760405162461bcd60e51b815260206004820152601460248201527f5061757361626c653a206e6f742070617573656400000000000000000000000060448201526064015b60405180910390fd5b565b7fc8fcad8db84d3cc18b4c41d551ea0ee66dd599cde068d998e57d5e09332c131c6004015473ffffffffffffffffffffffffffffffffffffffff1633146101665760405162461bcd60e51b815260206004820152602260248201527f4c69624469616d6f6e643a204d75737420626520636f6e7472616374206f776e60448201527f6572000000000000000000000000000000000000000000000000000000000000606482015260840161015d565b60085460ff16156101665760405162461bcd60e51b815260206004820152601060248201527f5061757361626c653a2070617573656400000000000000000000000000000000604482015260640161015d56fea264697066735822122062f6edd91660d74c0ef300961c154593b4bdb05b5ef0bae74b2eaf0929d7871664736f6c63430008090033",
  "devdoc": {
    "events": {
      "Paused(address)": {
        "details": "Emitted when the pause is triggered by `account`."
      },
      "Unpaused(address)": {
        "details": "Emitted when the pause is lifted by `account`."
      }
    },
    "kind": "dev",
    "methods": {
      "pause()": {
        "details": "Triggers stopped state. Requirements: - The contract must not be paused."
      },
      "unpause()": {
        "details": "Returns to normal state. Requirements: - The contract must be paused."
      }
    },
    "version": 1
  },
  "userdoc": {
    "kind": "user",
    "methods": {},
    "version": 1
  },
  "storageLayout": {
    "storage": [
      {
        "astId": 16221,
        "contract": "src/diamond/facets/AdminFacet.sol:AdminFacet",
        "label": "s",
        "offset": 0,
        "slot": "0",
        "type": "t_struct(AppStorage)16209_storage"
      }
    ],
    "types": {
      "t_address": {
        "encoding": "inplace",
        "label": "address",
        "numberOfBytes": "20"
      },
      "t_array(t_bytes32)dyn_storage": {
        "base": "t_bytes32",
        "encoding": "dynamic_array",
        "label": "bytes32[]",
        "numberOfBytes": "32"
      },
      "t_array(t_struct(Deposit)16181_storage)dyn_storage": {
        "base": "t_struct(Deposit)16181_storage",
        "encoding": "dynamic_array",
        "label": "struct Deposit[]",
        "numberOfBytes": "32"
      },
      "t_bool": {
        "encoding": "inplace",
        "label": "bool",
        "numberOfBytes": "1"
      },
      "t_bytes32": {
        "encoding": "inplace",
        "label": "bytes32",
        "numberOfBytes": "32"
      },
      "t_contract(IERC20)900": {
        "encoding": "inplace",
        "label": "contract IERC20",
        "numberOfBytes": "20"
      },
      "t_mapping(t_address,t_array(t_struct(Deposit)16181_storage)dyn_storage)": {
        "encoding": "mapping",
        "key": "t_address",
        "label": "mapping(address => struct Deposit[])",
        "numberOfBytes": "32",
        "value": "t_array(t_struct(Deposit)16181_storage)dyn_storage"
      },
      "t_mapping(t_address,t_struct(UserStore)13095_storage)": {
        "encoding": "mapping",
        "key": "t_address",
        "label": "mapping(address => struct BookingMapLib.UserStore)",
        "numberOfBytes": "32",
        "value": "t_struct(UserStore)13095_storage"
      },
      "t_mapping(t_address,t_uint256)": {
        "encoding": "mapping",
        "key": "t_address",
        "label": "mapping(address => uint256)",
        "numberOfBytes": "32",
        "value": "t_uint256"
      },
      "t_mapping(t_bytes32,t_bytes32)": {
        "encoding": "mapping",
        "key": "t_bytes32",
        "label": "mapping(bytes32 => bytes32)",
        "numberOfBytes": "32",
        "value": "t_bytes32"
      },
      "t_mapping(t_bytes32,t_struct(Booking)13080_storage)": {
        "encoding": "mapping",
        "key": "t_bytes32",
        "label": "mapping(bytes32 => struct BookingMapLib.Booking)",
        "numberOfBytes": "32",
        "value": "t_struct(Booking)13080_storage"
      },
      "t_mapping(t_bytes32,t_struct(Year)13106_storage)": {
        "encoding": "mapping",
        "key": "t_bytes32",
        "label": "mapping(bytes32 => struct BookingMapLib.Year)",
        "numberOfBytes": "32",
        "value": "t_struct(Year)13106_storage"
      },
      "t_mapping(t_bytes32,t_uint256)": {
        "encoding": "mapping",
        "key": "t_bytes32",
        "label": "mapping(bytes32 => uint256)",
        "numberOfBytes": "32",
        "value": "t_uint256"
      },
      "t_mapping(t_uint16,t_struct(Bytes32ToUintMap)14032_storage)": {
        "encoding": "mapping",
        "key": "t_uint16",
        "label": "mapping(uint16 => struct EnumerableMapLib.Bytes32ToUintMap)",
        "numberOfBytes": "32",
        "value": "t_struct(Bytes32ToUintMap)14032_storage"
      },
      "t_mapping(t_uint16,t_uint256)": {
        "encoding": "mapping",
        "key": "t_uint16",
        "label": "mapping(uint16 => uint256)",
        "numberOfBytes": "32",
        "value": "t_uint256"
      },
      "t_struct(AppStorage)16209_storage": {
        "encoding": "inplace",
        "label": "struct AppStorage",
        "members": [
          {
            "astId": 16184,
            "contract": "src/diamond/facets/AdminFacet.sol:AdminFacet",
            "label": "tdfToken",
            "offset": 0,
            "slot": "0",
            "type": "t_contract(IERC20)900"
          },
          {
            "astId": 16189,
            "contract": "src/diamond/facets/AdminFacet.sol:AdminFacet",
            "label": "_bookings",
            "offset": 0,
            "slot": "1",
            "type": "t_mapping(t_address,t_struct(UserStore)13095_storage)"
          },
          {
            "astId": 16192,
            "contract": "src/diamond/facets/AdminFacet.sol:AdminFacet",
            "label": "_years",
            "offset": 0,
            "slot": "2",
            "type": "t_struct(YearsStore)13115_storage"
          },
          {
            "astId": 16196,
            "contract": "src/diamond/facets/AdminFacet.sol:AdminFacet",
            "label": "_balances",
            "offset": 0,
            "slot": "5",
            "type": "t_mapping(t_address,t_uint256)"
          },
          {
            "astId": 16202,
            "contract": "src/diamond/facets/AdminFacet.sol:AdminFacet",
            "label": "_deposits",
            "offset": 0,
            "slot": "6",
            "type": "t_mapping(t_address,t_array(t_struct(Deposit)16181_storage)dyn_storage)"
          },
          {
            "astId": 16204,
            "contract": "src/diamond/facets/AdminFacet.sol:AdminFacet",
            "label": "lockingPeriod",
            "offset": 0,
            "slot": "7",
            "type": "t_uint256"
          },
          {
            "astId": 16206,
            "contract": "src/diamond/facets/AdminFacet.sol:AdminFacet",
            "label": "paused",
            "offset": 0,
            "slot": "8",
            "type": "t_bool"
          },
          {
            "astId": 16208,
            "contract": "src/diamond/facets/AdminFacet.sol:AdminFacet",
            "label": "initialized",
            "offset": 1,
            "slot": "8",
            "type": "t_bool"
          }
        ],
        "numberOfBytes": "288"
      },
      "t_struct(Booking)13080_storage": {
        "encoding": "inplace",
        "label": "struct BookingMapLib.Booking",
        "members": [
          {
            "astId": 13073,
            "contract": "src/diamond/facets/AdminFacet.sol:AdminFacet",
            "label": "year",
            "offset": 0,
            "slot": "0",
            "type": "t_uint16"
          },
          {
            "astId": 13075,
            "contract": "src/diamond/facets/AdminFacet.sol:AdminFacet",
            "label": "dayOfYear",
            "offset": 2,
            "slot": "0",
            "type": "t_uint16"
          },
          {
            "astId": 13077,
            "contract": "src/diamond/facets/AdminFacet.sol:AdminFacet",
            "label": "price",
            "offset": 0,
            "slot": "1",
            "type": "t_uint256"
          },
          {
            "astId": 13079,
            "contract": "src/diamond/facets/AdminFacet.sol:AdminFacet",
            "label": "timestamp",
            "offset": 0,
            "slot": "2",
            "type": "t_uint256"
          }
        ],
        "numberOfBytes": "96"
      },
      "t_struct(Bytes32Set)2071_storage": {
        "encoding": "inplace",
        "label": "struct EnumerableSet.Bytes32Set",
        "members": [
          {
            "astId": 2070,
            "contract": "src/diamond/facets/AdminFacet.sol:AdminFacet",
            "label": "_inner",
            "offset": 0,
            "slot": "0",
            "type": "t_struct(Set)1877_storage"
          }
        ],
        "numberOfBytes": "64"
      },
      "t_struct(Bytes32ToBytes32Map)13802_storage": {
        "encoding": "inplace",
        "label": "struct EnumerableMapLib.Bytes32ToBytes32Map",
        "members": [
          {
            "astId": 13797,
            "contract": "src/diamond/facets/AdminFacet.sol:AdminFacet",
            "label": "_keys",
            "offset": 0,
            "slot": "0",
            "type": "t_struct(Bytes32Set)2071_storage"
          },
          {
            "astId": 13801,
            "contract": "src/diamond/facets/AdminFacet.sol:AdminFacet",
            "label": "_values",
            "offset": 0,
            "slot": "2",
            "type": "t_mapping(t_bytes32,t_bytes32)"
          }
        ],
        "numberOfBytes": "96"
      },
      "t_struct(Bytes32ToUintMap)14032_storage": {
        "encoding": "inplace",
        "label": "struct EnumerableMapLib.Bytes32ToUintMap",
        "members": [
          {
            "astId": 14031,
            "contract": "src/diamond/facets/AdminFacet.sol:AdminFacet",
            "label": "_inner",
            "offset": 0,
            "slot": "0",
            "type": "t_struct(Bytes32ToBytes32Map)13802_storage"
          }
        ],
        "numberOfBytes": "96"
      },
      "t_struct(Deposit)16181_storage": {
        "encoding": "inplace",
        "label": "struct Deposit",
        "members": [
          {
            "astId": 16178,
            "contract": "src/diamond/facets/AdminFacet.sol:AdminFacet",
            "label": "timestamp",
            "offset": 0,
            "slot": "0",
            "type": "t_uint256"
          },
          {
            "astId": 16180,
            "contract": "src/diamond/facets/AdminFacet.sol:AdminFacet",
            "label": "amount",
            "offset": 0,
            "slot": "1",
            "type": "t_uint256"
          }
        ],
        "numberOfBytes": "64"
      },
      "t_struct(Set)1877_storage": {
        "encoding": "inplace",
        "label": "struct EnumerableSet.Set",
        "members": [
          {
            "astId": 1872,
            "contract": "src/diamond/facets/AdminFacet.sol:AdminFacet",
            "label": "_values",
            "offset": 0,
            "slot": "0",
            "type": "t_array(t_bytes32)dyn_storage"
          },
          {
            "astId": 1876,
            "contract": "src/diamond/facets/AdminFacet.sol:AdminFacet",
            "label": "_indexes",
            "offset": 0,
            "slot": "1",
            "type": "t_mapping(t_bytes32,t_uint256)"
          }
        ],
        "numberOfBytes": "64"
      },
      "t_struct(UserStore)13095_storage": {
        "encoding": "inplace",
        "label": "struct BookingMapLib.UserStore",
        "members": [
          {
            "astId": 13084,
            "contract": "src/diamond/facets/AdminFacet.sol:AdminFacet",
            "label": "balance",
            "offset": 0,
            "slot": "0",
            "type": "t_mapping(t_uint16,t_uint256)"
          },
          {
            "astId": 13089,
            "contract": "src/diamond/facets/AdminFacet.sol:AdminFacet",
            "label": "dates",
            "offset": 0,
            "slot": "1",
            "type": "t_mapping(t_uint16,t_struct(Bytes32ToUintMap)14032_storage)"
          },
          {
            "astId": 13094,
            "contract": "src/diamond/facets/AdminFacet.sol:AdminFacet",
            "label": "bookings",
            "offset": 0,
            "slot": "2",
            "type": "t_mapping(t_bytes32,t_struct(Booking)13080_storage)"
          }
        ],
        "numberOfBytes": "96"
      },
      "t_struct(Year)13106_storage": {
        "encoding": "inplace",
        "label": "struct BookingMapLib.Year",
        "members": [
          {
            "astId": 13097,
            "contract": "src/diamond/facets/AdminFacet.sol:AdminFacet",
            "label": "number",
            "offset": 0,
            "slot": "0",
            "type": "t_uint16"
          },
          {
            "astId": 13099,
            "contract": "src/diamond/facets/AdminFacet.sol:AdminFacet",
            "label": "leapYear",
            "offset": 2,
            "slot": "0",
            "type": "t_bool"
          },
          {
            "astId": 13101,
            "contract": "src/diamond/facets/AdminFacet.sol:AdminFacet",
            "label": "start",
            "offset": 0,
            "slot": "1",
            "type": "t_uint256"
          },
          {
            "astId": 13103,
            "contract": "src/diamond/facets/AdminFacet.sol:AdminFacet",
            "label": "end",
            "offset": 0,
            "slot": "2",
            "type": "t_uint256"
          },
          {
            "astId": 13105,
            "contract": "src/diamond/facets/AdminFacet.sol:AdminFacet",
            "label": "enabled",
            "offset": 0,
            "slot": "3",
            "type": "t_bool"
          }
        ],
        "numberOfBytes": "128"
      },
      "t_struct(YearsStore)13115_storage": {
        "encoding": "inplace",
        "label": "struct BookingMapLib.YearsStore",
        "members": [
          {
            "astId": 13109,
            "contract": "src/diamond/facets/AdminFacet.sol:AdminFacet",
            "label": "_inner",
            "offset": 0,
            "slot": "0",
            "type": "t_struct(Bytes32Set)2071_storage"
          },
          {
            "astId": 13114,
            "contract": "src/diamond/facets/AdminFacet.sol:AdminFacet",
            "label": "elems",
            "offset": 0,
            "slot": "2",
            "type": "t_mapping(t_bytes32,t_struct(Year)13106_storage)"
          }
        ],
        "numberOfBytes": "96"
      },
      "t_uint16": {
        "encoding": "inplace",
        "label": "uint16",
        "numberOfBytes": "2"
      },
      "t_uint256": {
        "encoding": "inplace",
        "label": "uint256",
        "numberOfBytes": "32"
      }
    }
  }
}