{
  "address": "0x2CE213ac771a4f315145709fBc9c07a7CA9bbfEd",
  "abi": [
    {
      "anonymous": false,
      "inputs": [
        {
          "indexed": false,
          "internalType": "address",
          "name": "account",
          "type": "address"
        },
        {
          "indexed": false,
          "internalType": "uint16[2][]",
          "name": "bookings",
          "type": "uint16[2][]"
        }
      ],
      "name": "CanceledBookings",
      "type": "event"
    },
    {
      "anonymous": false,
      "inputs": [
        {
          "indexed": false,
          "internalType": "address",
          "name": "account",
          "type": "address"
        },
        {
          "indexed": false,
          "internalType": "uint16[2][]",
          "name": "bookings",
          "type": "uint16[2][]"
        }
      ],
      "name": "NewBookings",
      "type": "event"
    },
    {
      "anonymous": false,
      "inputs": [
        {
          "indexed": false,
          "internalType": "uint16",
          "name": "number",
          "type": "uint16"
        },
        {
          "indexed": false,
          "internalType": "bool",
          "name": "leapYear",
          "type": "bool"
        },
        {
          "indexed": false,
          "internalType": "uint256",
          "name": "start",
          "type": "uint256"
        },
        {
          "indexed": false,
          "internalType": "uint256",
          "name": "end",
          "type": "uint256"
        },
        {
          "indexed": false,
          "internalType": "bool",
          "name": "enabled",
          "type": "bool"
        }
      ],
      "name": "YearAdded",
      "type": "event"
    },
    {
      "anonymous": false,
      "inputs": [
        {
          "indexed": false,
          "internalType": "uint16",
          "name": "number",
          "type": "uint16"
        }
      ],
      "name": "YearRemoved",
      "type": "event"
    },
    {
      "anonymous": false,
      "inputs": [
        {
          "indexed": false,
          "internalType": "uint16",
          "name": "number",
          "type": "uint16"
        },
        {
          "indexed": false,
          "internalType": "bool",
          "name": "leapYear",
          "type": "bool"
        },
        {
          "indexed": false,
          "internalType": "uint256",
          "name": "start",
          "type": "uint256"
        },
        {
          "indexed": false,
          "internalType": "uint256",
          "name": "end",
          "type": "uint256"
        },
        {
          "indexed": false,
          "internalType": "bool",
          "name": "enabled",
          "type": "bool"
        }
      ],
      "name": "YearUpdated",
      "type": "event"
    },
    {
      "inputs": [
        {
          "internalType": "uint16",
          "name": "number",
          "type": "uint16"
        },
        {
          "internalType": "bool",
          "name": "leapYear",
          "type": "bool"
        },
        {
          "internalType": "uint256",
          "name": "start",
          "type": "uint256"
        },
        {
          "internalType": "uint256",
          "name": "end",
          "type": "uint256"
        },
        {
          "internalType": "bool",
          "name": "enabled",
          "type": "bool"
        }
      ],
      "name": "addAccommodationYear",
      "outputs": [],
      "stateMutability": "nonpayable",
      "type": "function"
    },
    {
      "inputs": [
        {
          "internalType": "uint16[2][]",
          "name": "dates",
          "type": "uint16[2][]"
        }
      ],
      "name": "bookAccommodation",
      "outputs": [],
      "stateMutability": "nonpayable",
      "type": "function"
    },
    {
      "inputs": [
        {
          "internalType": "uint16[2][]",
          "name": "dates",
          "type": "uint16[2][]"
        }
      ],
      "name": "cancelAccommodation",
      "outputs": [],
      "stateMutability": "nonpayable",
      "type": "function"
    },
    {
      "inputs": [
        {
          "internalType": "uint16",
          "name": "number",
          "type": "uint16"
        },
        {
          "internalType": "bool",
          "name": "enable",
          "type": "bool"
        }
      ],
      "name": "enableAccommodationYear",
      "outputs": [],
      "stateMutability": "nonpayable",
      "type": "function"
    },
    {
      "inputs": [
        {
          "internalType": "address",
          "name": "account",
          "type": "address"
        },
        {
          "internalType": "uint16",
          "name": "yearNum",
          "type": "uint16"
        },
        {
          "internalType": "uint16",
          "name": "dayOfYear",
          "type": "uint16"
        }
      ],
      "name": "getAccommodationBooking",
      "outputs": [
        {
          "internalType": "bool",
          "name": "",
          "type": "bool"
        },
        {
          "components": [
            {
              "internalType": "uint16",
              "name": "year",
              "type": "uint16"
            },
            {
              "internalType": "uint16",
              "name": "dayOfYear",
              "type": "uint16"
            },
            {
              "internalType": "uint256",
              "name": "price",
              "type": "uint256"
            },
            {
              "internalType": "uint256",
              "name": "timestamp",
              "type": "uint256"
            }
          ],
          "internalType": "struct BookingMapLib.Booking",
          "name": "",
          "type": "tuple"
        }
      ],
      "stateMutability": "view",
      "type": "function"
    },
    {
      "inputs": [
        {
          "internalType": "address",
          "name": "account",
          "type": "address"
        },
        {
          "internalType": "uint16",
          "name": "_year",
          "type": "uint16"
        }
      ],
      "name": "getAccommodationBookings",
      "outputs": [
        {
          "components": [
            {
              "internalType": "uint16",
              "name": "year",
              "type": "uint16"
            },
            {
              "internalType": "uint16",
              "name": "dayOfYear",
              "type": "uint16"
            },
            {
              "internalType": "uint256",
              "name": "price",
              "type": "uint256"
            },
            {
              "internalType": "uint256",
              "name": "timestamp",
              "type": "uint256"
            }
          ],
          "internalType": "struct BookingMapLib.Booking[]",
          "name": "",
          "type": "tuple[]"
        }
      ],
      "stateMutability": "view",
      "type": "function"
    },
    {
      "inputs": [
        {
          "internalType": "uint16",
          "name": "number",
          "type": "uint16"
        }
      ],
      "name": "getAccommodationYear",
      "outputs": [
        {
          "internalType": "bool",
          "name": "",
          "type": "bool"
        },
        {
          "components": [
            {
              "internalType": "uint16",
              "name": "number",
              "type": "uint16"
            },
            {
              "internalType": "bool",
              "name": "leapYear",
              "type": "bool"
            },
            {
              "internalType": "uint256",
              "name": "start",
              "type": "uint256"
            },
            {
              "internalType": "uint256",
              "name": "end",
              "type": "uint256"
            },
            {
              "internalType": "bool",
              "name": "enabled",
              "type": "bool"
            }
          ],
          "internalType": "struct BookingMapLib.Year",
          "name": "",
          "type": "tuple"
        }
      ],
      "stateMutability": "view",
      "type": "function"
    },
    {
      "inputs": [],
      "name": "getAccommodationYears",
      "outputs": [
        {
          "components": [
            {
              "internalType": "uint16",
              "name": "number",
              "type": "uint16"
            },
            {
              "internalType": "bool",
              "name": "leapYear",
              "type": "bool"
            },
            {
              "internalType": "uint256",
              "name": "start",
              "type": "uint256"
            },
            {
              "internalType": "uint256",
              "name": "end",
              "type": "uint256"
            },
            {
              "internalType": "bool",
              "name": "enabled",
              "type": "bool"
            }
          ],
          "internalType": "struct BookingMapLib.Year[]",
          "name": "",
          "type": "tuple[]"
        }
      ],
      "stateMutability": "view",
      "type": "function"
    },
    {
      "inputs": [
        {
          "internalType": "address",
          "name": "account",
          "type": "address"
        },
        {
          "internalType": "uint16",
          "name": "year",
          "type": "uint16"
        },
        {
          "internalType": "uint16",
          "name": "day",
          "type": "uint16"
        }
      ],
      "name": "lockedStakeAt",
      "outputs": [
        {
          "internalType": "uint256",
          "name": "",
          "type": "uint256"
        }
      ],
      "stateMutability": "view",
      "type": "function"
    },
    {
      "inputs": [
        {
          "internalType": "uint16",
          "name": "number",
          "type": "uint16"
        }
      ],
      "name": "removeAccommodationYear",
      "outputs": [],
      "stateMutability": "nonpayable",
      "type": "function"
    },
    {
      "inputs": [
        {
          "internalType": "address",
          "name": "account",
          "type": "address"
        },
        {
          "internalType": "uint16",
          "name": "year",
          "type": "uint16"
        },
        {
          "internalType": "uint16",
          "name": "day",
          "type": "uint16"
        }
      ],
      "name": "unlockedStakeAt",
      "outputs": [
        {
          "internalType": "uint256",
          "name": "",
          "type": "uint256"
        }
      ],
      "stateMutability": "view",
      "type": "function"
    },
    {
      "inputs": [
        {
          "internalType": "uint16",
          "name": "number",
          "type": "uint16"
        },
        {
          "internalType": "bool",
          "name": "leapYear",
          "type": "bool"
        },
        {
          "internalType": "uint256",
          "name": "start",
          "type": "uint256"
        },
        {
          "internalType": "uint256",
          "name": "end",
          "type": "uint256"
        },
        {
          "internalType": "bool",
          "name": "enabled",
          "type": "bool"
        }
      ],
      "name": "updateAccommodationYear",
      "outputs": [],
      "stateMutability": "nonpayable",
      "type": "function"
    }
  ],
  "transactionHash": "0xb1ab8754012902ab4e1f6ae5487a702609536d8b57f7c75ebf675297eb4cb42b",
  "args": [],
  "numDeployments": 1,
  "solcInputHash": "a3f7e1f39c7db470da191178ce673972",
  "bytecode": "0x608060405234801561001057600080fd5b506138e6806100206000396000f3fe608060405234801561001057600080fd5b50600436106100d45760003560e01c806362bdefb111610081578063a1ff8ff81161005b578063a1ff8ff8146101ba578063a308e0ec146101db578063f4fed22a146101ee57600080fd5b806362bdefb11461017f578063709d872c1461019257806379ea4ecf146101a557600080fd5b8063395560fc116100b2578063395560fc146101385780634ba25e8a1461014b5780634c0e453e1461015e57600080fd5b80630fac92f0146100d957806310789efe14610102578063137ae83d14610123575b600080fd5b6100ec6100e7366004613222565b610201565b6040516100f99190613255565b60405180910390f35b6101156101103660046132cc565b61022f565b6040516100f992919061330f565b61013661013136600461334e565b61027e565b005b610136610146366004613377565b61034e565b6101366101593660046133d4565b61045e565b61017161016c3660046132cc565b61069c565b6040519081526020016100f9565b61017161018d3660046132cc565b610736565b6101366101a0366004613377565b6107c4565b6101ad6108d4565b6040516100f99190613449565b6101cd6101c836600461334e565b6108e5565b6040516100f99291906134be565b6101366101e93660046133d4565b610923565b6101366101fc366004613507565b610a3c565b6001600160a01b03821660009081526003602052604090206060906102269083610b55565b90505b92915050565b6040805160808101825260008082526020808301829052828401829052606083018290526001600160a01b038716825260039052918220610271908585610cb5565b915091505b935093915050565b7fefa2b23cd542346b38207721a79c51a70b01c47249f50a351696d8f313a8fe1c6102aa600182610d91565b6102b5600483610da0565b6103125760405162461bcd60e51b815260206004820152602360248201527f426f6f6b696e6746616365743a20556e61626c6520746f2072656d6f7665205960448201526232b0b960e91b60648201526084015b60405180910390fd5b60405161ffff831681527f95e58e7b256936d20ca1bde8fd750c5ae53d5d866224c71f5926b17c350ba166906020015b60405180910390a15050565b7fefa2b23cd542346b38207721a79c51a70b01c47249f50a351696d8f313a8fe1c61037a600182610d91565b6040805160a08101825261ffff8816815286151560208201529081018590526060810184905282151560808201526103b490600490610e05565b6104005760405162461bcd60e51b815260206004820181905260248201527f426f6f6b696e6746616365743a20556e61626c6520746f2061646420796561726044820152606401610309565b6040805161ffff8816815286151560208201529081018590526060810184905282151560808201527fc3da413c8752517eb598cf3d589891d0641833769cdf76283ba44468a3d46b869060a0015b60405180910390a1505050505050565b610466610e9b565b60005b81811015610667576000806105078585858181106104895761048961353e565b9050604002016000600281106104a1576104a161353e565b6020020160208101906104b4919061334e565b8686868181106104c6576104c661353e565b9050604002016001600281106104de576104de61353e565b6020020160208101906104f1919061334e565b3360009081526003602052604090209190610cb5565b91509150816105585760405162461bcd60e51b815260206004820152601a60248201527f5265736572766174696f6e20646f6573206e6f742065786974730000000000006044820152606401610309565b6105e03382606001518787878181106105735761057361353e565b90506040020160006002811061058b5761058b61353e565b60200201602081019061059e919061334e565b8888888181106105b0576105b061353e565b9050604002016001600281106105c8576105c861353e565b6020020160208101906105db919061334e565b610ef5565b33600081815260076020526040908190209083015160608401516106529361064a905b86606001518b8b8b81811061061a5761061a61353e565b9050604002016000600281106106325761063261353e565b602002016020810190610645919061334e565b61100a565b9291906110c5565b5050808061065f9061356a565b915050610469565b507fde8b8d404fa6ad1e0533531ef96e711b34a6df8d1133968c52bc335861f0ad8d335b838360405161034293929190613585565b600080806106ac6004868661112f565b91509150816106fd5760405162461bcd60e51b815260206004820152601960248201527f756e61626c6520746f206275696c642074696d657374616d70000000000000006044820152606401610309565b6001600160a01b038616600090815260076020526040902061072a908261072333611208565b9190611271565b925050505b9392505050565b600080806107466004868661112f565b91509150816107975760405162461bcd60e51b815260206004820152601960248201527f756e61626c6520746f206275696c642074696d657374616d70000000000000006044820152606401610309565b6001600160a01b038616600090815260076020526040902061072a90826107bd33611208565b919061128f565b7fefa2b23cd542346b38207721a79c51a70b01c47249f50a351696d8f313a8fe1c6107f0600182610d91565b6040805160a08101825261ffff88168152861515602082015290810185905260608101849052821515608082015261082a906004906112a5565b6108825760405162461bcd60e51b815260206004820152602360248201527f426f6f6b696e6746616365743a20556e61626c6520746f20757064617465205960448201526232b0b960e91b6064820152608401610309565b6040805161ffff8816815286151560208201529081018590526060810184905282151560808201527f85d7a9b39d1a1f0f2f68880d124ededd330f406e1b42f93234665005812d5a829060a00161044e565b60606108e060046112c1565b905090565b6040805160a081018252600080825260208201819052918101829052606081018290526080810182905261091a600484611404565b91509150915091565b61092b610e9b565b610934336114e7565b60005b81811015610a1457670de0b6b3a764000060006109ce338686868181106109605761096061353e565b9050604002016000600281106109785761097861353e565b60200201602081019061098b919061334e565b87878781811061099d5761099d61353e565b9050604002016001600281106109b5576109b561353e565b6020020160208101906109c8919061334e565b85611541565b33600081815260076020526040902060608301519293506109ff9290918591906109f790610603565b929190611700565b50508080610a0c9061356a565b915050610937565b507fa744791f7ba4cf0ed4fb864ccdf82192959af8252fd0250f73f067166f51ed6b3361068b565b7fefa2b23cd542346b38207721a79c51a70b01c47249f50a351696d8f313a8fe1c610a68600182610d91565b6000610a75600485611404565b84151560808201529150610a8c90506004826112a5565b610ae45760405162461bcd60e51b815260206004820152602360248201527f426f6f6b696e6746616365743a20556e61626c6520746f20757064617465207960448201526232b0b960e91b6064820152608401610309565b8051602080830151604080850151606080870151608080890151855161ffff909916895295151596880196909652928601919091528401521515908201527f85d7a9b39d1a1f0f2f68880d124ededd330f406e1b42f93234665005812d5a829060a00160405180910390a150505050565b61ffff81166000908152600183016020526040812060609190610b77906117cc565b67ffffffffffffffff811115610b8f57610b8f613604565b604051908082528060200260200182016040528015610be157816020015b604080516080810182526000808252602080830182905292820181905260608201528252600019909201910181610bad5790505b50905060005b61ffff841660009081526001860160205260409020610c05906117cc565b811015610cad5761ffff841660009081526001860160205260408120610c2b90836117d7565b506000818152600280890160209081526040928390208351608081018552815461ffff80821683526201000090910416928101929092526001810154938201939093529101546060820152845191925090849084908110610c8e57610c8e61353e565b6020026020010181905250508080610ca59061356a565b915050610be7565b509392505050565b60408051608081018252600080825260208201819052918101829052606081018290526000610ce485856117f3565b61ffff861660009081526001880160205260409020909150610d06908261184a565b15610d61576000908152600280870160209081526040928390208351608081018552815461ffff8082168352620100009091041692810192909252600181810154948301949094529091015460608201529092509050610276565b50506040805160808101825260008082526020820181905291810182905260608101829052909150935093915050565b610d9c828233611856565b5050565b600080610dac836118d9565b9050610db88482611926565b15610dfb576000908152600280850160205260408220805462ffffff191681556001808201849055918101929092556003909101805460ff191690559050610229565b5060009392505050565b600080610e1583600001516118d9565b9050610e218482611932565b15610dfb5760009081526002808501602090815260409283902085518154928701511515620100000262ffffff1990931661ffff909116179190911781559184015160018084019190915560608501519183019190915560808401516003909201805492151560ff19909316929092179091559050610229565b600054610100900460ff1615610ef35760405162461bcd60e51b815260206004820152601060248201527f5061757361626c653a20706175736564000000000000000000000000000000006044820152606401610309565b565b428311610f6a5760405162461bcd60e51b815260206004820152602960248201527f426f6f6b696e6746616365743a2043616e206e6f742063616e63656c2070617360448201527f7420626f6f6b696e6700000000000000000000000000000000000000000000006064820152608401610309565b6001600160a01b0384166000908152600360205260408120610f8d90848461193e565b509050806110035760405162461bcd60e51b815260206004820152602560248201527f426f6f6b696e6746616365743a20426f6f6b696e6720646f6573206e6f74206560448201527f78697374730000000000000000000000000000000000000000000000000000006064820152608401610309565b5050505050565b6110556040518060c0016040528060006001600160a01b0316815260200160006001600160a01b03168152602001600081526020016000815260200160008152602001600081525090565b6000611062600484611404565b6040805160c0810182526001600160a01b03808a168252600054620100009004166020820152600854918101919091529092509050606081016110a487611a34565b81526020018260400151815260200182606001518152509150509392505050565b60006110e485608001518660a0015186611aff9092919063ffffffff16565b9050806110f15750611129565b6000838210611101575082611104565b50805b611126818760a001516301e133808661111d919061361a565b88929190611b60565b50505b50505050565b60008060008061113f8787611404565b91509150818015611151575080608001515b156111f957600081602001511561118a5761016e82604001518360600151611179919061361a565b6111839190613631565b90506111ae565b61016d826040015183606001516111a1919061361a565b6111ab9190613631565b90505b60016111bb600283613631565b6111c6600189613653565b6111d49061ffff1684613676565b84604001516111e39190613695565b6111ed9190613695565b94509450505050610276565b50600096879650945050505050565b604080516080810182526000808252602082018190529181018290526060810191909152604080516080810182526001600160a01b038085168252600054620100009004166020820152600854918101919091526060810161126984611a34565b905292915050565b60006112876112808584611b78565b8490611b8a565b949350505050565b600061128761129e8584611b78565b8490611c4e565b6000806112b583600001516118d9565b9050610e218482611c66565b606060006112ce83611c7e565b90506000815167ffffffffffffffff8111156112ec576112ec613604565b60405190808252806020026020018201604052801561134557816020015b6040805160a08101825260008082526020808301829052928201819052606082018190526080820152825260001990920191018161130a5790505b50905060005b8251811015610cad5784600201600084838151811061136c5761136c61353e565b6020908102919091018101518252818101929092526040908101600020815160a081018352815461ffff8116825260ff62010000909104811615159482019490945260018201549281019290925260028101546060830152600301549091161515608082015282518390839081106113e6576113e661353e565b602002602001018190525080806113fc9061356a565b91505061134b565b6040805160a08101825260008082526020820181905291810182905260608101829052608081018290526000611439846118d9565b90506114458582611c66565b156114b057600090815260028086016020908152604092839020835160a081018552815461ffff8116825260ff6201000090910481161515938201939093526001828101549582019590955292810154606084015260030154161515608082015290925090506114e0565b50506040805160a08101825260008082526020820181905291810182905260608101829052608081018290529091505b9250929050565b6114f2600982611c89565b61153e5760405162461bcd60e51b815260206004820181905260248201527f4d656d626572736869703a206f6e6c79206d656d6265727320616c6c6f7765646044820152606401610309565b50565b604080516080810182526000808252602082018190529181018290526060810182905290806115736004878787611c95565b91509150816115ea5760405162461bcd60e51b815260206004820152602560248201527f426f6f6b696e6746616365743a20556e61626c6520746f206275696c6420426f60448201527f6f6b696e670000000000000000000000000000000000000000000000000000006064820152608401610309565b428160600151116116635760405162461bcd60e51b815260206004820152602a60248201527f426f6f6b696e6746616365743a20646174652073686f756c6420626520696e2060448201527f74686520667574757265000000000000000000000000000000000000000000006064820152608401610309565b6001600160a01b03871660009081526003602052604090206116859082611d3a565b6116f65760405162461bcd60e51b8152602060048201526024808201527f426f6f6b696e6746616365743a20426f6f6b696e6720616c726561647920657860448201527f69737473000000000000000000000000000000000000000000000000000000006064820152608401610309565b9695505050505050565b60006117198560a0015185611c4e90919063ffffffff16565b90508460600151811061172c5750611129565b82611737828261361a565b90506000611752876080015187611b8a90919063ffffffff16565b905081811061177a576117728261176888611e08565b5188919087611e4e565b505050611129565b801561179a5761178d8161176888611e08565b611797818361361a565b91505b6117a5868386611f17565b865160208801516117c3916001600160a01b03909116903085611f22565b50505050505050565b600061022982611faa565b60008080806117e68686611fb5565b9097909650945050505050565b6040517fffff00000000000000000000000000000000000000000000000000000000000060f084811b8216602084015283901b166022820152600090602401604051602081830303815290604052610226906136ad565b60006102268383611fe0565b6000828152602084815260408083206001600160a01b038516845290915290205460ff166118d457611892816001600160a01b03166014611fec565b61189d836020611fec565b6040516020016118ae929190613700565b60408051601f198184030181529082905262461bcd60e51b825261030991600401613781565b505050565b6040517fffff00000000000000000000000000000000000000000000000000000000000060f083901b166020820152600090602201604051602081830303815290604052610229906136ad565b60006102268383612215565b60006102268383612308565b6040805160808101825260008082526020820181905291810182905260608101829052600061196d85856117f3565b61ffff86166000908152600188016020526040902090915061198f9082612357565b15610d615760008181526002808801602090815260408084208151608081018352815461ffff808216835262010000909104811682860152600183015482850181905292909501546060820152938a168552918a905283208054929391929091906119fb90849061361a565b90915550506000918252600280880160205260408320805463ffffffff1916815560018082018590559101929092559092509050610276565b60008080611a4260046112c1565b905060005b81518161ffff161015611af65742828261ffff1681518110611a6b57611a6b61353e565b6020026020010151606001511015611a8257611ae4565b6000611ad4838361ffff1681518110611a9d57611a9d61353e565b602090810291909101810151516001600160a01b038916600090815260038352604080822061ffff90931682529190925290205490565b905083811115611ae2578093505b505b80611aee816137b4565b915050611a47565b50909392505050565b6000805b611b0c85612363565b811015610cad576000611b1f8683612380565b905084816000015110158015611b36575080518410155b15611b4d576020810151611b4a9084613695565b92505b5080611b588161356a565b915050611b03565b818110611b6c57611129565b611129848484846123c8565b6000826040015182610226919061361a565b6000611ba88360010154600f81810b600160801b909204900b131590565b15611bb557506000610229565b60005b6001840154600f81810b600160801b909204900b03811015611c47576000611be3600186018361241f565b9050838111611c2e57600385016000611bff600188018561241f565b81526020019081526020016000205483611c199190613695565b925083811415611c295750611c47565b611c34565b50611c47565b5080611c3f8161356a565b915050611bb8565b5092915050565b6000611c5a8383611b8a565b8354610226919061361a565b60008181526001830160205260408120541515610226565b6060610229826124bf565b6000610226838361251b565b6040805160808101825260008082526020820181905291810182905260608101829052600080611cc688888861112f565b915091508115611d0657600160405180608001604052808961ffff1681526020018861ffff16815260200187815260200183815250935093505050611d31565b5050604080516080810182526000808252602082018190529181018290526060810182905290925090505b94509492505050565b600080611d4f836000015184602001516117f3565b6060840151845161ffff1660009081526001870160205260409020919250611d799190839061253d565b15610dfb57604080840151845161ffff1660009081526020879052918220805491929091611da8908490613695565b9091555050600090815260028085016020908152604092839020855181549287015161ffff908116620100000263ffffffff1990941691161791909117815591840151600180840191909155606085015192909101919091559050610229565b60408051808201909152600080825260208201526000611e2a8360010161254a565b80835260009081526003909301602090815260409093205492820192909252919050565b80821415611e5b57611129565b808210611eaa5760405162461bcd60e51b815260206004820152601b60248201527f4f7264657265645374616b654c69623a2057726f6e6752616e676500000000006044820152606401610309565b6001840154600f81810b600160801b909204900b13611f0b5760405162461bcd60e51b815260206004820152601660248201527f4f7264657265645374616b654c69623a20456d707479000000000000000000006044820152606401610309565b611129848484846125b5565b6118d4838383612656565b604080516001600160a01b0385811660248301528416604482015260648082018490528251808303909101815260849091019091526020810180517bffffffffffffffffffffffffffffffffffffffffffffffffffffffff167f23b872dd0000000000000000000000000000000000000000000000000000000017905261112990859061271d565b600061022982612802565b60008080611fc3858561280c565b600081815260029690960160205260409095205494959350505050565b60006102268383611c66565b60606000611ffb836002613676565b612006906002613695565b67ffffffffffffffff81111561201e5761201e613604565b6040519080825280601f01601f191660200182016040528015612048576020820181803683370190505b5090507f30000000000000000000000000000000000000000000000000000000000000008160008151811061207f5761207f61353e565b60200101907effffffffffffffffffffffffffffffffffffffffffffffffffffffffffffff1916908160001a9053507f7800000000000000000000000000000000000000000000000000000000000000816001815181106120e2576120e261353e565b60200101907effffffffffffffffffffffffffffffffffffffffffffffffffffffffffffff1916908160001a905350600061211e846002613676565b612129906001613695565b90505b60018111156121c6577f303132333435363738396162636465660000000000000000000000000000000085600f166010811061216a5761216a61353e565b1a60f81b8282815181106121805761218061353e565b60200101907effffffffffffffffffffffffffffffffffffffffffffffffffffffffffffff1916908160001a90535060049490941c936121bf816137d6565b905061212c565b5083156102265760405162461bcd60e51b815260206004820181905260248201527f537472696e67733a20686578206c656e67746820696e73756666696369656e746044820152606401610309565b600081815260018301602052604081205480156122fe57600061223960018361361a565b855490915060009061224d9060019061361a565b90508181146122b257600086600001828154811061226d5761226d61353e565b90600052602060002001549050808760000184815481106122905761229061353e565b6000918252602080832090910192909255918252600188019052604090208390555b85548690806122c3576122c36137ed565b600190038181906000526020600020016000905590558560010160008681526020019081526020016000206000905560019350505050610229565b6000915050610229565b600081815260018301602052604081205461234f57508154600181810184556000848152602080822090930184905584548482528286019093526040902091909155610229565b506000610229565b60006102268383612818565b60006102298260010154600f81810b600160801b909204900b0390565b604080518082019091526000808252602082015260006123a3600185018461241f565b8083526000908152600390940160209081526040909420549382019390935292915050565b60006123d385612835565b9050828160000151116123f5576123f08585836000015185612857565b611003565b6123fe8561290e565b905061240c858585856123c8565b6110038582602001518360000151612656565b60008061244261242e8461297d565b855461243d9190600f0b613803565b612a19565b8454909150600160801b9004600f90810b9082900b126124a45760405162461bcd60e51b815260206004820152600b60248201527f4f75744f66426f756e64730000000000000000000000000000000000000000006044820152606401610309565b600f0b60009081526001939093016020525050604090205490565b60608160000180548060200260200160405190810160405280929190818152602001828054801561250f57602002820191906000526020600020905b8154815260200190600101908083116124fb575b50505050509050919050565b6001600160a01b03811660009081526001830160205260408120541515610226565b6000611287848484612acd565b60006125658254600f81810b600160801b909204900b131590565b1561259a5760405162461bcd60e51b8152602060048201526005602482015264456d70747960d81b6044820152606401610309565b508054600f0b60009081526001909101602052604090205490565b60006125c085612aea565b805190915083141561264a5783816020015114156125e3576123f0858584612b49565b8381602001511115612615576125fa858584612b49565b6123f08585836020015161260e919061361a565b8351612b49565b61262485826020015184612b49565b6123f085826020015186612638919061361a565b6126448860010161254a565b856125b5565b61240c858585856125b5565b6001830154600f81810b600160801b909204900b1361267a576118d4838383612cc1565b600061268884600101612dc3565b9050818110156126a25761269d848484612cc1565b611129565b818114156126b55761269d848484612e3d565b60006126c385600101612efb565b90506126d0858585612656565b61100360018601828154600160801b90819004600f0b6000818152600180860160205260409091209390935583546fffffffffffffffffffffffffffffffff908116939091011602179055565b6000612772826040518060400160405280602081526020017f5361666545524332303a206c6f772d6c6576656c2063616c6c206661696c6564815250856001600160a01b0316612f9b9092919063ffffffff16565b8051909150156118d457808060200190518101906127909190613877565b6118d45760405162461bcd60e51b815260206004820152602a60248201527f5361666545524332303a204552433230206f7065726174696f6e20646964206e60448201527f6f742073756363656564000000000000000000000000000000000000000000006064820152608401610309565b6000610229825490565b60006102268383612faa565b600081815260028301602052604081208190556102268383611926565b60408051808201909152600080825260208201526000611e2a83600101612dc3565b8261286157611129565b600061286c8561290e565b805190915083141561290257838160200151141561288f576123f0858584612656565b83816020015111156128c1576128a6858584612656565b6123f0858583602001516128ba919061361a565b8351612656565b80602001518411156123f0576128dc85826020015184612656565b6123f0858260200151866128f0919061361a565b6128fc88600101612dc3565b85612857565b61240c85858585612857565b6040805180820190915260008082526020820152600061293083600101612efb565b8083526000818152600385016020908152604082205490850181905285549293509185919061296090849061361a565b909155505060009081526003909201602052604082209190915590565b60007f7fffffffffffffffffffffffffffffffffffffffffffffffffffffffffffffff821115612a155760405162461bcd60e51b815260206004820152602860248201527f53616665436173743a2076616c756520646f65736e27742066697420696e206160448201527f6e20696e743235360000000000000000000000000000000000000000000000006064820152608401610309565b5090565b60007fffffffffffffffffffffffffffffffff800000000000000000000000000000008212801590612a5b57506f7fffffffffffffffffffffffffffffff8213155b612a155760405162461bcd60e51b815260206004820152602760248201527f53616665436173743a2076616c756520646f65736e27742066697420696e203160448201527f32382062697473000000000000000000000000000000000000000000000000006064820152608401610309565b600082815260028401602052604081208290556112878484611932565b60408051808201909152600080825260208201526000612b0c83600101612fd4565b6000818152600385016020526040812080549082905585549293509182918691612b3790849061361a565b90915550509082526020820152919050565b6001830154600f81810b600160801b909204900b13612bc2576118d483838380612d9460018501828154600f90810b600019019081900b600090815260018401602052604090209190915581546fffffffffffffffffffffffffffffffff19166fffffffffffffffffffffffffffffffff909116179055565b6000612bd08460010161254a565b905081811115612c3a5761269d84848480612d9460018501828154600f90810b600019019081900b600090815260018401602052604090209190915581546fffffffffffffffffffffffffffffffff19166fffffffffffffffffffffffffffffffff909116179055565b81811415612c4d5761269d848484612e3d565b6000612c5b85600101612fd4565b9050612c68858585612b49565b61100360018601828154600f90810b600019019081900b600090815260018401602052604090209190915581546fffffffffffffffffffffffffffffffff19166fffffffffffffffffffffffffffffffff909116179055565b6000818152600384016020526040902054819015612d475760405162461bcd60e51b815260206004820152602c60248201527f4f7264657265645374616b654c69623a2043414e204e4f54204f56455252494460448201527f452054494d455354414d505300000000000000000000000000000000000000006064820152608401610309565b612d9460018501828154600160801b90819004600f0b6000818152600180860160205260409091209390935583546fffffffffffffffffffffffffffffffff908116939091011602179055565b60008181526003850160205260408120849055845484918691612db8908490613695565b909155505050505050565b6000612dde8254600f81810b600160801b909204900b131590565b15612e135760405162461bcd60e51b8152602060048201526005602482015264456d70747960d81b6044820152606401610309565b508054600160801b9004600f90810b60001901900b60009081526001909101602052604090205490565b60008181526003840160205260409020548190612ec25760405162461bcd60e51b815260206004820152602760248201527f4f7264657265645374616b654c69623a20547279696e6720746f20757064617460448201527f6520656d707479000000000000000000000000000000000000000000000000006064820152608401610309565b600081815260038501602052604081208054859290612ee2908490613695565b9091555050835483908590600090612db8908490613695565b6000612f168254600f81810b600160801b909204900b131590565b15612f4b5760405162461bcd60e51b8152602060048201526005602482015264456d70747960d81b6044820152606401610309565b508054600160801b90819004600f90810b600019019081900b60009081526001840160205260408120805491905583546fffffffffffffffffffffffffffffffff90811692169092021790915590565b60606112878484600085613073565b6000826000018281548110612fc157612fc161353e565b9060005260206000200154905092915050565b6000612fef8254600f81810b600160801b909204900b131590565b156130245760405162461bcd60e51b8152602060048201526005602482015264456d70747960d81b6044820152606401610309565b508054600f0b6000818152600180840160205260408220805492905583546fffffffffffffffffffffffffffffffff191692016fffffffffffffffffffffffffffffffff169190911790915590565b6060824710156130eb5760405162461bcd60e51b815260206004820152602660248201527f416464726573733a20696e73756666696369656e742062616c616e636520666f60448201527f722063616c6c00000000000000000000000000000000000000000000000000006064820152608401610309565b6001600160a01b0385163b6131425760405162461bcd60e51b815260206004820152601d60248201527f416464726573733a2063616c6c20746f206e6f6e2d636f6e74726163740000006044820152606401610309565b600080866001600160a01b0316858760405161315e9190613894565b60006040518083038185875af1925050503d806000811461319b576040519150601f19603f3d011682016040523d82523d6000602084013e6131a0565b606091505b50915091506131b08282866131bb565b979650505050505050565b606083156131ca57508161072f565b8251156131da5782518084602001fd5b8160405162461bcd60e51b81526004016103099190613781565b80356001600160a01b038116811461320b57600080fd5b919050565b803561ffff8116811461320b57600080fd5b6000806040838503121561323557600080fd5b61323e836131f4565b915061324c60208401613210565b90509250929050565b6020808252825182820181905260009190848201906040850190845b818110156132c0576132ad83855161ffff8082511683528060208301511660208401525060408101516040830152606081015160608301525050565b9284019260809290920191600101613271565b50909695505050505050565b6000806000606084860312156132e157600080fd5b6132ea846131f4565b92506132f860208501613210565b915061330660408501613210565b90509250925092565b821515815260a0810161072f602083018461ffff8082511683528060208301511660208401525060408101516040830152606081015160608301525050565b60006020828403121561336057600080fd5b61022682613210565b801515811461153e57600080fd5b600080600080600060a0868803121561338f57600080fd5b61339886613210565b945060208601356133a881613369565b9350604086013592506060860135915060808601356133c681613369565b809150509295509295909350565b600080602083850312156133e757600080fd5b823567ffffffffffffffff808211156133ff57600080fd5b818501915085601f83011261341357600080fd5b81358181111561342257600080fd5b8660208260061b850101111561343757600080fd5b60209290920196919550909350505050565b6020808252825182820181905260009190848201906040850190845b818110156132c0576134ab83855161ffff815116825260208101511515602083015260408101516040830152606081015160608301526080810151151560808301525050565b9284019260a09290920191600101613465565b821515815260c0810161072f602083018461ffff815116825260208101511515602083015260408101516040830152606081015160608301526080810151151560808301525050565b6000806040838503121561351a57600080fd5b61352383613210565b9150602083013561353381613369565b809150509250929050565b634e487b7160e01b600052603260045260246000fd5b634e487b7160e01b600052601160045260246000fd5b600060001982141561357e5761357e613554565b5060010190565b6001600160a01b0384168152604060208083018290528282018490526000919085906060850184805b888110156135f5578285835b60028110156135e25761ffff6135cf83613210565b16835291860191908601906001016135ba565b50505093850193918501916001016135ae565b50909998505050505050505050565b634e487b7160e01b600052604160045260246000fd5b60008282101561362c5761362c613554565b500390565b60008261364e57634e487b7160e01b600052601260045260246000fd5b500490565b600061ffff8381169083168181101561366e5761366e613554565b039392505050565b600081600019048311821515161561369057613690613554565b500290565b600082198211156136a8576136a8613554565b500190565b805160208083015191908110156136ce576000198160200360031b1b821691505b50919050565b60005b838110156136ef5781810151838201526020016136d7565b838111156111295750506000910152565b7f416363657373436f6e74726f6c3a206163636f756e74200000000000000000008152600083516137388160178501602088016136d4565b7f206973206d697373696e6720726f6c652000000000000000000000000000000060179184019182015283516137758160288401602088016136d4565b01602801949350505050565b60208152600082518060208401526137a08160408501602087016136d4565b601f01601f19169190910160400192915050565b600061ffff808316818114156137cc576137cc613554565b6001019392505050565b6000816137e5576137e5613554565b506000190190565b634e487b7160e01b600052603160045260246000fd5b6000808212827f7fffffffffffffffffffffffffffffffffffffffffffffffffffffffffffffff0384138115161561383d5761383d613554565b827f800000000000000000000000000000000000000000000000000000000000000003841281161561387157613871613554565b50500190565b60006020828403121561388957600080fd5b815161022681613369565b600082516138a68184602087016136d4565b919091019291505056fea2646970667358221220b0434e4220e5f6f4020c03de08fab081c1384136a98c5bdd15f28cd519e903d364736f6c63430008090033",
  "devdoc": {
    "kind": "dev",
    "methods": {},
    "version": 1
  },
  "userdoc": {
    "kind": "user",
    "methods": {},
    "version": 1
  },
  "storageLayout": {
    "storage": [
      {
        "astId": 21311,
        "contract": "src/diamond/facets/BookingFacet.sol:BookingFacet",
        "label": "s",
        "offset": 0,
        "slot": "0",
        "type": "t_struct(AppStorage)21279_storage"
      }
    ],
    "types": {
      "t_address": {
        "encoding": "inplace",
        "label": "address",
        "numberOfBytes": "20"
      },
      "t_array(t_bytes32)dyn_storage": {
        "base": "t_bytes32",
        "encoding": "dynamic_array",
        "label": "bytes32[]",
        "numberOfBytes": "32"
      },
      "t_bool": {
        "encoding": "inplace",
        "label": "bool",
        "numberOfBytes": "1"
      },
      "t_bytes32": {
        "encoding": "inplace",
        "label": "bytes32",
        "numberOfBytes": "32"
      },
      "t_contract(IERC20)2445": {
        "encoding": "inplace",
        "label": "contract IERC20",
        "numberOfBytes": "20"
      },
      "t_int128": {
        "encoding": "inplace",
        "label": "int128",
        "numberOfBytes": "16"
      },
      "t_mapping(t_address,t_bool)": {
        "encoding": "mapping",
        "key": "t_address",
        "label": "mapping(address => bool)",
        "numberOfBytes": "32",
        "value": "t_bool"
      },
      "t_mapping(t_address,t_struct(Store)22412_storage)": {
        "encoding": "mapping",
        "key": "t_address",
        "label": "mapping(address => struct OrderedStakeLib.Store)",
        "numberOfBytes": "32",
        "value": "t_struct(Store)22412_storage"
      },
      "t_mapping(t_address,t_struct(UserStore)21592_storage)": {
        "encoding": "mapping",
        "key": "t_address",
        "label": "mapping(address => struct BookingMapLib.UserStore)",
        "numberOfBytes": "32",
        "value": "t_struct(UserStore)21592_storage"
      },
      "t_mapping(t_bytes32,t_bytes32)": {
        "encoding": "mapping",
        "key": "t_bytes32",
        "label": "mapping(bytes32 => bytes32)",
        "numberOfBytes": "32",
        "value": "t_bytes32"
      },
      "t_mapping(t_bytes32,t_struct(AddressSet)7772_storage)": {
        "encoding": "mapping",
        "key": "t_bytes32",
        "label": "mapping(bytes32 => struct EnumerableSet.AddressSet)",
        "numberOfBytes": "32",
        "value": "t_struct(AddressSet)7772_storage"
      },
      "t_mapping(t_bytes32,t_struct(Booking)21577_storage)": {
        "encoding": "mapping",
        "key": "t_bytes32",
        "label": "mapping(bytes32 => struct BookingMapLib.Booking)",
        "numberOfBytes": "32",
        "value": "t_struct(Booking)21577_storage"
      },
      "t_mapping(t_bytes32,t_struct(RoleData)20886_storage)": {
        "encoding": "mapping",
        "key": "t_bytes32",
        "label": "mapping(bytes32 => struct AccessControlLib.RoleData)",
        "numberOfBytes": "32",
        "value": "t_struct(RoleData)20886_storage"
      },
      "t_mapping(t_bytes32,t_struct(Year)21603_storage)": {
        "encoding": "mapping",
        "key": "t_bytes32",
        "label": "mapping(bytes32 => struct BookingMapLib.Year)",
        "numberOfBytes": "32",
        "value": "t_struct(Year)21603_storage"
      },
      "t_mapping(t_bytes32,t_uint256)": {
        "encoding": "mapping",
        "key": "t_bytes32",
        "label": "mapping(bytes32 => uint256)",
        "numberOfBytes": "32",
        "value": "t_uint256"
      },
      "t_mapping(t_int128,t_bytes32)": {
        "encoding": "mapping",
        "key": "t_int128",
        "label": "mapping(int128 => bytes32)",
        "numberOfBytes": "32",
        "value": "t_bytes32"
      },
      "t_mapping(t_uint16,t_struct(Bytes32ToUintMap)7277_storage)": {
        "encoding": "mapping",
        "key": "t_uint16",
        "label": "mapping(uint16 => struct EnumerableMap.Bytes32ToUintMap)",
        "numberOfBytes": "32",
        "value": "t_struct(Bytes32ToUintMap)7277_storage"
      },
      "t_mapping(t_uint16,t_uint256)": {
        "encoding": "mapping",
        "key": "t_uint16",
        "label": "mapping(uint16 => uint256)",
        "numberOfBytes": "32",
        "value": "t_uint256"
      },
      "t_struct(AddressSet)7772_storage": {
        "encoding": "inplace",
        "label": "struct EnumerableSet.AddressSet",
        "members": [
          {
            "astId": 7771,
            "contract": "src/diamond/facets/BookingFacet.sol:BookingFacet",
            "label": "_inner",
            "offset": 0,
            "slot": "0",
            "type": "t_struct(Set)7471_storage"
          }
        ],
        "numberOfBytes": "64"
      },
      "t_struct(AppStorage)21279_storage": {
        "encoding": "inplace",
        "label": "struct AppStorage",
        "members": [
          {
            "astId": 21252,
            "contract": "src/diamond/facets/BookingFacet.sol:BookingFacet",
            "label": "initialized",
            "offset": 0,
            "slot": "0",
            "type": "t_bool"
          },
          {
            "astId": 21254,
            "contract": "src/diamond/facets/BookingFacet.sol:BookingFacet",
            "label": "paused",
            "offset": 1,
            "slot": "0",
            "type": "t_bool"
          },
          {
            "astId": 21257,
            "contract": "src/diamond/facets/BookingFacet.sol:BookingFacet",
            "label": "communityToken",
            "offset": 2,
            "slot": "0",
            "type": "t_contract(IERC20)2445"
          },
          {
            "astId": 21260,
            "contract": "src/diamond/facets/BookingFacet.sol:BookingFacet",
            "label": "_roleStore",
            "offset": 0,
            "slot": "1",
            "type": "t_struct(RoleStore)20897_storage"
          },
          {
            "astId": 21265,
            "contract": "src/diamond/facets/BookingFacet.sol:BookingFacet",
            "label": "_accommodationBookings",
            "offset": 0,
            "slot": "3",
            "type": "t_mapping(t_address,t_struct(UserStore)21592_storage)"
          },
          {
            "astId": 21268,
            "contract": "src/diamond/facets/BookingFacet.sol:BookingFacet",
            "label": "_accommodationYears",
            "offset": 0,
            "slot": "4",
            "type": "t_struct(YearsStore)21612_storage"
          },
          {
            "astId": 21273,
            "contract": "src/diamond/facets/BookingFacet.sol:BookingFacet",
            "label": "staking",
            "offset": 0,
            "slot": "7",
            "type": "t_mapping(t_address,t_struct(Store)22412_storage)"
          },
          {
            "astId": 21275,
            "contract": "src/diamond/facets/BookingFacet.sol:BookingFacet",
            "label": "_lockingTimePeriod",
            "offset": 0,
            "slot": "8",
            "type": "t_uint256"
          },
          {
            "astId": 21278,
            "contract": "src/diamond/facets/BookingFacet.sol:BookingFacet",
            "label": "members",
            "offset": 0,
            "slot": "9",
            "type": "t_struct(Store)22285_storage"
          }
        ],
        "numberOfBytes": "352"
      },
      "t_struct(Booking)21577_storage": {
        "encoding": "inplace",
        "label": "struct BookingMapLib.Booking",
        "members": [
          {
            "astId": 21570,
            "contract": "src/diamond/facets/BookingFacet.sol:BookingFacet",
            "label": "year",
            "offset": 0,
            "slot": "0",
            "type": "t_uint16"
          },
          {
            "astId": 21572,
            "contract": "src/diamond/facets/BookingFacet.sol:BookingFacet",
            "label": "dayOfYear",
            "offset": 2,
            "slot": "0",
            "type": "t_uint16"
          },
          {
            "astId": 21574,
            "contract": "src/diamond/facets/BookingFacet.sol:BookingFacet",
            "label": "price",
            "offset": 0,
            "slot": "1",
            "type": "t_uint256"
          },
          {
            "astId": 21576,
            "contract": "src/diamond/facets/BookingFacet.sol:BookingFacet",
            "label": "timestamp",
            "offset": 0,
            "slot": "2",
            "type": "t_uint256"
          }
        ],
        "numberOfBytes": "96"
      },
      "t_struct(Bytes32Deque)19174_storage": {
        "encoding": "inplace",
        "label": "struct CustomDoubleEndedQueue.Bytes32Deque",
        "members": [
          {
            "astId": 19167,
            "contract": "src/diamond/facets/BookingFacet.sol:BookingFacet",
            "label": "_begin",
            "offset": 0,
            "slot": "0",
            "type": "t_int128"
          },
          {
            "astId": 19169,
            "contract": "src/diamond/facets/BookingFacet.sol:BookingFacet",
            "label": "_end",
            "offset": 16,
            "slot": "0",
            "type": "t_int128"
          },
          {
            "astId": 19173,
            "contract": "src/diamond/facets/BookingFacet.sol:BookingFacet",
            "label": "_data",
            "offset": 0,
            "slot": "1",
            "type": "t_mapping(t_int128,t_bytes32)"
          }
        ],
        "numberOfBytes": "64"
      },
      "t_struct(Bytes32Set)7665_storage": {
        "encoding": "inplace",
        "label": "struct EnumerableSet.Bytes32Set",
        "members": [
          {
            "astId": 7664,
            "contract": "src/diamond/facets/BookingFacet.sol:BookingFacet",
            "label": "_inner",
            "offset": 0,
            "slot": "0",
            "type": "t_struct(Set)7471_storage"
          }
        ],
        "numberOfBytes": "64"
      },
      "t_struct(Bytes32ToBytes32Map)6354_storage": {
        "encoding": "inplace",
        "label": "struct EnumerableMap.Bytes32ToBytes32Map",
        "members": [
          {
            "astId": 6349,
            "contract": "src/diamond/facets/BookingFacet.sol:BookingFacet",
            "label": "_keys",
            "offset": 0,
            "slot": "0",
            "type": "t_struct(Bytes32Set)7665_storage"
          },
          {
            "astId": 6353,
            "contract": "src/diamond/facets/BookingFacet.sol:BookingFacet",
            "label": "_values",
            "offset": 0,
            "slot": "2",
            "type": "t_mapping(t_bytes32,t_bytes32)"
          }
        ],
        "numberOfBytes": "96"
      },
      "t_struct(Bytes32ToUintMap)7277_storage": {
        "encoding": "inplace",
        "label": "struct EnumerableMap.Bytes32ToUintMap",
        "members": [
          {
            "astId": 7276,
            "contract": "src/diamond/facets/BookingFacet.sol:BookingFacet",
            "label": "_inner",
            "offset": 0,
            "slot": "0",
            "type": "t_struct(Bytes32ToBytes32Map)6354_storage"
          }
        ],
        "numberOfBytes": "96"
      },
      "t_struct(RoleData)20886_storage": {
        "encoding": "inplace",
        "label": "struct AccessControlLib.RoleData",
        "members": [
          {
            "astId": 20883,
            "contract": "src/diamond/facets/BookingFacet.sol:BookingFacet",
            "label": "members",
            "offset": 0,
            "slot": "0",
            "type": "t_mapping(t_address,t_bool)"
          },
          {
            "astId": 20885,
            "contract": "src/diamond/facets/BookingFacet.sol:BookingFacet",
            "label": "adminRole",
            "offset": 0,
            "slot": "1",
            "type": "t_bytes32"
          }
        ],
        "numberOfBytes": "64"
      },
      "t_struct(RoleStore)20897_storage": {
        "encoding": "inplace",
        "label": "struct AccessControlLib.RoleStore",
        "members": [
          {
            "astId": 20891,
            "contract": "src/diamond/facets/BookingFacet.sol:BookingFacet",
            "label": "_roles",
            "offset": 0,
            "slot": "0",
            "type": "t_mapping(t_bytes32,t_struct(RoleData)20886_storage)"
          },
          {
            "astId": 20896,
            "contract": "src/diamond/facets/BookingFacet.sol:BookingFacet",
            "label": "_roleMembers",
            "offset": 0,
            "slot": "1",
            "type": "t_mapping(t_bytes32,t_struct(AddressSet)7772_storage)"
          }
        ],
        "numberOfBytes": "64"
      },
      "t_struct(Set)7471_storage": {
        "encoding": "inplace",
        "label": "struct EnumerableSet.Set",
        "members": [
          {
            "astId": 7466,
            "contract": "src/diamond/facets/BookingFacet.sol:BookingFacet",
            "label": "_values",
            "offset": 0,
            "slot": "0",
            "type": "t_array(t_bytes32)dyn_storage"
          },
          {
            "astId": 7470,
            "contract": "src/diamond/facets/BookingFacet.sol:BookingFacet",
            "label": "_indexes",
            "offset": 0,
            "slot": "1",
            "type": "t_mapping(t_bytes32,t_uint256)"
          }
        ],
        "numberOfBytes": "64"
      },
      "t_struct(Store)22285_storage": {
        "encoding": "inplace",
        "label": "struct MembershipLib.Store",
        "members": [
          {
            "astId": 22284,
            "contract": "src/diamond/facets/BookingFacet.sol:BookingFacet",
            "label": "_inner",
            "offset": 0,
            "slot": "0",
            "type": "t_struct(AddressSet)7772_storage"
          }
        ],
        "numberOfBytes": "64"
      },
      "t_struct(Store)22412_storage": {
        "encoding": "inplace",
        "label": "struct OrderedStakeLib.Store",
        "members": [
          {
            "astId": 22404,
            "contract": "src/diamond/facets/BookingFacet.sol:BookingFacet",
            "label": "_balance",
            "offset": 0,
            "slot": "0",
            "type": "t_uint256"
          },
          {
            "astId": 22407,
            "contract": "src/diamond/facets/BookingFacet.sol:BookingFacet",
            "label": "_queue",
            "offset": 0,
            "slot": "1",
            "type": "t_struct(Bytes32Deque)19174_storage"
          },
          {
            "astId": 22411,
            "contract": "src/diamond/facets/BookingFacet.sol:BookingFacet",
            "label": "_amounts",
            "offset": 0,
            "slot": "3",
            "type": "t_mapping(t_bytes32,t_uint256)"
          }
        ],
        "numberOfBytes": "128"
      },
      "t_struct(UserStore)21592_storage": {
        "encoding": "inplace",
        "label": "struct BookingMapLib.UserStore",
        "members": [
          {
            "astId": 21581,
            "contract": "src/diamond/facets/BookingFacet.sol:BookingFacet",
            "label": "balance",
            "offset": 0,
            "slot": "0",
            "type": "t_mapping(t_uint16,t_uint256)"
          },
          {
            "astId": 21586,
            "contract": "src/diamond/facets/BookingFacet.sol:BookingFacet",
            "label": "dates",
            "offset": 0,
            "slot": "1",
            "type": "t_mapping(t_uint16,t_struct(Bytes32ToUintMap)7277_storage)"
          },
          {
            "astId": 21591,
            "contract": "src/diamond/facets/BookingFacet.sol:BookingFacet",
            "label": "bookings",
            "offset": 0,
            "slot": "2",
            "type": "t_mapping(t_bytes32,t_struct(Booking)21577_storage)"
          }
        ],
        "numberOfBytes": "96"
      },
      "t_struct(Year)21603_storage": {
        "encoding": "inplace",
        "label": "struct BookingMapLib.Year",
        "members": [
          {
            "astId": 21594,
            "contract": "src/diamond/facets/BookingFacet.sol:BookingFacet",
            "label": "number",
            "offset": 0,
            "slot": "0",
            "type": "t_uint16"
          },
          {
            "astId": 21596,
            "contract": "src/diamond/facets/BookingFacet.sol:BookingFacet",
            "label": "leapYear",
            "offset": 2,
            "slot": "0",
            "type": "t_bool"
          },
          {
            "astId": 21598,
            "contract": "src/diamond/facets/BookingFacet.sol:BookingFacet",
            "label": "start",
            "offset": 0,
            "slot": "1",
            "type": "t_uint256"
          },
          {
            "astId": 21600,
            "contract": "src/diamond/facets/BookingFacet.sol:BookingFacet",
            "label": "end",
            "offset": 0,
            "slot": "2",
            "type": "t_uint256"
          },
          {
            "astId": 21602,
            "contract": "src/diamond/facets/BookingFacet.sol:BookingFacet",
            "label": "enabled",
            "offset": 0,
            "slot": "3",
            "type": "t_bool"
          }
        ],
        "numberOfBytes": "128"
      },
      "t_struct(YearsStore)21612_storage": {
        "encoding": "inplace",
        "label": "struct BookingMapLib.YearsStore",
        "members": [
          {
            "astId": 21606,
            "contract": "src/diamond/facets/BookingFacet.sol:BookingFacet",
            "label": "_inner",
            "offset": 0,
            "slot": "0",
            "type": "t_struct(Bytes32Set)7665_storage"
          },
          {
            "astId": 21611,
            "contract": "src/diamond/facets/BookingFacet.sol:BookingFacet",
            "label": "elems",
            "offset": 0,
            "slot": "2",
            "type": "t_mapping(t_bytes32,t_struct(Year)21603_storage)"
          }
        ],
        "numberOfBytes": "96"
      },
      "t_uint16": {
        "encoding": "inplace",
        "label": "uint16",
        "numberOfBytes": "2"
      },
      "t_uint256": {
        "encoding": "inplace",
        "label": "uint256",
        "numberOfBytes": "32"
      }
    }
  }
}