{
  "address": "0x3Ac34D414A9Df4641D1E33cCD2317b6E9098D5Fd",
  "abi": [
    {
      "anonymous": false,
      "inputs": [
        {
          "indexed": false,
          "internalType": "address",
          "name": "executer",
          "type": "address"
        },
        {
          "indexed": false,
          "internalType": "address",
          "name": "account",
          "type": "address"
        },
        {
          "indexed": false,
          "internalType": "uint16[2][]",
          "name": "bookings",
          "type": "uint16[2][]"
        }
      ],
      "name": "BookingCheckedIn",
      "type": "event"
    },
    {
      "anonymous": false,
      "inputs": [
        {
          "indexed": false,
          "internalType": "address",
          "name": "executer",
          "type": "address"
        },
        {
          "indexed": false,
          "internalType": "address",
          "name": "account",
          "type": "address"
        },
        {
          "indexed": false,
          "internalType": "uint16[2][]",
          "name": "bookings",
          "type": "uint16[2][]"
        }
      ],
      "name": "BookingConfirmed",
      "type": "event"
    },
    {
      "anonymous": false,
      "inputs": [
        {
          "indexed": false,
          "internalType": "address",
          "name": "account",
          "type": "address"
        },
        {
          "indexed": false,
          "internalType": "uint16[2][]",
          "name": "bookings",
          "type": "uint16[2][]"
        }
      ],
      "name": "CanceledBookings",
      "type": "event"
    },
    {
      "anonymous": false,
      "inputs": [
        {
          "indexed": false,
          "internalType": "address",
          "name": "account",
          "type": "address"
        },
        {
          "indexed": false,
          "internalType": "uint16[2][]",
          "name": "bookings",
          "type": "uint16[2][]"
        }
      ],
      "name": "NewBookings",
      "type": "event"
    },
    {
      "anonymous": false,
      "inputs": [
        {
          "indexed": false,
          "internalType": "uint16",
          "name": "number",
          "type": "uint16"
        },
        {
          "indexed": false,
          "internalType": "bool",
          "name": "leapYear",
          "type": "bool"
        },
        {
          "indexed": false,
          "internalType": "uint256",
          "name": "start",
          "type": "uint256"
        },
        {
          "indexed": false,
          "internalType": "uint256",
          "name": "end",
          "type": "uint256"
        },
        {
          "indexed": false,
          "internalType": "bool",
          "name": "enabled",
          "type": "bool"
        }
      ],
      "name": "YearAdded",
      "type": "event"
    },
    {
      "anonymous": false,
      "inputs": [
        {
          "indexed": false,
          "internalType": "uint16",
          "name": "number",
          "type": "uint16"
        }
      ],
      "name": "YearRemoved",
      "type": "event"
    },
    {
      "anonymous": false,
      "inputs": [
        {
          "indexed": false,
          "internalType": "uint16",
          "name": "number",
          "type": "uint16"
        },
        {
          "indexed": false,
          "internalType": "bool",
          "name": "leapYear",
          "type": "bool"
        },
        {
          "indexed": false,
          "internalType": "uint256",
          "name": "start",
          "type": "uint256"
        },
        {
          "indexed": false,
          "internalType": "uint256",
          "name": "end",
          "type": "uint256"
        },
        {
          "indexed": false,
          "internalType": "bool",
          "name": "enabled",
          "type": "bool"
        }
      ],
      "name": "YearUpdated",
      "type": "event"
    },
    {
      "inputs": [
        {
          "internalType": "uint16",
          "name": "number",
          "type": "uint16"
        },
        {
          "internalType": "bool",
          "name": "leapYear",
          "type": "bool"
        },
        {
          "internalType": "uint256",
          "name": "start",
          "type": "uint256"
        },
        {
          "internalType": "uint256",
          "name": "end",
          "type": "uint256"
        },
        {
          "internalType": "bool",
          "name": "enabled",
          "type": "bool"
        }
      ],
      "name": "addAccommodationYear",
      "outputs": [],
      "stateMutability": "nonpayable",
      "type": "function"
    },
    {
      "inputs": [
        {
          "internalType": "uint16[2][]",
          "name": "dates",
          "type": "uint16[2][]"
        },
        {
          "internalType": "uint256",
          "name": "price",
          "type": "uint256"
        }
      ],
      "name": "bookAccommodation",
      "outputs": [],
      "stateMutability": "nonpayable",
      "type": "function"
    },
    {
      "inputs": [
        {
          "internalType": "uint16[2][]",
          "name": "dates",
          "type": "uint16[2][]"
        }
      ],
      "name": "cancelAccommodation",
      "outputs": [],
      "stateMutability": "nonpayable",
      "type": "function"
    },
    {
      "inputs": [
        {
          "internalType": "address",
          "name": "account",
          "type": "address"
        },
        {
          "internalType": "uint16[2][]",
          "name": "dates",
          "type": "uint16[2][]"
        }
      ],
      "name": "cancelAccommodationFor",
      "outputs": [],
      "stateMutability": "nonpayable",
      "type": "function"
    },
    {
      "inputs": [
        {
          "internalType": "address",
          "name": "account",
          "type": "address"
        },
        {
          "internalType": "uint16[2][]",
          "name": "dates",
          "type": "uint16[2][]"
        }
      ],
      "name": "checkinAccommodationFor",
      "outputs": [],
      "stateMutability": "nonpayable",
      "type": "function"
    },
    {
      "inputs": [
        {
          "internalType": "address",
          "name": "account",
          "type": "address"
        },
        {
          "internalType": "uint16[2][]",
          "name": "dates",
          "type": "uint16[2][]"
        }
      ],
      "name": "confirmAccommodationFor",
      "outputs": [],
      "stateMutability": "nonpayable",
      "type": "function"
    },
    {
      "inputs": [
        {
          "internalType": "uint16",
          "name": "number",
          "type": "uint16"
        },
        {
          "internalType": "bool",
          "name": "enable",
          "type": "bool"
        }
      ],
      "name": "enableAccommodationYear",
      "outputs": [],
      "stateMutability": "nonpayable",
      "type": "function"
    },
    {
      "inputs": [
        {
          "internalType": "address",
          "name": "account",
          "type": "address"
        },
        {
          "internalType": "uint16",
          "name": "yearNum",
          "type": "uint16"
        },
        {
          "internalType": "uint16",
          "name": "dayOfYear",
          "type": "uint16"
        }
      ],
      "name": "getAccommodationBooking",
      "outputs": [
        {
          "internalType": "bool",
          "name": "",
          "type": "bool"
        },
        {
          "components": [
            {
              "internalType": "enum BookingMapLib.BookingStatus",
              "name": "status",
              "type": "uint8"
            },
            {
              "internalType": "uint16",
              "name": "year",
              "type": "uint16"
            },
            {
              "internalType": "uint16",
              "name": "dayOfYear",
              "type": "uint16"
            },
            {
              "internalType": "uint256",
              "name": "price",
              "type": "uint256"
            },
            {
              "internalType": "uint256",
              "name": "timestamp",
              "type": "uint256"
            }
          ],
          "internalType": "struct BookingMapLib.Booking",
          "name": "",
          "type": "tuple"
        }
      ],
      "stateMutability": "view",
      "type": "function"
    },
    {
      "inputs": [
        {
          "internalType": "address",
          "name": "account",
          "type": "address"
        },
        {
          "internalType": "uint16",
          "name": "_year",
          "type": "uint16"
        }
      ],
      "name": "getAccommodationBookings",
      "outputs": [
        {
          "components": [
            {
              "internalType": "enum BookingMapLib.BookingStatus",
              "name": "status",
              "type": "uint8"
            },
            {
              "internalType": "uint16",
              "name": "year",
              "type": "uint16"
            },
            {
              "internalType": "uint16",
              "name": "dayOfYear",
              "type": "uint16"
            },
            {
              "internalType": "uint256",
              "name": "price",
              "type": "uint256"
            },
            {
              "internalType": "uint256",
              "name": "timestamp",
              "type": "uint256"
            }
          ],
          "internalType": "struct BookingMapLib.Booking[]",
          "name": "",
          "type": "tuple[]"
        }
      ],
      "stateMutability": "view",
      "type": "function"
    },
    {
      "inputs": [
        {
          "internalType": "uint16",
          "name": "number",
          "type": "uint16"
        }
      ],
      "name": "getAccommodationYear",
      "outputs": [
        {
          "internalType": "bool",
          "name": "",
          "type": "bool"
        },
        {
          "components": [
            {
              "internalType": "uint16",
              "name": "number",
              "type": "uint16"
            },
            {
              "internalType": "bool",
              "name": "leapYear",
              "type": "bool"
            },
            {
              "internalType": "uint256",
              "name": "start",
              "type": "uint256"
            },
            {
              "internalType": "uint256",
              "name": "end",
              "type": "uint256"
            },
            {
              "internalType": "bool",
              "name": "enabled",
              "type": "bool"
            }
          ],
          "internalType": "struct BookingMapLib.Year",
          "name": "",
          "type": "tuple"
        }
      ],
      "stateMutability": "view",
      "type": "function"
    },
    {
      "inputs": [],
      "name": "getAccommodationYears",
      "outputs": [
        {
          "components": [
            {
              "internalType": "uint16",
              "name": "number",
              "type": "uint16"
            },
            {
              "internalType": "bool",
              "name": "leapYear",
              "type": "bool"
            },
            {
              "internalType": "uint256",
              "name": "start",
              "type": "uint256"
            },
            {
              "internalType": "uint256",
              "name": "end",
              "type": "uint256"
            },
            {
              "internalType": "bool",
              "name": "enabled",
              "type": "bool"
            }
          ],
          "internalType": "struct BookingMapLib.Year[]",
          "name": "",
          "type": "tuple[]"
        }
      ],
      "stateMutability": "view",
      "type": "function"
    },
    {
      "inputs": [
        {
          "internalType": "address",
          "name": "account",
          "type": "address"
        },
        {
          "internalType": "uint16",
          "name": "year",
          "type": "uint16"
        },
        {
          "internalType": "uint16",
          "name": "day",
          "type": "uint16"
        }
      ],
      "name": "lockedStakeAt",
      "outputs": [
        {
          "internalType": "uint256",
          "name": "",
          "type": "uint256"
        }
      ],
      "stateMutability": "view",
      "type": "function"
    },
    {
      "inputs": [
        {
          "internalType": "uint16",
          "name": "number",
          "type": "uint16"
        }
      ],
      "name": "removeAccommodationYear",
      "outputs": [],
      "stateMutability": "nonpayable",
      "type": "function"
    },
    {
      "inputs": [
        {
          "internalType": "address",
          "name": "account",
          "type": "address"
        },
        {
          "internalType": "uint16",
          "name": "year",
          "type": "uint16"
        },
        {
          "internalType": "uint16",
          "name": "day",
          "type": "uint16"
        }
      ],
      "name": "unlockedStakeAt",
      "outputs": [
        {
          "internalType": "uint256",
          "name": "",
          "type": "uint256"
        }
      ],
      "stateMutability": "view",
      "type": "function"
    },
    {
      "inputs": [
        {
          "internalType": "uint16",
          "name": "number",
          "type": "uint16"
        },
        {
          "internalType": "bool",
          "name": "leapYear",
          "type": "bool"
        },
        {
          "internalType": "uint256",
          "name": "start",
          "type": "uint256"
        },
        {
          "internalType": "uint256",
          "name": "end",
          "type": "uint256"
        },
        {
          "internalType": "bool",
          "name": "enabled",
          "type": "bool"
        }
      ],
      "name": "updateAccommodationYear",
      "outputs": [],
      "stateMutability": "nonpayable",
      "type": "function"
    }
  ],
  "args": [],
  "numDeployments": 1,
  "solcInputHash": "9484885b4a06ba5fa6d802e6c1bc27be",
  "bytecode": "0x608060405234801561001057600080fd5b50614263806100206000396000f3fe608060405234801561001057600080fd5b50600436106100f55760003560e01c80634ba25e8a11610097578063709d872c11610066578063709d872c146101ff57806379ea4ecf14610212578063a1ff8ff814610227578063f4fed22a1461024857600080fd5b80634ba25e8a146101a55780634c0e453e146101b857806362bdefb1146101d957806366fd0068146101ec57600080fd5b80631f14148b116100d35780631f14148b14610159578063390d41a21461016c578063395560fc1461017f5780634b4222871461019257600080fd5b80630fac92f0146100fa57806310789efe14610123578063137ae83d14610144575b600080fd5b61010d610108366004613a65565b61025b565b60405161011a9190613b08565b60405180910390f35b610136610131366004613b56565b610289565b60405161011a929190613b99565b610157610152366004613baf565b6102df565b005b610157610167366004613c0f565b6103af565b61015761017a366004613c62565b6105cf565b61015761018d366004613cbf565b610740565b6101576101a0366004613c0f565b610850565b6101576101b3366004613d1c565b610983565b6101cb6101c6366004613b56565b610a6e565b60405190815260200161011a565b6101cb6101e7366004613b56565b610b08565b6101576101fa366004613c0f565b610b96565b61015761020d366004613cbf565b610d2b565b61021a610e3b565b60405161011a9190613d5e565b61023a610235366004613baf565b610e4c565b60405161011a929190613dd3565b610157610256366004613e1c565b610e8a565b6001600160a01b03821660009081526003602052604090206060906102809083610f9a565b90505b92915050565b6040805160a0810182526000808252602080830182905282840182905260608301829052608083018290526001600160a01b0387168252600390529182206102d2908585611133565b915091505b935093915050565b7fefa2b23cd542346b38207721a79c51a70b01c47249f50a351696d8f313a8fe1c61030b600182611256565b610316600483611265565b6103735760405162461bcd60e51b815260206004820152602360248201527f426f6f6b696e6746616365743a20556e61626c6520746f2072656d6f7665205960448201526232b0b960e91b60648201526084015b60405180910390fd5b60405161ffff831681527f95e58e7b256936d20ca1bde8fd750c5ae53d5d866224c71f5926b17c350ba166906020015b60405180910390a15050565b7fefa2b23cd542346b38207721a79c51a70b01c47249f50a351696d8f313a8fe1c6103db600182611256565b6000805b8381101561057e576000806104868787858181106103ff576103ff613e53565b90506040020160006002811061041757610417613e53565b60200201602081019061042a9190613baf565b88888681811061043c5761043c613e53565b90506040020160016002811061045457610454613e53565b6020020160208101906104679190613baf565b6001600160a01b038b1660009081526003602052604090209190611133565b915091508161049657505061056c565b6000815160028111156104ab576104ab613a98565b14156105695760006105518888868181106104c8576104c8613e53565b9050604002016000600281106104e0576104e0613e53565b6020020160208101906104f39190613baf565b89898781811061050557610505613e53565b90506040020160016002811061051d5761051d613e53565b6020020160208101906105309190613baf565b6001600160a01b038c166000908152600360205260409020919060016112ca565b9050801561056757610564600186613e7f565b94505b505b50505b8061057681613ea5565b9150506103df565b5061ffff8116156105c8577f967f812a05038d1f67c7262eddabfb6264aefba37a1d10541666c1ae0ccc5d89335b8686866040516105bf9493929190613f27565b60405180910390a15b5050505050565b6105d7611443565b60006105e23361149d565b156105eb575060015b60005b838110156106fe57600061067d833388888681811061060f5761060f613e53565b90506040020160006002811061062757610627613e53565b60200201602081019061063a9190613baf565b89898781811061064c5761064c613e53565b90506040020160016002811061066457610664613e53565b6020020160208101906106779190613baf565b886114aa565b33600081815260076020526040902060808301519293506106eb9290918791906106e3908b8b898181106106b3576106b3613e53565b9050604002016000600281106106cb576106cb613e53565b6020020160208101906106de9190613baf565b611672565b92919061171a565b50806106f681613ea5565b9150506105ee565b507fa744791f7ba4cf0ed4fb864ccdf82192959af8252fd0250f73f067166f51ed6b33858560405161073293929190613f5e565b60405180910390a150505050565b7fefa2b23cd542346b38207721a79c51a70b01c47249f50a351696d8f313a8fe1c61076c600182611256565b6040805160a08101825261ffff8816815286151560208201529081018590526060810184905282151560808201526107a6906004906117e7565b6107f25760405162461bcd60e51b815260206004820181905260248201527f426f6f6b696e6746616365743a20556e61626c6520746f206164642079656172604482015260640161036a565b6040805161ffff8816815286151560208201529081018590526060810184905282151560808201527fc3da413c8752517eb598cf3d589891d0641833769cdf76283ba44468a3d46b869060a0015b60405180910390a1505050505050565b7fefa2b23cd542346b38207721a79c51a70b01c47249f50a351696d8f313a8fe1c61087c600182611256565b6000805b8381101561095157600061092886868481811061089f5761089f613e53565b9050604002016000600281106108b7576108b7613e53565b6020020160208101906108ca9190613baf565b8787858181106108dc576108dc613e53565b9050604002016001600281106108f4576108f4613e53565b6020020160208101906109079190613baf565b6001600160a01b038a166000908152600360205260409020919060026112ca565b9050801561093e5761093b600184613e7f565b92505b508061094981613ea5565b915050610880565b5061ffff8116156105c8577f681e7c2db85861f3f1a1ddf35a1f16c8a5400d75a3d07509817b30931151f576336105ac565b61098b611443565b60005b81811015610a3a576000610a1b338585858181106109ae576109ae613e53565b9050604002016000600281106109c6576109c6613e53565b6020020160208101906109d99190613baf565b8686868181106109eb576109eb613e53565b905060400201600160028110610a0357610a03613e53565b602002016020810190610a169190613baf565b61187d565b9050610a27338261194d565b5080610a3281613ea5565b91505061098e565b507fde8b8d404fa6ad1e0533531ef96e711b34a6df8d1133968c52bc335861f0ad8d3383836040516103a393929190613f5e565b60008080610a7e60048686611aba565b9150915081610acf5760405162461bcd60e51b815260206004820152601960248201527f756e61626c6520746f206275696c642074696d657374616d7000000000000000604482015260640161036a565b6001600160a01b0386166000908152600760205260409020610afc9082610af533611b93565b9190611bea565b925050505b9392505050565b60008080610b1860048686611aba565b9150915081610b695760405162461bcd60e51b815260206004820152601960248201527f756e61626c6520746f206275696c642074696d657374616d7000000000000000604482015260640161036a565b6001600160a01b0386166000908152600760205260409020610afc9082610b8f33611b93565b9190611c00565b7fefa2b23cd542346b38207721a79c51a70b01c47249f50a351696d8f313a8fe1c610bc2600182611256565b610bca611443565b60005b82811015610cf7576000610c2a86868685818110610bed57610bed613e53565b905060400201600060028110610c0557610c05613e53565b602002016020810190610c189190613baf565b8787868181106109eb576109eb613e53565b9050600081516002811115610c4157610c41613a98565b14610cda5760405162461bcd60e51b815260206004820152604160248201527f426f6f6b696e6746616365743a20284e6f7450656e64696e67292043616e206e60448201527f6f742063616e63656c20636f6e6669726d6564206163636f6d6d6f646174696f60648201527f6e00000000000000000000000000000000000000000000000000000000000000608482015260a40161036a565b610ce4868261194d565b5080610cef81613ea5565b915050610bcd565b507fde8b8d404fa6ad1e0533531ef96e711b34a6df8d1133968c52bc335861f0ad8d84848460405161073293929190613f5e565b7fefa2b23cd542346b38207721a79c51a70b01c47249f50a351696d8f313a8fe1c610d57600182611256565b6040805160a08101825261ffff881681528615156020820152908101859052606081018490528215156080820152610d9190600490611c16565b610de95760405162461bcd60e51b815260206004820152602360248201527f426f6f6b696e6746616365743a20556e61626c6520746f20757064617465205960448201526232b0b960e91b606482015260840161036a565b6040805161ffff8816815286151560208201529081018590526060810184905282151560808201527f85d7a9b39d1a1f0f2f68880d124ededd330f406e1b42f93234665005812d5a829060a001610840565b6060610e476004611c32565b905090565b6040805160a0810182526000808252602082018190529181018290526060810182905260808101829052610e81600484611d75565b91509150915091565b7fefa2b23cd542346b38207721a79c51a70b01c47249f50a351696d8f313a8fe1c610eb6600182611256565b6000610ec3600485611d75565b84151560808201529150610eda9050600482611c16565b610f325760405162461bcd60e51b815260206004820152602360248201527f426f6f6b696e6746616365743a20556e61626c6520746f20757064617465207960448201526232b0b960e91b606482015260840161036a565b8051602080830151604080850151606080870151608080890151855161ffff909916895295151596880196909652928601919091528401521515908201527f85d7a9b39d1a1f0f2f68880d124ededd330f406e1b42f93234665005812d5a829060a001610732565b61ffff81166000908152600283016020526040812060609190610fbc90611e58565b67ffffffffffffffff811115610fd457610fd4613f81565b60405190808252806020026020018201604052801561102d57816020015b6040805160a081018252600080825260208083018290529282018190526060820181905260808201528252600019909201910181610ff25790505b50905060005b61ffff84166000908152600286016020526040902061105190611e58565b81101561112b5761ffff8416600090815260028601602052604081206110779083611e63565b50600081815260038801602052604090819020815160a0810190925280549293509091829060ff1660028111156110b0576110b0613a98565b60028111156110c1576110c1613a98565b8152815461ffff610100820481166020840152630100000090910416604082015260018201546060820152600290910154608090910152835184908490811061110c5761110c613e53565b602002602001018190525050808061112390613ea5565b915050611033565b509392505050565b6040805160a081018252600080825260208201819052918101829052606081018290526080810182905260006111698585611e7f565b61ffff86166000908152600288016020526040902090915061118b9082611ed6565b1561121f57600081815260038701602052604090819020815160a081019092528054600192908290829060ff1660028111156111c9576111c9613a98565b60028111156111da576111da613a98565b8152815461ffff6101008204811660208401526301000000909104166040820152600182015460608201526002909101546080909101529194509092506102d7915050565b50506040805160a0810182526000808252602082018190529181018290526060810182905260808101829052909590945092505050565b611261828233611ee2565b5050565b60008061127183611f60565b905061127d8482611fad565b156112c0576000908152600280850160205260408220805462ffffff191681556001808201849055918101929092556003909101805460ff191690559050610283565b5060009392505050565b6000806112d78585611e7f565b61ffff8616600090815260028801602052604090209091506112f99082611ed6565b15611435576000818152600387016020526040808220815160a081019092528054829060ff16600281111561133057611330613a98565b600281111561134157611341613a98565b8152815461ffff6101008204811660208401526301000000909104166040820152600182015460608201526002918201546080909101529091508190859081111561138e5761138e613a98565b908160028111156113a1576113a1613a98565b905250600082815260038801602052604090208151815483929190829060ff191660018360028111156113d6576113d6613a98565b021790555060208201518154604084015161ffff90811663010000000264ffff0000001991909316610100021664ffffffff0019909116171781556060820151600180830191909155608090920151600290910155925061143b915050565b60009150505b949350505050565b600054610100900460ff161561149b5760405162461bcd60e51b815260206004820152601060248201527f5061757361626c653a2070617573656400000000000000000000000000000000604482015260640161036a565b565b6000610283600883611fb9565b6040805160a081018252600080825260208201819052918101829052606081018290526080810182905290806114e4600489888888611fc5565b915091508161155b5760405162461bcd60e51b815260206004820152602560248201527f426f6f6b696e6746616365743a20556e61626c6520746f206275696c6420426f60448201527f6f6b696e67000000000000000000000000000000000000000000000000000000606482015260840161036a565b428160800151116115d45760405162461bcd60e51b815260206004820152602a60248201527f426f6f6b696e6746616365743a20646174652073686f756c6420626520696e2060448201527f7468652066757475726500000000000000000000000000000000000000000000606482015260840161036a565b6001600160a01b03871660009081526003602052604090206115f69082612090565b6116675760405162461bcd60e51b8152602060048201526024808201527f426f6f6b696e6746616365743a20426f6f6b696e6720616c726561647920657860448201527f6973747300000000000000000000000000000000000000000000000000000000606482015260840161036a565b979650505050505050565b6116b66040518060a0016040528060006001600160a01b0316815260200160006001600160a01b031681526020016000815260200160008152602001600081525090565b60006116c3600484611d75565b6040805160a0810182526001600160a01b03808916825260005462010000900416602082015291935090915081016116fa866121e3565b815260200182604001518152602001826060015181525091505092915050565b60006117338560800151856122b290919063ffffffff16565b90508460400151811061174657506117e1565b826117518282613f97565b9050600061176c8760600151876122ca90919063ffffffff16565b90508181106117945761178c826117828861238e565b51889190876123d4565b5050506117e1565b80156117b4576117a7816117828861238e565b6117b18183613f97565b91505b6117bf86838661249d565b865160208801516117dd916001600160a01b039091169030856124a8565b5050505b50505050565b6000806117f78360000151611f60565b90506118038482612530565b156112c05760009081526002808501602090815260409283902085518154928701511515620100000262ffffff1990931661ffff909116179190911781559184015160018084019190915560608501519183019190915560808401516003909201805492151560ff19909316929092179091559050610283565b6040805160a0810182526000808252602082018190529181018290526060810182905260808101919091526001600160a01b038416600090815260036020526040812081906118cd908686611133565b91509150816119445760405162461bcd60e51b815260206004820152603660248201527f426f6f6b696e6746616365743a20284e6f6e4578697374696e6729205265736560448201527f72766174696f6e20646f6573206e6f7420657869737400000000000000000000606482015260840161036a565b95945050505050565b428160800151116119c65760405162461bcd60e51b815260206004820152602960248201527f426f6f6b696e6746616365743a2043616e206e6f742063616e63656c2070617360448201527f7420626f6f6b696e670000000000000000000000000000000000000000000000606482015260840161036a565b6020808201516040808401516001600160a01b038616600090815260039094529083206119f492909161253c565b50905080611a6a5760405162461bcd60e51b815260206004820152602660248201527f426f6f6b696e6746616365743a20556e61626c6520746f2064656c657465204260448201527f6f6f6b696e670000000000000000000000000000000000000000000000000000606482015260840161036a565b611ab560006007016000856001600160a01b03166001600160a01b0316815260200190815260200160002083606001518460800151611aad878760200151611672565b9291906126e7565b505050565b600080600080611aca8787611d75565b91509150818015611adc575080608001515b15611b84576000816020015115611b155761016e82604001518360600151611b049190613f97565b611b0e9190613fae565b9050611b39565b61016d82604001518360600151611b2c9190613f97565b611b369190613fae565b90505b6001611b46600283613fae565b611b51600189613fd0565b611b5f9061ffff1684613ff3565b8460400151611b6e9190614012565b611b789190614012565b945094505050506102d7565b50600096879650945050505050565b6040805160608101825260008082526020820181905291810191909152604080516060810182526001600160a01b038085168252600054620100009004166020820152908101611be2846121e3565b905292915050565b600061143b611bf98584612750565b84906122ca565b600061143b611c0f8584612750565b84906122b2565b600080611c268360000151611f60565b90506118038482612760565b60606000611c3f83612778565b90506000815167ffffffffffffffff811115611c5d57611c5d613f81565b604051908082528060200260200182016040528015611cb657816020015b6040805160a081018252600080825260208083018290529282018190526060820181905260808201528252600019909201910181611c7b5790505b50905060005b825181101561112b57846002016000848381518110611cdd57611cdd613e53565b6020908102919091018101518252818101929092526040908101600020815160a081018352815461ffff8116825260ff6201000090910481161515948201949094526001820154928101929092526002810154606083015260030154909116151560808201528251839083908110611d5757611d57613e53565b60200260200101819052508080611d6d90613ea5565b915050611cbc565b6040805160a08101825260008082526020820181905291810182905260608101829052608081018290526000611daa84611f60565b9050611db68582612760565b15611e2157600090815260028086016020908152604092839020835160a081018552815461ffff8116825260ff620100009091048116151593820193909352600182810154958201959095529281015460608401526003015416151560808201529092509050611e51565b50506040805160a08101825260008082526020820181905291810182905260608101829052608081018290529091505b9250929050565b600061028382612783565b6000808080611e72868661278e565b9097909650945050505050565b6040517fffff00000000000000000000000000000000000000000000000000000000000060f084811b8216602084015283901b1660228201526000906024016040516020818303038152906040526102809061402a565b600061028083836127b9565b6000828152602084815260408083206001600160a01b038516845290915290205460ff16611ab557611f1e816001600160a01b031660146127c5565b611f298360206127c5565b604051602001611f3a92919061407d565b60408051601f198184030181529082905262461bcd60e51b825261036a916004016140fe565b6040517fffff00000000000000000000000000000000000000000000000000000000000060f083901b1660208201526000906022016040516020818303038152906040526102839061402a565b600061028083836129ee565b60006102808383612ae1565b6040805160a0810182526000808252602082018190529181018290526060810182905260808101829052600080611ffd898888611aba565b9150915081156120545760016040518060a001604052808a600281111561202657612026613a98565b81526020018961ffff1681526020018861ffff16815260200187815260200183815250935093505050612086565b50506040805160a081018252600080825260208201819052918101829052606081018290526080810182905290925090505b9550959350505050565b6000806120a583602001518460400151611e7f565b608084015160208086015161ffff16600090815260028801909152604090209192506120d391908390612b03565b156112c057606083015160208085015161ffff16600090815260018701909152604081208054909190612107908490614012565b9091555050600081815260038501602052604090208351815485929190829060ff1916600183600281111561213e5761213e613a98565b0217905550602082810151825460408086015164ffffffff001990921661010061ffff9485160264ffff0000001916176301000000928416929092029190911784556060850151600180860191909155608090950151600290940193909355868201518116600090815291889052918120805490926121bf91859116613e7f565b92506101000a81548161ffff021916908361ffff1602179055506001915050610283565b600080806121f16004611c32565b905060005b81518161ffff1610156122a95742828261ffff168151811061221a5761221a613e53565b602002602001015160600151101561223157612297565b6000612287838361ffff168151811061224c5761224c613e53565b602090810291909101810151516001600160a01b038916600090815260038352604080822061ffff9093168252600190920190925290205490565b905083811115612295578093505b505b806122a181614131565b9150506121f6565b50909392505050565b60006122be83836122ca565b83546102809190613f97565b60006122e88360010154600f81810b600160801b909204900b131590565b156122f557506000610283565b60005b6001840154600f81810b600160801b909204900b038110156123875760006123236001860183612b10565b905083811161236e5760038501600061233f6001880185612b10565b815260200190815260200160002054836123599190614012565b9250838114156123695750612387565b612374565b50612387565b508061237f81613ea5565b9150506122f8565b5092915050565b604080518082019091526000808252602082015260006123b083600101612bb0565b80835260009081526003909301602090815260409093205492820192909252919050565b808214156123e1576117e1565b8082106124305760405162461bcd60e51b815260206004820152601b60248201527f4f7264657265645374616b654c69623a2057726f6e6752616e67650000000000604482015260640161036a565b6001840154600f81810b600160801b909204900b136124915760405162461bcd60e51b815260206004820152601660248201527f4f7264657265645374616b654c69623a20456d70747900000000000000000000604482015260640161036a565b6117e184848484612c1b565b611ab5838383612cd0565b604080516001600160a01b0385811660248301528416604482015260648082018490528251808303909101815260849091019091526020810180517bffffffffffffffffffffffffffffffffffffffffffffffffffffffff167f23b872dd000000000000000000000000000000000000000000000000000000001790526117e1908590612d97565b60006102808383612e7c565b6040805160a081018252600080825260208201819052918101829052606081018290526080810182905260006125728585611e7f565b61ffff8616600090815260028801602052604090209091506125949082612ecb565b1561121f576000818152600387016020526040808220815160a081019092528054829060ff1660028111156125cb576125cb613a98565b60028111156125dc576125dc613a98565b8152815461ffff610100820481166020808501919091526301000000909204811660408085019190915260018086015460608087019190915260029096015460809095019490945293850151908b166000908152928c019091529181208054939450919261264b908490613f97565b909155505061ffff8087166000908152602089905260408120805460019391929161267891859116613fd0565b825461ffff9182166101009390930a9283029190920219909116179055506000918252600387016020526040822080547fffffffffffffffffffffffffffffffffffffffffffffffffffffff0000000000168155600181810184905560029091019290925590925090506102d7565b60006127068560600151866080015186612ed79092919063ffffffff16565b90508061271357506117e1565b6000838210612723575082612726565b50805b6127488187608001516301e133808661273f9190613f97565b88929190612f38565b505050505050565b60006102806301e1338083613f97565b60008181526001830160205260408120541515610280565b606061028382612f50565b600061028382612fac565b6000808061279c8585612fb6565b600081815260029690960160205260409095205494959350505050565b60006102808383612760565b606060006127d4836002613ff3565b6127df906002614012565b67ffffffffffffffff8111156127f7576127f7613f81565b6040519080825280601f01601f191660200182016040528015612821576020820181803683370190505b5090507f30000000000000000000000000000000000000000000000000000000000000008160008151811061285857612858613e53565b60200101907effffffffffffffffffffffffffffffffffffffffffffffffffffffffffffff1916908160001a9053507f7800000000000000000000000000000000000000000000000000000000000000816001815181106128bb576128bb613e53565b60200101907effffffffffffffffffffffffffffffffffffffffffffffffffffffffffffff1916908160001a90535060006128f7846002613ff3565b612902906001614012565b90505b600181111561299f577f303132333435363738396162636465660000000000000000000000000000000085600f166010811061294357612943613e53565b1a60f81b82828151811061295957612959613e53565b60200101907effffffffffffffffffffffffffffffffffffffffffffffffffffffffffffff1916908160001a90535060049490941c9361299881614153565b9050612905565b5083156102805760405162461bcd60e51b815260206004820181905260248201527f537472696e67733a20686578206c656e67746820696e73756666696369656e74604482015260640161036a565b60008181526001830160205260408120548015612ad7576000612a12600183613f97565b8554909150600090612a2690600190613f97565b9050818114612a8b576000866000018281548110612a4657612a46613e53565b9060005260206000200154905080876000018481548110612a6957612a69613e53565b6000918252602080832090910192909255918252600188019052604090208390555b8554869080612a9c57612a9c61416a565b600190038181906000526020600020016000905590558560010160008681526020019081526020016000206000905560019350505050610283565b6000915050610283565b6001600160a01b03811660009081526001830160205260408120541515610280565b600061143b848484612fc2565b600080612b33612b1f84612fdf565b8554612b2e9190600f0b614180565b61307b565b8454909150600160801b9004600f90810b9082900b12612b955760405162461bcd60e51b815260206004820152600b60248201527f4f75744f66426f756e6473000000000000000000000000000000000000000000604482015260640161036a565b600f0b60009081526001939093016020525050604090205490565b6000612bcb8254600f81810b600160801b909204900b131590565b15612c005760405162461bcd60e51b8152602060048201526005602482015264456d70747960d81b604482015260640161036a565b508054600f0b60009081526001909101602052604090205490565b6000612c268561312f565b8051909150831415612cb5578381602001511415612c4e57612c4985858461318e565b6105c8565b8381602001511115612c8057612c6585858461318e565b612c4985858360200151612c799190613f97565b835161318e565b612c8f8582602001518461318e565b612c4985826020015186612ca39190613f97565b612caf88600101612bb0565b85612c1b565b612cc185858585612c1b565b6105c885826020015183600001515b6001830154600f81810b600160801b909204900b13612cf457611ab5838383613306565b6000612d0284600101613408565b905081811015612d1c57612d17848484613306565b6117e1565b81811415612d2f57612d17848484613482565b6000612d3d85600101613540565b9050612d4a858585612cd0565b6105c860018601828154600160801b90819004600f0b6000818152600180860160205260409091209390935583546fffffffffffffffffffffffffffffffff908116939091011602179055565b6000612dec826040518060400160405280602081526020017f5361666545524332303a206c6f772d6c6576656c2063616c6c206661696c6564815250856001600160a01b03166135e09092919063ffffffff16565b805190915015611ab55780806020019051810190612e0a91906141f4565b611ab55760405162461bcd60e51b815260206004820152602a60248201527f5361666545524332303a204552433230206f7065726174696f6e20646964206e60448201527f6f74207375636365656400000000000000000000000000000000000000000000606482015260840161036a565b6000818152600183016020526040812054612ec357508154600181810184556000848152602080822090930184905584548482528286019093526040902091909155610283565b506000610283565b600061028083836135ef565b6000805b612ee48561360c565b81101561112b576000612ef78683613629565b905084816000015110158015612f0e575080518410155b15612f25576020810151612f229084614012565b92505b5080612f3081613ea5565b915050612edb565b818110612f44576117e1565b6117e184848484613671565b606081600001805480602002602001604051908101604052809291908181526020018280548015612fa057602002820191906000526020600020905b815481526020019060010190808311612f8c575b50505050509050919050565b6000610283825490565b600061028083836136b0565b6000828152600284016020526040812082905561143b8484612530565b60007f7fffffffffffffffffffffffffffffffffffffffffffffffffffffffffffffff8211156130775760405162461bcd60e51b815260206004820152602860248201527f53616665436173743a2076616c756520646f65736e27742066697420696e206160448201527f6e20696e74323536000000000000000000000000000000000000000000000000606482015260840161036a565b5090565b60007fffffffffffffffffffffffffffffffff8000000000000000000000000000000082128015906130bd57506f7fffffffffffffffffffffffffffffff8213155b6130775760405162461bcd60e51b815260206004820152602760248201527f53616665436173743a2076616c756520646f65736e27742066697420696e203160448201527f3238206269747300000000000000000000000000000000000000000000000000606482015260840161036a565b60408051808201909152600080825260208201526000613151836001016136da565b600081815260038501602052604081208054908290558554929350918291869161317c908490613f97565b90915550509082526020820152919050565b6001830154600f81810b600160801b909204900b1361320757611ab5838383806133d960018501828154600f90810b600019019081900b600090815260018401602052604090209190915581546fffffffffffffffffffffffffffffffff19166fffffffffffffffffffffffffffffffff909116179055565b600061321584600101612bb0565b90508181111561327f57612d17848484806133d960018501828154600f90810b600019019081900b600090815260018401602052604090209190915581546fffffffffffffffffffffffffffffffff19166fffffffffffffffffffffffffffffffff909116179055565b8181141561329257612d17848484613482565b60006132a0856001016136da565b90506132ad85858561318e565b6105c860018601828154600f90810b600019019081900b600090815260018401602052604090209190915581546fffffffffffffffffffffffffffffffff19166fffffffffffffffffffffffffffffffff909116179055565b600081815260038401602052604090205481901561338c5760405162461bcd60e51b815260206004820152602c60248201527f4f7264657265645374616b654c69623a2043414e204e4f54204f56455252494460448201527f452054494d455354414d50530000000000000000000000000000000000000000606482015260840161036a565b6133d960018501828154600160801b90819004600f0b6000818152600180860160205260409091209390935583546fffffffffffffffffffffffffffffffff908116939091011602179055565b600081815260038501602052604081208490558454849186916133fd908490614012565b909155505050505050565b60006134238254600f81810b600160801b909204900b131590565b156134585760405162461bcd60e51b8152602060048201526005602482015264456d70747960d81b604482015260640161036a565b508054600160801b9004600f90810b60001901900b60009081526001909101602052604090205490565b600081815260038401602052604090205481906135075760405162461bcd60e51b815260206004820152602760248201527f4f7264657265645374616b654c69623a20547279696e6720746f20757064617460448201527f6520656d70747900000000000000000000000000000000000000000000000000606482015260840161036a565b600081815260038501602052604081208054859290613527908490614012565b90915550508354839085906000906133fd908490614012565b600061355b8254600f81810b600160801b909204900b131590565b156135905760405162461bcd60e51b8152602060048201526005602482015264456d70747960d81b604482015260640161036a565b508054600160801b90819004600f90810b600019019081900b60009081526001840160205260408120805491905583546fffffffffffffffffffffffffffffffff90811692169092021790915590565b606061143b8484600085613779565b600081815260028301602052604081208190556102808383611fad565b60006102838260010154600f81810b600160801b909204900b0390565b6040805180820190915260008082526020820152600061364c6001850184612b10565b8083526000908152600390940160209081526040909420549382019390935292915050565b600061367c856138b6565b90508281600001511161369957612c4985858360000151856138d8565b6136a28561398f565b9050612cc185858585613671565b60008260000182815481106136c7576136c7613e53565b9060005260206000200154905092915050565b60006136f58254600f81810b600160801b909204900b131590565b1561372a5760405162461bcd60e51b8152602060048201526005602482015264456d70747960d81b604482015260640161036a565b508054600f0b6000818152600180840160205260408220805492905583546fffffffffffffffffffffffffffffffff191692016fffffffffffffffffffffffffffffffff169190911790915590565b6060824710156137f15760405162461bcd60e51b815260206004820152602660248201527f416464726573733a20696e73756666696369656e742062616c616e636520666f60448201527f722063616c6c0000000000000000000000000000000000000000000000000000606482015260840161036a565b6001600160a01b0385163b6138485760405162461bcd60e51b815260206004820152601d60248201527f416464726573733a2063616c6c20746f206e6f6e2d636f6e7472616374000000604482015260640161036a565b600080866001600160a01b031685876040516138649190614211565b60006040518083038185875af1925050503d80600081146138a1576040519150601f19603f3d011682016040523d82523d6000602084013e6138a6565b606091505b50915091506116678282866139fe565b604080518082019091526000808252602082015260006123b083600101613408565b826138e2576117e1565b60006138ed8561398f565b805190915083141561398357838160200151141561391057612c49858584612cd0565b838160200151111561394257613927858584612cd0565b612c498585836020015161393b9190613f97565b8351612cd0565b8060200151841115612c495761395d85826020015184612cd0565b612c49858260200151866139719190613f97565b61397d88600101613408565b856138d8565b612cc1858585856138d8565b604080518082019091526000808252602082015260006139b183600101613540565b808352600081815260038501602090815260408220549085018190528554929350918591906139e1908490613f97565b909155505060009081526003909201602052604082209190915590565b60608315613a0d575081610b01565b825115613a1d5782518084602001fd5b8160405162461bcd60e51b815260040161036a91906140fe565b80356001600160a01b0381168114613a4e57600080fd5b919050565b803561ffff81168114613a4e57600080fd5b60008060408385031215613a7857600080fd5b613a8183613a37565b9150613a8f60208401613a53565b90509250929050565b634e487b7160e01b600052602160045260246000fd5b805160038110613ace57634e487b7160e01b600052602160045260246000fd5b80835250602081015161ffff8082166020850152806040840151166040850152505060608101516060830152608081015160808301525050565b6020808252825182820181905260009190848201906040850190845b81811015613b4a57613b37838551613aae565b9284019260a09290920191600101613b24565b50909695505050505050565b600080600060608486031215613b6b57600080fd5b613b7484613a37565b9250613b8260208501613a53565b9150613b9060408501613a53565b90509250925092565b821515815260c08101610b016020830184613aae565b600060208284031215613bc157600080fd5b61028082613a53565b60008083601f840112613bdc57600080fd5b50813567ffffffffffffffff811115613bf457600080fd5b6020830191508360208260061b8501011115611e5157600080fd5b600080600060408486031215613c2457600080fd5b613c2d84613a37565b9250602084013567ffffffffffffffff811115613c4957600080fd5b613c5586828701613bca565b9497909650939450505050565b600080600060408486031215613c7757600080fd5b833567ffffffffffffffff811115613c8e57600080fd5b613c9a86828701613bca565b909790965060209590950135949350505050565b8015158114613cbc57600080fd5b50565b600080600080600060a08688031215613cd757600080fd5b613ce086613a53565b94506020860135613cf081613cae565b935060408601359250606086013591506080860135613d0e81613cae565b809150509295509295909350565b60008060208385031215613d2f57600080fd5b823567ffffffffffffffff811115613d4657600080fd5b613d5285828601613bca565b90969095509350505050565b6020808252825182820181905260009190848201906040850190845b81811015613b4a57613dc083855161ffff815116825260208101511515602083015260408101516040830152606081015160608301526080810151151560808301525050565b9284019260a09290920191600101613d7a565b821515815260c08101610b01602083018461ffff815116825260208101511515602083015260408101516040830152606081015160608301526080810151151560808301525050565b60008060408385031215613e2f57600080fd5b613e3883613a53565b91506020830135613e4881613cae565b809150509250929050565b634e487b7160e01b600052603260045260246000fd5b634e487b7160e01b600052601160045260246000fd5b600061ffff808316818516808303821115613e9c57613e9c613e69565b01949350505050565b6000600019821415613eb957613eb9613e69565b5060010190565b818352600060208085019450826000805b86811015613f1b578783835b6002811015613f055761ffff613ef283613a53565b1683529186019190860190600101613edd565b5050506040978801979290920191600101613ed1565b50959695505050505050565b60006001600160a01b03808716835280861660208401525060606040830152613f54606083018486613ec0565b9695505050505050565b6001600160a01b0384168152604060208201526000611944604083018486613ec0565b634e487b7160e01b600052604160045260246000fd5b600082821015613fa957613fa9613e69565b500390565b600082613fcb57634e487b7160e01b600052601260045260246000fd5b500490565b600061ffff83811690831681811015613feb57613feb613e69565b039392505050565b600081600019048311821515161561400d5761400d613e69565b500290565b6000821982111561402557614025613e69565b500190565b8051602080830151919081101561404b576000198160200360031b1b821691505b50919050565b60005b8381101561406c578181015183820152602001614054565b838111156117e15750506000910152565b7f416363657373436f6e74726f6c3a206163636f756e74200000000000000000008152600083516140b5816017850160208801614051565b7f206973206d697373696e6720726f6c652000000000000000000000000000000060179184019182015283516140f2816028840160208801614051565b01602801949350505050565b602081526000825180602084015261411d816040850160208701614051565b601f01601f19169190910160400192915050565b600061ffff8083168181141561414957614149613e69565b6001019392505050565b60008161416257614162613e69565b506000190190565b634e487b7160e01b600052603160045260246000fd5b6000808212827f7fffffffffffffffffffffffffffffffffffffffffffffffffffffffffffffff038413811516156141ba576141ba613e69565b827f80000000000000000000000000000000000000000000000000000000000000000384128116156141ee576141ee613e69565b50500190565b60006020828403121561420657600080fd5b815161028081613cae565b60008251614223818460208701614051565b919091019291505056fea26469706673582212208c93b5e074010f379abbaa4e2fa7fcc61b428fba1f04a7bdc31d671b57fca9d264736f6c63430008090033",
  "devdoc": {
    "kind": "dev",
    "methods": {},
    "version": 1
  },
  "userdoc": {
    "kind": "user",
    "methods": {},
    "version": 1
  },
  "storageLayout": {
    "storage": [
      {
        "astId": 21562,
        "contract": "src/diamond/facets/BookingFacet.sol:BookingFacet",
        "label": "s",
        "offset": 0,
        "slot": "0",
        "type": "t_struct(AppStorage)21530_storage"
      }
    ],
    "types": {
      "t_address": {
        "encoding": "inplace",
        "label": "address",
        "numberOfBytes": "20"
      },
      "t_array(t_bytes32)dyn_storage": {
        "base": "t_bytes32",
        "encoding": "dynamic_array",
        "label": "bytes32[]",
        "numberOfBytes": "32"
      },
      "t_bool": {
        "encoding": "inplace",
        "label": "bool",
        "numberOfBytes": "1"
      },
      "t_bytes32": {
        "encoding": "inplace",
        "label": "bytes32",
        "numberOfBytes": "32"
      },
      "t_contract(IERC20)2445": {
        "encoding": "inplace",
        "label": "contract IERC20",
        "numberOfBytes": "20"
      },
      "t_enum(BookingStatus)21829": {
        "encoding": "inplace",
        "label": "enum BookingMapLib.BookingStatus",
        "numberOfBytes": "1"
      },
      "t_int128": {
        "encoding": "inplace",
        "label": "int128",
        "numberOfBytes": "16"
      },
      "t_mapping(t_address,t_bool)": {
        "encoding": "mapping",
        "key": "t_address",
        "label": "mapping(address => bool)",
        "numberOfBytes": "32",
        "value": "t_bool"
      },
      "t_mapping(t_address,t_struct(Store)22787_storage)": {
        "encoding": "mapping",
        "key": "t_address",
        "label": "mapping(address => struct OrderedStakeLib.Store)",
        "numberOfBytes": "32",
        "value": "t_struct(Store)22787_storage"
      },
      "t_mapping(t_address,t_struct(UserStore)21860_storage)": {
        "encoding": "mapping",
        "key": "t_address",
        "label": "mapping(address => struct BookingMapLib.UserStore)",
        "numberOfBytes": "32",
        "value": "t_struct(UserStore)21860_storage"
      },
      "t_mapping(t_bytes32,t_bytes32)": {
        "encoding": "mapping",
        "key": "t_bytes32",
        "label": "mapping(bytes32 => bytes32)",
        "numberOfBytes": "32",
        "value": "t_bytes32"
      },
      "t_mapping(t_bytes32,t_struct(AddressSet)7772_storage)": {
        "encoding": "mapping",
        "key": "t_bytes32",
        "label": "mapping(bytes32 => struct EnumerableSet.AddressSet)",
        "numberOfBytes": "32",
        "value": "t_struct(AddressSet)7772_storage"
      },
      "t_mapping(t_bytes32,t_struct(Booking)21841_storage)": {
        "encoding": "mapping",
        "key": "t_bytes32",
        "label": "mapping(bytes32 => struct BookingMapLib.Booking)",
        "numberOfBytes": "32",
        "value": "t_struct(Booking)21841_storage"
      },
      "t_mapping(t_bytes32,t_struct(RoleData)21139_storage)": {
        "encoding": "mapping",
        "key": "t_bytes32",
        "label": "mapping(bytes32 => struct AccessControlLib.RoleData)",
        "numberOfBytes": "32",
        "value": "t_struct(RoleData)21139_storage"
      },
      "t_mapping(t_bytes32,t_struct(Year)21871_storage)": {
        "encoding": "mapping",
        "key": "t_bytes32",
        "label": "mapping(bytes32 => struct BookingMapLib.Year)",
        "numberOfBytes": "32",
        "value": "t_struct(Year)21871_storage"
      },
      "t_mapping(t_bytes32,t_uint256)": {
        "encoding": "mapping",
        "key": "t_bytes32",
        "label": "mapping(bytes32 => uint256)",
        "numberOfBytes": "32",
        "value": "t_uint256"
      },
      "t_mapping(t_int128,t_bytes32)": {
        "encoding": "mapping",
        "key": "t_int128",
        "label": "mapping(int128 => bytes32)",
        "numberOfBytes": "32",
        "value": "t_bytes32"
      },
      "t_mapping(t_uint16,t_struct(Bytes32ToUintMap)7277_storage)": {
        "encoding": "mapping",
        "key": "t_uint16",
        "label": "mapping(uint16 => struct EnumerableMap.Bytes32ToUintMap)",
        "numberOfBytes": "32",
        "value": "t_struct(Bytes32ToUintMap)7277_storage"
      },
      "t_mapping(t_uint16,t_uint16)": {
        "encoding": "mapping",
        "key": "t_uint16",
        "label": "mapping(uint16 => uint16)",
        "numberOfBytes": "32",
        "value": "t_uint16"
      },
      "t_mapping(t_uint16,t_uint256)": {
        "encoding": "mapping",
        "key": "t_uint16",
        "label": "mapping(uint16 => uint256)",
        "numberOfBytes": "32",
        "value": "t_uint256"
      },
      "t_struct(AddressSet)7772_storage": {
        "encoding": "inplace",
        "label": "struct EnumerableSet.AddressSet",
        "members": [
          {
            "astId": 7771,
            "contract": "src/diamond/facets/BookingFacet.sol:BookingFacet",
            "label": "_inner",
            "offset": 0,
            "slot": "0",
            "type": "t_struct(Set)7471_storage"
          }
        ],
        "numberOfBytes": "64"
      },
      "t_struct(AppStorage)21530_storage": {
        "encoding": "inplace",
        "label": "struct AppStorage",
        "members": [
          {
            "astId": 21505,
            "contract": "src/diamond/facets/BookingFacet.sol:BookingFacet",
            "label": "initialized",
            "offset": 0,
            "slot": "0",
            "type": "t_bool"
          },
          {
            "astId": 21507,
            "contract": "src/diamond/facets/BookingFacet.sol:BookingFacet",
            "label": "paused",
            "offset": 1,
            "slot": "0",
            "type": "t_bool"
          },
          {
            "astId": 21510,
            "contract": "src/diamond/facets/BookingFacet.sol:BookingFacet",
            "label": "communityToken",
            "offset": 2,
            "slot": "0",
            "type": "t_contract(IERC20)2445"
          },
          {
            "astId": 21513,
            "contract": "src/diamond/facets/BookingFacet.sol:BookingFacet",
            "label": "_roleStore",
            "offset": 0,
            "slot": "1",
            "type": "t_struct(RoleStore)21150_storage"
          },
          {
            "astId": 21518,
            "contract": "src/diamond/facets/BookingFacet.sol:BookingFacet",
            "label": "_accommodationBookings",
            "offset": 0,
            "slot": "3",
            "type": "t_mapping(t_address,t_struct(UserStore)21860_storage)"
          },
          {
            "astId": 21521,
            "contract": "src/diamond/facets/BookingFacet.sol:BookingFacet",
            "label": "_accommodationYears",
            "offset": 0,
            "slot": "4",
            "type": "t_struct(YearsStore)21880_storage"
          },
          {
            "astId": 21526,
            "contract": "src/diamond/facets/BookingFacet.sol:BookingFacet",
            "label": "staking",
            "offset": 0,
            "slot": "7",
            "type": "t_mapping(t_address,t_struct(Store)22787_storage)"
          },
          {
            "astId": 21529,
            "contract": "src/diamond/facets/BookingFacet.sol:BookingFacet",
            "label": "members",
            "offset": 0,
            "slot": "8",
            "type": "t_struct(Store)22660_storage"
          }
        ],
        "numberOfBytes": "320"
      },
      "t_struct(Booking)21841_storage": {
        "encoding": "inplace",
        "label": "struct BookingMapLib.Booking",
        "members": [
          {
            "astId": 21832,
            "contract": "src/diamond/facets/BookingFacet.sol:BookingFacet",
            "label": "status",
            "offset": 0,
            "slot": "0",
            "type": "t_enum(BookingStatus)21829"
          },
          {
            "astId": 21834,
            "contract": "src/diamond/facets/BookingFacet.sol:BookingFacet",
            "label": "year",
            "offset": 1,
            "slot": "0",
            "type": "t_uint16"
          },
          {
            "astId": 21836,
            "contract": "src/diamond/facets/BookingFacet.sol:BookingFacet",
            "label": "dayOfYear",
            "offset": 3,
            "slot": "0",
            "type": "t_uint16"
          },
          {
            "astId": 21838,
            "contract": "src/diamond/facets/BookingFacet.sol:BookingFacet",
            "label": "price",
            "offset": 0,
            "slot": "1",
            "type": "t_uint256"
          },
          {
            "astId": 21840,
            "contract": "src/diamond/facets/BookingFacet.sol:BookingFacet",
            "label": "timestamp",
            "offset": 0,
            "slot": "2",
            "type": "t_uint256"
          }
        ],
        "numberOfBytes": "96"
      },
      "t_struct(Bytes32Deque)19174_storage": {
        "encoding": "inplace",
        "label": "struct CustomDoubleEndedQueue.Bytes32Deque",
        "members": [
          {
            "astId": 19167,
            "contract": "src/diamond/facets/BookingFacet.sol:BookingFacet",
            "label": "_begin",
            "offset": 0,
            "slot": "0",
            "type": "t_int128"
          },
          {
            "astId": 19169,
            "contract": "src/diamond/facets/BookingFacet.sol:BookingFacet",
            "label": "_end",
            "offset": 16,
            "slot": "0",
            "type": "t_int128"
          },
          {
            "astId": 19173,
            "contract": "src/diamond/facets/BookingFacet.sol:BookingFacet",
            "label": "_data",
            "offset": 0,
            "slot": "1",
            "type": "t_mapping(t_int128,t_bytes32)"
          }
        ],
        "numberOfBytes": "64"
      },
      "t_struct(Bytes32Set)7665_storage": {
        "encoding": "inplace",
        "label": "struct EnumerableSet.Bytes32Set",
        "members": [
          {
            "astId": 7664,
            "contract": "src/diamond/facets/BookingFacet.sol:BookingFacet",
            "label": "_inner",
            "offset": 0,
            "slot": "0",
            "type": "t_struct(Set)7471_storage"
          }
        ],
        "numberOfBytes": "64"
      },
      "t_struct(Bytes32ToBytes32Map)6354_storage": {
        "encoding": "inplace",
        "label": "struct EnumerableMap.Bytes32ToBytes32Map",
        "members": [
          {
            "astId": 6349,
            "contract": "src/diamond/facets/BookingFacet.sol:BookingFacet",
            "label": "_keys",
            "offset": 0,
            "slot": "0",
            "type": "t_struct(Bytes32Set)7665_storage"
          },
          {
            "astId": 6353,
            "contract": "src/diamond/facets/BookingFacet.sol:BookingFacet",
            "label": "_values",
            "offset": 0,
            "slot": "2",
            "type": "t_mapping(t_bytes32,t_bytes32)"
          }
        ],
        "numberOfBytes": "96"
      },
      "t_struct(Bytes32ToUintMap)7277_storage": {
        "encoding": "inplace",
        "label": "struct EnumerableMap.Bytes32ToUintMap",
        "members": [
          {
            "astId": 7276,
            "contract": "src/diamond/facets/BookingFacet.sol:BookingFacet",
            "label": "_inner",
            "offset": 0,
            "slot": "0",
            "type": "t_struct(Bytes32ToBytes32Map)6354_storage"
          }
        ],
        "numberOfBytes": "96"
      },
      "t_struct(RoleData)21139_storage": {
        "encoding": "inplace",
        "label": "struct AccessControlLib.RoleData",
        "members": [
          {
            "astId": 21136,
            "contract": "src/diamond/facets/BookingFacet.sol:BookingFacet",
            "label": "members",
            "offset": 0,
            "slot": "0",
            "type": "t_mapping(t_address,t_bool)"
          },
          {
            "astId": 21138,
            "contract": "src/diamond/facets/BookingFacet.sol:BookingFacet",
            "label": "adminRole",
            "offset": 0,
            "slot": "1",
            "type": "t_bytes32"
          }
        ],
        "numberOfBytes": "64"
      },
      "t_struct(RoleStore)21150_storage": {
        "encoding": "inplace",
        "label": "struct AccessControlLib.RoleStore",
        "members": [
          {
            "astId": 21144,
            "contract": "src/diamond/facets/BookingFacet.sol:BookingFacet",
            "label": "_roles",
            "offset": 0,
            "slot": "0",
            "type": "t_mapping(t_bytes32,t_struct(RoleData)21139_storage)"
          },
          {
            "astId": 21149,
            "contract": "src/diamond/facets/BookingFacet.sol:BookingFacet",
            "label": "_roleMembers",
            "offset": 0,
            "slot": "1",
            "type": "t_mapping(t_bytes32,t_struct(AddressSet)7772_storage)"
          }
        ],
        "numberOfBytes": "64"
      },
      "t_struct(Set)7471_storage": {
        "encoding": "inplace",
        "label": "struct EnumerableSet.Set",
        "members": [
          {
            "astId": 7466,
            "contract": "src/diamond/facets/BookingFacet.sol:BookingFacet",
            "label": "_values",
            "offset": 0,
            "slot": "0",
            "type": "t_array(t_bytes32)dyn_storage"
          },
          {
            "astId": 7470,
            "contract": "src/diamond/facets/BookingFacet.sol:BookingFacet",
            "label": "_indexes",
            "offset": 0,
            "slot": "1",
            "type": "t_mapping(t_bytes32,t_uint256)"
          }
        ],
        "numberOfBytes": "64"
      },
      "t_struct(Store)22660_storage": {
        "encoding": "inplace",
        "label": "struct MembershipLib.Store",
        "members": [
          {
            "astId": 22659,
            "contract": "src/diamond/facets/BookingFacet.sol:BookingFacet",
            "label": "_inner",
            "offset": 0,
            "slot": "0",
            "type": "t_struct(AddressSet)7772_storage"
          }
        ],
        "numberOfBytes": "64"
      },
      "t_struct(Store)22787_storage": {
        "encoding": "inplace",
        "label": "struct OrderedStakeLib.Store",
        "members": [
          {
            "astId": 22779,
            "contract": "src/diamond/facets/BookingFacet.sol:BookingFacet",
            "label": "_balance",
            "offset": 0,
            "slot": "0",
            "type": "t_uint256"
          },
          {
            "astId": 22782,
            "contract": "src/diamond/facets/BookingFacet.sol:BookingFacet",
            "label": "_queue",
            "offset": 0,
            "slot": "1",
            "type": "t_struct(Bytes32Deque)19174_storage"
          },
          {
            "astId": 22786,
            "contract": "src/diamond/facets/BookingFacet.sol:BookingFacet",
            "label": "_amounts",
            "offset": 0,
            "slot": "3",
            "type": "t_mapping(t_bytes32,t_uint256)"
          }
        ],
        "numberOfBytes": "128"
      },
      "t_struct(UserStore)21860_storage": {
        "encoding": "inplace",
        "label": "struct BookingMapLib.UserStore",
        "members": [
          {
            "astId": 21845,
            "contract": "src/diamond/facets/BookingFacet.sol:BookingFacet",
            "label": "nights",
            "offset": 0,
            "slot": "0",
            "type": "t_mapping(t_uint16,t_uint16)"
          },
          {
            "astId": 21849,
            "contract": "src/diamond/facets/BookingFacet.sol:BookingFacet",
            "label": "balance",
            "offset": 0,
            "slot": "1",
            "type": "t_mapping(t_uint16,t_uint256)"
          },
          {
            "astId": 21854,
            "contract": "src/diamond/facets/BookingFacet.sol:BookingFacet",
            "label": "dates",
            "offset": 0,
            "slot": "2",
            "type": "t_mapping(t_uint16,t_struct(Bytes32ToUintMap)7277_storage)"
          },
          {
            "astId": 21859,
            "contract": "src/diamond/facets/BookingFacet.sol:BookingFacet",
            "label": "bookings",
            "offset": 0,
            "slot": "3",
            "type": "t_mapping(t_bytes32,t_struct(Booking)21841_storage)"
          }
        ],
        "numberOfBytes": "128"
      },
      "t_struct(Year)21871_storage": {
        "encoding": "inplace",
        "label": "struct BookingMapLib.Year",
        "members": [
          {
            "astId": 21862,
            "contract": "src/diamond/facets/BookingFacet.sol:BookingFacet",
            "label": "number",
            "offset": 0,
            "slot": "0",
            "type": "t_uint16"
          },
          {
            "astId": 21864,
            "contract": "src/diamond/facets/BookingFacet.sol:BookingFacet",
            "label": "leapYear",
            "offset": 2,
            "slot": "0",
            "type": "t_bool"
          },
          {
            "astId": 21866,
            "contract": "src/diamond/facets/BookingFacet.sol:BookingFacet",
            "label": "start",
            "offset": 0,
            "slot": "1",
            "type": "t_uint256"
          },
          {
            "astId": 21868,
            "contract": "src/diamond/facets/BookingFacet.sol:BookingFacet",
            "label": "end",
            "offset": 0,
            "slot": "2",
            "type": "t_uint256"
          },
          {
            "astId": 21870,
            "contract": "src/diamond/facets/BookingFacet.sol:BookingFacet",
            "label": "enabled",
            "offset": 0,
            "slot": "3",
            "type": "t_bool"
          }
        ],
        "numberOfBytes": "128"
      },
      "t_struct(YearsStore)21880_storage": {
        "encoding": "inplace",
        "label": "struct BookingMapLib.YearsStore",
        "members": [
          {
            "astId": 21874,
            "contract": "src/diamond/facets/BookingFacet.sol:BookingFacet",
            "label": "_inner",
            "offset": 0,
            "slot": "0",
            "type": "t_struct(Bytes32Set)7665_storage"
          },
          {
            "astId": 21879,
            "contract": "src/diamond/facets/BookingFacet.sol:BookingFacet",
            "label": "elems",
            "offset": 0,
            "slot": "2",
            "type": "t_mapping(t_bytes32,t_struct(Year)21871_storage)"
          }
        ],
        "numberOfBytes": "96"
      },
      "t_uint16": {
        "encoding": "inplace",
        "label": "uint16",
        "numberOfBytes": "2"
      },
      "t_uint256": {
        "encoding": "inplace",
        "label": "uint256",
        "numberOfBytes": "32"
      }
    }
  }
}