{
  "address": "0x3A040Af5f49693eC01d252eA6444BE69A9D1092F",
  "abi": [
    {
      "anonymous": false,
      "inputs": [
        {
          "indexed": false,
          "internalType": "address",
          "name": "executer",
          "type": "address"
        },
        {
          "indexed": false,
          "internalType": "address",
          "name": "account",
          "type": "address"
        },
        {
          "indexed": false,
          "internalType": "uint16[2][]",
          "name": "bookings",
          "type": "uint16[2][]"
        }
      ],
      "name": "BookingCheckedIn",
      "type": "event"
    },
    {
      "anonymous": false,
      "inputs": [
        {
          "indexed": false,
          "internalType": "address",
          "name": "executer",
          "type": "address"
        },
        {
          "indexed": false,
          "internalType": "address",
          "name": "account",
          "type": "address"
        },
        {
          "indexed": false,
          "internalType": "uint16[2][]",
          "name": "bookings",
          "type": "uint16[2][]"
        }
      ],
      "name": "BookingConfirmed",
      "type": "event"
    },
    {
      "anonymous": false,
      "inputs": [
        {
          "indexed": false,
          "internalType": "address",
          "name": "account",
          "type": "address"
        },
        {
          "indexed": false,
          "internalType": "uint16[2][]",
          "name": "bookings",
          "type": "uint16[2][]"
        }
      ],
      "name": "CanceledBookings",
      "type": "event"
    },
    {
      "anonymous": false,
      "inputs": [
        {
          "indexed": false,
          "internalType": "address",
          "name": "account",
          "type": "address"
        },
        {
          "indexed": false,
          "internalType": "uint16[2][]",
          "name": "bookings",
          "type": "uint16[2][]"
        }
      ],
      "name": "NewBookings",
      "type": "event"
    },
    {
      "anonymous": false,
      "inputs": [
        {
          "indexed": false,
          "internalType": "uint16",
          "name": "number",
          "type": "uint16"
        },
        {
          "indexed": false,
          "internalType": "bool",
          "name": "leapYear",
          "type": "bool"
        },
        {
          "indexed": false,
          "internalType": "uint256",
          "name": "start",
          "type": "uint256"
        },
        {
          "indexed": false,
          "internalType": "uint256",
          "name": "end",
          "type": "uint256"
        },
        {
          "indexed": false,
          "internalType": "bool",
          "name": "enabled",
          "type": "bool"
        }
      ],
      "name": "YearAdded",
      "type": "event"
    },
    {
      "anonymous": false,
      "inputs": [
        {
          "indexed": false,
          "internalType": "uint16",
          "name": "number",
          "type": "uint16"
        }
      ],
      "name": "YearRemoved",
      "type": "event"
    },
    {
      "anonymous": false,
      "inputs": [
        {
          "indexed": false,
          "internalType": "uint16",
          "name": "number",
          "type": "uint16"
        },
        {
          "indexed": false,
          "internalType": "bool",
          "name": "leapYear",
          "type": "bool"
        },
        {
          "indexed": false,
          "internalType": "uint256",
          "name": "start",
          "type": "uint256"
        },
        {
          "indexed": false,
          "internalType": "uint256",
          "name": "end",
          "type": "uint256"
        },
        {
          "indexed": false,
          "internalType": "bool",
          "name": "enabled",
          "type": "bool"
        }
      ],
      "name": "YearUpdated",
      "type": "event"
    },
    {
      "inputs": [
        {
          "internalType": "uint16",
          "name": "number",
          "type": "uint16"
        },
        {
          "internalType": "bool",
          "name": "leapYear",
          "type": "bool"
        },
        {
          "internalType": "uint256",
          "name": "start",
          "type": "uint256"
        },
        {
          "internalType": "uint256",
          "name": "end",
          "type": "uint256"
        },
        {
          "internalType": "bool",
          "name": "enabled",
          "type": "bool"
        }
      ],
      "name": "addAccommodationYear",
      "outputs": [],
      "stateMutability": "nonpayable",
      "type": "function"
    },
    {
      "inputs": [
        {
          "internalType": "uint16[2][]",
          "name": "dates",
          "type": "uint16[2][]"
        },
        {
          "internalType": "uint256",
          "name": "price",
          "type": "uint256"
        }
      ],
      "name": "bookAccommodation",
      "outputs": [],
      "stateMutability": "nonpayable",
      "type": "function"
    },
    {
      "inputs": [
        {
          "internalType": "uint16[2][]",
          "name": "dates",
          "type": "uint16[2][]"
        }
      ],
      "name": "cancelAccommodation",
      "outputs": [],
      "stateMutability": "nonpayable",
      "type": "function"
    },
    {
      "inputs": [
        {
          "internalType": "address",
          "name": "account",
          "type": "address"
        },
        {
          "internalType": "uint16[2][]",
          "name": "dates",
          "type": "uint16[2][]"
        }
      ],
      "name": "cancelAccommodationFor",
      "outputs": [],
      "stateMutability": "nonpayable",
      "type": "function"
    },
    {
      "inputs": [
        {
          "internalType": "address",
          "name": "account_",
          "type": "address"
        }
      ],
      "name": "checkedInNightsByYearFor",
      "outputs": [
        {
          "internalType": "uint16[2][]",
          "name": "",
          "type": "uint16[2][]"
        }
      ],
      "stateMutability": "view",
      "type": "function"
    },
    {
      "inputs": [
        {
          "internalType": "address",
          "name": "account",
          "type": "address"
        },
        {
          "internalType": "uint16[2][]",
          "name": "dates",
          "type": "uint16[2][]"
        }
      ],
      "name": "checkinAccommodationFor",
      "outputs": [],
      "stateMutability": "nonpayable",
      "type": "function"
    },
    {
      "inputs": [
        {
          "internalType": "address",
          "name": "account",
          "type": "address"
        },
        {
          "internalType": "uint16[2][]",
          "name": "dates",
          "type": "uint16[2][]"
        }
      ],
      "name": "confirmAccommodationFor",
      "outputs": [],
      "stateMutability": "nonpayable",
      "type": "function"
    },
    {
      "inputs": [
        {
          "internalType": "uint16",
          "name": "number",
          "type": "uint16"
        },
        {
          "internalType": "bool",
          "name": "enable",
          "type": "bool"
        }
      ],
      "name": "enableAccommodationYear",
      "outputs": [],
      "stateMutability": "nonpayable",
      "type": "function"
    },
    {
      "inputs": [
        {
          "internalType": "address",
          "name": "account",
          "type": "address"
        },
        {
          "internalType": "uint16",
          "name": "yearNum",
          "type": "uint16"
        },
        {
          "internalType": "uint16",
          "name": "dayOfYear",
          "type": "uint16"
        }
      ],
      "name": "getAccommodationBooking",
      "outputs": [
        {
          "internalType": "bool",
          "name": "",
          "type": "bool"
        },
        {
          "components": [
            {
              "internalType": "enum BookingMapLib.BookingStatus",
              "name": "status",
              "type": "uint8"
            },
            {
              "internalType": "uint16",
              "name": "year",
              "type": "uint16"
            },
            {
              "internalType": "uint16",
              "name": "dayOfYear",
              "type": "uint16"
            },
            {
              "internalType": "uint256",
              "name": "price",
              "type": "uint256"
            },
            {
              "internalType": "uint256",
              "name": "timestamp",
              "type": "uint256"
            }
          ],
          "internalType": "struct BookingMapLib.Booking",
          "name": "",
          "type": "tuple"
        }
      ],
      "stateMutability": "view",
      "type": "function"
    },
    {
      "inputs": [
        {
          "internalType": "address",
          "name": "account",
          "type": "address"
        },
        {
          "internalType": "uint16",
          "name": "_year",
          "type": "uint16"
        }
      ],
      "name": "getAccommodationBookings",
      "outputs": [
        {
          "components": [
            {
              "internalType": "enum BookingMapLib.BookingStatus",
              "name": "status",
              "type": "uint8"
            },
            {
              "internalType": "uint16",
              "name": "year",
              "type": "uint16"
            },
            {
              "internalType": "uint16",
              "name": "dayOfYear",
              "type": "uint16"
            },
            {
              "internalType": "uint256",
              "name": "price",
              "type": "uint256"
            },
            {
              "internalType": "uint256",
              "name": "timestamp",
              "type": "uint256"
            }
          ],
          "internalType": "struct BookingMapLib.Booking[]",
          "name": "",
          "type": "tuple[]"
        }
      ],
      "stateMutability": "view",
      "type": "function"
    },
    {
      "inputs": [
        {
          "internalType": "uint16",
          "name": "number",
          "type": "uint16"
        }
      ],
      "name": "getAccommodationYear",
      "outputs": [
        {
          "internalType": "bool",
          "name": "",
          "type": "bool"
        },
        {
          "components": [
            {
              "internalType": "uint16",
              "name": "number",
              "type": "uint16"
            },
            {
              "internalType": "bool",
              "name": "leapYear",
              "type": "bool"
            },
            {
              "internalType": "uint256",
              "name": "start",
              "type": "uint256"
            },
            {
              "internalType": "uint256",
              "name": "end",
              "type": "uint256"
            },
            {
              "internalType": "bool",
              "name": "enabled",
              "type": "bool"
            }
          ],
          "internalType": "struct BookingMapLib.Year",
          "name": "",
          "type": "tuple"
        }
      ],
      "stateMutability": "view",
      "type": "function"
    },
    {
      "inputs": [],
      "name": "getAccommodationYears",
      "outputs": [
        {
          "components": [
            {
              "internalType": "uint16",
              "name": "number",
              "type": "uint16"
            },
            {
              "internalType": "bool",
              "name": "leapYear",
              "type": "bool"
            },
            {
              "internalType": "uint256",
              "name": "start",
              "type": "uint256"
            },
            {
              "internalType": "uint256",
              "name": "end",
              "type": "uint256"
            },
            {
              "internalType": "bool",
              "name": "enabled",
              "type": "bool"
            }
          ],
          "internalType": "struct BookingMapLib.Year[]",
          "name": "",
          "type": "tuple[]"
        }
      ],
      "stateMutability": "view",
      "type": "function"
    },
    {
      "inputs": [
        {
          "internalType": "address",
          "name": "account",
          "type": "address"
        },
        {
          "internalType": "uint16",
          "name": "year",
          "type": "uint16"
        },
        {
          "internalType": "uint16",
          "name": "day",
          "type": "uint16"
        }
      ],
      "name": "lockedStakeAt",
      "outputs": [
        {
          "internalType": "uint256",
          "name": "",
          "type": "uint256"
        }
      ],
      "stateMutability": "view",
      "type": "function"
    },
    {
      "inputs": [
        {
          "internalType": "uint16",
          "name": "number",
          "type": "uint16"
        }
      ],
      "name": "removeAccommodationYear",
      "outputs": [],
      "stateMutability": "nonpayable",
      "type": "function"
    },
    {
      "inputs": [
        {
          "internalType": "address",
          "name": "account",
          "type": "address"
        },
        {
          "internalType": "uint16",
          "name": "year",
          "type": "uint16"
        },
        {
          "internalType": "uint16",
          "name": "day",
          "type": "uint16"
        }
      ],
      "name": "unlockedStakeAt",
      "outputs": [
        {
          "internalType": "uint256",
          "name": "",
          "type": "uint256"
        }
      ],
      "stateMutability": "view",
      "type": "function"
    },
    {
      "inputs": [
        {
          "internalType": "uint16",
          "name": "number",
          "type": "uint16"
        },
        {
          "internalType": "bool",
          "name": "leapYear",
          "type": "bool"
        },
        {
          "internalType": "uint256",
          "name": "start",
          "type": "uint256"
        },
        {
          "internalType": "uint256",
          "name": "end",
          "type": "uint256"
        },
        {
          "internalType": "bool",
          "name": "enabled",
          "type": "bool"
        }
      ],
      "name": "updateAccommodationYear",
      "outputs": [],
      "stateMutability": "nonpayable",
      "type": "function"
    }
  ],
  "args": [],
  "numDeployments": 1,
  "solcInputHash": "8c8230d47e68c9e0acc10afb2408a0dc",
  "bytecode": "0x608060405234801561001057600080fd5b506144db806100206000396000f3fe608060405234801561001057600080fd5b50600436106101005760003560e01c80634c0e453e11610097578063757a3c0d11610066578063757a3c0d1461021d57806379ea4ecf1461023d578063a1ff8ff814610252578063f4fed22a1461027357600080fd5b80634c0e453e146101c357806362bdefb1146101e457806366fd0068146101f7578063709d872c1461020a57600080fd5b8063390d41a2116100d3578063390d41a214610177578063395560fc1461018a5780634b4222871461019d5780634ba25e8a146101b057600080fd5b80630fac92f01461010557806310789efe1461012e578063137ae83d1461014f5780631f14148b14610164575b600080fd5b610118610113366004613c55565b610286565b6040516101259190613cf8565b60405180910390f35b61014161013c366004613d46565b6102b4565b604051610125929190613d89565b61016261015d366004613d9f565b61030a565b005b610162610172366004613dff565b6103da565b610162610185366004613e52565b6105fa565b610162610198366004613eaf565b61076b565b6101626101ab366004613dff565b61087b565b6101626101be366004613f0c565b6109ae565b6101d66101d1366004613d46565b610a99565b604051908152602001610125565b6101d66101f2366004613d46565b610b33565b610162610205366004613dff565b610bc1565b610162610218366004613eaf565b610d56565b61023061022b366004613f4e565b610e66565b6040516101259190613f69565b610245610f99565b6040516101259190613fd6565b610265610260366004613d9f565b610faa565b60405161012592919061404b565b610162610281366004614094565b610fe8565b6001600160a01b03821660009081526003602052604090206060906102ab90836110f8565b90505b92915050565b6040805160a0810182526000808252602080830182905282840182905260608301829052608083018290526001600160a01b0387168252600390529182206102fd908585611289565b915091505b935093915050565b7fefa2b23cd542346b38207721a79c51a70b01c47249f50a351696d8f313a8fe1c6103366001826113ac565b6103416004836113bb565b61039e5760405162461bcd60e51b815260206004820152602360248201527f426f6f6b696e6746616365743a20556e61626c6520746f2072656d6f7665205960448201526232b0b960e91b60648201526084015b60405180910390fd5b60405161ffff831681527f95e58e7b256936d20ca1bde8fd750c5ae53d5d866224c71f5926b17c350ba166906020015b60405180910390a15050565b7fefa2b23cd542346b38207721a79c51a70b01c47249f50a351696d8f313a8fe1c6104066001826113ac565b6000805b838110156105a9576000806104b187878581811061042a5761042a6140cb565b905060400201600060028110610442576104426140cb565b6020020160208101906104559190613d9f565b888886818110610467576104676140cb565b90506040020160016002811061047f5761047f6140cb565b6020020160208101906104929190613d9f565b6001600160a01b038b1660009081526003602052604090209190611289565b91509150816104c1575050610597565b6000815160028111156104d6576104d6613c88565b141561059457600061057c8888868181106104f3576104f36140cb565b90506040020160006002811061050b5761050b6140cb565b60200201602081019061051e9190613d9f565b898987818110610530576105306140cb565b905060400201600160028110610548576105486140cb565b60200201602081019061055b9190613d9f565b6001600160a01b038c16600090815260036020526040902091906001611420565b905080156105925761058f6001866140f7565b94505b505b50505b806105a18161411d565b91505061040a565b5061ffff8116156105f3577f967f812a05038d1f67c7262eddabfb6264aefba37a1d10541666c1ae0ccc5d89335b8686866040516105ea949392919061419f565b60405180910390a15b5050505050565b610602611599565b600061060d336115f3565b15610616575060015b60005b838110156107295760006106a8833388888681811061063a5761063a6140cb565b905060400201600060028110610652576106526140cb565b6020020160208101906106659190613d9f565b898987818110610677576106776140cb565b90506040020160016002811061068f5761068f6140cb565b6020020160208101906106a29190613d9f565b88611600565b336000818152600760205260409020608083015192935061071692909187919061070e908b8b898181106106de576106de6140cb565b9050604002016000600281106106f6576106f66140cb565b6020020160208101906107099190613d9f565b6117c8565b929190611870565b50806107218161411d565b915050610619565b507fa744791f7ba4cf0ed4fb864ccdf82192959af8252fd0250f73f067166f51ed6b33858560405161075d939291906141d6565b60405180910390a150505050565b7fefa2b23cd542346b38207721a79c51a70b01c47249f50a351696d8f313a8fe1c6107976001826113ac565b6040805160a08101825261ffff8816815286151560208201529081018590526060810184905282151560808201526107d19060049061193d565b61081d5760405162461bcd60e51b815260206004820181905260248201527f426f6f6b696e6746616365743a20556e61626c6520746f2061646420796561726044820152606401610395565b6040805161ffff8816815286151560208201529081018590526060810184905282151560808201527fc3da413c8752517eb598cf3d589891d0641833769cdf76283ba44468a3d46b869060a0015b60405180910390a1505050505050565b7fefa2b23cd542346b38207721a79c51a70b01c47249f50a351696d8f313a8fe1c6108a76001826113ac565b6000805b8381101561097c5760006109538686848181106108ca576108ca6140cb565b9050604002016000600281106108e2576108e26140cb565b6020020160208101906108f59190613d9f565b878785818110610907576109076140cb565b90506040020160016002811061091f5761091f6140cb565b6020020160208101906109329190613d9f565b6001600160a01b038a16600090815260036020526040902091906002611420565b90508015610969576109666001846140f7565b92505b50806109748161411d565b9150506108ab565b5061ffff8116156105f3577f681e7c2db85861f3f1a1ddf35a1f16c8a5400d75a3d07509817b30931151f576336105d7565b6109b6611599565b60005b81811015610a65576000610a46338585858181106109d9576109d96140cb565b9050604002016000600281106109f1576109f16140cb565b602002016020810190610a049190613d9f565b868686818110610a1657610a166140cb565b905060400201600160028110610a2e57610a2e6140cb565b602002016020810190610a419190613d9f565b6119d3565b9050610a523382611aa3565b5080610a5d8161411d565b9150506109b9565b507fde8b8d404fa6ad1e0533531ef96e711b34a6df8d1133968c52bc335861f0ad8d3383836040516103ce939291906141d6565b60008080610aa960048686611c10565b9150915081610afa5760405162461bcd60e51b815260206004820152601960248201527f756e61626c6520746f206275696c642074696d657374616d70000000000000006044820152606401610395565b6001600160a01b0386166000908152600760205260409020610b279082610b2033611ce9565b9190611d40565b925050505b9392505050565b60008080610b4360048686611c10565b9150915081610b945760405162461bcd60e51b815260206004820152601960248201527f756e61626c6520746f206275696c642074696d657374616d70000000000000006044820152606401610395565b6001600160a01b0386166000908152600760205260409020610b279082610bba33611ce9565b9190611d56565b7fefa2b23cd542346b38207721a79c51a70b01c47249f50a351696d8f313a8fe1c610bed6001826113ac565b610bf5611599565b60005b82811015610d22576000610c5586868685818110610c1857610c186140cb565b905060400201600060028110610c3057610c306140cb565b602002016020810190610c439190613d9f565b878786818110610a1657610a166140cb565b9050600081516002811115610c6c57610c6c613c88565b14610d055760405162461bcd60e51b815260206004820152604160248201527f426f6f6b696e6746616365743a20284e6f7450656e64696e67292043616e206e60448201527f6f742063616e63656c20636f6e6669726d6564206163636f6d6d6f646174696f60648201527f6e00000000000000000000000000000000000000000000000000000000000000608482015260a401610395565b610d0f8682611aa3565b5080610d1a8161411d565b915050610bf8565b507fde8b8d404fa6ad1e0533531ef96e711b34a6df8d1133968c52bc335861f0ad8d84848460405161075d939291906141d6565b7fefa2b23cd542346b38207721a79c51a70b01c47249f50a351696d8f313a8fe1c610d826001826113ac565b6040805160a08101825261ffff881681528615156020820152908101859052606081018490528215156080820152610dbc90600490611d6c565b610e145760405162461bcd60e51b815260206004820152602360248201527f426f6f6b696e6746616365743a20556e61626c6520746f20757064617465205960448201526232b0b960e91b6064820152608401610395565b6040805161ffff8816815286151560208201529081018590526060810184905282151560808201527f85d7a9b39d1a1f0f2f68880d124ededd330f406e1b42f93234665005812d5a829060a00161086b565b60606000610e746004611d88565b90506000815167ffffffffffffffff811115610e9257610e926141f9565b604051908082528060200260200182016040528015610ecb57816020015b610eb8613c09565b815260200190600190039081610eb05790505b50905060005b610edb6004611ecb565b811015610f91576040518060400160405280848381518110610eff57610eff6140cb565b60200260200101516000015161ffff1661ffff168152602001610f59858481518110610f2d57610f2d6140cb565b602090810291909101810151516001600160a01b038a1660009081526003909252604090912090611ed6565b61ffff1690528251839083908110610f7357610f736140cb565b60200260200101819052508080610f899061411d565b915050610ed1565b509392505050565b6060610fa56004611d88565b905090565b6040805160a0810182526000808252602082018190529181018290526060810182905260808101829052610fdf600484611f52565b91509150915091565b7fefa2b23cd542346b38207721a79c51a70b01c47249f50a351696d8f313a8fe1c6110146001826113ac565b6000611021600485611f52565b841515608082015291506110389050600482611d6c565b6110905760405162461bcd60e51b815260206004820152602360248201527f426f6f6b696e6746616365743a20556e61626c6520746f20757064617465207960448201526232b0b960e91b6064820152608401610395565b8051602080830151604080850151606080870151608080890151855161ffff909916895295151596880196909652928601919091528401521515908201527f85d7a9b39d1a1f0f2f68880d124ededd330f406e1b42f93234665005812d5a829060a00161075d565b61ffff8116600090815260028301602052604081206060919061111a90612035565b67ffffffffffffffff811115611132576111326141f9565b60405190808252806020026020018201604052801561118b57816020015b6040805160a0810182526000808252602080830182905292820181905260608201819052608082015282526000199092019101816111505790505b50905060005b61ffff8416600090815260028601602052604090206111af90612035565b811015610f915761ffff8416600090815260028601602052604081206111d59083612040565b50600081815260038801602052604090819020815160a0810190925280549293509091829060ff16600281111561120e5761120e613c88565b600281111561121f5761121f613c88565b8152815461ffff610100820481166020840152630100000090910416604082015260018201546060820152600290910154608090910152835184908490811061126a5761126a6140cb565b60200260200101819052505080806112819061411d565b915050611191565b6040805160a081018252600080825260208201819052918101829052606081018290526080810182905260006112bf858561205c565b61ffff8616600090815260028801602052604090209091506112e190826120b3565b1561137557600081815260038701602052604090819020815160a081019092528054600192908290829060ff16600281111561131f5761131f613c88565b600281111561133057611330613c88565b8152815461ffff610100820481166020840152630100000090910416604082015260018201546060820152600290910154608090910152919450909250610302915050565b50506040805160a0810182526000808252602082018190529181018290526060810182905260808101829052909590945092505050565b6113b78282336120bf565b5050565b6000806113c78361213d565b90506113d3848261218a565b15611416576000908152600280850160205260408220805462ffffff191681556001808201849055918101929092556003909101805460ff1916905590506102ae565b5060009392505050565b60008061142d858561205c565b61ffff86166000908152600288016020526040902090915061144f90826120b3565b1561158b576000818152600387016020526040808220815160a081019092528054829060ff16600281111561148657611486613c88565b600281111561149757611497613c88565b8152815461ffff610100820481166020840152630100000090910416604082015260018201546060820152600291820154608090910152909150819085908111156114e4576114e4613c88565b908160028111156114f7576114f7613c88565b905250600082815260038801602052604090208151815483929190829060ff1916600183600281111561152c5761152c613c88565b021790555060208201518154604084015161ffff90811663010000000264ffff0000001991909316610100021664ffffffff00199091161717815560608201516001808301919091556080909201516002909101559250611591915050565b60009150505b949350505050565b600054610100900460ff16156115f15760405162461bcd60e51b815260206004820152601060248201527f5061757361626c653a20706175736564000000000000000000000000000000006044820152606401610395565b565b60006102ae600883612196565b6040805160a0810182526000808252602082018190529181018290526060810182905260808101829052908061163a6004898888886121a2565b91509150816116b15760405162461bcd60e51b815260206004820152602560248201527f426f6f6b696e6746616365743a20556e61626c6520746f206275696c6420426f60448201527f6f6b696e670000000000000000000000000000000000000000000000000000006064820152608401610395565b4281608001511161172a5760405162461bcd60e51b815260206004820152602a60248201527f426f6f6b696e6746616365743a20646174652073686f756c6420626520696e2060448201527f74686520667574757265000000000000000000000000000000000000000000006064820152608401610395565b6001600160a01b038716600090815260036020526040902061174c908261226d565b6117bd5760405162461bcd60e51b8152602060048201526024808201527f426f6f6b696e6746616365743a20426f6f6b696e6720616c726561647920657860448201527f69737473000000000000000000000000000000000000000000000000000000006064820152608401610395565b979650505050505050565b61180c6040518060a0016040528060006001600160a01b0316815260200160006001600160a01b031681526020016000815260200160008152602001600081525090565b6000611819600484611f52565b6040805160a0810182526001600160a01b0380891682526000546201000090041660208201529193509091508101611850866123c0565b815260200182604001518152602001826060015181525091505092915050565b600061188985608001518561248f90919063ffffffff16565b90508460400151811061189c5750611937565b826118a7828261420f565b905060006118c28760600151876124a790919063ffffffff16565b90508181106118ea576118e2826118d88861256b565b51889190876125b1565b505050611937565b801561190a576118fd816118d88861256b565b611907818361420f565b91505b61191586838661267a565b86516020880151611933916001600160a01b03909116903085612685565b5050505b50505050565b60008061194d836000015161213d565b9050611959848261270d565b156114165760009081526002808501602090815260409283902085518154928701511515620100000262ffffff1990931661ffff909116179190911781559184015160018084019190915560608501519183019190915560808401516003909201805492151560ff199093169290921790915590506102ae565b6040805160a0810182526000808252602082018190529181018290526060810182905260808101919091526001600160a01b03841660009081526003602052604081208190611a23908686611289565b9150915081611a9a5760405162461bcd60e51b815260206004820152603660248201527f426f6f6b696e6746616365743a20284e6f6e4578697374696e6729205265736560448201527f72766174696f6e20646f6573206e6f74206578697374000000000000000000006064820152608401610395565b95945050505050565b42816080015111611b1c5760405162461bcd60e51b815260206004820152602960248201527f426f6f6b696e6746616365743a2043616e206e6f742063616e63656c2070617360448201527f7420626f6f6b696e6700000000000000000000000000000000000000000000006064820152608401610395565b6020808201516040808401516001600160a01b03861660009081526003909452908320611b4a929091612719565b50905080611bc05760405162461bcd60e51b815260206004820152602660248201527f426f6f6b696e6746616365743a20556e61626c6520746f2064656c657465204260448201527f6f6f6b696e6700000000000000000000000000000000000000000000000000006064820152608401610395565b611c0b60006007016000856001600160a01b03166001600160a01b0316815260200190815260200160002083606001518460800151611c038787602001516117c8565b9291906128c4565b505050565b600080600080611c208787611f52565b91509150818015611c32575080608001515b15611cda576000816020015115611c6b5761016e82604001518360600151611c5a919061420f565b611c649190614226565b9050611c8f565b61016d82604001518360600151611c82919061420f565b611c8c9190614226565b90505b6001611c9c600283614226565b611ca7600189614248565b611cb59061ffff168461426b565b8460400151611cc4919061428a565b611cce919061428a565b94509450505050610302565b50600096879650945050505050565b6040805160608101825260008082526020820181905291810191909152604080516060810182526001600160a01b038085168252600054620100009004166020820152908101611d38846123c0565b905292915050565b6000611591611d4f858461292d565b84906124a7565b6000611591611d65858461292d565b849061248f565b600080611d7c836000015161213d565b9050611959848261293d565b60606000611d9583612955565b90506000815167ffffffffffffffff811115611db357611db36141f9565b604051908082528060200260200182016040528015611e0c57816020015b6040805160a081018252600080825260208083018290529282018190526060820181905260808201528252600019909201910181611dd15790505b50905060005b8251811015610f9157846002016000848381518110611e3357611e336140cb565b6020908102919091018101518252818101929092526040908101600020815160a081018352815461ffff8116825260ff6201000090910481161515948201949094526001820154928101929092526002810154606083015260030154909116151560808201528251839083908110611ead57611ead6140cb565b60200260200101819052508080611ec39061411d565b915050611e12565b60006102ae82612960565b600080611ee384846110f8565b90506000805b8251811015611f49576002838281518110611f0657611f066140cb565b6020026020010151600001516002811115611f2357611f23613c88565b1415611f375781611f33816142a2565b9250505b80611f418161411d565b915050611ee9565b50949350505050565b6040805160a08101825260008082526020820181905291810182905260608101829052608081018290526000611f878461213d565b9050611f93858261293d565b15611ffe57600090815260028086016020908152604092839020835160a081018552815461ffff8116825260ff62010000909104811615159382019390935260018281015495820195909552928101546060840152600301541615156080820152909250905061202e565b50506040805160a08101825260008082526020820181905291810182905260608101829052608081018290529091505b9250929050565b60006102ae82611ecb565b600080808061204f868661296a565b9097909650945050505050565b6040517fffff00000000000000000000000000000000000000000000000000000000000060f084811b8216602084015283901b1660228201526000906024016040516020818303038152906040526102ab906142c4565b60006102ab8383612995565b6000828152602084815260408083206001600160a01b038516845290915290205460ff16611c0b576120fb816001600160a01b031660146129a1565b6121068360206129a1565b604051602001612117929190614317565b60408051601f198184030181529082905262461bcd60e51b825261039591600401614398565b6040517fffff00000000000000000000000000000000000000000000000000000000000060f083901b1660208201526000906022016040516020818303038152906040526102ae906142c4565b60006102ab8383612bca565b60006102ab8383612cbd565b6040805160a08101825260008082526020820181905291810182905260608101829052608081018290526000806121da898888611c10565b9150915081156122315760016040518060a001604052808a600281111561220357612203613c88565b81526020018961ffff1681526020018861ffff16815260200187815260200183815250935093505050612263565b50506040805160a081018252600080825260208201819052918101829052606081018290526080810182905290925090505b9550959350505050565b6000806122828360200151846040015161205c565b608084015160208086015161ffff16600090815260028801909152604090209192506122b091908390612cdf565b1561141657606083015160208085015161ffff166000908152600187019091526040812080549091906122e490849061428a565b9091555050600081815260038501602052604090208351815485929190829060ff1916600183600281111561231b5761231b613c88565b0217905550602082810151825460408086015164ffffffff001990921661010061ffff9485160264ffff00000019161763010000009284169290920291909117845560608501516001808601919091556080909501516002909401939093558682015181166000908152918890529181208054909261239c918591166140f7565b92506101000a81548161ffff021916908361ffff16021790555060019150506102ae565b600080806123ce6004611d88565b905060005b81518161ffff1610156124865742828261ffff16815181106123f7576123f76140cb565b602002602001015160600151101561240e57612474565b6000612464838361ffff1681518110612429576124296140cb565b602090810291909101810151516001600160a01b038916600090815260038352604080822061ffff9093168252600190920190925290205490565b905083811115612472578093505b505b8061247e816142a2565b9150506123d3565b50909392505050565b600061249b83836124a7565b83546102ab919061420f565b60006124c58360010154600f81810b600160801b909204900b131590565b156124d2575060006102ae565b60005b6001840154600f81810b600160801b909204900b038110156125645760006125006001860183612cec565b905083811161254b5760038501600061251c6001880185612cec565b81526020019081526020016000205483612536919061428a565b9250838114156125465750612564565b612551565b50612564565b508061255c8161411d565b9150506124d5565b5092915050565b6040805180820190915260008082526020820152600061258d83600101612d8c565b80835260009081526003909301602090815260409093205492820192909252919050565b808214156125be57611937565b80821061260d5760405162461bcd60e51b815260206004820152601b60248201527f4f7264657265645374616b654c69623a2057726f6e6752616e676500000000006044820152606401610395565b6001840154600f81810b600160801b909204900b1361266e5760405162461bcd60e51b815260206004820152601660248201527f4f7264657265645374616b654c69623a20456d707479000000000000000000006044820152606401610395565b61193784848484612df7565b611c0b838383612eac565b604080516001600160a01b0385811660248301528416604482015260648082018490528251808303909101815260849091019091526020810180517bffffffffffffffffffffffffffffffffffffffffffffffffffffffff167f23b872dd00000000000000000000000000000000000000000000000000000000179052611937908590612f73565b60006102ab8383613058565b6040805160a0810182526000808252602082018190529181018290526060810182905260808101829052600061274f858561205c565b61ffff86166000908152600288016020526040902090915061277190826130a7565b15611375576000818152600387016020526040808220815160a081019092528054829060ff1660028111156127a8576127a8613c88565b60028111156127b9576127b9613c88565b8152815461ffff610100820481166020808501919091526301000000909204811660408085019190915260018086015460608087019190915260029096015460809095019490945293850151908b166000908152928c019091529181208054939450919261282890849061420f565b909155505061ffff8087166000908152602089905260408120805460019391929161285591859116614248565b825461ffff9182166101009390930a9283029190920219909116179055506000918252600387016020526040822080547fffffffffffffffffffffffffffffffffffffffffffffffffffffff000000000016815560018181018490556002909101929092559092509050610302565b60006128e385606001518660800151866130b39092919063ffffffff16565b9050806128f05750611937565b6000838210612900575082612903565b50805b6129258187608001516301e133808661291c919061420f565b88929190613114565b505050505050565b60006102ab6301e133808361420f565b600081815260018301602052604081205415156102ab565b60606102ae8261312c565b60006102ae825490565b600080806129788585613188565b600081815260029690960160205260409095205494959350505050565b60006102ab838361293d565b606060006129b083600261426b565b6129bb90600261428a565b67ffffffffffffffff8111156129d3576129d36141f9565b6040519080825280601f01601f1916602001820160405280156129fd576020820181803683370190505b5090507f300000000000000000000000000000000000000000000000000000000000000081600081518110612a3457612a346140cb565b60200101907effffffffffffffffffffffffffffffffffffffffffffffffffffffffffffff1916908160001a9053507f780000000000000000000000000000000000000000000000000000000000000081600181518110612a9757612a976140cb565b60200101907effffffffffffffffffffffffffffffffffffffffffffffffffffffffffffff1916908160001a9053506000612ad384600261426b565b612ade90600161428a565b90505b6001811115612b7b577f303132333435363738396162636465660000000000000000000000000000000085600f1660108110612b1f57612b1f6140cb565b1a60f81b828281518110612b3557612b356140cb565b60200101907effffffffffffffffffffffffffffffffffffffffffffffffffffffffffffff1916908160001a90535060049490941c93612b74816143cb565b9050612ae1565b5083156102ab5760405162461bcd60e51b815260206004820181905260248201527f537472696e67733a20686578206c656e67746820696e73756666696369656e746044820152606401610395565b60008181526001830160205260408120548015612cb3576000612bee60018361420f565b8554909150600090612c029060019061420f565b9050818114612c67576000866000018281548110612c2257612c226140cb565b9060005260206000200154905080876000018481548110612c4557612c456140cb565b6000918252602080832090910192909255918252600188019052604090208390555b8554869080612c7857612c786143e2565b6001900381819060005260206000200160009055905585600101600086815260200190815260200160002060009055600193505050506102ae565b60009150506102ae565b6001600160a01b038116600090815260018301602052604081205415156102ab565b6000611591848484613194565b600080612d0f612cfb846131b1565b8554612d0a9190600f0b6143f8565b61324d565b8454909150600160801b9004600f90810b9082900b12612d715760405162461bcd60e51b815260206004820152600b60248201527f4f75744f66426f756e64730000000000000000000000000000000000000000006044820152606401610395565b600f0b60009081526001939093016020525050604090205490565b6000612da78254600f81810b600160801b909204900b131590565b15612ddc5760405162461bcd60e51b8152602060048201526005602482015264456d70747960d81b6044820152606401610395565b508054600f0b60009081526001909101602052604090205490565b6000612e0285613301565b8051909150831415612e91578381602001511415612e2a57612e25858584613360565b6105f3565b8381602001511115612e5c57612e41858584613360565b612e2585858360200151612e55919061420f565b8351613360565b612e6b85826020015184613360565b612e2585826020015186612e7f919061420f565b612e8b88600101612d8c565b85612df7565b612e9d85858585612df7565b6105f385826020015183600001515b6001830154600f81810b600160801b909204900b13612ed057611c0b8383836134d8565b6000612ede846001016135da565b905081811015612ef857612ef38484846134d8565b611937565b81811415612f0b57612ef3848484613654565b6000612f1985600101613712565b9050612f26858585612eac565b6105f360018601828154600160801b90819004600f0b6000818152600180860160205260409091209390935583546fffffffffffffffffffffffffffffffff908116939091011602179055565b6000612fc8826040518060400160405280602081526020017f5361666545524332303a206c6f772d6c6576656c2063616c6c206661696c6564815250856001600160a01b03166137b29092919063ffffffff16565b805190915015611c0b5780806020019051810190612fe6919061446c565b611c0b5760405162461bcd60e51b815260206004820152602a60248201527f5361666545524332303a204552433230206f7065726174696f6e20646964206e60448201527f6f742073756363656564000000000000000000000000000000000000000000006064820152608401610395565b600081815260018301602052604081205461309f575081546001818101845560008481526020808220909301849055845484825282860190935260409020919091556102ae565b5060006102ae565b60006102ab83836137c1565b6000805b6130c0856137de565b811015610f915760006130d386836137fb565b9050848160000151101580156130ea575080518410155b156131015760208101516130fe908461428a565b92505b508061310c8161411d565b9150506130b7565b81811061312057611937565b61193784848484613843565b60608160000180548060200260200160405190810160405280929190818152602001828054801561317c57602002820191906000526020600020905b815481526020019060010190808311613168575b50505050509050919050565b60006102ab8383613882565b60008281526002840160205260408120829055611591848461270d565b60007f7fffffffffffffffffffffffffffffffffffffffffffffffffffffffffffffff8211156132495760405162461bcd60e51b815260206004820152602860248201527f53616665436173743a2076616c756520646f65736e27742066697420696e206160448201527f6e20696e743235360000000000000000000000000000000000000000000000006064820152608401610395565b5090565b60007fffffffffffffffffffffffffffffffff80000000000000000000000000000000821280159061328f57506f7fffffffffffffffffffffffffffffff8213155b6132495760405162461bcd60e51b815260206004820152602760248201527f53616665436173743a2076616c756520646f65736e27742066697420696e203160448201527f32382062697473000000000000000000000000000000000000000000000000006064820152608401610395565b60408051808201909152600080825260208201526000613323836001016138ac565b600081815260038501602052604081208054908290558554929350918291869161334e90849061420f565b90915550509082526020820152919050565b6001830154600f81810b600160801b909204900b136133d957611c0b838383806135ab60018501828154600f90810b600019019081900b600090815260018401602052604090209190915581546fffffffffffffffffffffffffffffffff19166fffffffffffffffffffffffffffffffff909116179055565b60006133e784600101612d8c565b90508181111561345157612ef3848484806135ab60018501828154600f90810b600019019081900b600090815260018401602052604090209190915581546fffffffffffffffffffffffffffffffff19166fffffffffffffffffffffffffffffffff909116179055565b8181141561346457612ef3848484613654565b6000613472856001016138ac565b905061347f858585613360565b6105f360018601828154600f90810b600019019081900b600090815260018401602052604090209190915581546fffffffffffffffffffffffffffffffff19166fffffffffffffffffffffffffffffffff909116179055565b600081815260038401602052604090205481901561355e5760405162461bcd60e51b815260206004820152602c60248201527f4f7264657265645374616b654c69623a2043414e204e4f54204f56455252494460448201527f452054494d455354414d505300000000000000000000000000000000000000006064820152608401610395565b6135ab60018501828154600160801b90819004600f0b6000818152600180860160205260409091209390935583546fffffffffffffffffffffffffffffffff908116939091011602179055565b600081815260038501602052604081208490558454849186916135cf90849061428a565b909155505050505050565b60006135f58254600f81810b600160801b909204900b131590565b1561362a5760405162461bcd60e51b8152602060048201526005602482015264456d70747960d81b6044820152606401610395565b508054600160801b9004600f90810b60001901900b60009081526001909101602052604090205490565b600081815260038401602052604090205481906136d95760405162461bcd60e51b815260206004820152602760248201527f4f7264657265645374616b654c69623a20547279696e6720746f20757064617460448201527f6520656d707479000000000000000000000000000000000000000000000000006064820152608401610395565b6000818152600385016020526040812080548592906136f990849061428a565b90915550508354839085906000906135cf90849061428a565b600061372d8254600f81810b600160801b909204900b131590565b156137625760405162461bcd60e51b8152602060048201526005602482015264456d70747960d81b6044820152606401610395565b508054600160801b90819004600f90810b600019019081900b60009081526001840160205260408120805491905583546fffffffffffffffffffffffffffffffff90811692169092021790915590565b6060611591848460008561394b565b600081815260028301602052604081208190556102ab838361218a565b60006102ae8260010154600f81810b600160801b909204900b0390565b6040805180820190915260008082526020820152600061381e6001850184612cec565b8083526000908152600390940160209081526040909420549382019390935292915050565b600061384e85613a88565b90508281600001511161386b57612e258585836000015185613aaa565b61387485613b61565b9050612e9d85858585613843565b6000826000018281548110613899576138996140cb565b9060005260206000200154905092915050565b60006138c78254600f81810b600160801b909204900b131590565b156138fc5760405162461bcd60e51b8152602060048201526005602482015264456d70747960d81b6044820152606401610395565b508054600f0b6000818152600180840160205260408220805492905583546fffffffffffffffffffffffffffffffff191692016fffffffffffffffffffffffffffffffff169190911790915590565b6060824710156139c35760405162461bcd60e51b815260206004820152602660248201527f416464726573733a20696e73756666696369656e742062616c616e636520666f60448201527f722063616c6c00000000000000000000000000000000000000000000000000006064820152608401610395565b6001600160a01b0385163b613a1a5760405162461bcd60e51b815260206004820152601d60248201527f416464726573733a2063616c6c20746f206e6f6e2d636f6e74726163740000006044820152606401610395565b600080866001600160a01b03168587604051613a369190614489565b60006040518083038185875af1925050503d8060008114613a73576040519150601f19603f3d011682016040523d82523d6000602084013e613a78565b606091505b50915091506117bd828286613bd0565b6040805180820190915260008082526020820152600061258d836001016135da565b82613ab457611937565b6000613abf85613b61565b8051909150831415613b55578381602001511415613ae257612e25858584612eac565b8381602001511115613b1457613af9858584612eac565b612e2585858360200151613b0d919061420f565b8351612eac565b8060200151841115612e2557613b2f85826020015184612eac565b612e2585826020015186613b43919061420f565b613b4f886001016135da565b85613aaa565b612e9d85858585613aaa565b60408051808201909152600080825260208201526000613b8383600101613712565b80835260008181526003850160209081526040822054908501819052855492935091859190613bb390849061420f565b909155505060009081526003909201602052604082209190915590565b60608315613bdf575081610b2c565b825115613bef5782518084602001fd5b8160405162461bcd60e51b81526004016103959190614398565b60405180604001604052806002906020820280368337509192915050565b80356001600160a01b0381168114613c3e57600080fd5b919050565b803561ffff81168114613c3e57600080fd5b60008060408385031215613c6857600080fd5b613c7183613c27565b9150613c7f60208401613c43565b90509250929050565b634e487b7160e01b600052602160045260246000fd5b805160038110613cbe57634e487b7160e01b600052602160045260246000fd5b80835250602081015161ffff8082166020850152806040840151166040850152505060608101516060830152608081015160808301525050565b6020808252825182820181905260009190848201906040850190845b81811015613d3a57613d27838551613c9e565b9284019260a09290920191600101613d14565b50909695505050505050565b600080600060608486031215613d5b57600080fd5b613d6484613c27565b9250613d7260208501613c43565b9150613d8060408501613c43565b90509250925092565b821515815260c08101610b2c6020830184613c9e565b600060208284031215613db157600080fd5b6102ab82613c43565b60008083601f840112613dcc57600080fd5b50813567ffffffffffffffff811115613de457600080fd5b6020830191508360208260061b850101111561202e57600080fd5b600080600060408486031215613e1457600080fd5b613e1d84613c27565b9250602084013567ffffffffffffffff811115613e3957600080fd5b613e4586828701613dba565b9497909650939450505050565b600080600060408486031215613e6757600080fd5b833567ffffffffffffffff811115613e7e57600080fd5b613e8a86828701613dba565b909790965060209590950135949350505050565b8015158114613eac57600080fd5b50565b600080600080600060a08688031215613ec757600080fd5b613ed086613c43565b94506020860135613ee081613e9e565b935060408601359250606086013591506080860135613efe81613e9e565b809150509295509295909350565b60008060208385031215613f1f57600080fd5b823567ffffffffffffffff811115613f3657600080fd5b613f4285828601613dba565b90969095509350505050565b600060208284031215613f6057600080fd5b6102ab82613c27565b60208082528251828201819052600091906040908185019086840185805b83811015613fc857825185835b6002811015613fb557825161ffff1682529189019190890190600101613f94565b5050509385019391860191600101613f87565b509298975050505050505050565b6020808252825182820181905260009190848201906040850190845b81811015613d3a5761403883855161ffff815116825260208101511515602083015260408101516040830152606081015160608301526080810151151560808301525050565b9284019260a09290920191600101613ff2565b821515815260c08101610b2c602083018461ffff815116825260208101511515602083015260408101516040830152606081015160608301526080810151151560808301525050565b600080604083850312156140a757600080fd5b6140b083613c43565b915060208301356140c081613e9e565b809150509250929050565b634e487b7160e01b600052603260045260246000fd5b634e487b7160e01b600052601160045260246000fd5b600061ffff808316818516808303821115614114576141146140e1565b01949350505050565b6000600019821415614131576141316140e1565b5060010190565b818352600060208085019450826000805b86811015614193578783835b600281101561417d5761ffff61416a83613c43565b1683529186019190860190600101614155565b5050506040978801979290920191600101614149565b50959695505050505050565b60006001600160a01b038087168352808616602084015250606060408301526141cc606083018486614138565b9695505050505050565b6001600160a01b0384168152604060208201526000611a9a604083018486614138565b634e487b7160e01b600052604160045260246000fd5b600082821015614221576142216140e1565b500390565b60008261424357634e487b7160e01b600052601260045260246000fd5b500490565b600061ffff83811690831681811015614263576142636140e1565b039392505050565b6000816000190483118215151615614285576142856140e1565b500290565b6000821982111561429d5761429d6140e1565b500190565b600061ffff808316818114156142ba576142ba6140e1565b6001019392505050565b805160208083015191908110156142e5576000198160200360031b1b821691505b50919050565b60005b838110156143065781810151838201526020016142ee565b838111156119375750506000910152565b7f416363657373436f6e74726f6c3a206163636f756e742000000000000000000081526000835161434f8160178501602088016142eb565b7f206973206d697373696e6720726f6c6520000000000000000000000000000000601791840191820152835161438c8160288401602088016142eb565b01602801949350505050565b60208152600082518060208401526143b78160408501602087016142eb565b601f01601f19169190910160400192915050565b6000816143da576143da6140e1565b506000190190565b634e487b7160e01b600052603160045260246000fd5b6000808212827f7fffffffffffffffffffffffffffffffffffffffffffffffffffffffffffffff03841381151615614432576144326140e1565b827f8000000000000000000000000000000000000000000000000000000000000000038412811615614466576144666140e1565b50500190565b60006020828403121561447e57600080fd5b81516102ab81613e9e565b6000825161449b8184602087016142eb565b919091019291505056fea2646970667358221220b2285f5cc224bcb35ed6509302ea5dbc558220a208fce2c5090fb563484597a064736f6c63430008090033",
  "devdoc": {
    "kind": "dev",
    "methods": {},
    "version": 1
  },
  "userdoc": {
    "kind": "user",
    "methods": {},
    "version": 1
  },
  "storageLayout": {
    "storage": [
      {
        "astId": 16047,
        "contract": "src/diamond/facets/BookingFacet.sol:BookingFacet",
        "label": "s",
        "offset": 0,
        "slot": "0",
        "type": "t_struct(AppStorage)16015_storage"
      }
    ],
    "types": {
      "t_address": {
        "encoding": "inplace",
        "label": "address",
        "numberOfBytes": "20"
      },
      "t_array(t_bytes32)dyn_storage": {
        "base": "t_bytes32",
        "encoding": "dynamic_array",
        "label": "bytes32[]",
        "numberOfBytes": "32"
      },
      "t_bool": {
        "encoding": "inplace",
        "label": "bool",
        "numberOfBytes": "1"
      },
      "t_bytes32": {
        "encoding": "inplace",
        "label": "bytes32",
        "numberOfBytes": "32"
      },
      "t_contract(IERC20)4139": {
        "encoding": "inplace",
        "label": "contract IERC20",
        "numberOfBytes": "20"
      },
      "t_enum(BookingStatus)16314": {
        "encoding": "inplace",
        "label": "enum BookingMapLib.BookingStatus",
        "numberOfBytes": "1"
      },
      "t_int128": {
        "encoding": "inplace",
        "label": "int128",
        "numberOfBytes": "16"
      },
      "t_mapping(t_address,t_bool)": {
        "encoding": "mapping",
        "key": "t_address",
        "label": "mapping(address => bool)",
        "numberOfBytes": "32",
        "value": "t_bool"
      },
      "t_mapping(t_address,t_struct(Store)17340_storage)": {
        "encoding": "mapping",
        "key": "t_address",
        "label": "mapping(address => struct OrderedStakeLib.Store)",
        "numberOfBytes": "32",
        "value": "t_struct(Store)17340_storage"
      },
      "t_mapping(t_address,t_struct(UserStore)16349_storage)": {
        "encoding": "mapping",
        "key": "t_address",
        "label": "mapping(address => struct BookingMapLib.UserStore)",
        "numberOfBytes": "32",
        "value": "t_struct(UserStore)16349_storage"
      },
      "t_mapping(t_bytes32,t_bytes32)": {
        "encoding": "mapping",
        "key": "t_bytes32",
        "label": "mapping(bytes32 => bytes32)",
        "numberOfBytes": "32",
        "value": "t_bytes32"
      },
      "t_mapping(t_bytes32,t_struct(AddressSet)9466_storage)": {
        "encoding": "mapping",
        "key": "t_bytes32",
        "label": "mapping(bytes32 => struct EnumerableSet.AddressSet)",
        "numberOfBytes": "32",
        "value": "t_struct(AddressSet)9466_storage"
      },
      "t_mapping(t_bytes32,t_struct(Booking)16326_storage)": {
        "encoding": "mapping",
        "key": "t_bytes32",
        "label": "mapping(bytes32 => struct BookingMapLib.Booking)",
        "numberOfBytes": "32",
        "value": "t_struct(Booking)16326_storage"
      },
      "t_mapping(t_bytes32,t_struct(RoleData)15622_storage)": {
        "encoding": "mapping",
        "key": "t_bytes32",
        "label": "mapping(bytes32 => struct AccessControlLib.RoleData)",
        "numberOfBytes": "32",
        "value": "t_struct(RoleData)15622_storage"
      },
      "t_mapping(t_bytes32,t_struct(Year)16360_storage)": {
        "encoding": "mapping",
        "key": "t_bytes32",
        "label": "mapping(bytes32 => struct BookingMapLib.Year)",
        "numberOfBytes": "32",
        "value": "t_struct(Year)16360_storage"
      },
      "t_mapping(t_bytes32,t_uint256)": {
        "encoding": "mapping",
        "key": "t_bytes32",
        "label": "mapping(bytes32 => uint256)",
        "numberOfBytes": "32",
        "value": "t_uint256"
      },
      "t_mapping(t_int128,t_bytes32)": {
        "encoding": "mapping",
        "key": "t_int128",
        "label": "mapping(int128 => bytes32)",
        "numberOfBytes": "32",
        "value": "t_bytes32"
      },
      "t_mapping(t_uint16,t_struct(Bytes32ToUintMap)8971_storage)": {
        "encoding": "mapping",
        "key": "t_uint16",
        "label": "mapping(uint16 => struct EnumerableMap.Bytes32ToUintMap)",
        "numberOfBytes": "32",
        "value": "t_struct(Bytes32ToUintMap)8971_storage"
      },
      "t_mapping(t_uint16,t_uint16)": {
        "encoding": "mapping",
        "key": "t_uint16",
        "label": "mapping(uint16 => uint16)",
        "numberOfBytes": "32",
        "value": "t_uint16"
      },
      "t_mapping(t_uint16,t_uint256)": {
        "encoding": "mapping",
        "key": "t_uint16",
        "label": "mapping(uint16 => uint256)",
        "numberOfBytes": "32",
        "value": "t_uint256"
      },
      "t_struct(AddressSet)9466_storage": {
        "encoding": "inplace",
        "label": "struct EnumerableSet.AddressSet",
        "members": [
          {
            "astId": 9465,
            "contract": "src/diamond/facets/BookingFacet.sol:BookingFacet",
            "label": "_inner",
            "offset": 0,
            "slot": "0",
            "type": "t_struct(Set)9165_storage"
          }
        ],
        "numberOfBytes": "64"
      },
      "t_struct(AppStorage)16015_storage": {
        "encoding": "inplace",
        "label": "struct AppStorage",
        "members": [
          {
            "astId": 15988,
            "contract": "src/diamond/facets/BookingFacet.sol:BookingFacet",
            "label": "initialized",
            "offset": 0,
            "slot": "0",
            "type": "t_bool"
          },
          {
            "astId": 15990,
            "contract": "src/diamond/facets/BookingFacet.sol:BookingFacet",
            "label": "paused",
            "offset": 1,
            "slot": "0",
            "type": "t_bool"
          },
          {
            "astId": 15993,
            "contract": "src/diamond/facets/BookingFacet.sol:BookingFacet",
            "label": "communityToken",
            "offset": 2,
            "slot": "0",
            "type": "t_contract(IERC20)4139"
          },
          {
            "astId": 15996,
            "contract": "src/diamond/facets/BookingFacet.sol:BookingFacet",
            "label": "_roleStore",
            "offset": 0,
            "slot": "1",
            "type": "t_struct(RoleStore)15633_storage"
          },
          {
            "astId": 16001,
            "contract": "src/diamond/facets/BookingFacet.sol:BookingFacet",
            "label": "_accommodationBookings",
            "offset": 0,
            "slot": "3",
            "type": "t_mapping(t_address,t_struct(UserStore)16349_storage)"
          },
          {
            "astId": 16004,
            "contract": "src/diamond/facets/BookingFacet.sol:BookingFacet",
            "label": "_accommodationYears",
            "offset": 0,
            "slot": "4",
            "type": "t_struct(YearsStore)16369_storage"
          },
          {
            "astId": 16009,
            "contract": "src/diamond/facets/BookingFacet.sol:BookingFacet",
            "label": "staking",
            "offset": 0,
            "slot": "7",
            "type": "t_mapping(t_address,t_struct(Store)17340_storage)"
          },
          {
            "astId": 16012,
            "contract": "src/diamond/facets/BookingFacet.sol:BookingFacet",
            "label": "members",
            "offset": 0,
            "slot": "8",
            "type": "t_struct(Store)17214_storage"
          },
          {
            "astId": 16014,
            "contract": "src/diamond/facets/BookingFacet.sol:BookingFacet",
            "label": "tdfTreasury",
            "offset": 0,
            "slot": "10",
            "type": "t_address"
          }
        ],
        "numberOfBytes": "352"
      },
      "t_struct(Booking)16326_storage": {
        "encoding": "inplace",
        "label": "struct BookingMapLib.Booking",
        "members": [
          {
            "astId": 16317,
            "contract": "src/diamond/facets/BookingFacet.sol:BookingFacet",
            "label": "status",
            "offset": 0,
            "slot": "0",
            "type": "t_enum(BookingStatus)16314"
          },
          {
            "astId": 16319,
            "contract": "src/diamond/facets/BookingFacet.sol:BookingFacet",
            "label": "year",
            "offset": 1,
            "slot": "0",
            "type": "t_uint16"
          },
          {
            "astId": 16321,
            "contract": "src/diamond/facets/BookingFacet.sol:BookingFacet",
            "label": "dayOfYear",
            "offset": 3,
            "slot": "0",
            "type": "t_uint16"
          },
          {
            "astId": 16323,
            "contract": "src/diamond/facets/BookingFacet.sol:BookingFacet",
            "label": "price",
            "offset": 0,
            "slot": "1",
            "type": "t_uint256"
          },
          {
            "astId": 16325,
            "contract": "src/diamond/facets/BookingFacet.sol:BookingFacet",
            "label": "timestamp",
            "offset": 0,
            "slot": "2",
            "type": "t_uint256"
          }
        ],
        "numberOfBytes": "96"
      },
      "t_struct(Bytes32Deque)13582_storage": {
        "encoding": "inplace",
        "label": "struct CustomDoubleEndedQueue.Bytes32Deque",
        "members": [
          {
            "astId": 13575,
            "contract": "src/diamond/facets/BookingFacet.sol:BookingFacet",
            "label": "_begin",
            "offset": 0,
            "slot": "0",
            "type": "t_int128"
          },
          {
            "astId": 13577,
            "contract": "src/diamond/facets/BookingFacet.sol:BookingFacet",
            "label": "_end",
            "offset": 16,
            "slot": "0",
            "type": "t_int128"
          },
          {
            "astId": 13581,
            "contract": "src/diamond/facets/BookingFacet.sol:BookingFacet",
            "label": "_data",
            "offset": 0,
            "slot": "1",
            "type": "t_mapping(t_int128,t_bytes32)"
          }
        ],
        "numberOfBytes": "64"
      },
      "t_struct(Bytes32Set)9359_storage": {
        "encoding": "inplace",
        "label": "struct EnumerableSet.Bytes32Set",
        "members": [
          {
            "astId": 9358,
            "contract": "src/diamond/facets/BookingFacet.sol:BookingFacet",
            "label": "_inner",
            "offset": 0,
            "slot": "0",
            "type": "t_struct(Set)9165_storage"
          }
        ],
        "numberOfBytes": "64"
      },
      "t_struct(Bytes32ToBytes32Map)8048_storage": {
        "encoding": "inplace",
        "label": "struct EnumerableMap.Bytes32ToBytes32Map",
        "members": [
          {
            "astId": 8043,
            "contract": "src/diamond/facets/BookingFacet.sol:BookingFacet",
            "label": "_keys",
            "offset": 0,
            "slot": "0",
            "type": "t_struct(Bytes32Set)9359_storage"
          },
          {
            "astId": 8047,
            "contract": "src/diamond/facets/BookingFacet.sol:BookingFacet",
            "label": "_values",
            "offset": 0,
            "slot": "2",
            "type": "t_mapping(t_bytes32,t_bytes32)"
          }
        ],
        "numberOfBytes": "96"
      },
      "t_struct(Bytes32ToUintMap)8971_storage": {
        "encoding": "inplace",
        "label": "struct EnumerableMap.Bytes32ToUintMap",
        "members": [
          {
            "astId": 8970,
            "contract": "src/diamond/facets/BookingFacet.sol:BookingFacet",
            "label": "_inner",
            "offset": 0,
            "slot": "0",
            "type": "t_struct(Bytes32ToBytes32Map)8048_storage"
          }
        ],
        "numberOfBytes": "96"
      },
      "t_struct(RoleData)15622_storage": {
        "encoding": "inplace",
        "label": "struct AccessControlLib.RoleData",
        "members": [
          {
            "astId": 15619,
            "contract": "src/diamond/facets/BookingFacet.sol:BookingFacet",
            "label": "members",
            "offset": 0,
            "slot": "0",
            "type": "t_mapping(t_address,t_bool)"
          },
          {
            "astId": 15621,
            "contract": "src/diamond/facets/BookingFacet.sol:BookingFacet",
            "label": "adminRole",
            "offset": 0,
            "slot": "1",
            "type": "t_bytes32"
          }
        ],
        "numberOfBytes": "64"
      },
      "t_struct(RoleStore)15633_storage": {
        "encoding": "inplace",
        "label": "struct AccessControlLib.RoleStore",
        "members": [
          {
            "astId": 15627,
            "contract": "src/diamond/facets/BookingFacet.sol:BookingFacet",
            "label": "_roles",
            "offset": 0,
            "slot": "0",
            "type": "t_mapping(t_bytes32,t_struct(RoleData)15622_storage)"
          },
          {
            "astId": 15632,
            "contract": "src/diamond/facets/BookingFacet.sol:BookingFacet",
            "label": "_roleMembers",
            "offset": 0,
            "slot": "1",
            "type": "t_mapping(t_bytes32,t_struct(AddressSet)9466_storage)"
          }
        ],
        "numberOfBytes": "64"
      },
      "t_struct(Set)9165_storage": {
        "encoding": "inplace",
        "label": "struct EnumerableSet.Set",
        "members": [
          {
            "astId": 9160,
            "contract": "src/diamond/facets/BookingFacet.sol:BookingFacet",
            "label": "_values",
            "offset": 0,
            "slot": "0",
            "type": "t_array(t_bytes32)dyn_storage"
          },
          {
            "astId": 9164,
            "contract": "src/diamond/facets/BookingFacet.sol:BookingFacet",
            "label": "_indexes",
            "offset": 0,
            "slot": "1",
            "type": "t_mapping(t_bytes32,t_uint256)"
          }
        ],
        "numberOfBytes": "64"
      },
      "t_struct(Store)17214_storage": {
        "encoding": "inplace",
        "label": "struct MembershipLib.Store",
        "members": [
          {
            "astId": 17213,
            "contract": "src/diamond/facets/BookingFacet.sol:BookingFacet",
            "label": "_inner",
            "offset": 0,
            "slot": "0",
            "type": "t_struct(AddressSet)9466_storage"
          }
        ],
        "numberOfBytes": "64"
      },
      "t_struct(Store)17340_storage": {
        "encoding": "inplace",
        "label": "struct OrderedStakeLib.Store",
        "members": [
          {
            "astId": 17332,
            "contract": "src/diamond/facets/BookingFacet.sol:BookingFacet",
            "label": "_balance",
            "offset": 0,
            "slot": "0",
            "type": "t_uint256"
          },
          {
            "astId": 17335,
            "contract": "src/diamond/facets/BookingFacet.sol:BookingFacet",
            "label": "_queue",
            "offset": 0,
            "slot": "1",
            "type": "t_struct(Bytes32Deque)13582_storage"
          },
          {
            "astId": 17339,
            "contract": "src/diamond/facets/BookingFacet.sol:BookingFacet",
            "label": "_amounts",
            "offset": 0,
            "slot": "3",
            "type": "t_mapping(t_bytes32,t_uint256)"
          }
        ],
        "numberOfBytes": "128"
      },
      "t_struct(UserStore)16349_storage": {
        "encoding": "inplace",
        "label": "struct BookingMapLib.UserStore",
        "members": [
          {
            "astId": 16330,
            "contract": "src/diamond/facets/BookingFacet.sol:BookingFacet",
            "label": "nights",
            "offset": 0,
            "slot": "0",
            "type": "t_mapping(t_uint16,t_uint16)"
          },
          {
            "astId": 16334,
            "contract": "src/diamond/facets/BookingFacet.sol:BookingFacet",
            "label": "balance",
            "offset": 0,
            "slot": "1",
            "type": "t_mapping(t_uint16,t_uint256)"
          },
          {
            "astId": 16339,
            "contract": "src/diamond/facets/BookingFacet.sol:BookingFacet",
            "label": "dates",
            "offset": 0,
            "slot": "2",
            "type": "t_mapping(t_uint16,t_struct(Bytes32ToUintMap)8971_storage)"
          },
          {
            "astId": 16344,
            "contract": "src/diamond/facets/BookingFacet.sol:BookingFacet",
            "label": "bookings",
            "offset": 0,
            "slot": "3",
            "type": "t_mapping(t_bytes32,t_struct(Booking)16326_storage)"
          },
          {
            "astId": 16348,
            "contract": "src/diamond/facets/BookingFacet.sol:BookingFacet",
            "label": "checkedInNights",
            "offset": 0,
            "slot": "4",
            "type": "t_mapping(t_uint16,t_uint16)"
          }
        ],
        "numberOfBytes": "160"
      },
      "t_struct(Year)16360_storage": {
        "encoding": "inplace",
        "label": "struct BookingMapLib.Year",
        "members": [
          {
            "astId": 16351,
            "contract": "src/diamond/facets/BookingFacet.sol:BookingFacet",
            "label": "number",
            "offset": 0,
            "slot": "0",
            "type": "t_uint16"
          },
          {
            "astId": 16353,
            "contract": "src/diamond/facets/BookingFacet.sol:BookingFacet",
            "label": "leapYear",
            "offset": 2,
            "slot": "0",
            "type": "t_bool"
          },
          {
            "astId": 16355,
            "contract": "src/diamond/facets/BookingFacet.sol:BookingFacet",
            "label": "start",
            "offset": 0,
            "slot": "1",
            "type": "t_uint256"
          },
          {
            "astId": 16357,
            "contract": "src/diamond/facets/BookingFacet.sol:BookingFacet",
            "label": "end",
            "offset": 0,
            "slot": "2",
            "type": "t_uint256"
          },
          {
            "astId": 16359,
            "contract": "src/diamond/facets/BookingFacet.sol:BookingFacet",
            "label": "enabled",
            "offset": 0,
            "slot": "3",
            "type": "t_bool"
          }
        ],
        "numberOfBytes": "128"
      },
      "t_struct(YearsStore)16369_storage": {
        "encoding": "inplace",
        "label": "struct BookingMapLib.YearsStore",
        "members": [
          {
            "astId": 16363,
            "contract": "src/diamond/facets/BookingFacet.sol:BookingFacet",
            "label": "_inner",
            "offset": 0,
            "slot": "0",
            "type": "t_struct(Bytes32Set)9359_storage"
          },
          {
            "astId": 16368,
            "contract": "src/diamond/facets/BookingFacet.sol:BookingFacet",
            "label": "elems",
            "offset": 0,
            "slot": "2",
            "type": "t_mapping(t_bytes32,t_struct(Year)16360_storage)"
          }
        ],
        "numberOfBytes": "96"
      },
      "t_uint16": {
        "encoding": "inplace",
        "label": "uint16",
        "numberOfBytes": "2"
      },
      "t_uint256": {
        "encoding": "inplace",
        "label": "uint256",
        "numberOfBytes": "32"
      }
    }
  }
}