{
  "address": "0xdf04C6dB184734BdfbF123eb46017f4b67d778B6",
  "abi": [
    {
      "inputs": [
        {
          "internalType": "address",
          "name": "_token",
          "type": "address"
        },
        {
          "internalType": "address",
          "name": "_quote",
          "type": "address"
        },
        {
          "internalType": "address payable",
          "name": "_wallet",
          "type": "address"
        },
        {
          "internalType": "uint256",
          "name": "_price",
          "type": "uint256"
        },
        {
          "internalType": "uint256",
          "name": "_minTokenBuyAmount",
          "type": "uint256"
        }
      ],
      "stateMutability": "nonpayable",
      "type": "constructor"
    },
    {
      "anonymous": false,
      "inputs": [
        {
          "indexed": true,
          "internalType": "address",
          "name": "previousOwner",
          "type": "address"
        },
        {
          "indexed": true,
          "internalType": "address",
          "name": "newOwner",
          "type": "address"
        }
      ],
      "name": "OwnershipTransferred",
      "type": "event"
    },
    {
      "anonymous": false,
      "inputs": [
        {
          "indexed": false,
          "internalType": "address",
          "name": "account",
          "type": "address"
        }
      ],
      "name": "Paused",
      "type": "event"
    },
    {
      "anonymous": false,
      "inputs": [
        {
          "indexed": false,
          "internalType": "uint256",
          "name": "prevPrice",
          "type": "uint256"
        },
        {
          "indexed": false,
          "internalType": "uint256",
          "name": "newPrice",
          "type": "uint256"
        }
      ],
      "name": "PriceChanged",
      "type": "event"
    },
    {
      "anonymous": false,
      "inputs": [
        {
          "indexed": true,
          "internalType": "address",
          "name": "purchaser",
          "type": "address"
        },
        {
          "indexed": true,
          "internalType": "address",
          "name": "beneficiary",
          "type": "address"
        },
        {
          "indexed": false,
          "internalType": "uint256",
          "name": "value",
          "type": "uint256"
        },
        {
          "indexed": false,
          "internalType": "uint256",
          "name": "amount",
          "type": "uint256"
        }
      ],
      "name": "TokensPurchased",
      "type": "event"
    },
    {
      "anonymous": false,
      "inputs": [
        {
          "indexed": false,
          "internalType": "address",
          "name": "account",
          "type": "address"
        }
      ],
      "name": "Unpaused",
      "type": "event"
    },
    {
      "inputs": [
        {
          "internalType": "uint256",
          "name": "weiAmount",
          "type": "uint256"
        }
      ],
      "name": "buy",
      "outputs": [],
      "stateMutability": "nonpayable",
      "type": "function"
    },
    {
      "inputs": [
        {
          "internalType": "address",
          "name": "beneficiary",
          "type": "address"
        },
        {
          "internalType": "uint256",
          "name": "weiAmount",
          "type": "uint256"
        }
      ],
      "name": "buyFor",
      "outputs": [],
      "stateMutability": "nonpayable",
      "type": "function"
    },
    {
      "inputs": [],
      "name": "minTokenBuyAmount",
      "outputs": [
        {
          "internalType": "uint256",
          "name": "",
          "type": "uint256"
        }
      ],
      "stateMutability": "view",
      "type": "function"
    },
    {
      "inputs": [],
      "name": "owner",
      "outputs": [
        {
          "internalType": "address",
          "name": "",
          "type": "address"
        }
      ],
      "stateMutability": "view",
      "type": "function"
    },
    {
      "inputs": [],
      "name": "pause",
      "outputs": [],
      "stateMutability": "nonpayable",
      "type": "function"
    },
    {
      "inputs": [],
      "name": "paused",
      "outputs": [
        {
          "internalType": "bool",
          "name": "",
          "type": "bool"
        }
      ],
      "stateMutability": "view",
      "type": "function"
    },
    {
      "inputs": [],
      "name": "price",
      "outputs": [
        {
          "internalType": "uint256",
          "name": "",
          "type": "uint256"
        }
      ],
      "stateMutability": "view",
      "type": "function"
    },
    {
      "inputs": [],
      "name": "quote",
      "outputs": [
        {
          "internalType": "contract IERC20",
          "name": "",
          "type": "address"
        }
      ],
      "stateMutability": "view",
      "type": "function"
    },
    {
      "inputs": [],
      "name": "remainingTokens",
      "outputs": [
        {
          "internalType": "uint256",
          "name": "",
          "type": "uint256"
        }
      ],
      "stateMutability": "view",
      "type": "function"
    },
    {
      "inputs": [],
      "name": "renounceOwnership",
      "outputs": [],
      "stateMutability": "nonpayable",
      "type": "function"
    },
    {
      "inputs": [
        {
          "internalType": "uint256",
          "name": "_price",
          "type": "uint256"
        }
      ],
      "name": "setPrice",
      "outputs": [],
      "stateMutability": "nonpayable",
      "type": "function"
    },
    {
      "inputs": [],
      "name": "token",
      "outputs": [
        {
          "internalType": "contract IERC20",
          "name": "",
          "type": "address"
        }
      ],
      "stateMutability": "view",
      "type": "function"
    },
    {
      "inputs": [
        {
          "internalType": "address",
          "name": "newOwner",
          "type": "address"
        }
      ],
      "name": "transferOwnership",
      "outputs": [],
      "stateMutability": "nonpayable",
      "type": "function"
    },
    {
      "inputs": [],
      "name": "unpause",
      "outputs": [],
      "stateMutability": "nonpayable",
      "type": "function"
    },
    {
      "inputs": [],
      "name": "wallet",
      "outputs": [
        {
          "internalType": "address payable",
          "name": "",
          "type": "address"
        }
      ],
      "stateMutability": "view",
      "type": "function"
    },
    {
      "inputs": [],
      "name": "weiRaised",
      "outputs": [
        {
          "internalType": "uint256",
          "name": "",
          "type": "uint256"
        }
      ],
      "stateMutability": "view",
      "type": "function"
    }
  ],
  "transactionHash": "0xd7344a4a7824aad1a4a4cb04c4b6449243018104faf852bc9df8cec6d195e660",
  "args": [
    "0x5B9C008bdaF1b3c2BD8Cac9dF2830d3594243a54",
    "0xD98Fdd8721AaDA22e86B92b1d45f885B3b0b821C",
    "0x661Ac71bbe43fe56935c1CA4d62e62ed380950A3",
    "150000000000000000000",
    "500000000000000000"
  ],
  "numDeployments": 3,
  "solcInputHash": "f106e37aae6a3f7106f3c0e0aa509e22",
  "bytecode": "0x6101006040526806f05b59d3b200000060e0523480156200001f57600080fd5b5060405162001724380380620017248339810160408190526200004291620003a6565b6001600055620000523362000186565b6001805460ff60a01b191690556001600160a01b038316620000c95760405162461bcd60e51b815260206004820152602560248201527f43726f776473616c653a2077616c6c657420697320746865207a65726f206164604482015264647265737360d81b60648201526084015b60405180910390fd5b6001600160a01b0385166200012d5760405162461bcd60e51b8152602060048201526024808201527f43726f776473616c653a20746f6b656e20697320746865207a65726f206164646044820152637265737360e01b6064820152608401620000c0565b6001600160a01b03808616608081905290851660a05262000150906012620001d8565b60a05162000160906012620001d8565b6001600160a01b03831660c052620001788262000305565b600355506200043792505050565b600180546001600160a01b038381166001600160a01b0319831681179093556040519116919082907f8be0079c531659141344cd1fd0a4f28419497f9722a3daafe3b4186f6b6457e090600090a35050565b816001600160a01b031663313ce5676040518163ffffffff1660e01b815260040160206040518083038186803b1580156200021257600080fd5b505afa92505050801562000245575060408051601f3d908101601f1916820190925262000242918101906200040b565b60015b6200029e5760405162461bcd60e51b815260206004820152602260248201527f556e61626c6520746f2067756172616e74656520746f6b656e20646563696d616044820152616c7360f01b6064820152608401620000c0565b8160ff168160ff1614620003005760405162461bcd60e51b815260206004820152602260248201527f57726f6e67206e756d626572206f6620646563696d616c7320666f7220746f6b60448201526132b760f11b6064820152608401620000c0565b505050565b60e051811015620003485760405162461bcd60e51b815260206004820152600c60248201526b507269636520746f206c6f7760a01b6044820152606401620000c0565b600280549082905560408051828152602081018490527f8aa4fa52648a6d15edce8a179c792c86f3719d0cc3c572cf90f91948f0f2cb68910160405180910390a15050565b6001600160a01b0381168114620003a357600080fd5b50565b600080600080600060a08688031215620003bf57600080fd5b8551620003cc816200038d565b6020870151909550620003df816200038d565b6040870151909450620003f2816200038d565b6060870151608090970151959894975095949392505050565b6000602082840312156200041e57600080fd5b815160ff811681146200043057600080fd5b9392505050565b60805160a05160c05160e05161127b620004a96000396000610a77015260008181610143015281816104e6015281816105bf01528181610ca70152610cfb0152600081816101d30152610c7c01526000818161023a01528181610515015281816105ed0152610cd9015261127b6000f3fe608060405234801561001057600080fd5b50600436106101005760003560e01c806391b7f5ed11610097578063d96a094a11610066578063d96a094a14610206578063df4c0dc214610219578063f2fde38b14610222578063fc0c546a1461023557600080fd5b806391b7f5ed146101bb578063999b93af146101ce578063a035b1fe146101f5578063bf583903146101fe57600080fd5b80635c975abb116100d35780635c975abb1461017d578063715018a61461019a5780638456cb59146101a25780638da5cb5b146101aa57600080fd5b806306501a6a146101055780633f4ba83a1461011a5780634042b66f14610122578063521eb2731461013e575b600080fd5b610118610113366004611054565b61025c565b005b610118610326565b61012b60045481565b6040519081526020015b60405180910390f35b6101657f000000000000000000000000000000000000000000000000000000000000000081565b6040516001600160a01b039091168152602001610135565b600154600160a01b900460ff166040519015158152602001610135565b61011861038a565b6101186103ee565b6001546001600160a01b0316610165565b6101186101c936600461107e565b610450565b6101657f000000000000000000000000000000000000000000000000000000000000000081565b61012b60025481565b61012b6104b6565b61011861021436600461107e565b610671565b61012b60035481565b610118610230366004611097565b610735565b6101657f000000000000000000000000000000000000000000000000000000000000000081565b600260005414156102b45760405162461bcd60e51b815260206004820152601f60248201527f5265656e7472616e637947756172643a207265656e7472616e742063616c6c0060448201526064015b60405180910390fd5b6002600055600154600160a01b900460ff16156103135760405162461bcd60e51b815260206004820152601060248201527f5061757361626c653a207061757365640000000000000000000000000000000060448201526064016102ab565b61031d8282610814565b50506001600055565b6001546001600160a01b031633146103805760405162461bcd60e51b815260206004820181905260248201527f4f776e61626c653a2063616c6c6572206973206e6f7420746865206f776e657260448201526064016102ab565b61038861089a565b565b6001546001600160a01b031633146103e45760405162461bcd60e51b815260206004820181905260248201527f4f776e61626c653a2063616c6c6572206973206e6f7420746865206f776e657260448201526064016102ab565b610388600061095b565b6001546001600160a01b031633146104485760405162461bcd60e51b815260206004820181905260248201527f4f776e61626c653a2063616c6c6572206973206e6f7420746865206f776e657260448201526064016102ab565b6103886109c5565b6001546001600160a01b031633146104aa5760405162461bcd60e51b815260206004820181905260248201527f4f776e61626c653a2063616c6c6572206973206e6f7420746865206f776e657260448201526064016102ab565b6104b381610a75565b50565b6040517f70a082310000000000000000000000000000000000000000000000000000000081526001600160a01b037f00000000000000000000000000000000000000000000000000000000000000008116600483015260009161066c917f000000000000000000000000000000000000000000000000000000000000000016906370a082319060240160206040518083038186803b15801561055757600080fd5b505afa15801561056b573d6000803e3d6000fd5b505050506040513d601f19601f8201168201806040525081019061058f91906110b2565b6040517fdd62ed3e0000000000000000000000000000000000000000000000000000000081526001600160a01b037f0000000000000000000000000000000000000000000000000000000000000000811660048301523060248301527f0000000000000000000000000000000000000000000000000000000000000000169063dd62ed3e9060440160206040518083038186803b15801561062f57600080fd5b505afa158015610643573d6000803e3d6000fd5b505050506040513d601f19601f8201168201806040525081019061066791906110b2565b610b2a565b905090565b600260005414156106c45760405162461bcd60e51b815260206004820152601f60248201527f5265656e7472616e637947756172643a207265656e7472616e742063616c6c0060448201526064016102ab565b6002600055600154600160a01b900460ff16156107235760405162461bcd60e51b815260206004820152601060248201527f5061757361626c653a207061757365640000000000000000000000000000000060448201526064016102ab565b61072d3382610814565b506001600055565b6001546001600160a01b0316331461078f5760405162461bcd60e51b815260206004820181905260248201527f4f776e61626c653a2063616c6c6572206973206e6f7420746865206f776e657260448201526064016102ab565b6001600160a01b03811661080b5760405162461bcd60e51b815260206004820152602660248201527f4f776e61626c653a206e6577206f776e657220697320746865207a65726f206160448201527f646472657373000000000000000000000000000000000000000000000000000060648201526084016102ab565b6104b38161095b565b600061081f82610b42565b905061082b8383610b73565b6004546108389082610c6b565b60045561084481610c77565b61084e8383610ccc565b604080518381526020810183905233916001600160a01b038616917f6faf93231a456e552dbc9961f58d9713ee4f2e69d15f1975b050ef0911053a7b910160405180910390a35b505050565b600154600160a01b900460ff166108f35760405162461bcd60e51b815260206004820152601460248201527f5061757361626c653a206e6f742070617573656400000000000000000000000060448201526064016102ab565b600180547fffffffffffffffffffffff00ffffffffffffffffffffffffffffffffffffffff1690557f5db9ee0a495bf2e6ff9c91a7834c1ba4fdd244a5e8aa4e537bd38aeae4b073aa335b6040516001600160a01b03909116815260200160405180910390a1565b600180546001600160a01b038381167fffffffffffffffffffffffff0000000000000000000000000000000000000000831681179093556040519116919082907f8be0079c531659141344cd1fd0a4f28419497f9722a3daafe3b4186f6b6457e090600090a35050565b600154600160a01b900460ff1615610a1f5760405162461bcd60e51b815260206004820152601060248201527f5061757361626c653a207061757365640000000000000000000000000000000060448201526064016102ab565b600180547fffffffffffffffffffffff00ffffffffffffffffffffffffffffffffffffffff16600160a01b1790557f62e78cea01bee320cd4e420270b5ea74000d11b0c9f74754ebdbfc544b05a25861093e3390565b7f0000000000000000000000000000000000000000000000000000000000000000811015610ae55760405162461bcd60e51b815260206004820152600c60248201527f507269636520746f206c6f77000000000000000000000000000000000000000060448201526064016102ab565b600280549082905560408051828152602081018490527f8aa4fa52648a6d15edce8a179c792c86f3719d0cc3c572cf90f91948f0f2cb68910160405180910390a15050565b6000818310610b395781610b3b565b825b9392505050565b6000610b6d610b58662386f26fc10000846110fa565b6064600254610b6791906110fa565b90610d21565b92915050565b6001600160a01b038216610bef5760405162461bcd60e51b815260206004820152602a60248201527f43726f776473616c653a2062656e656669636961727920697320746865207a6560448201527f726f20616464726573730000000000000000000000000000000000000000000060648201526084016102ab565b600354811015610c675760405162461bcd60e51b815260206004820152602960248201527f43726f776473616c653a206d696e696d756e20616d6f756e7420746f2062757960448201527f207265717569726564000000000000000000000000000000000000000000000060648201526084016102ab565b5050565b6000610b3b8284611135565b6104b37f00000000000000000000000000000000000000000000000000000000000000006001600160a01b0316337f000000000000000000000000000000000000000000000000000000000000000084610d2d565b610c676001600160a01b037f0000000000000000000000000000000000000000000000000000000000000000167f00000000000000000000000000000000000000000000000000000000000000008484610d2d565b6000610b3b828461114d565b604080516001600160a01b0385811660248301528416604482015260648082018490528251808303909101815260849091019091526020810180517bffffffffffffffffffffffffffffffffffffffffffffffffffffffff167f23b872dd00000000000000000000000000000000000000000000000000000000179052610db5908590610dbb565b50505050565b6000610e10826040518060400160405280602081526020017f5361666545524332303a206c6f772d6c6576656c2063616c6c206661696c6564815250856001600160a01b0316610ea09092919063ffffffff16565b8051909150156108955780806020019051810190610e2e919061118a565b6108955760405162461bcd60e51b815260206004820152602a60248201527f5361666545524332303a204552433230206f7065726174696f6e20646964206e60448201527f6f7420737563636565640000000000000000000000000000000000000000000060648201526084016102ab565b6060610eaf8484600085610eb7565b949350505050565b606082471015610f2f5760405162461bcd60e51b815260206004820152602660248201527f416464726573733a20696e73756666696369656e742062616c616e636520666f60448201527f722063616c6c000000000000000000000000000000000000000000000000000060648201526084016102ab565b6001600160a01b0385163b610f865760405162461bcd60e51b815260206004820152601d60248201527f416464726573733a2063616c6c20746f206e6f6e2d636f6e747261637400000060448201526064016102ab565b600080866001600160a01b03168587604051610fa291906111d8565b60006040518083038185875af1925050503d8060008114610fdf576040519150601f19603f3d011682016040523d82523d6000602084013e610fe4565b606091505b5091509150610ff4828286610fff565b979650505050505050565b6060831561100e575081610b3b565b82511561101e5782518084602001fd5b8160405162461bcd60e51b81526004016102ab91906111f4565b80356001600160a01b038116811461104f57600080fd5b919050565b6000806040838503121561106757600080fd5b61107083611038565b946020939093013593505050565b60006020828403121561109057600080fd5b5035919050565b6000602082840312156110a957600080fd5b610b3b82611038565b6000602082840312156110c457600080fd5b5051919050565b7f4e487b7100000000000000000000000000000000000000000000000000000000600052601160045260246000fd5b600082611130577f4e487b7100000000000000000000000000000000000000000000000000000000600052601260045260246000fd5b500490565b60008219821115611148576111486110cb565b500190565b6000817fffffffffffffffffffffffffffffffffffffffffffffffffffffffffffffffff0483118215151615611185576111856110cb565b500290565b60006020828403121561119c57600080fd5b81518015158114610b3b57600080fd5b60005b838110156111c75781810151838201526020016111af565b83811115610db55750506000910152565b600082516111ea8184602087016111ac565b9190910192915050565b60208152600082518060208401526112138160408501602087016111ac565b601f017fffffffffffffffffffffffffffffffffffffffffffffffffffffffffffffffe016919091016040019291505056fea2646970667358221220b2ad29f7c139c3bdb3ba4991cb28045bee30da12fb15ca9fa26070cbc64619a264736f6c63430008090033",
  "devdoc": {
    "events": {
      "PriceChanged(uint256,uint256)": {
        "params": {
          "newPrice": "current set price",
          "prevPrice": "price before the change"
        }
      },
      "TokensPurchased(address,address,uint256,uint256)": {
        "params": {
          "amount": "amount of tokens purchased",
          "beneficiary": "who got the tokens",
          "purchaser": "who paid for the tokens",
          "value": "weis paid for purchase"
        }
      }
    },
    "kind": "dev",
    "methods": {
      "buy(uint256)": {
        "details": "Sender buys tokens to be paid from his wallet and sent to his wallet.",
        "params": {
          "weiAmount": "amount of tokens to be bought with min unit of quote token Requirements: - The contract must not be paused."
        }
      },
      "buyFor(address,uint256)": {
        "details": "Sender buys tokens to be sent to another wallet.",
        "params": {
          "beneficiary": "address to deliver the tokens",
          "weiAmount": "amount of tokens to be bought with min unit of quote token Requirements: - The contract must not be paused."
        }
      },
      "constructor": {
        "params": {
          "_minTokenBuyAmount": "min allowed buy Initializes: - Ownable: setting owner to the deployer - Pausable: initial setting to not paused Requires: - Both token and quote ERC20s to have 18 decimals",
          "_price": "price in wei for a unit (ether)",
          "_quote": "token to buy",
          "_token": "Token to sell",
          "_wallet": "wallet holding the tokens to sell, must approve this contract to move the funds"
        }
      },
      "owner()": {
        "details": "Returns the address of the current owner."
      },
      "pause()": {
        "details": "Pause buys. Requirements: - Only Owner."
      },
      "paused()": {
        "details": "Returns true if the contract is paused, and false otherwise."
      },
      "remainingTokens()": {
        "details": "Checks the amount of tokens left in the allowance.",
        "returns": {
          "_0": "Amount of tokens left in the allowance"
        }
      },
      "renounceOwnership()": {
        "details": "Leaves the contract without owner. It will not be possible to call `onlyOwner` functions anymore. Can only be called by the current owner. NOTE: Renouncing ownership will leave the contract without an owner, thereby removing any functionality that is only available to the owner."
      },
      "setPrice(uint256)": {
        "details": "Changes the price.",
        "params": {
          "_price": "new Price in wei Requirements: - Only Owner."
        }
      },
      "transferOwnership(address)": {
        "details": "Transfers ownership of the contract to a new account (`newOwner`). Can only be called by the current owner."
      },
      "unpause()": {
        "details": "Unpause buys. Requirements: - Only Owner."
      }
    },
    "version": 1
  },
  "userdoc": {
    "events": {
      "PriceChanged(uint256,uint256)": {
        "notice": "Event for price change logging"
      },
      "TokensPurchased(address,address,uint256,uint256)": {
        "notice": "Event for token purchase logging"
      }
    },
    "kind": "user",
    "methods": {
      "constructor": {
        "notice": "Constructor"
      }
    },
    "version": 1
  },
  "storageLayout": {
    "storage": [
      {
        "astId": 207,
        "contract": "src/Crowdsale/Crowdsale.sol:Crowdsale",
        "label": "_status",
        "offset": 0,
        "slot": "0",
        "type": "t_uint256"
      },
      {
        "astId": 7,
        "contract": "src/Crowdsale/Crowdsale.sol:Crowdsale",
        "label": "_owner",
        "offset": 0,
        "slot": "1",
        "type": "t_address"
      },
      {
        "astId": 122,
        "contract": "src/Crowdsale/Crowdsale.sol:Crowdsale",
        "label": "_paused",
        "offset": 20,
        "slot": "1",
        "type": "t_bool"
      },
      {
        "astId": 11518,
        "contract": "src/Crowdsale/Crowdsale.sol:Crowdsale",
        "label": "price",
        "offset": 0,
        "slot": "2",
        "type": "t_uint256"
      },
      {
        "astId": 11523,
        "contract": "src/Crowdsale/Crowdsale.sol:Crowdsale",
        "label": "minTokenBuyAmount",
        "offset": 0,
        "slot": "3",
        "type": "t_uint256"
      },
      {
        "astId": 11525,
        "contract": "src/Crowdsale/Crowdsale.sol:Crowdsale",
        "label": "weiRaised",
        "offset": 0,
        "slot": "4",
        "type": "t_uint256"
      }
    ],
    "types": {
      "t_address": {
        "encoding": "inplace",
        "label": "address",
        "numberOfBytes": "20"
      },
      "t_bool": {
        "encoding": "inplace",
        "label": "bool",
        "numberOfBytes": "1"
      },
      "t_uint256": {
        "encoding": "inplace",
        "label": "uint256",
        "numberOfBytes": "32"
      }
    }
  }
}