{
  "address": "0x4e72Ac772e5476dbee084240E3738E18AeD96341",
  "abi": [
    {
      "inputs": [
        {
          "internalType": "address",
          "name": "token",
          "type": "address"
        },
        {
          "internalType": "uint256",
          "name": "daysLocked",
          "type": "uint256"
        }
      ],
      "name": "init",
      "outputs": [],
      "stateMutability": "nonpayable",
      "type": "function"
    }
  ],
  "transactionHash": "0xbfe364199372f65280f22741a3450ea43826072451444c242478ad38f7e4c693",
  "args": [],
  "numDeployments": 1,
  "solcInputHash": "f106e37aae6a3f7106f3c0e0aa509e22",
  "bytecode": "0x608060405234801561001057600080fd5b50610687806100206000396000f3fe608060405234801561001057600080fd5b506004361061002b5760003560e01c8063399ae72414610030575b600080fd5b61004361003e36600461059f565b610045565b005b61004d610367565b600854610100900460ff16156100c4576040517f08c379a000000000000000000000000000000000000000000000000000000000815260206004820152601360248201527f416c726561647920696e697469616c697a65640000000000000000000000000060448201526064015b60405180910390fd5b7fc8fcad8db84d3cc18b4c41d551ea0ee66dd599cde068d998e57d5e09332c131f60209081527f699d9daa71b280d05a152715774afa0a81a312594b2d731d6b0b2552b7d6f69f8054600160ff1991821681179092557ff97e938d8af42f52387bb74b8b526fda8f184cc2aa534340a8d75a88fbecc77580548216831790557f65d510a5d8f7ef134ec444f7f34ee808c8eeb5177cdfd16be0c40fe1ab43369580548216831790557f7f5828d00000000000000000000000000000000000000000000000000000000060009081527f5622121b47b8cd0120c4efe45dd5483242f54a3d49bd7679be565d47694918c38054909216831790915580547fffffffffffffffffffffffff00000000000000000000000000000000000000001673ffffffffffffffffffffffffffffffffffffffff86161781556040805160a0810182526107e681529384018290526361cf9980908401526363b0ccff606084015260808301919091527fc8fcad8db84d3cc18b4c41d551ea0ee66dd599cde068d998e57d5e09332c131c9161025990600290610432565b506040805160a0810182526107e78152600060208201526363b0cd0091810191909152636592007f60608201526001608082015261029b906002830190610432565b506040805160a0810182526107e88152600160208201819052636592008092820192909252636774857f606082015260808101919091526102e0906002830190610432565b506040805160a0810182526107e9815260006020820152636774858091810191909152636955b8ff606082015260016080820152610322906002830190610432565b5061033083620151806105e4565b600782015560080180547fffffffffffffffffffffffffffffffffffffffffffffffffffffffffffff00ff16610100179055505050565b7fc8fcad8db84d3cc18b4c41d551ea0ee66dd599cde068d998e57d5e09332c131c6004015473ffffffffffffffffffffffffffffffffffffffff163314610430576040517f08c379a000000000000000000000000000000000000000000000000000000000815260206004820152602260248201527f4c69624469616d6f6e643a204d75737420626520636f6e7472616374206f776e60448201527f657200000000000000000000000000000000000000000000000000000000000060648201526084016100bb565b565b60008061044283600001516104f0565b905061044e848261053d565b156104e4576000908152600280850160209081526040928390208551815492870151151562010000027fffffffffffffffffffffffffffffffffffffffffffffffffffffffffff00000090931661ffff909116179190911781559184015160018084019190915560608501519183019190915560808401516003909201805492151560ff199093169290921790915590506104ea565b60009150505b92915050565b6040517fffff00000000000000000000000000000000000000000000000000000000000060f083901b1660208201526000906022016040516020818303038152906040526104ea9061062a565b60006105498383610550565b9392505050565b6000818152600183016020526040812054610597575081546001818101845560008481526020808220909301849055845484825282860190935260409020919091556104ea565b5060006104ea565b600080604083850312156105b257600080fd5b823573ffffffffffffffffffffffffffffffffffffffff811681146105d657600080fd5b946020939093013593505050565b6000816000190483118215151615610625577f4e487b7100000000000000000000000000000000000000000000000000000000600052601160045260246000fd5b500290565b8051602080830151919081101561064b576000198160200360031b1b821691505b5091905056fea26469706673582212202178edf909fdd1ee833190fa2c5c2b212ccb93f139aed5f02713cd091d97ceb064736f6c63430008090033",
  "devdoc": {
    "kind": "dev",
    "methods": {},
    "version": 1
  },
  "userdoc": {
    "kind": "user",
    "methods": {},
    "version": 1
  },
  "storageLayout": {
    "storage": [
      {
        "astId": 16221,
        "contract": "src/diamond/upgradeInitializers/DiamondInit.sol:DiamondInit",
        "label": "s",
        "offset": 0,
        "slot": "0",
        "type": "t_struct(AppStorage)16209_storage"
      }
    ],
    "types": {
      "t_address": {
        "encoding": "inplace",
        "label": "address",
        "numberOfBytes": "20"
      },
      "t_array(t_bytes32)dyn_storage": {
        "base": "t_bytes32",
        "encoding": "dynamic_array",
        "label": "bytes32[]",
        "numberOfBytes": "32"
      },
      "t_array(t_struct(Deposit)16181_storage)dyn_storage": {
        "base": "t_struct(Deposit)16181_storage",
        "encoding": "dynamic_array",
        "label": "struct Deposit[]",
        "numberOfBytes": "32"
      },
      "t_bool": {
        "encoding": "inplace",
        "label": "bool",
        "numberOfBytes": "1"
      },
      "t_bytes32": {
        "encoding": "inplace",
        "label": "bytes32",
        "numberOfBytes": "32"
      },
      "t_contract(IERC20)900": {
        "encoding": "inplace",
        "label": "contract IERC20",
        "numberOfBytes": "20"
      },
      "t_mapping(t_address,t_array(t_struct(Deposit)16181_storage)dyn_storage)": {
        "encoding": "mapping",
        "key": "t_address",
        "label": "mapping(address => struct Deposit[])",
        "numberOfBytes": "32",
        "value": "t_array(t_struct(Deposit)16181_storage)dyn_storage"
      },
      "t_mapping(t_address,t_struct(UserStore)13095_storage)": {
        "encoding": "mapping",
        "key": "t_address",
        "label": "mapping(address => struct BookingMapLib.UserStore)",
        "numberOfBytes": "32",
        "value": "t_struct(UserStore)13095_storage"
      },
      "t_mapping(t_address,t_uint256)": {
        "encoding": "mapping",
        "key": "t_address",
        "label": "mapping(address => uint256)",
        "numberOfBytes": "32",
        "value": "t_uint256"
      },
      "t_mapping(t_bytes32,t_bytes32)": {
        "encoding": "mapping",
        "key": "t_bytes32",
        "label": "mapping(bytes32 => bytes32)",
        "numberOfBytes": "32",
        "value": "t_bytes32"
      },
      "t_mapping(t_bytes32,t_struct(Booking)13080_storage)": {
        "encoding": "mapping",
        "key": "t_bytes32",
        "label": "mapping(bytes32 => struct BookingMapLib.Booking)",
        "numberOfBytes": "32",
        "value": "t_struct(Booking)13080_storage"
      },
      "t_mapping(t_bytes32,t_struct(Year)13106_storage)": {
        "encoding": "mapping",
        "key": "t_bytes32",
        "label": "mapping(bytes32 => struct BookingMapLib.Year)",
        "numberOfBytes": "32",
        "value": "t_struct(Year)13106_storage"
      },
      "t_mapping(t_bytes32,t_uint256)": {
        "encoding": "mapping",
        "key": "t_bytes32",
        "label": "mapping(bytes32 => uint256)",
        "numberOfBytes": "32",
        "value": "t_uint256"
      },
      "t_mapping(t_uint16,t_struct(Bytes32ToUintMap)14032_storage)": {
        "encoding": "mapping",
        "key": "t_uint16",
        "label": "mapping(uint16 => struct EnumerableMapLib.Bytes32ToUintMap)",
        "numberOfBytes": "32",
        "value": "t_struct(Bytes32ToUintMap)14032_storage"
      },
      "t_mapping(t_uint16,t_uint256)": {
        "encoding": "mapping",
        "key": "t_uint16",
        "label": "mapping(uint16 => uint256)",
        "numberOfBytes": "32",
        "value": "t_uint256"
      },
      "t_struct(AppStorage)16209_storage": {
        "encoding": "inplace",
        "label": "struct AppStorage",
        "members": [
          {
            "astId": 16184,
            "contract": "src/diamond/upgradeInitializers/DiamondInit.sol:DiamondInit",
            "label": "tdfToken",
            "offset": 0,
            "slot": "0",
            "type": "t_contract(IERC20)900"
          },
          {
            "astId": 16189,
            "contract": "src/diamond/upgradeInitializers/DiamondInit.sol:DiamondInit",
            "label": "_bookings",
            "offset": 0,
            "slot": "1",
            "type": "t_mapping(t_address,t_struct(UserStore)13095_storage)"
          },
          {
            "astId": 16192,
            "contract": "src/diamond/upgradeInitializers/DiamondInit.sol:DiamondInit",
            "label": "_years",
            "offset": 0,
            "slot": "2",
            "type": "t_struct(YearsStore)13115_storage"
          },
          {
            "astId": 16196,
            "contract": "src/diamond/upgradeInitializers/DiamondInit.sol:DiamondInit",
            "label": "_balances",
            "offset": 0,
            "slot": "5",
            "type": "t_mapping(t_address,t_uint256)"
          },
          {
            "astId": 16202,
            "contract": "src/diamond/upgradeInitializers/DiamondInit.sol:DiamondInit",
            "label": "_deposits",
            "offset": 0,
            "slot": "6",
            "type": "t_mapping(t_address,t_array(t_struct(Deposit)16181_storage)dyn_storage)"
          },
          {
            "astId": 16204,
            "contract": "src/diamond/upgradeInitializers/DiamondInit.sol:DiamondInit",
            "label": "lockingPeriod",
            "offset": 0,
            "slot": "7",
            "type": "t_uint256"
          },
          {
            "astId": 16206,
            "contract": "src/diamond/upgradeInitializers/DiamondInit.sol:DiamondInit",
            "label": "paused",
            "offset": 0,
            "slot": "8",
            "type": "t_bool"
          },
          {
            "astId": 16208,
            "contract": "src/diamond/upgradeInitializers/DiamondInit.sol:DiamondInit",
            "label": "initialized",
            "offset": 1,
            "slot": "8",
            "type": "t_bool"
          }
        ],
        "numberOfBytes": "288"
      },
      "t_struct(Booking)13080_storage": {
        "encoding": "inplace",
        "label": "struct BookingMapLib.Booking",
        "members": [
          {
            "astId": 13073,
            "contract": "src/diamond/upgradeInitializers/DiamondInit.sol:DiamondInit",
            "label": "year",
            "offset": 0,
            "slot": "0",
            "type": "t_uint16"
          },
          {
            "astId": 13075,
            "contract": "src/diamond/upgradeInitializers/DiamondInit.sol:DiamondInit",
            "label": "dayOfYear",
            "offset": 2,
            "slot": "0",
            "type": "t_uint16"
          },
          {
            "astId": 13077,
            "contract": "src/diamond/upgradeInitializers/DiamondInit.sol:DiamondInit",
            "label": "price",
            "offset": 0,
            "slot": "1",
            "type": "t_uint256"
          },
          {
            "astId": 13079,
            "contract": "src/diamond/upgradeInitializers/DiamondInit.sol:DiamondInit",
            "label": "timestamp",
            "offset": 0,
            "slot": "2",
            "type": "t_uint256"
          }
        ],
        "numberOfBytes": "96"
      },
      "t_struct(Bytes32Set)2071_storage": {
        "encoding": "inplace",
        "label": "struct EnumerableSet.Bytes32Set",
        "members": [
          {
            "astId": 2070,
            "contract": "src/diamond/upgradeInitializers/DiamondInit.sol:DiamondInit",
            "label": "_inner",
            "offset": 0,
            "slot": "0",
            "type": "t_struct(Set)1877_storage"
          }
        ],
        "numberOfBytes": "64"
      },
      "t_struct(Bytes32ToBytes32Map)13802_storage": {
        "encoding": "inplace",
        "label": "struct EnumerableMapLib.Bytes32ToBytes32Map",
        "members": [
          {
            "astId": 13797,
            "contract": "src/diamond/upgradeInitializers/DiamondInit.sol:DiamondInit",
            "label": "_keys",
            "offset": 0,
            "slot": "0",
            "type": "t_struct(Bytes32Set)2071_storage"
          },
          {
            "astId": 13801,
            "contract": "src/diamond/upgradeInitializers/DiamondInit.sol:DiamondInit",
            "label": "_values",
            "offset": 0,
            "slot": "2",
            "type": "t_mapping(t_bytes32,t_bytes32)"
          }
        ],
        "numberOfBytes": "96"
      },
      "t_struct(Bytes32ToUintMap)14032_storage": {
        "encoding": "inplace",
        "label": "struct EnumerableMapLib.Bytes32ToUintMap",
        "members": [
          {
            "astId": 14031,
            "contract": "src/diamond/upgradeInitializers/DiamondInit.sol:DiamondInit",
            "label": "_inner",
            "offset": 0,
            "slot": "0",
            "type": "t_struct(Bytes32ToBytes32Map)13802_storage"
          }
        ],
        "numberOfBytes": "96"
      },
      "t_struct(Deposit)16181_storage": {
        "encoding": "inplace",
        "label": "struct Deposit",
        "members": [
          {
            "astId": 16178,
            "contract": "src/diamond/upgradeInitializers/DiamondInit.sol:DiamondInit",
            "label": "timestamp",
            "offset": 0,
            "slot": "0",
            "type": "t_uint256"
          },
          {
            "astId": 16180,
            "contract": "src/diamond/upgradeInitializers/DiamondInit.sol:DiamondInit",
            "label": "amount",
            "offset": 0,
            "slot": "1",
            "type": "t_uint256"
          }
        ],
        "numberOfBytes": "64"
      },
      "t_struct(Set)1877_storage": {
        "encoding": "inplace",
        "label": "struct EnumerableSet.Set",
        "members": [
          {
            "astId": 1872,
            "contract": "src/diamond/upgradeInitializers/DiamondInit.sol:DiamondInit",
            "label": "_values",
            "offset": 0,
            "slot": "0",
            "type": "t_array(t_bytes32)dyn_storage"
          },
          {
            "astId": 1876,
            "contract": "src/diamond/upgradeInitializers/DiamondInit.sol:DiamondInit",
            "label": "_indexes",
            "offset": 0,
            "slot": "1",
            "type": "t_mapping(t_bytes32,t_uint256)"
          }
        ],
        "numberOfBytes": "64"
      },
      "t_struct(UserStore)13095_storage": {
        "encoding": "inplace",
        "label": "struct BookingMapLib.UserStore",
        "members": [
          {
            "astId": 13084,
            "contract": "src/diamond/upgradeInitializers/DiamondInit.sol:DiamondInit",
            "label": "balance",
            "offset": 0,
            "slot": "0",
            "type": "t_mapping(t_uint16,t_uint256)"
          },
          {
            "astId": 13089,
            "contract": "src/diamond/upgradeInitializers/DiamondInit.sol:DiamondInit",
            "label": "dates",
            "offset": 0,
            "slot": "1",
            "type": "t_mapping(t_uint16,t_struct(Bytes32ToUintMap)14032_storage)"
          },
          {
            "astId": 13094,
            "contract": "src/diamond/upgradeInitializers/DiamondInit.sol:DiamondInit",
            "label": "bookings",
            "offset": 0,
            "slot": "2",
            "type": "t_mapping(t_bytes32,t_struct(Booking)13080_storage)"
          }
        ],
        "numberOfBytes": "96"
      },
      "t_struct(Year)13106_storage": {
        "encoding": "inplace",
        "label": "struct BookingMapLib.Year",
        "members": [
          {
            "astId": 13097,
            "contract": "src/diamond/upgradeInitializers/DiamondInit.sol:DiamondInit",
            "label": "number",
            "offset": 0,
            "slot": "0",
            "type": "t_uint16"
          },
          {
            "astId": 13099,
            "contract": "src/diamond/upgradeInitializers/DiamondInit.sol:DiamondInit",
            "label": "leapYear",
            "offset": 2,
            "slot": "0",
            "type": "t_bool"
          },
          {
            "astId": 13101,
            "contract": "src/diamond/upgradeInitializers/DiamondInit.sol:DiamondInit",
            "label": "start",
            "offset": 0,
            "slot": "1",
            "type": "t_uint256"
          },
          {
            "astId": 13103,
            "contract": "src/diamond/upgradeInitializers/DiamondInit.sol:DiamondInit",
            "label": "end",
            "offset": 0,
            "slot": "2",
            "type": "t_uint256"
          },
          {
            "astId": 13105,
            "contract": "src/diamond/upgradeInitializers/DiamondInit.sol:DiamondInit",
            "label": "enabled",
            "offset": 0,
            "slot": "3",
            "type": "t_bool"
          }
        ],
        "numberOfBytes": "128"
      },
      "t_struct(YearsStore)13115_storage": {
        "encoding": "inplace",
        "label": "struct BookingMapLib.YearsStore",
        "members": [
          {
            "astId": 13109,
            "contract": "src/diamond/upgradeInitializers/DiamondInit.sol:DiamondInit",
            "label": "_inner",
            "offset": 0,
            "slot": "0",
            "type": "t_struct(Bytes32Set)2071_storage"
          },
          {
            "astId": 13114,
            "contract": "src/diamond/upgradeInitializers/DiamondInit.sol:DiamondInit",
            "label": "elems",
            "offset": 0,
            "slot": "2",
            "type": "t_mapping(t_bytes32,t_struct(Year)13106_storage)"
          }
        ],
        "numberOfBytes": "96"
      },
      "t_uint16": {
        "encoding": "inplace",
        "label": "uint16",
        "numberOfBytes": "2"
      },
      "t_uint256": {
        "encoding": "inplace",
        "label": "uint256",
        "numberOfBytes": "32"
      }
    }
  }
}