{
  "address": "0xcC815A8C0A8aB704987E75F64E43f4201BDaA8Cc",
  "abi": [
    {
      "inputs": [
        {
          "internalType": "address",
          "name": "token",
          "type": "address"
        },
        {
          "internalType": "uint256",
          "name": "secondsLocked",
          "type": "uint256"
        }
      ],
      "name": "init",
      "outputs": [],
      "stateMutability": "nonpayable",
      "type": "function"
    }
  ],
  "transactionHash": "0x1e1d3f8b6da6a0639e1c6f352a2827ecf28add27596884dca3a283c5ae2b92b2",
  "args": [],
  "numDeployments": 1,
  "solcInputHash": "7eb735135b2a523f10a7895f3286efb3",
  "bytecode": "0x608060405234801561001057600080fd5b5061086a806100206000396000f3fe608060405234801561001057600080fd5b506004361061002b5760003560e01c8063399ae72414610030575b600080fd5b61004361003e3660046107aa565b610045565b005b61004d610490565b60005460ff16156100bf576040517f08c379a000000000000000000000000000000000000000000000000000000000815260206004820152601360248201527f416c726561647920696e697469616c697a65640000000000000000000000000060448201526064015b60405180910390fd5b7fc8fcad8db84d3cc18b4c41d551ea0ee66dd599cde068d998e57d5e09332c131f60209081527f699d9daa71b280d05a152715774afa0a81a312594b2d731d6b0b2552b7d6f69f8054600160ff1991821681179092557ff97e938d8af42f52387bb74b8b526fda8f184cc2aa534340a8d75a88fbecc77580548216831790557f65d510a5d8f7ef134ec444f7f34ee808c8eeb5177cdfd16be0c40fe1ab43369580548216831790557f5622121b47b8cd0120c4efe45dd5483242f54a3d49bd7679be565d47694918c380548216831790557f7965db0b0000000000000000000000000000000000000000000000000000000060009081527fb73005c118b5f4636fc5d5f3c35e7dd5bd9764a470c590de3a135a1bea2d226a8054909216831790915580547fffffffffffffffffffff0000000000000000000000000000000000000000ffff166201000073ffffffffffffffffffffffffffffffffffffffff8716021781556040805160a0810182526107e68152938401919091526361cf9980908301526363b0ccff606083015260808201527fc8fcad8db84d3cc18b4c41d551ea0ee66dd599cde068d998e57d5e09332c131c906102809060049061055b565b506040805160a0810182526107e78152600060208201526363b0cd0091810191909152636592007f6060820152600160808201526102c09060049061055b565b506040805160a0810182526107e88152600160208201819052636592008092820192909252636774857f606082015260808101919091526103039060049061055b565b506040805160a0810182526107e9815260006020820152636774858091810191909152636955b8ff6060820152600160808201526103439060049061055b565b506040805160a0810182526107eb815260006020820152636b36ec8091810191909152636d181fff6060820152600160808201526103839060049061055b565b5060098290556103966001600033610619565b6103c260017f9f2df0fed2c77648de5860a4cc508cd0818c85b8b8a1ab4ceeef8d981c8956a633610619565b6103ee60017fefa2b23cd542346b38207721a79c51a70b01c47249f50a351696d8f313a8fe1c33610619565b61041a60017f36c6e377694b3f473b3d9f9e1f861551767ee8f73dff43a9c3fbbaebb99bbf3f33610619565b61044660017fd1473398bb66596de5d1ea1fc8e303ff2ac23265adc9144b1b52065dc4f0934b33610619565b61047260017ff10a648816c66bb82e4981275deb41e7b5a299976e94da6857c2183fb90d411e33610619565b61047d600a336106d1565b50506000805460ff191660011790555050565b7fc8fcad8db84d3cc18b4c41d551ea0ee66dd599cde068d998e57d5e09332c131c6004015473ffffffffffffffffffffffffffffffffffffffff163314610559576040517f08c379a000000000000000000000000000000000000000000000000000000000815260206004820152602260248201527f4c69624469616d6f6e643a204d75737420626520636f6e7472616374206f776e60448201527f657200000000000000000000000000000000000000000000000000000000000060648201526084016100b6565b565b60008061056b83600001516106e4565b90506105778482610731565b1561060d576000908152600280850160209081526040928390208551815492870151151562010000027fffffffffffffffffffffffffffffffffffffffffffffffffffffffffff00000090931661ffff909116179190911781559184015160018084019190915560608501519183019190915560808401516003909201805492151560ff19909316929092179091559050610613565b60009150505b92915050565b60008281526020848152604080832073ffffffffffffffffffffffffffffffffffffffff8516845290915290205460ff166106b15760008281526020848152604080832073ffffffffffffffffffffffffffffffffffffffff85168085529252808320805460ff1916600117905551339285917f2f8788117e7eff1d82e926ec794901d17c78024a50270940304540a733656f0d9190a45b600082815260018401602052604090206106cb908261073d565b50505050565b60006106dd838361073d565b9392505050565b6040517fffff00000000000000000000000000000000000000000000000000000000000060f083901b166020820152600090602201604051602081830303815290604052610613906107ef565b60006106dd838361075b565b60006106dd8373ffffffffffffffffffffffffffffffffffffffff84165b60008181526001830160205260408120546107a257508154600181810184556000848152602080822090930184905584548482528286019093526040902091909155610613565b506000610613565b600080604083850312156107bd57600080fd5b823573ffffffffffffffffffffffffffffffffffffffff811681146107e157600080fd5b946020939093013593505050565b8051602080830151919081101561082e577fffffffffffffffffffffffffffffffffffffffffffffffffffffffffffffffff8160200360031b1b821691505b5091905056fea2646970667358221220df1da46b40adbe26058e1f78455823262e7d1e6f5d0011f65b7500001e58324a64736f6c63430008090033",
  "devdoc": {
    "kind": "dev",
    "methods": {},
    "version": 1
  },
  "userdoc": {
    "kind": "user",
    "methods": {},
    "version": 1
  },
  "storageLayout": {
    "storage": [
      {
        "astId": 8695,
        "contract": "src/diamond/upgradeInitializers/DiamondInit.sol:DiamondInit",
        "label": "s",
        "offset": 0,
        "slot": "0",
        "type": "t_struct(AppStorage)8675_storage"
      }
    ],
    "types": {
      "t_address": {
        "encoding": "inplace",
        "label": "address",
        "numberOfBytes": "20"
      },
      "t_array(t_bytes32)dyn_storage": {
        "base": "t_bytes32",
        "encoding": "dynamic_array",
        "label": "bytes32[]",
        "numberOfBytes": "32"
      },
      "t_array(t_struct(StakedDeposit)9662_storage)dyn_storage": {
        "base": "t_struct(StakedDeposit)9662_storage",
        "encoding": "dynamic_array",
        "label": "struct StakeLib.StakedDeposit[]",
        "numberOfBytes": "32"
      },
      "t_bool": {
        "encoding": "inplace",
        "label": "bool",
        "numberOfBytes": "1"
      },
      "t_bytes32": {
        "encoding": "inplace",
        "label": "bytes32",
        "numberOfBytes": "32"
      },
      "t_contract(IERC20)997": {
        "encoding": "inplace",
        "label": "contract IERC20",
        "numberOfBytes": "20"
      },
      "t_mapping(t_address,t_array(t_struct(StakedDeposit)9662_storage)dyn_storage)": {
        "encoding": "mapping",
        "key": "t_address",
        "label": "mapping(address => struct StakeLib.StakedDeposit[])",
        "numberOfBytes": "32",
        "value": "t_array(t_struct(StakedDeposit)9662_storage)dyn_storage"
      },
      "t_mapping(t_address,t_bool)": {
        "encoding": "mapping",
        "key": "t_address",
        "label": "mapping(address => bool)",
        "numberOfBytes": "32",
        "value": "t_bool"
      },
      "t_mapping(t_address,t_struct(UserStore)8848_storage)": {
        "encoding": "mapping",
        "key": "t_address",
        "label": "mapping(address => struct BookingMapLib.UserStore)",
        "numberOfBytes": "32",
        "value": "t_struct(UserStore)8848_storage"
      },
      "t_mapping(t_address,t_uint256)": {
        "encoding": "mapping",
        "key": "t_address",
        "label": "mapping(address => uint256)",
        "numberOfBytes": "32",
        "value": "t_uint256"
      },
      "t_mapping(t_bytes32,t_bytes32)": {
        "encoding": "mapping",
        "key": "t_bytes32",
        "label": "mapping(bytes32 => bytes32)",
        "numberOfBytes": "32",
        "value": "t_bytes32"
      },
      "t_mapping(t_bytes32,t_struct(AddressSet)4132_storage)": {
        "encoding": "mapping",
        "key": "t_bytes32",
        "label": "mapping(bytes32 => struct EnumerableSet.AddressSet)",
        "numberOfBytes": "32",
        "value": "t_struct(AddressSet)4132_storage"
      },
      "t_mapping(t_bytes32,t_struct(Booking)8833_storage)": {
        "encoding": "mapping",
        "key": "t_bytes32",
        "label": "mapping(bytes32 => struct BookingMapLib.Booking)",
        "numberOfBytes": "32",
        "value": "t_struct(Booking)8833_storage"
      },
      "t_mapping(t_bytes32,t_struct(RoleData)8281_storage)": {
        "encoding": "mapping",
        "key": "t_bytes32",
        "label": "mapping(bytes32 => struct AccessControlLib.RoleData)",
        "numberOfBytes": "32",
        "value": "t_struct(RoleData)8281_storage"
      },
      "t_mapping(t_bytes32,t_struct(Year)8859_storage)": {
        "encoding": "mapping",
        "key": "t_bytes32",
        "label": "mapping(bytes32 => struct BookingMapLib.Year)",
        "numberOfBytes": "32",
        "value": "t_struct(Year)8859_storage"
      },
      "t_mapping(t_bytes32,t_uint256)": {
        "encoding": "mapping",
        "key": "t_bytes32",
        "label": "mapping(bytes32 => uint256)",
        "numberOfBytes": "32",
        "value": "t_uint256"
      },
      "t_mapping(t_uint16,t_struct(Bytes32ToUintMap)3637_storage)": {
        "encoding": "mapping",
        "key": "t_uint16",
        "label": "mapping(uint16 => struct EnumerableMap.Bytes32ToUintMap)",
        "numberOfBytes": "32",
        "value": "t_struct(Bytes32ToUintMap)3637_storage"
      },
      "t_mapping(t_uint16,t_uint256)": {
        "encoding": "mapping",
        "key": "t_uint16",
        "label": "mapping(uint16 => uint256)",
        "numberOfBytes": "32",
        "value": "t_uint256"
      },
      "t_struct(AddressSet)4132_storage": {
        "encoding": "inplace",
        "label": "struct EnumerableSet.AddressSet",
        "members": [
          {
            "astId": 4131,
            "contract": "src/diamond/upgradeInitializers/DiamondInit.sol:DiamondInit",
            "label": "_inner",
            "offset": 0,
            "slot": "0",
            "type": "t_struct(Set)3831_storage"
          }
        ],
        "numberOfBytes": "64"
      },
      "t_struct(AppStorage)8675_storage": {
        "encoding": "inplace",
        "label": "struct AppStorage",
        "members": [
          {
            "astId": 8652,
            "contract": "src/diamond/upgradeInitializers/DiamondInit.sol:DiamondInit",
            "label": "initialized",
            "offset": 0,
            "slot": "0",
            "type": "t_bool"
          },
          {
            "astId": 8654,
            "contract": "src/diamond/upgradeInitializers/DiamondInit.sol:DiamondInit",
            "label": "paused",
            "offset": 1,
            "slot": "0",
            "type": "t_bool"
          },
          {
            "astId": 8657,
            "contract": "src/diamond/upgradeInitializers/DiamondInit.sol:DiamondInit",
            "label": "communityToken",
            "offset": 2,
            "slot": "0",
            "type": "t_contract(IERC20)997"
          },
          {
            "astId": 8660,
            "contract": "src/diamond/upgradeInitializers/DiamondInit.sol:DiamondInit",
            "label": "_roleStore",
            "offset": 0,
            "slot": "1",
            "type": "t_struct(RoleStore)8292_storage"
          },
          {
            "astId": 8665,
            "contract": "src/diamond/upgradeInitializers/DiamondInit.sol:DiamondInit",
            "label": "_accommodationBookings",
            "offset": 0,
            "slot": "3",
            "type": "t_mapping(t_address,t_struct(UserStore)8848_storage)"
          },
          {
            "astId": 8668,
            "contract": "src/diamond/upgradeInitializers/DiamondInit.sol:DiamondInit",
            "label": "_accommodationYears",
            "offset": 0,
            "slot": "4",
            "type": "t_struct(YearsStore)8868_storage"
          },
          {
            "astId": 8671,
            "contract": "src/diamond/upgradeInitializers/DiamondInit.sol:DiamondInit",
            "label": "staking",
            "offset": 0,
            "slot": "7",
            "type": "t_struct(StakeStore)9684_storage"
          },
          {
            "astId": 8674,
            "contract": "src/diamond/upgradeInitializers/DiamondInit.sol:DiamondInit",
            "label": "members",
            "offset": 0,
            "slot": "10",
            "type": "t_struct(Store)9541_storage"
          }
        ],
        "numberOfBytes": "384"
      },
      "t_struct(Booking)8833_storage": {
        "encoding": "inplace",
        "label": "struct BookingMapLib.Booking",
        "members": [
          {
            "astId": 8826,
            "contract": "src/diamond/upgradeInitializers/DiamondInit.sol:DiamondInit",
            "label": "year",
            "offset": 0,
            "slot": "0",
            "type": "t_uint16"
          },
          {
            "astId": 8828,
            "contract": "src/diamond/upgradeInitializers/DiamondInit.sol:DiamondInit",
            "label": "dayOfYear",
            "offset": 2,
            "slot": "0",
            "type": "t_uint16"
          },
          {
            "astId": 8830,
            "contract": "src/diamond/upgradeInitializers/DiamondInit.sol:DiamondInit",
            "label": "price",
            "offset": 0,
            "slot": "1",
            "type": "t_uint256"
          },
          {
            "astId": 8832,
            "contract": "src/diamond/upgradeInitializers/DiamondInit.sol:DiamondInit",
            "label": "timestamp",
            "offset": 0,
            "slot": "2",
            "type": "t_uint256"
          }
        ],
        "numberOfBytes": "96"
      },
      "t_struct(Bytes32Set)4025_storage": {
        "encoding": "inplace",
        "label": "struct EnumerableSet.Bytes32Set",
        "members": [
          {
            "astId": 4024,
            "contract": "src/diamond/upgradeInitializers/DiamondInit.sol:DiamondInit",
            "label": "_inner",
            "offset": 0,
            "slot": "0",
            "type": "t_struct(Set)3831_storage"
          }
        ],
        "numberOfBytes": "64"
      },
      "t_struct(Bytes32ToBytes32Map)2714_storage": {
        "encoding": "inplace",
        "label": "struct EnumerableMap.Bytes32ToBytes32Map",
        "members": [
          {
            "astId": 2709,
            "contract": "src/diamond/upgradeInitializers/DiamondInit.sol:DiamondInit",
            "label": "_keys",
            "offset": 0,
            "slot": "0",
            "type": "t_struct(Bytes32Set)4025_storage"
          },
          {
            "astId": 2713,
            "contract": "src/diamond/upgradeInitializers/DiamondInit.sol:DiamondInit",
            "label": "_values",
            "offset": 0,
            "slot": "2",
            "type": "t_mapping(t_bytes32,t_bytes32)"
          }
        ],
        "numberOfBytes": "96"
      },
      "t_struct(Bytes32ToUintMap)3637_storage": {
        "encoding": "inplace",
        "label": "struct EnumerableMap.Bytes32ToUintMap",
        "members": [
          {
            "astId": 3636,
            "contract": "src/diamond/upgradeInitializers/DiamondInit.sol:DiamondInit",
            "label": "_inner",
            "offset": 0,
            "slot": "0",
            "type": "t_struct(Bytes32ToBytes32Map)2714_storage"
          }
        ],
        "numberOfBytes": "96"
      },
      "t_struct(RoleData)8281_storage": {
        "encoding": "inplace",
        "label": "struct AccessControlLib.RoleData",
        "members": [
          {
            "astId": 8278,
            "contract": "src/diamond/upgradeInitializers/DiamondInit.sol:DiamondInit",
            "label": "members",
            "offset": 0,
            "slot": "0",
            "type": "t_mapping(t_address,t_bool)"
          },
          {
            "astId": 8280,
            "contract": "src/diamond/upgradeInitializers/DiamondInit.sol:DiamondInit",
            "label": "adminRole",
            "offset": 0,
            "slot": "1",
            "type": "t_bytes32"
          }
        ],
        "numberOfBytes": "64"
      },
      "t_struct(RoleStore)8292_storage": {
        "encoding": "inplace",
        "label": "struct AccessControlLib.RoleStore",
        "members": [
          {
            "astId": 8286,
            "contract": "src/diamond/upgradeInitializers/DiamondInit.sol:DiamondInit",
            "label": "_roles",
            "offset": 0,
            "slot": "0",
            "type": "t_mapping(t_bytes32,t_struct(RoleData)8281_storage)"
          },
          {
            "astId": 8291,
            "contract": "src/diamond/upgradeInitializers/DiamondInit.sol:DiamondInit",
            "label": "_roleMembers",
            "offset": 0,
            "slot": "1",
            "type": "t_mapping(t_bytes32,t_struct(AddressSet)4132_storage)"
          }
        ],
        "numberOfBytes": "64"
      },
      "t_struct(Set)3831_storage": {
        "encoding": "inplace",
        "label": "struct EnumerableSet.Set",
        "members": [
          {
            "astId": 3826,
            "contract": "src/diamond/upgradeInitializers/DiamondInit.sol:DiamondInit",
            "label": "_values",
            "offset": 0,
            "slot": "0",
            "type": "t_array(t_bytes32)dyn_storage"
          },
          {
            "astId": 3830,
            "contract": "src/diamond/upgradeInitializers/DiamondInit.sol:DiamondInit",
            "label": "_indexes",
            "offset": 0,
            "slot": "1",
            "type": "t_mapping(t_bytes32,t_uint256)"
          }
        ],
        "numberOfBytes": "64"
      },
      "t_struct(StakeStore)9684_storage": {
        "encoding": "inplace",
        "label": "struct StakeLib.StakeStore",
        "members": [
          {
            "astId": 9675,
            "contract": "src/diamond/upgradeInitializers/DiamondInit.sol:DiamondInit",
            "label": "stakedBalances",
            "offset": 0,
            "slot": "0",
            "type": "t_mapping(t_address,t_uint256)"
          },
          {
            "astId": 9681,
            "contract": "src/diamond/upgradeInitializers/DiamondInit.sol:DiamondInit",
            "label": "stakedDeposits",
            "offset": 0,
            "slot": "1",
            "type": "t_mapping(t_address,t_array(t_struct(StakedDeposit)9662_storage)dyn_storage)"
          },
          {
            "astId": 9683,
            "contract": "src/diamond/upgradeInitializers/DiamondInit.sol:DiamondInit",
            "label": "stakeLockingPeriod",
            "offset": 0,
            "slot": "2",
            "type": "t_uint256"
          }
        ],
        "numberOfBytes": "96"
      },
      "t_struct(StakedDeposit)9662_storage": {
        "encoding": "inplace",
        "label": "struct StakeLib.StakedDeposit",
        "members": [
          {
            "astId": 9659,
            "contract": "src/diamond/upgradeInitializers/DiamondInit.sol:DiamondInit",
            "label": "timestamp",
            "offset": 0,
            "slot": "0",
            "type": "t_uint256"
          },
          {
            "astId": 9661,
            "contract": "src/diamond/upgradeInitializers/DiamondInit.sol:DiamondInit",
            "label": "amount",
            "offset": 0,
            "slot": "1",
            "type": "t_uint256"
          }
        ],
        "numberOfBytes": "64"
      },
      "t_struct(Store)9541_storage": {
        "encoding": "inplace",
        "label": "struct MembershipLib.Store",
        "members": [
          {
            "astId": 9540,
            "contract": "src/diamond/upgradeInitializers/DiamondInit.sol:DiamondInit",
            "label": "_inner",
            "offset": 0,
            "slot": "0",
            "type": "t_struct(AddressSet)4132_storage"
          }
        ],
        "numberOfBytes": "64"
      },
      "t_struct(UserStore)8848_storage": {
        "encoding": "inplace",
        "label": "struct BookingMapLib.UserStore",
        "members": [
          {
            "astId": 8837,
            "contract": "src/diamond/upgradeInitializers/DiamondInit.sol:DiamondInit",
            "label": "balance",
            "offset": 0,
            "slot": "0",
            "type": "t_mapping(t_uint16,t_uint256)"
          },
          {
            "astId": 8842,
            "contract": "src/diamond/upgradeInitializers/DiamondInit.sol:DiamondInit",
            "label": "dates",
            "offset": 0,
            "slot": "1",
            "type": "t_mapping(t_uint16,t_struct(Bytes32ToUintMap)3637_storage)"
          },
          {
            "astId": 8847,
            "contract": "src/diamond/upgradeInitializers/DiamondInit.sol:DiamondInit",
            "label": "bookings",
            "offset": 0,
            "slot": "2",
            "type": "t_mapping(t_bytes32,t_struct(Booking)8833_storage)"
          }
        ],
        "numberOfBytes": "96"
      },
      "t_struct(Year)8859_storage": {
        "encoding": "inplace",
        "label": "struct BookingMapLib.Year",
        "members": [
          {
            "astId": 8850,
            "contract": "src/diamond/upgradeInitializers/DiamondInit.sol:DiamondInit",
            "label": "number",
            "offset": 0,
            "slot": "0",
            "type": "t_uint16"
          },
          {
            "astId": 8852,
            "contract": "src/diamond/upgradeInitializers/DiamondInit.sol:DiamondInit",
            "label": "leapYear",
            "offset": 2,
            "slot": "0",
            "type": "t_bool"
          },
          {
            "astId": 8854,
            "contract": "src/diamond/upgradeInitializers/DiamondInit.sol:DiamondInit",
            "label": "start",
            "offset": 0,
            "slot": "1",
            "type": "t_uint256"
          },
          {
            "astId": 8856,
            "contract": "src/diamond/upgradeInitializers/DiamondInit.sol:DiamondInit",
            "label": "end",
            "offset": 0,
            "slot": "2",
            "type": "t_uint256"
          },
          {
            "astId": 8858,
            "contract": "src/diamond/upgradeInitializers/DiamondInit.sol:DiamondInit",
            "label": "enabled",
            "offset": 0,
            "slot": "3",
            "type": "t_bool"
          }
        ],
        "numberOfBytes": "128"
      },
      "t_struct(YearsStore)8868_storage": {
        "encoding": "inplace",
        "label": "struct BookingMapLib.YearsStore",
        "members": [
          {
            "astId": 8862,
            "contract": "src/diamond/upgradeInitializers/DiamondInit.sol:DiamondInit",
            "label": "_inner",
            "offset": 0,
            "slot": "0",
            "type": "t_struct(Bytes32Set)4025_storage"
          },
          {
            "astId": 8867,
            "contract": "src/diamond/upgradeInitializers/DiamondInit.sol:DiamondInit",
            "label": "elems",
            "offset": 0,
            "slot": "2",
            "type": "t_mapping(t_bytes32,t_struct(Year)8859_storage)"
          }
        ],
        "numberOfBytes": "96"
      },
      "t_uint16": {
        "encoding": "inplace",
        "label": "uint16",
        "numberOfBytes": "2"
      },
      "t_uint256": {
        "encoding": "inplace",
        "label": "uint256",
        "numberOfBytes": "32"
      }
    }
  }
}