{
  "address": "0xd6A7DF7d8FB8bcDc2dCefBE7defc6b3Fd213A6d4",
  "abi": [
    {
      "inputs": [
        {
          "internalType": "address",
          "name": "_wallet",
          "type": "address"
        }
      ],
      "stateMutability": "nonpayable",
      "type": "constructor"
    },
    {
      "inputs": [
        {
          "internalType": "address",
          "name": "account",
          "type": "address"
        }
      ],
      "name": "balanceOf",
      "outputs": [
        {
          "internalType": "uint256",
          "name": "",
          "type": "uint256"
        }
      ],
      "stateMutability": "view",
      "type": "function"
    },
    {
      "inputs": [
        {
          "internalType": "uint256[]",
          "name": "_dates",
          "type": "uint256[]"
        }
      ],
      "name": "book",
      "outputs": [],
      "stateMutability": "nonpayable",
      "type": "function"
    },
    {
      "inputs": [
        {
          "internalType": "uint256[]",
          "name": "_cancelDates",
          "type": "uint256[]"
        }
      ],
      "name": "cancel",
      "outputs": [],
      "stateMutability": "nonpayable",
      "type": "function"
    },
    {
      "inputs": [
        {
          "internalType": "address",
          "name": "",
          "type": "address"
        },
        {
          "internalType": "uint256",
          "name": "",
          "type": "uint256"
        }
      ],
      "name": "dates",
      "outputs": [
        {
          "internalType": "uint256",
          "name": "",
          "type": "uint256"
        }
      ],
      "stateMutability": "view",
      "type": "function"
    },
    {
      "inputs": [
        {
          "internalType": "address",
          "name": "account",
          "type": "address"
        },
        {
          "internalType": "uint256",
          "name": "_date",
          "type": "uint256"
        }
      ],
      "name": "getBooking",
      "outputs": [
        {
          "internalType": "uint256",
          "name": "",
          "type": "uint256"
        },
        {
          "internalType": "uint256",
          "name": "",
          "type": "uint256"
        }
      ],
      "stateMutability": "view",
      "type": "function"
    },
    {
      "inputs": [
        {
          "internalType": "address",
          "name": "account",
          "type": "address"
        }
      ],
      "name": "getDates",
      "outputs": [
        {
          "internalType": "uint256[]",
          "name": "",
          "type": "uint256[]"
        }
      ],
      "stateMutability": "view",
      "type": "function"
    },
    {
      "inputs": [],
      "name": "wallet",
      "outputs": [
        {
          "internalType": "contract ITokenLock",
          "name": "",
          "type": "address"
        }
      ],
      "stateMutability": "view",
      "type": "function"
    }
  ],
  "transactionHash": "0x5faedb818a8df26a68fbfd826a780b83c7c0124128119b53a41ebd236260ef8d",
  "args": [
    "0x13e879B82E28BF5B614E8d138d7CB1077033673e"
  ],
  "numDeployments": 1,
  "solcInputHash": "89a4b3e9b4b5981fe95e40da6e23e934",
  "bytecode": "0x60a060405234801561001057600080fd5b50604051610b97380380610b9783398101604081905261002f91610045565b60016000556001600160a01b0316608052610075565b60006020828403121561005757600080fd5b81516001600160a01b038116811461006e57600080fd5b9392505050565b608051610b006100976000396000818161010e01526103c40152610b006000f3fe608060405234801561001057600080fd5b506004361061007d5760003560e01c8063521eb2731161005b578063521eb27314610109578063527853671461015557806370a0823114610176578063b666f3451461018957600080fd5b80630b0edad31461008257806321d75fc9146100e15780632e340823146100f6575b600080fd5b6100c76100903660046108ca565b73ffffffffffffffffffffffffffffffffffffffff9190911660009081526002602090815260408083208484529091529020549091565b604080519283526020830191909152015b60405180910390f35b6100f46100ef36600461090a565b6101a9565b005b6100f461010436600461090a565b610482565b6101307f000000000000000000000000000000000000000000000000000000000000000081565b60405173ffffffffffffffffffffffffffffffffffffffff90911681526020016100d8565b6101686101633660046108ca565b61077f565b6040519081526020016100d8565b6101686101843660046109e6565b6107b0565b61019c6101973660046109e6565b6107ee565b6040516100d89190610a08565b60008060005b83518110156103ac57428482815181106101cb576101cb610a4c565b6020026020010151116102255760405162461bcd60e51b815260206004820152601c60248201527f646174652073686f756c6420626520696e20746865206675747572650000000060448201526064015b60405180910390fd5b3360009081526002602052604081208551829087908590811061024a5761024a610a4c565b6020026020010151815260200190815260200160002060000154146102b15760405162461bcd60e51b815260206004820152601660248201527f426f6f6b696e6720616c72656164792065786973747300000000000000000000604482015260640161021c565b3360009081526001602052604090208451670de0b6b3a764000091908690849081106102df576102df610a4c565b6020908102919091018101518254600181018455600093845282842001556040805180830182528481523384526002909252822087519192909188908690811061032b5761032b610a4c565b602002602001015181526020019081526020016000206000820151816000015590505084828151811061036057610360610a4c565b602002602001015184101561038c5784828151811061038157610381610a4c565b602002602001015193505b6103968184610a78565b92505080806103a490610a90565b9150506101af565b5073ffffffffffffffffffffffffffffffffffffffff7f0000000000000000000000000000000000000000000000000000000000000000166362233d3e336103f3336107b0565b6040517fffffffff0000000000000000000000000000000000000000000000000000000060e085901b16815273ffffffffffffffffffffffffffffffffffffffff9092166004830152602482015260448101859052606401600060405180830381600087803b15801561046557600080fd5b505af1158015610479573d6000803e3d6000fd5b50505050505050565b60005b81518110156105d857428282815181106104a1576104a1610a4c565b6020026020010151116104f65760405162461bcd60e51b815260206004820152601b60248201527f43616e206e6f742063616e63656c207061737420626f6f6b696e670000000000604482015260640161021c565b3360009081526002602052604081208351829085908590811061051b5761051b610a4c565b602002602001015181526020019081526020016000206000015414156105835760405162461bcd60e51b815260206004820152601760248201527f426f6f6b696e6720646f6573206e6f7420657869737473000000000000000000604482015260640161021c565b33600090815260026020526040812083519091908490849081106105a9576105a9610a4c565b6020908102919091018101518252810191909152604001600090812055806105d081610a90565b915050610485565b503360009081526001602090815260408083208054825181850281018501909352808352919290919083018282801561063057602002820191906000526020600020905b81548152602001906001019080831161061c575b50505050509050600160006106423390565b73ffffffffffffffffffffffffffffffffffffffff1673ffffffffffffffffffffffffffffffffffffffff16815260200190815260200160002060006106889190610867565b60005b815181101561077a57600060019050428383815181106106ad576106ad610a4c565b6020026020010151111561071e5760005b845181101561071c578481815181106106d9576106d9610a4c565b60200260200101518484815181106106f3576106f3610a4c565b6020026020010151141561070a576000915061071c565b8061071481610a90565b9150506106be565b505b801561076757336000908152600160205260409020835184908490811061074757610747610a4c565b602090810291909101810151825460018101845560009384529190922001555b508061077281610a90565b91505061068b565b505050565b6001602052816000526040600020818154811061079b57600080fd5b90600052602060002001600091509150505481565b73ffffffffffffffffffffffffffffffffffffffff81166000908152600160205260408120546107e890670de0b6b3a7640000610aab565b92915050565b73ffffffffffffffffffffffffffffffffffffffff811660009081526001602090815260409182902080548351818402810184019094528084526060939283018282801561085b57602002820191906000526020600020905b815481526020019060010190808311610847575b50505050509050919050565b50805460008255906000526020600020908101906108859190610888565b50565b5b8082111561089d5760008155600101610889565b5090565b803573ffffffffffffffffffffffffffffffffffffffff811681146108c557600080fd5b919050565b600080604083850312156108dd57600080fd5b6108e6836108a1565b946020939093013593505050565b634e487b7160e01b600052604160045260246000fd5b6000602080838503121561091d57600080fd5b823567ffffffffffffffff8082111561093557600080fd5b818501915085601f83011261094957600080fd5b81358181111561095b5761095b6108f4565b8060051b6040517fffffffffffffffffffffffffffffffffffffffffffffffffffffffffffffffe0603f8301168101818110858211171561099e5761099e6108f4565b6040529182528482019250838101850191888311156109bc57600080fd5b938501935b828510156109da578435845293850193928501926109c1565b98975050505050505050565b6000602082840312156109f857600080fd5b610a01826108a1565b9392505050565b6020808252825182820181905260009190848201906040850190845b81811015610a4057835183529284019291840191600101610a24565b50909695505050505050565b634e487b7160e01b600052603260045260246000fd5b634e487b7160e01b600052601160045260246000fd5b60008219821115610a8b57610a8b610a62565b500190565b6000600019821415610aa457610aa4610a62565b5060010190565b6000816000190483118215151615610ac557610ac5610a62565b50029056fea26469706673582212207a14d201a48281391137c1a55f4532c89fd6f8294e867b6df4a31718e390fd4e64736f6c63430008090033",
  "devdoc": {
    "kind": "dev",
    "methods": {},
    "version": 1
  },
  "userdoc": {
    "kind": "user",
    "methods": {},
    "version": 1
  },
  "storageLayout": {
    "storage": [
      {
        "astId": 207,
        "contract": "src/ProofOfPresence/ProofOfPresence.sol:ProofOfPresence",
        "label": "_status",
        "offset": 0,
        "slot": "0",
        "type": "t_uint256"
      },
      {
        "astId": 11567,
        "contract": "src/ProofOfPresence/ProofOfPresence.sol:ProofOfPresence",
        "label": "dates",
        "offset": 0,
        "slot": "1",
        "type": "t_mapping(t_address,t_array(t_uint256)dyn_storage)"
      },
      {
        "astId": 11574,
        "contract": "src/ProofOfPresence/ProofOfPresence.sol:ProofOfPresence",
        "label": "_bookings",
        "offset": 0,
        "slot": "2",
        "type": "t_mapping(t_address,t_mapping(t_uint256,t_struct(Booking)11559_storage))"
      }
    ],
    "types": {
      "t_address": {
        "encoding": "inplace",
        "label": "address",
        "numberOfBytes": "20"
      },
      "t_array(t_uint256)dyn_storage": {
        "base": "t_uint256",
        "encoding": "dynamic_array",
        "label": "uint256[]",
        "numberOfBytes": "32"
      },
      "t_mapping(t_address,t_array(t_uint256)dyn_storage)": {
        "encoding": "mapping",
        "key": "t_address",
        "label": "mapping(address => uint256[])",
        "numberOfBytes": "32",
        "value": "t_array(t_uint256)dyn_storage"
      },
      "t_mapping(t_address,t_mapping(t_uint256,t_struct(Booking)11559_storage))": {
        "encoding": "mapping",
        "key": "t_address",
        "label": "mapping(address => mapping(uint256 => struct ProofOfPresence.Booking))",
        "numberOfBytes": "32",
        "value": "t_mapping(t_uint256,t_struct(Booking)11559_storage)"
      },
      "t_mapping(t_uint256,t_struct(Booking)11559_storage)": {
        "encoding": "mapping",
        "key": "t_uint256",
        "label": "mapping(uint256 => struct ProofOfPresence.Booking)",
        "numberOfBytes": "32",
        "value": "t_struct(Booking)11559_storage"
      },
      "t_struct(Booking)11559_storage": {
        "encoding": "inplace",
        "label": "struct ProofOfPresence.Booking",
        "members": [
          {
            "astId": 11558,
            "contract": "src/ProofOfPresence/ProofOfPresence.sol:ProofOfPresence",
            "label": "cost",
            "offset": 0,
            "slot": "0",
            "type": "t_uint256"
          }
        ],
        "numberOfBytes": "32"
      },
      "t_uint256": {
        "encoding": "inplace",
        "label": "uint256",
        "numberOfBytes": "32"
      }
    }
  }
}