{
  "address": "0x198B40e63BF11B02e76CcdA59011Ac2bb2eA7f62",
  "abi": [
    {
      "anonymous": false,
      "inputs": [
        {
          "indexed": false,
          "internalType": "address",
          "name": "account",
          "type": "address"
        },
        {
          "indexed": false,
          "internalType": "uint16[2][]",
          "name": "bookings",
          "type": "uint16[2][]"
        }
      ],
      "name": "CanceledBookings",
      "type": "event"
    },
    {
      "anonymous": false,
      "inputs": [
        {
          "indexed": false,
          "internalType": "address",
          "name": "account",
          "type": "address"
        },
        {
          "indexed": false,
          "internalType": "uint16[2][]",
          "name": "bookings",
          "type": "uint16[2][]"
        }
      ],
      "name": "NewBookings",
      "type": "event"
    },
    {
      "anonymous": false,
      "inputs": [
        {
          "indexed": false,
          "internalType": "uint16",
          "name": "number",
          "type": "uint16"
        },
        {
          "indexed": false,
          "internalType": "bool",
          "name": "leapYear",
          "type": "bool"
        },
        {
          "indexed": false,
          "internalType": "uint256",
          "name": "start",
          "type": "uint256"
        },
        {
          "indexed": false,
          "internalType": "uint256",
          "name": "end",
          "type": "uint256"
        },
        {
          "indexed": false,
          "internalType": "bool",
          "name": "enabled",
          "type": "bool"
        }
      ],
      "name": "YearAdded",
      "type": "event"
    },
    {
      "anonymous": false,
      "inputs": [
        {
          "indexed": false,
          "internalType": "uint16",
          "name": "number",
          "type": "uint16"
        }
      ],
      "name": "YearRemoved",
      "type": "event"
    },
    {
      "anonymous": false,
      "inputs": [
        {
          "indexed": false,
          "internalType": "uint16",
          "name": "number",
          "type": "uint16"
        },
        {
          "indexed": false,
          "internalType": "bool",
          "name": "leapYear",
          "type": "bool"
        },
        {
          "indexed": false,
          "internalType": "uint256",
          "name": "start",
          "type": "uint256"
        },
        {
          "indexed": false,
          "internalType": "uint256",
          "name": "end",
          "type": "uint256"
        },
        {
          "indexed": false,
          "internalType": "bool",
          "name": "enabled",
          "type": "bool"
        }
      ],
      "name": "YearUpdated",
      "type": "event"
    },
    {
      "inputs": [
        {
          "internalType": "uint16",
          "name": "number",
          "type": "uint16"
        },
        {
          "internalType": "bool",
          "name": "leapYear",
          "type": "bool"
        },
        {
          "internalType": "uint256",
          "name": "start",
          "type": "uint256"
        },
        {
          "internalType": "uint256",
          "name": "end",
          "type": "uint256"
        },
        {
          "internalType": "bool",
          "name": "enabled",
          "type": "bool"
        }
      ],
      "name": "addYear",
      "outputs": [],
      "stateMutability": "nonpayable",
      "type": "function"
    },
    {
      "inputs": [
        {
          "internalType": "uint16[2][]",
          "name": "dates",
          "type": "uint16[2][]"
        }
      ],
      "name": "book",
      "outputs": [],
      "stateMutability": "nonpayable",
      "type": "function"
    },
    {
      "inputs": [
        {
          "internalType": "uint16[2][]",
          "name": "dates",
          "type": "uint16[2][]"
        }
      ],
      "name": "cancel",
      "outputs": [],
      "stateMutability": "nonpayable",
      "type": "function"
    },
    {
      "inputs": [
        {
          "internalType": "uint16",
          "name": "number",
          "type": "uint16"
        },
        {
          "internalType": "bool",
          "name": "enable",
          "type": "bool"
        }
      ],
      "name": "enableYear",
      "outputs": [],
      "stateMutability": "nonpayable",
      "type": "function"
    },
    {
      "inputs": [
        {
          "internalType": "address",
          "name": "account",
          "type": "address"
        },
        {
          "internalType": "uint16",
          "name": "yearNum",
          "type": "uint16"
        },
        {
          "internalType": "uint16",
          "name": "dayOfYear",
          "type": "uint16"
        }
      ],
      "name": "getBooking",
      "outputs": [
        {
          "internalType": "bool",
          "name": "",
          "type": "bool"
        },
        {
          "components": [
            {
              "internalType": "uint16",
              "name": "year",
              "type": "uint16"
            },
            {
              "internalType": "uint16",
              "name": "dayOfYear",
              "type": "uint16"
            },
            {
              "internalType": "uint256",
              "name": "price",
              "type": "uint256"
            },
            {
              "internalType": "uint256",
              "name": "timestamp",
              "type": "uint256"
            }
          ],
          "internalType": "struct BookingMapLib.Booking",
          "name": "",
          "type": "tuple"
        }
      ],
      "stateMutability": "view",
      "type": "function"
    },
    {
      "inputs": [
        {
          "internalType": "address",
          "name": "account",
          "type": "address"
        },
        {
          "internalType": "uint16",
          "name": "_year",
          "type": "uint16"
        }
      ],
      "name": "getBookings",
      "outputs": [
        {
          "components": [
            {
              "internalType": "uint16",
              "name": "year",
              "type": "uint16"
            },
            {
              "internalType": "uint16",
              "name": "dayOfYear",
              "type": "uint16"
            },
            {
              "internalType": "uint256",
              "name": "price",
              "type": "uint256"
            },
            {
              "internalType": "uint256",
              "name": "timestamp",
              "type": "uint256"
            }
          ],
          "internalType": "struct BookingMapLib.Booking[]",
          "name": "",
          "type": "tuple[]"
        }
      ],
      "stateMutability": "view",
      "type": "function"
    },
    {
      "inputs": [
        {
          "internalType": "uint16",
          "name": "number",
          "type": "uint16"
        }
      ],
      "name": "getYear",
      "outputs": [
        {
          "internalType": "bool",
          "name": "",
          "type": "bool"
        },
        {
          "components": [
            {
              "internalType": "uint16",
              "name": "number",
              "type": "uint16"
            },
            {
              "internalType": "bool",
              "name": "leapYear",
              "type": "bool"
            },
            {
              "internalType": "uint256",
              "name": "start",
              "type": "uint256"
            },
            {
              "internalType": "uint256",
              "name": "end",
              "type": "uint256"
            },
            {
              "internalType": "bool",
              "name": "enabled",
              "type": "bool"
            }
          ],
          "internalType": "struct BookingMapLib.Year",
          "name": "",
          "type": "tuple"
        }
      ],
      "stateMutability": "view",
      "type": "function"
    },
    {
      "inputs": [],
      "name": "getYears",
      "outputs": [
        {
          "components": [
            {
              "internalType": "uint16",
              "name": "number",
              "type": "uint16"
            },
            {
              "internalType": "bool",
              "name": "leapYear",
              "type": "bool"
            },
            {
              "internalType": "uint256",
              "name": "start",
              "type": "uint256"
            },
            {
              "internalType": "uint256",
              "name": "end",
              "type": "uint256"
            },
            {
              "internalType": "bool",
              "name": "enabled",
              "type": "bool"
            }
          ],
          "internalType": "struct BookingMapLib.Year[]",
          "name": "",
          "type": "tuple[]"
        }
      ],
      "stateMutability": "view",
      "type": "function"
    },
    {
      "inputs": [
        {
          "internalType": "uint16",
          "name": "number",
          "type": "uint16"
        }
      ],
      "name": "removeYear",
      "outputs": [],
      "stateMutability": "nonpayable",
      "type": "function"
    },
    {
      "inputs": [
        {
          "internalType": "uint16",
          "name": "number",
          "type": "uint16"
        },
        {
          "internalType": "bool",
          "name": "leapYear",
          "type": "bool"
        },
        {
          "internalType": "uint256",
          "name": "start",
          "type": "uint256"
        },
        {
          "internalType": "uint256",
          "name": "end",
          "type": "uint256"
        },
        {
          "internalType": "bool",
          "name": "enabled",
          "type": "bool"
        }
      ],
      "name": "updateYear",
      "outputs": [],
      "stateMutability": "nonpayable",
      "type": "function"
    }
  ],
  "transactionHash": "0xb7c989790fa3167aac666d2f34c8f3561a94be797e18602bb97cc5ec73de75f9",
  "args": [],
  "numDeployments": 1,
  "solcInputHash": "f106e37aae6a3f7106f3c0e0aa509e22",
  "bytecode": "0x608060405234801561001057600080fd5b50611e8c806100206000396000f3fe608060405234801561001057600080fd5b50600436106100be5760003560e01c8063802cfdfb11610076578063ae7001b81161005b578063ae7001b81461017e578063b7b8884514610191578063e6e1e0e1146101a457600080fd5b8063802cfdfb1461014a5780638279b8501461016b57600080fd5b806340790678116100a757806340790678146100f65780635d9841ae146101095780636e6167411461012a57600080fd5b80630ada93c2146100c357806331c93857146100e1575b600080fd5b6100cb6101b7565b6040516100d89190611935565b60405180910390f35b6100f46100ef3660046119b6565b6101c8565b005b6100f4610104366004611a52565b610377565b61011c610117366004611aa9565b610467565b6040516100d8929190611ac4565b61013d610138366004611b31565b6104a5565b6040516100d89190611b64565b61015d610158366004611bcf565b6104e0565b6040516100d8929190611c12565b6100f46101793660046119b6565b61053c565b6100f461018c366004611c51565b610624565b6100f461019f366004611aa9565b610704565b6100f46101b2366004611a52565b61079d565b60606101c3600261087d565b905090565b6101d06109c8565b6000805b8281101561029657670de0b6b3a7640000600061026b338787868181106101fd576101fd611c7b565b90506040020160006002811061021557610215611c7b565b6020020160208101906102289190611aa9565b88888781811061023a5761023a611c7b565b90506040020160016002811061025257610252611c7b565b6020020160208101906102659190611aa9565b85610a1d565b9050806060015184101561028157806060015193505b5050808061028e90611ca7565b9150506101d4565b50306362233d3e336102a733610b78565b6040517fffffffff0000000000000000000000000000000000000000000000000000000060e085901b16815273ffffffffffffffffffffffffffffffffffffffff9092166004830152602482015260448101849052606401600060405180830381600087803b15801561031957600080fd5b505af115801561032d573d6000803e3d6000fd5b505050507fa744791f7ba4cf0ed4fb864ccdf82192959af8252fd0250f73f067166f51ed6b6103593390565b848460405161036a93929190611cc2565b60405180910390a1505050565b61037f610c50565b6040805160a08101825261ffff8716815285151560208201529081018490526060810183905281151560808201526103b990600290610cff565b61040a5760405162461bcd60e51b815260206004820152601260248201527f556e61626c6520746f206164642079656172000000000000000000000000000060448201526064015b60405180910390fd5b6040805161ffff8716815285151560208201529081018490526060810183905281151560808201527fc3da413c8752517eb598cf3d589891d0641833769cdf76283ba44468a3d46b869060a0015b60405180910390a15050505050565b6040805160a081018252600080825260208201819052918101829052606081018290526080810182905261049c600284610d9f565b91509150915091565b73ffffffffffffffffffffffffffffffffffffffff821660009081526001602052604090206060906104d79083610e82565b90505b92915050565b60408051608081018252600080825260208083018290528284018290526060830182905273ffffffffffffffffffffffffffffffffffffffff871682526001905291822061052f908585610fda565b915091505b935093915050565b6105446109c8565b60005b818110156105e4576105d23384848481811061056557610565611c7b565b90506040020160006002811061057d5761057d611c7b565b6020020160208101906105909190611aa9565b8585858181106105a2576105a2611c7b565b9050604002016001600281106105ba576105ba611c7b565b6020020160208101906105cd9190611aa9565b6110b6565b806105dc81611ca7565b915050610547565b507fde8b8d404fa6ad1e0533531ef96e711b34a6df8d1133968c52bc335861f0ad8d33838360405161061893929190611cc2565b60405180910390a15050565b61062c610c50565b6000610639600284610d9f565b8315156080820152915061065090506002826111ed565b61069c5760405162461bcd60e51b815260206004820152601560248201527f556e61626c6520746f20757064617465207965617200000000000000000000006044820152606401610401565b8051602080830151604080850151606080870151608080890151855161ffff909916895295151596880196909652928601919091528401521515908201527f85d7a9b39d1a1f0f2f68880d124ededd330f406e1b42f93234665005812d5a829060a00161036a565b61070c610c50565b610717600282611209565b6107635760405162461bcd60e51b815260206004820152601560248201527f556e61626c6520746f2072656d6f7665205965617200000000000000000000006044820152606401610401565b60405161ffff821681527f95e58e7b256936d20ca1bde8fd750c5ae53d5d866224c71f5926b17c350ba1669060200160405180910390a150565b6107a5610c50565b6040805160a08101825261ffff8716815285151560208201529081018490526060810183905281151560808201526107df906002906111ed565b61082b5760405162461bcd60e51b815260206004820152601560248201527f556e61626c6520746f20757064617465205965617200000000000000000000006044820152606401610401565b6040805161ffff8716815285151560208201529081018490526060810183905281151560808201527f85d7a9b39d1a1f0f2f68880d124ededd330f406e1b42f93234665005812d5a829060a001610458565b6060600061088a83611264565b90506000815167ffffffffffffffff8111156108a8576108a8611d4e565b60405190808252806020026020018201604052801561090157816020015b6040805160a0810182526000808252602080830182905292820181905260608201819052608082015282526000199092019101816108c65790505b50905060005b82518110156109c05784600201600084838151811061092857610928611c7b565b6020908102919091018101518252818101929092526040908101600020815160a081018352815461ffff8116825260ff62010000909104811615159482019490945260018201549281019290925260028101546060830152600301549091161515608082015282518390839081106109a2576109a2611c7b565b602002602001018190525080806109b890611ca7565b915050610907565b509392505050565b60085460ff1615610a1b5760405162461bcd60e51b815260206004820152601060248201527f5061757361626c653a20706175736564000000000000000000000000000000006044820152606401610401565b565b60408051608081018252600080825260208201819052918101829052606081018290529080610a4f600287878761126f565b9150915081610aa05760405162461bcd60e51b815260206004820152601760248201527f556e61626c6520746f206275696c6420426f6f6b696e670000000000000000006044820152606401610401565b42816060015111610af35760405162461bcd60e51b815260206004820152601c60248201527f646174652073686f756c6420626520696e2074686520667574757265000000006044820152606401610401565b73ffffffffffffffffffffffffffffffffffffffff87166000908152600160205260409020610b229082611314565b610b6e5760405162461bcd60e51b815260206004820152601660248201527f426f6f6b696e6720616c726561647920657869737473000000000000000000006044820152606401610401565b9695505050505050565b60008080610b86600261087d565b905060005b81518161ffff161015610c475742828261ffff1681518110610baf57610baf611c7b565b6020026020010151606001511015610bc657610c35565b6000610c25838361ffff1681518110610be157610be1611c7b565b6020908102919091018101515173ffffffffffffffffffffffffffffffffffffffff8916600090815260018352604080822061ffff90931682529190925290205490565b905083811115610c33578093505b505b80610c3f81611d64565b915050610b8b565b50909392505050565b7fc8fcad8db84d3cc18b4c41d551ea0ee66dd599cde068d998e57d5e09332c131c6004015473ffffffffffffffffffffffffffffffffffffffff163314610a1b5760405162461bcd60e51b815260206004820152602260248201527f4c69624469616d6f6e643a204d75737420626520636f6e7472616374206f776e60448201527f65720000000000000000000000000000000000000000000000000000000000006064820152608401610401565b600080610d0f83600001516113e2565b9050610d1b848261142f565b15610d955760009081526002808501602090815260409283902085518154928701511515620100000262ffffff1990931661ffff909116179190911781559184015160018084019190915560608501519183019190915560808401516003909201805492151560ff199093169290921790915590506104da565b5060009392505050565b6040805160a08101825260008082526020820181905291810182905260608101829052608081018290526000610dd4846113e2565b9050610de0858261143b565b15610e4b57600090815260028086016020908152604092839020835160a081018552815461ffff8116825260ff620100009091048116151593820193909352600182810154958201959095529281015460608401526003015416151560808201529092509050610e7b565b50506040805160a08101825260008082526020820181905291810182905260608101829052608081018290529091505b9250929050565b61ffff81166000908152600183016020526040812060609190610ea490611453565b67ffffffffffffffff811115610ebc57610ebc611d4e565b604051908082528060200260200182016040528015610f0e57816020015b604080516080810182526000808252602080830182905292820181905260608201528252600019909201910181610eda5790505b50905060005b61ffff841660009081526001860160205260409020610f3290611453565b8110156109c05761ffff841660009081526001860160205260408120610f58908361145e565b506000818152600280890160209081526040928390208351608081018552815461ffff80821683526201000090910416928101929092526001810154938201939093529101546060820152845191925090849084908110610fbb57610fbb611c7b565b6020026020010181905250508080610fd290611ca7565b915050610f14565b60408051608081018252600080825260208201819052918101829052606081018290526000611009858561147a565b61ffff86166000908152600188016020526040902090915061102b90826114d1565b15611086576000908152600280870160209081526040928390208351608081018552815461ffff8082168352620100009091041692810192909252600181810154948301949094529091015460608201529092509050610534565b50506040805160808101825260008082526020820181905291810182905260608101829052909150935093915050565b6000806110c5600285856114dd565b91509150816111165760405162461bcd60e51b815260206004820152601960248201527f756e61626c6520746f206275696c642054696d657374616d70000000000000006044820152606401610401565b4281116111655760405162461bcd60e51b815260206004820152601b60248201527f43616e206e6f742063616e63656c207061737420626f6f6b696e6700000000006044820152606401610401565b73ffffffffffffffffffffffffffffffffffffffff851660009081526001602052604081206111959086866115b6565b509050806111e55760405162461bcd60e51b815260206004820152601760248201527f426f6f6b696e6720646f6573206e6f74206578697374730000000000000000006044820152606401610401565b505050505050565b6000806111fd83600001516113e2565b9050610d1b848261143b565b600080611215836113e2565b905061122184826116ac565b15610d95576000908152600280850160205260408220805462ffffff191681556001808201849055918101929092556003909101805460ff1916905590506104da565b60606104da826116b8565b60408051608081018252600080825260208201819052918101829052606081018290526000806112a08888886114dd565b9150915081156112e057600160405180608001604052808961ffff1681526020018861ffff1681526020018781526020018381525093509350505061130b565b5050604080516080810182526000808252602082018190529181018290526060810182905290925090505b94509492505050565b6000806113298360000151846020015161147a565b6060840151845161ffff166000908152600187016020526040902091925061135391908390611714565b15610d9557604080840151845161ffff1660009081526020879052918220805491929091611382908490611d86565b9091555050600090815260028085016020908152604092839020855181549287015161ffff908116620100000263ffffffff19909416911617919091178155918401516001808401919091556060850151929091019190915590506104da565b6040517fffff00000000000000000000000000000000000000000000000000000000000060f083901b1660208201526000906022016040516020818303038152906040526104da90611d9e565b60006104d7838361172b565b600081815260018301602052604081205415156104d7565b60006104da8261177a565b600080808061146d8686611785565b9097909650945050505050565b6040517fffff00000000000000000000000000000000000000000000000000000000000060f084811b8216602084015283901b1660228201526000906024016040516020818303038152906040526104d790611d9e565b60006104d783836117b0565b6000806000806114ed8787610d9f565b915091508180156114ff575080608001515b156115a75760008160200151156115385761016e826040015183606001516115279190611dc5565b6115319190611ddc565b905061155c565b61016d8260400151836060015161154f9190611dc5565b6115599190611ddc565b90505b6001611569600283611ddc565b611574600189611dfe565b6115829061ffff1684611e21565b84604001516115919190611d86565b61159b9190611d86565b94509450505050610534565b50600096879650945050505050565b604080516080810182526000808252602082018190529181018290526060810182905260006115e5858561147a565b61ffff86166000908152600188016020526040902090915061160790826117bc565b156110865760008181526002808801602090815260408084208151608081018352815461ffff808216835262010000909104811682860152600183015482850181905292909501546060820152938a168552918a90528320805492939192909190611673908490611dc5565b90915550506000918252600280880160205260408320805463ffffffff1916815560018082018590559101929092559092509050610534565b60006104d783836117c8565b60608160000180548060200260200160405190810160405280929190818152602001828054801561170857602002820191906000526020600020905b8154815260200190600101908083116116f4575b50505050509050919050565b60006117218484846118bb565b90505b9392505050565b6000818152600183016020526040812054611772575081546001818101845560008481526020808220909301849055845484825282860190935260409020919091556104da565b5060006104da565b60006104da826118d8565b6000808061179385856118e2565b600081815260029690960160205260409095205494959350505050565b60006104d7838361143b565b60006104d783836118ee565b600081815260018301602052604081205480156118b15760006117ec600183611dc5565b855490915060009061180090600190611dc5565b905081811461186557600086600001828154811061182057611820611c7b565b906000526020600020015490508087600001848154811061184357611843611c7b565b6000918252602080832090910192909255918252600188019052604090208390555b855486908061187657611876611e40565b6001900381819060005260206000200160009055905585600101600086815260200190815260200160002060009055600193505050506104da565b60009150506104da565b60008281526002840160205260408120829055611721848461142f565b60006104da825490565b60006104d7838361190b565b600081815260028301602052604081208190556104d783836116ac565b600082600001828154811061192257611922611c7b565b9060005260206000200154905092915050565b6020808252825182820181905260009190848201906040850190845b818110156119aa5761199783855161ffff815116825260208101511515602083015260408101516040830152606081015160608301526080810151151560808301525050565b9284019260a09290920191600101611951565b50909695505050505050565b600080602083850312156119c957600080fd5b823567ffffffffffffffff808211156119e157600080fd5b818501915085601f8301126119f557600080fd5b813581811115611a0457600080fd5b8660208260061b8501011115611a1957600080fd5b60209290920196919550909350505050565b803561ffff81168114611a3d57600080fd5b919050565b80358015158114611a3d57600080fd5b600080600080600060a08688031215611a6a57600080fd5b611a7386611a2b565b9450611a8160208701611a42565b93506040860135925060608601359150611a9d60808701611a42565b90509295509295909350565b600060208284031215611abb57600080fd5b6104d782611a2b565b821515815260c08101611724602083018461ffff815116825260208101511515602083015260408101516040830152606081015160608301526080810151151560808301525050565b803573ffffffffffffffffffffffffffffffffffffffff81168114611a3d57600080fd5b60008060408385031215611b4457600080fd5b611b4d83611b0d565b9150611b5b60208401611a2b565b90509250929050565b6020808252825182820181905260009190848201906040850190845b818110156119aa57611bbc83855161ffff8082511683528060208301511660208401525060408101516040830152606081015160608301525050565b9284019260809290920191600101611b80565b600080600060608486031215611be457600080fd5b611bed84611b0d565b9250611bfb60208501611a2b565b9150611c0960408501611a2b565b90509250925092565b821515815260a08101611724602083018461ffff8082511683528060208301511660208401525060408101516040830152606081015160608301525050565b60008060408385031215611c6457600080fd5b611c6d83611a2b565b9150611b5b60208401611a42565b634e487b7160e01b600052603260045260246000fd5b634e487b7160e01b600052601160045260246000fd5b6000600019821415611cbb57611cbb611c91565b5060010190565b73ffffffffffffffffffffffffffffffffffffffff84168152604060208083018290528282018490526000919085906060850184805b88811015611d3f578285835b6002811015611d2c5761ffff611d1983611a2b565b1683529186019190860190600101611d04565b5050509385019391850191600101611cf8565b50909998505050505050505050565b634e487b7160e01b600052604160045260246000fd5b600061ffff80831681811415611d7c57611d7c611c91565b6001019392505050565b60008219821115611d9957611d99611c91565b500190565b80516020808301519190811015611dbf576000198160200360031b1b821691505b50919050565b600082821015611dd757611dd7611c91565b500390565b600082611df957634e487b7160e01b600052601260045260246000fd5b500490565b600061ffff83811690831681811015611e1957611e19611c91565b039392505050565b6000816000190483118215151615611e3b57611e3b611c91565b500290565b634e487b7160e01b600052603160045260246000fdfea2646970667358221220507ba99b25afa0fd8bca3d40fbea34829d62f6fc2762c6cd61d0a121d0cb9f9464736f6c63430008090033",
  "devdoc": {
    "kind": "dev",
    "methods": {},
    "version": 1
  },
  "userdoc": {
    "kind": "user",
    "methods": {},
    "version": 1
  },
  "storageLayout": {
    "storage": [
      {
        "astId": 16221,
        "contract": "src/diamond/facets/ProofOfPresenceFacet.sol:ProofOfPresenceFacet",
        "label": "s",
        "offset": 0,
        "slot": "0",
        "type": "t_struct(AppStorage)16209_storage"
      }
    ],
    "types": {
      "t_address": {
        "encoding": "inplace",
        "label": "address",
        "numberOfBytes": "20"
      },
      "t_array(t_bytes32)dyn_storage": {
        "base": "t_bytes32",
        "encoding": "dynamic_array",
        "label": "bytes32[]",
        "numberOfBytes": "32"
      },
      "t_array(t_struct(Deposit)16181_storage)dyn_storage": {
        "base": "t_struct(Deposit)16181_storage",
        "encoding": "dynamic_array",
        "label": "struct Deposit[]",
        "numberOfBytes": "32"
      },
      "t_bool": {
        "encoding": "inplace",
        "label": "bool",
        "numberOfBytes": "1"
      },
      "t_bytes32": {
        "encoding": "inplace",
        "label": "bytes32",
        "numberOfBytes": "32"
      },
      "t_contract(IERC20)900": {
        "encoding": "inplace",
        "label": "contract IERC20",
        "numberOfBytes": "20"
      },
      "t_mapping(t_address,t_array(t_struct(Deposit)16181_storage)dyn_storage)": {
        "encoding": "mapping",
        "key": "t_address",
        "label": "mapping(address => struct Deposit[])",
        "numberOfBytes": "32",
        "value": "t_array(t_struct(Deposit)16181_storage)dyn_storage"
      },
      "t_mapping(t_address,t_struct(UserStore)13095_storage)": {
        "encoding": "mapping",
        "key": "t_address",
        "label": "mapping(address => struct BookingMapLib.UserStore)",
        "numberOfBytes": "32",
        "value": "t_struct(UserStore)13095_storage"
      },
      "t_mapping(t_address,t_uint256)": {
        "encoding": "mapping",
        "key": "t_address",
        "label": "mapping(address => uint256)",
        "numberOfBytes": "32",
        "value": "t_uint256"
      },
      "t_mapping(t_bytes32,t_bytes32)": {
        "encoding": "mapping",
        "key": "t_bytes32",
        "label": "mapping(bytes32 => bytes32)",
        "numberOfBytes": "32",
        "value": "t_bytes32"
      },
      "t_mapping(t_bytes32,t_struct(Booking)13080_storage)": {
        "encoding": "mapping",
        "key": "t_bytes32",
        "label": "mapping(bytes32 => struct BookingMapLib.Booking)",
        "numberOfBytes": "32",
        "value": "t_struct(Booking)13080_storage"
      },
      "t_mapping(t_bytes32,t_struct(Year)13106_storage)": {
        "encoding": "mapping",
        "key": "t_bytes32",
        "label": "mapping(bytes32 => struct BookingMapLib.Year)",
        "numberOfBytes": "32",
        "value": "t_struct(Year)13106_storage"
      },
      "t_mapping(t_bytes32,t_uint256)": {
        "encoding": "mapping",
        "key": "t_bytes32",
        "label": "mapping(bytes32 => uint256)",
        "numberOfBytes": "32",
        "value": "t_uint256"
      },
      "t_mapping(t_uint16,t_struct(Bytes32ToUintMap)14032_storage)": {
        "encoding": "mapping",
        "key": "t_uint16",
        "label": "mapping(uint16 => struct EnumerableMapLib.Bytes32ToUintMap)",
        "numberOfBytes": "32",
        "value": "t_struct(Bytes32ToUintMap)14032_storage"
      },
      "t_mapping(t_uint16,t_uint256)": {
        "encoding": "mapping",
        "key": "t_uint16",
        "label": "mapping(uint16 => uint256)",
        "numberOfBytes": "32",
        "value": "t_uint256"
      },
      "t_struct(AppStorage)16209_storage": {
        "encoding": "inplace",
        "label": "struct AppStorage",
        "members": [
          {
            "astId": 16184,
            "contract": "src/diamond/facets/ProofOfPresenceFacet.sol:ProofOfPresenceFacet",
            "label": "tdfToken",
            "offset": 0,
            "slot": "0",
            "type": "t_contract(IERC20)900"
          },
          {
            "astId": 16189,
            "contract": "src/diamond/facets/ProofOfPresenceFacet.sol:ProofOfPresenceFacet",
            "label": "_bookings",
            "offset": 0,
            "slot": "1",
            "type": "t_mapping(t_address,t_struct(UserStore)13095_storage)"
          },
          {
            "astId": 16192,
            "contract": "src/diamond/facets/ProofOfPresenceFacet.sol:ProofOfPresenceFacet",
            "label": "_years",
            "offset": 0,
            "slot": "2",
            "type": "t_struct(YearsStore)13115_storage"
          },
          {
            "astId": 16196,
            "contract": "src/diamond/facets/ProofOfPresenceFacet.sol:ProofOfPresenceFacet",
            "label": "_balances",
            "offset": 0,
            "slot": "5",
            "type": "t_mapping(t_address,t_uint256)"
          },
          {
            "astId": 16202,
            "contract": "src/diamond/facets/ProofOfPresenceFacet.sol:ProofOfPresenceFacet",
            "label": "_deposits",
            "offset": 0,
            "slot": "6",
            "type": "t_mapping(t_address,t_array(t_struct(Deposit)16181_storage)dyn_storage)"
          },
          {
            "astId": 16204,
            "contract": "src/diamond/facets/ProofOfPresenceFacet.sol:ProofOfPresenceFacet",
            "label": "lockingPeriod",
            "offset": 0,
            "slot": "7",
            "type": "t_uint256"
          },
          {
            "astId": 16206,
            "contract": "src/diamond/facets/ProofOfPresenceFacet.sol:ProofOfPresenceFacet",
            "label": "paused",
            "offset": 0,
            "slot": "8",
            "type": "t_bool"
          },
          {
            "astId": 16208,
            "contract": "src/diamond/facets/ProofOfPresenceFacet.sol:ProofOfPresenceFacet",
            "label": "initialized",
            "offset": 1,
            "slot": "8",
            "type": "t_bool"
          }
        ],
        "numberOfBytes": "288"
      },
      "t_struct(Booking)13080_storage": {
        "encoding": "inplace",
        "label": "struct BookingMapLib.Booking",
        "members": [
          {
            "astId": 13073,
            "contract": "src/diamond/facets/ProofOfPresenceFacet.sol:ProofOfPresenceFacet",
            "label": "year",
            "offset": 0,
            "slot": "0",
            "type": "t_uint16"
          },
          {
            "astId": 13075,
            "contract": "src/diamond/facets/ProofOfPresenceFacet.sol:ProofOfPresenceFacet",
            "label": "dayOfYear",
            "offset": 2,
            "slot": "0",
            "type": "t_uint16"
          },
          {
            "astId": 13077,
            "contract": "src/diamond/facets/ProofOfPresenceFacet.sol:ProofOfPresenceFacet",
            "label": "price",
            "offset": 0,
            "slot": "1",
            "type": "t_uint256"
          },
          {
            "astId": 13079,
            "contract": "src/diamond/facets/ProofOfPresenceFacet.sol:ProofOfPresenceFacet",
            "label": "timestamp",
            "offset": 0,
            "slot": "2",
            "type": "t_uint256"
          }
        ],
        "numberOfBytes": "96"
      },
      "t_struct(Bytes32Set)2071_storage": {
        "encoding": "inplace",
        "label": "struct EnumerableSet.Bytes32Set",
        "members": [
          {
            "astId": 2070,
            "contract": "src/diamond/facets/ProofOfPresenceFacet.sol:ProofOfPresenceFacet",
            "label": "_inner",
            "offset": 0,
            "slot": "0",
            "type": "t_struct(Set)1877_storage"
          }
        ],
        "numberOfBytes": "64"
      },
      "t_struct(Bytes32ToBytes32Map)13802_storage": {
        "encoding": "inplace",
        "label": "struct EnumerableMapLib.Bytes32ToBytes32Map",
        "members": [
          {
            "astId": 13797,
            "contract": "src/diamond/facets/ProofOfPresenceFacet.sol:ProofOfPresenceFacet",
            "label": "_keys",
            "offset": 0,
            "slot": "0",
            "type": "t_struct(Bytes32Set)2071_storage"
          },
          {
            "astId": 13801,
            "contract": "src/diamond/facets/ProofOfPresenceFacet.sol:ProofOfPresenceFacet",
            "label": "_values",
            "offset": 0,
            "slot": "2",
            "type": "t_mapping(t_bytes32,t_bytes32)"
          }
        ],
        "numberOfBytes": "96"
      },
      "t_struct(Bytes32ToUintMap)14032_storage": {
        "encoding": "inplace",
        "label": "struct EnumerableMapLib.Bytes32ToUintMap",
        "members": [
          {
            "astId": 14031,
            "contract": "src/diamond/facets/ProofOfPresenceFacet.sol:ProofOfPresenceFacet",
            "label": "_inner",
            "offset": 0,
            "slot": "0",
            "type": "t_struct(Bytes32ToBytes32Map)13802_storage"
          }
        ],
        "numberOfBytes": "96"
      },
      "t_struct(Deposit)16181_storage": {
        "encoding": "inplace",
        "label": "struct Deposit",
        "members": [
          {
            "astId": 16178,
            "contract": "src/diamond/facets/ProofOfPresenceFacet.sol:ProofOfPresenceFacet",
            "label": "timestamp",
            "offset": 0,
            "slot": "0",
            "type": "t_uint256"
          },
          {
            "astId": 16180,
            "contract": "src/diamond/facets/ProofOfPresenceFacet.sol:ProofOfPresenceFacet",
            "label": "amount",
            "offset": 0,
            "slot": "1",
            "type": "t_uint256"
          }
        ],
        "numberOfBytes": "64"
      },
      "t_struct(Set)1877_storage": {
        "encoding": "inplace",
        "label": "struct EnumerableSet.Set",
        "members": [
          {
            "astId": 1872,
            "contract": "src/diamond/facets/ProofOfPresenceFacet.sol:ProofOfPresenceFacet",
            "label": "_values",
            "offset": 0,
            "slot": "0",
            "type": "t_array(t_bytes32)dyn_storage"
          },
          {
            "astId": 1876,
            "contract": "src/diamond/facets/ProofOfPresenceFacet.sol:ProofOfPresenceFacet",
            "label": "_indexes",
            "offset": 0,
            "slot": "1",
            "type": "t_mapping(t_bytes32,t_uint256)"
          }
        ],
        "numberOfBytes": "64"
      },
      "t_struct(UserStore)13095_storage": {
        "encoding": "inplace",
        "label": "struct BookingMapLib.UserStore",
        "members": [
          {
            "astId": 13084,
            "contract": "src/diamond/facets/ProofOfPresenceFacet.sol:ProofOfPresenceFacet",
            "label": "balance",
            "offset": 0,
            "slot": "0",
            "type": "t_mapping(t_uint16,t_uint256)"
          },
          {
            "astId": 13089,
            "contract": "src/diamond/facets/ProofOfPresenceFacet.sol:ProofOfPresenceFacet",
            "label": "dates",
            "offset": 0,
            "slot": "1",
            "type": "t_mapping(t_uint16,t_struct(Bytes32ToUintMap)14032_storage)"
          },
          {
            "astId": 13094,
            "contract": "src/diamond/facets/ProofOfPresenceFacet.sol:ProofOfPresenceFacet",
            "label": "bookings",
            "offset": 0,
            "slot": "2",
            "type": "t_mapping(t_bytes32,t_struct(Booking)13080_storage)"
          }
        ],
        "numberOfBytes": "96"
      },
      "t_struct(Year)13106_storage": {
        "encoding": "inplace",
        "label": "struct BookingMapLib.Year",
        "members": [
          {
            "astId": 13097,
            "contract": "src/diamond/facets/ProofOfPresenceFacet.sol:ProofOfPresenceFacet",
            "label": "number",
            "offset": 0,
            "slot": "0",
            "type": "t_uint16"
          },
          {
            "astId": 13099,
            "contract": "src/diamond/facets/ProofOfPresenceFacet.sol:ProofOfPresenceFacet",
            "label": "leapYear",
            "offset": 2,
            "slot": "0",
            "type": "t_bool"
          },
          {
            "astId": 13101,
            "contract": "src/diamond/facets/ProofOfPresenceFacet.sol:ProofOfPresenceFacet",
            "label": "start",
            "offset": 0,
            "slot": "1",
            "type": "t_uint256"
          },
          {
            "astId": 13103,
            "contract": "src/diamond/facets/ProofOfPresenceFacet.sol:ProofOfPresenceFacet",
            "label": "end",
            "offset": 0,
            "slot": "2",
            "type": "t_uint256"
          },
          {
            "astId": 13105,
            "contract": "src/diamond/facets/ProofOfPresenceFacet.sol:ProofOfPresenceFacet",
            "label": "enabled",
            "offset": 0,
            "slot": "3",
            "type": "t_bool"
          }
        ],
        "numberOfBytes": "128"
      },
      "t_struct(YearsStore)13115_storage": {
        "encoding": "inplace",
        "label": "struct BookingMapLib.YearsStore",
        "members": [
          {
            "astId": 13109,
            "contract": "src/diamond/facets/ProofOfPresenceFacet.sol:ProofOfPresenceFacet",
            "label": "_inner",
            "offset": 0,
            "slot": "0",
            "type": "t_struct(Bytes32Set)2071_storage"
          },
          {
            "astId": 13114,
            "contract": "src/diamond/facets/ProofOfPresenceFacet.sol:ProofOfPresenceFacet",
            "label": "elems",
            "offset": 0,
            "slot": "2",
            "type": "t_mapping(t_bytes32,t_struct(Year)13106_storage)"
          }
        ],
        "numberOfBytes": "96"
      },
      "t_uint16": {
        "encoding": "inplace",
        "label": "uint16",
        "numberOfBytes": "2"
      },
      "t_uint256": {
        "encoding": "inplace",
        "label": "uint256",
        "numberOfBytes": "32"
      }
    }
  }
}