{
  "address": "0xd415889776C80154F7b54C827Fa17B24905E111E",
  "abi": [
    {
      "anonymous": false,
      "inputs": [
        {
          "indexed": false,
          "internalType": "address",
          "name": "account",
          "type": "address"
        },
        {
          "indexed": false,
          "internalType": "uint256",
          "name": "amount",
          "type": "uint256"
        }
      ],
      "name": "DepositedTokens",
      "type": "event"
    },
    {
      "anonymous": false,
      "inputs": [
        {
          "indexed": false,
          "internalType": "address",
          "name": "account",
          "type": "address"
        },
        {
          "indexed": false,
          "internalType": "uint256",
          "name": "amount",
          "type": "uint256"
        }
      ],
      "name": "WithdrawnTokens",
      "type": "event"
    },
    {
      "inputs": [
        {
          "internalType": "uint256",
          "name": "amount",
          "type": "uint256"
        }
      ],
      "name": "depositStake",
      "outputs": [],
      "stateMutability": "nonpayable",
      "type": "function"
    },
    {
      "inputs": [
        {
          "internalType": "address",
          "name": "account",
          "type": "address"
        }
      ],
      "name": "depositsStakedFor",
      "outputs": [
        {
          "components": [
            {
              "internalType": "uint256",
              "name": "timestamp",
              "type": "uint256"
            },
            {
              "internalType": "uint256",
              "name": "amount",
              "type": "uint256"
            }
          ],
          "internalType": "struct StakeLib.StakedDeposit[]",
          "name": "",
          "type": "tuple[]"
        }
      ],
      "stateMutability": "view",
      "type": "function"
    },
    {
      "inputs": [
        {
          "internalType": "address",
          "name": "account",
          "type": "address"
        }
      ],
      "name": "lockedStake",
      "outputs": [
        {
          "internalType": "uint256",
          "name": "",
          "type": "uint256"
        }
      ],
      "stateMutability": "view",
      "type": "function"
    },
    {
      "inputs": [
        {
          "internalType": "uint256",
          "name": "requestedAmount",
          "type": "uint256"
        }
      ],
      "name": "restake",
      "outputs": [],
      "stateMutability": "nonpayable",
      "type": "function"
    },
    {
      "inputs": [],
      "name": "restakeMax",
      "outputs": [],
      "stateMutability": "nonpayable",
      "type": "function"
    },
    {
      "inputs": [
        {
          "internalType": "address",
          "name": "account",
          "type": "address"
        }
      ],
      "name": "stakedBalanceOf",
      "outputs": [
        {
          "internalType": "uint256",
          "name": "",
          "type": "uint256"
        }
      ],
      "stateMutability": "view",
      "type": "function"
    },
    {
      "inputs": [
        {
          "internalType": "address",
          "name": "account",
          "type": "address"
        }
      ],
      "name": "unlockedStake",
      "outputs": [
        {
          "internalType": "uint256",
          "name": "",
          "type": "uint256"
        }
      ],
      "stateMutability": "view",
      "type": "function"
    },
    {
      "inputs": [],
      "name": "withdrawMaxStake",
      "outputs": [
        {
          "internalType": "uint256",
          "name": "",
          "type": "uint256"
        }
      ],
      "stateMutability": "nonpayable",
      "type": "function"
    },
    {
      "inputs": [
        {
          "internalType": "uint256",
          "name": "requested",
          "type": "uint256"
        }
      ],
      "name": "withdrawStake",
      "outputs": [
        {
          "internalType": "uint256",
          "name": "",
          "type": "uint256"
        }
      ],
      "stateMutability": "nonpayable",
      "type": "function"
    }
  ],
  "transactionHash": "0x13ab4558ead110f150725c69e4abe5cee56eb2a38a9f3ff25696a831e544963d",
  "args": [],
  "numDeployments": 1,
  "solcInputHash": "7eb735135b2a523f10a7895f3286efb3",
  "bytecode": "0x608060405234801561001057600080fd5b506001600c556111a9806100256000396000f3fe608060405234801561001057600080fd5b50600436106100a35760003560e01c80633540ce08116100765780634e8240331161005b5780634e82403314610135578063bce1b5201461013d578063cb82cc8f1461015057600080fd5b80633540ce08146101185780633d9c055b1461012257600080fd5b80630e1b864f146100a857806315c6b078146100d157806316765391146100f257806325d5971f14610105575b600080fd5b6100bb6100b6366004610f99565b610163565b6040516100c89190610fc2565b60405180910390f35b6100e46100df366004610f99565b610176565b6040519081526020016100c8565b6100e4610100366004610f99565b610183565b6100e4610113366004611011565b6101a1565b6101206101c3565b005b6100e4610130366004610f99565b6101d0565b6100e46101dd565b61012061014b366004611011565b610203565b61012061015e366004611011565b610212565b606061017060078361021d565b92915050565b60006101706007836102a9565b6001600160a01b038116600090815260076020526040812054610170565b60008054610170906201000090046001600160a01b03163360079190856102e9565b6101ce6007336103cd565b565b6000610170600783610455565b600080546101fe906201000090046001600160a01b0316336007919061046f565b905090565b61020f600733836104fd565b50565b61020f3382426105d5565b6001600160a01b03811660009081526001830160209081526040808320805482518185028101850190935280835260609492939192909184015b8282101561029d57838290600052602060002090600202016040518060400160405290816000820154815260200160018201548152505081526020019060010190610257565b50505050905092915050565b6000806102ba8484600019426105f6565b80516001600160a01b0385166000908152602087905260409020549192506102e191611040565b949350505050565b6001600160a01b0382166000908152602085905260408120548211156103565760405162461bcd60e51b815260206004820152601360248201527f4e4f545f454e4f554748545f42414c414e43450000000000000000000000000060448201526064015b60405180910390fd5b6000610364868585426105f6565b805190915083146103b75760405162461bcd60e51b815260206004820152601e60248201527f4e4f545f454e4f554748545f554e4c4f434b41424c455f42414c414e43450000604482015260640161034d565b6103c386868684610865565b5195945050505050565b6001600160a01b0381166000908152602083905260409020546104325760405162461bcd60e51b815260206004820152601360248201527f4e4f545f454e4f554748545f42414c414e434500000000000000000000000000604482015260640161034d565b60006104428383600019426105f6565b90506104508383834261098e565b505050565b6000806104668484600019426105f6565b51949350505050565b6001600160a01b0381166000908152602084905260408120546104d45760405162461bcd60e51b815260206004820152601360248201527f4e4f545f454e4f554748545f42414c414e434500000000000000000000000000604482015260640161034d565b60006104e48584600019426105f6565b90506104f285858584610865565b5190505b9392505050565b6001600160a01b0382166000908152602084905260409020546105625760405162461bcd60e51b815260206004820152601360248201527f4e4f545f454e4f554748545f42414c414e434500000000000000000000000000604482015260640161034d565b6000610570848484426105f6565b805190915082146105c35760405162461bcd60e51b815260206004820152601e60248201527f4e4f545f454e4f554748545f554e4c4f434b41424c455f42414c414e43450000604482015260640161034d565b6105cf8484834261098e565b50505050565b600054610450906007906201000090046001600160a01b0316858585610a86565b61061a60405180606001604052806000815260200160008152602001606081525090565b6001600160a01b0384166000908152600186016020908152604080832080548251818502810185019093528083529192909190849084015b8282101561069857838290600052602060002090600202016040518060400160405290816000820154815260200160018201548152505081526020019060010190610652565b505050509050600060405180606001604052806000815260200160008152602001600067ffffffffffffffff8111156106d3576106d3611057565b60405190808252806020026020018201604052801561071857816020015b60408051808201909152600080825260208201528152602001906001900390816106f15790505b509052825190915061072d5791506102e19050565b60005b82518160ff16101561085a576000838260ff16815181106107535761075361106d565b60200260200101519050610768898288610b53565b80156107745750600087115b156108195780602001518710156107ea5760008782602001516107979190611040565b602083018190528451909150889085906107b2908390611083565b9052506020840180518291906107c9908390611083565b90525060408401516107db9083610b74565b60408501525060009650610847565b60208101516107f99088611040565b96508060200151836000018181516108119190611083565b905250610847565b80602001518360200181815161082f9190611083565b90525060408301516108419082610b74565b60408401525b50806108528161109b565b915050610730565b509695505050505050565b8051156105cf576001600160a01b0382166000908152600185016020526040812061088f91610f5e565b60005b816040015151811015610912576001600160a01b038316600090815260018601602052604090819020908301518051839081106108d1576108d161106d565b60209081029190910181015182546001818101855560009485529383902082516002909202019081559101519101558061090a816110bb565b915050610892565b506020808201516001600160a01b038085166000908152928790526040909220558151610943918516908490610c6b565b8051604080516001600160a01b038516815260208101929092527f373d92bf7d9cdd58a8c86db5461f3cdcd325b803fdbac8d1b224a0f5fce847b8910160405180910390a150505050565b6001600160a01b038316600090815260018501602052604081206109b191610f5e565b60005b826040015151811015610a34576001600160a01b038416600090815260018601602052604090819020908401518051839081106109f3576109f361106d565b602090810291909101810151825460018181018555600094855293839020825160029092020190815591015191015580610a2c816110bb565b9150506109b4565b506001600160a01b039092166000908152600193840160209081526040808320815180830190925294815292518382019081528454808701865594835291209151600290930290910191825551910155565b6001600160a01b038316600081815260018088016020908152604080842081518083018352878152808401898152825480870184559287528487209151600290930290910191825551930192909255928252918790529081208054849290610aef908490611083565b90915550610b0a90506001600160a01b038516843085610d14565b604080516001600160a01b0385168152602081018490527f7139450dd757152fecf84363c06fd6e67f35bcfcf09b93c4404aebd43518c699910160405180910390a15050505050565b60008184600201548460000151610b6a9190611083565b1115949350505050565b81516060906000610b86826001611083565b67ffffffffffffffff811115610b9e57610b9e611057565b604051908082528060200260200182016040528015610be357816020015b6040805180820190915260008082526020820152815260200190600190039081610bbc5790505b50905060005b828160ff161015610c4457858160ff1681518110610c0957610c0961106d565b6020026020010151828260ff1681518110610c2657610c2661106d565b60200260200101819052508080610c3c9061109b565b915050610be9565b5083818381518110610c5857610c5861106d565b6020908102919091010152949350505050565b6040516001600160a01b0383166024820152604481018290526104509084907fa9059cbb00000000000000000000000000000000000000000000000000000000906064015b60408051601f198184030181529190526020810180517bffffffffffffffffffffffffffffffffffffffffffffffffffffffff167fffffffff0000000000000000000000000000000000000000000000000000000090931692909217909152610d65565b6040516001600160a01b03808516602483015283166044820152606481018290526105cf9085907f23b872dd0000000000000000000000000000000000000000000000000000000090608401610cb0565b6000610dba826040518060400160405280602081526020017f5361666545524332303a206c6f772d6c6576656c2063616c6c206661696c6564815250856001600160a01b0316610e4a9092919063ffffffff16565b8051909150156104505780806020019051810190610dd891906110d6565b6104505760405162461bcd60e51b815260206004820152602a60248201527f5361666545524332303a204552433230206f7065726174696f6e20646964206e60448201527f6f74207375636365656400000000000000000000000000000000000000000000606482015260840161034d565b60606102e18484600085856001600160a01b0385163b610eac5760405162461bcd60e51b815260206004820152601d60248201527f416464726573733a2063616c6c20746f206e6f6e2d636f6e7472616374000000604482015260640161034d565b600080866001600160a01b03168587604051610ec89190611124565b60006040518083038185875af1925050503d8060008114610f05576040519150601f19603f3d011682016040523d82523d6000602084013e610f0a565b606091505b5091509150610f1a828286610f25565b979650505050505050565b60608315610f345750816104f6565b825115610f445782518084602001fd5b8160405162461bcd60e51b815260040161034d9190611140565b508054600082556002029060005260206000209081019061020f91905b80821115610f955760008082556001820155600201610f7b565b5090565b600060208284031215610fab57600080fd5b81356001600160a01b03811681146104f657600080fd5b602080825282518282018190526000919060409081850190868401855b8281101561100457815180518552860151868501529284019290850190600101610fdf565b5091979650505050505050565b60006020828403121561102357600080fd5b5035919050565b634e487b7160e01b600052601160045260246000fd5b6000828210156110525761105261102a565b500390565b634e487b7160e01b600052604160045260246000fd5b634e487b7160e01b600052603260045260246000fd5b600082198211156110965761109661102a565b500190565b600060ff821660ff8114156110b2576110b261102a565b60010192915050565b60006000198214156110cf576110cf61102a565b5060010190565b6000602082840312156110e857600080fd5b815180151581146104f657600080fd5b60005b838110156111135781810151838201526020016110fb565b838111156105cf5750506000910152565b600082516111368184602087016110f8565b9190910192915050565b602081526000825180602084015261115f8160408501602087016110f8565b601f01601f1916919091016040019291505056fea26469706673582212207cddeaf6c0a8d9d6824e994ab879ba117e7f86c7d533ca0e433230d1e859ee1e64736f6c63430008090033",
  "devdoc": {
    "kind": "dev",
    "methods": {},
    "version": 1
  },
  "userdoc": {
    "kind": "user",
    "methods": {},
    "version": 1
  },
  "storageLayout": {
    "storage": [
      {
        "astId": 8695,
        "contract": "src/diamond/facets/StakingFacet.sol:StakingFacet",
        "label": "s",
        "offset": 0,
        "slot": "0",
        "type": "t_struct(AppStorage)8675_storage"
      },
      {
        "astId": 304,
        "contract": "src/diamond/facets/StakingFacet.sol:StakingFacet",
        "label": "_status",
        "offset": 0,
        "slot": "12",
        "type": "t_uint256"
      }
    ],
    "types": {
      "t_address": {
        "encoding": "inplace",
        "label": "address",
        "numberOfBytes": "20"
      },
      "t_array(t_bytes32)dyn_storage": {
        "base": "t_bytes32",
        "encoding": "dynamic_array",
        "label": "bytes32[]",
        "numberOfBytes": "32"
      },
      "t_array(t_struct(StakedDeposit)9662_storage)dyn_storage": {
        "base": "t_struct(StakedDeposit)9662_storage",
        "encoding": "dynamic_array",
        "label": "struct StakeLib.StakedDeposit[]",
        "numberOfBytes": "32"
      },
      "t_bool": {
        "encoding": "inplace",
        "label": "bool",
        "numberOfBytes": "1"
      },
      "t_bytes32": {
        "encoding": "inplace",
        "label": "bytes32",
        "numberOfBytes": "32"
      },
      "t_contract(IERC20)997": {
        "encoding": "inplace",
        "label": "contract IERC20",
        "numberOfBytes": "20"
      },
      "t_mapping(t_address,t_array(t_struct(StakedDeposit)9662_storage)dyn_storage)": {
        "encoding": "mapping",
        "key": "t_address",
        "label": "mapping(address => struct StakeLib.StakedDeposit[])",
        "numberOfBytes": "32",
        "value": "t_array(t_struct(StakedDeposit)9662_storage)dyn_storage"
      },
      "t_mapping(t_address,t_bool)": {
        "encoding": "mapping",
        "key": "t_address",
        "label": "mapping(address => bool)",
        "numberOfBytes": "32",
        "value": "t_bool"
      },
      "t_mapping(t_address,t_struct(UserStore)8848_storage)": {
        "encoding": "mapping",
        "key": "t_address",
        "label": "mapping(address => struct BookingMapLib.UserStore)",
        "numberOfBytes": "32",
        "value": "t_struct(UserStore)8848_storage"
      },
      "t_mapping(t_address,t_uint256)": {
        "encoding": "mapping",
        "key": "t_address",
        "label": "mapping(address => uint256)",
        "numberOfBytes": "32",
        "value": "t_uint256"
      },
      "t_mapping(t_bytes32,t_bytes32)": {
        "encoding": "mapping",
        "key": "t_bytes32",
        "label": "mapping(bytes32 => bytes32)",
        "numberOfBytes": "32",
        "value": "t_bytes32"
      },
      "t_mapping(t_bytes32,t_struct(AddressSet)4132_storage)": {
        "encoding": "mapping",
        "key": "t_bytes32",
        "label": "mapping(bytes32 => struct EnumerableSet.AddressSet)",
        "numberOfBytes": "32",
        "value": "t_struct(AddressSet)4132_storage"
      },
      "t_mapping(t_bytes32,t_struct(Booking)8833_storage)": {
        "encoding": "mapping",
        "key": "t_bytes32",
        "label": "mapping(bytes32 => struct BookingMapLib.Booking)",
        "numberOfBytes": "32",
        "value": "t_struct(Booking)8833_storage"
      },
      "t_mapping(t_bytes32,t_struct(RoleData)8281_storage)": {
        "encoding": "mapping",
        "key": "t_bytes32",
        "label": "mapping(bytes32 => struct AccessControlLib.RoleData)",
        "numberOfBytes": "32",
        "value": "t_struct(RoleData)8281_storage"
      },
      "t_mapping(t_bytes32,t_struct(Year)8859_storage)": {
        "encoding": "mapping",
        "key": "t_bytes32",
        "label": "mapping(bytes32 => struct BookingMapLib.Year)",
        "numberOfBytes": "32",
        "value": "t_struct(Year)8859_storage"
      },
      "t_mapping(t_bytes32,t_uint256)": {
        "encoding": "mapping",
        "key": "t_bytes32",
        "label": "mapping(bytes32 => uint256)",
        "numberOfBytes": "32",
        "value": "t_uint256"
      },
      "t_mapping(t_uint16,t_struct(Bytes32ToUintMap)3637_storage)": {
        "encoding": "mapping",
        "key": "t_uint16",
        "label": "mapping(uint16 => struct EnumerableMap.Bytes32ToUintMap)",
        "numberOfBytes": "32",
        "value": "t_struct(Bytes32ToUintMap)3637_storage"
      },
      "t_mapping(t_uint16,t_uint256)": {
        "encoding": "mapping",
        "key": "t_uint16",
        "label": "mapping(uint16 => uint256)",
        "numberOfBytes": "32",
        "value": "t_uint256"
      },
      "t_struct(AddressSet)4132_storage": {
        "encoding": "inplace",
        "label": "struct EnumerableSet.AddressSet",
        "members": [
          {
            "astId": 4131,
            "contract": "src/diamond/facets/StakingFacet.sol:StakingFacet",
            "label": "_inner",
            "offset": 0,
            "slot": "0",
            "type": "t_struct(Set)3831_storage"
          }
        ],
        "numberOfBytes": "64"
      },
      "t_struct(AppStorage)8675_storage": {
        "encoding": "inplace",
        "label": "struct AppStorage",
        "members": [
          {
            "astId": 8652,
            "contract": "src/diamond/facets/StakingFacet.sol:StakingFacet",
            "label": "initialized",
            "offset": 0,
            "slot": "0",
            "type": "t_bool"
          },
          {
            "astId": 8654,
            "contract": "src/diamond/facets/StakingFacet.sol:StakingFacet",
            "label": "paused",
            "offset": 1,
            "slot": "0",
            "type": "t_bool"
          },
          {
            "astId": 8657,
            "contract": "src/diamond/facets/StakingFacet.sol:StakingFacet",
            "label": "communityToken",
            "offset": 2,
            "slot": "0",
            "type": "t_contract(IERC20)997"
          },
          {
            "astId": 8660,
            "contract": "src/diamond/facets/StakingFacet.sol:StakingFacet",
            "label": "_roleStore",
            "offset": 0,
            "slot": "1",
            "type": "t_struct(RoleStore)8292_storage"
          },
          {
            "astId": 8665,
            "contract": "src/diamond/facets/StakingFacet.sol:StakingFacet",
            "label": "_accommodationBookings",
            "offset": 0,
            "slot": "3",
            "type": "t_mapping(t_address,t_struct(UserStore)8848_storage)"
          },
          {
            "astId": 8668,
            "contract": "src/diamond/facets/StakingFacet.sol:StakingFacet",
            "label": "_accommodationYears",
            "offset": 0,
            "slot": "4",
            "type": "t_struct(YearsStore)8868_storage"
          },
          {
            "astId": 8671,
            "contract": "src/diamond/facets/StakingFacet.sol:StakingFacet",
            "label": "staking",
            "offset": 0,
            "slot": "7",
            "type": "t_struct(StakeStore)9684_storage"
          },
          {
            "astId": 8674,
            "contract": "src/diamond/facets/StakingFacet.sol:StakingFacet",
            "label": "members",
            "offset": 0,
            "slot": "10",
            "type": "t_struct(Store)9541_storage"
          }
        ],
        "numberOfBytes": "384"
      },
      "t_struct(Booking)8833_storage": {
        "encoding": "inplace",
        "label": "struct BookingMapLib.Booking",
        "members": [
          {
            "astId": 8826,
            "contract": "src/diamond/facets/StakingFacet.sol:StakingFacet",
            "label": "year",
            "offset": 0,
            "slot": "0",
            "type": "t_uint16"
          },
          {
            "astId": 8828,
            "contract": "src/diamond/facets/StakingFacet.sol:StakingFacet",
            "label": "dayOfYear",
            "offset": 2,
            "slot": "0",
            "type": "t_uint16"
          },
          {
            "astId": 8830,
            "contract": "src/diamond/facets/StakingFacet.sol:StakingFacet",
            "label": "price",
            "offset": 0,
            "slot": "1",
            "type": "t_uint256"
          },
          {
            "astId": 8832,
            "contract": "src/diamond/facets/StakingFacet.sol:StakingFacet",
            "label": "timestamp",
            "offset": 0,
            "slot": "2",
            "type": "t_uint256"
          }
        ],
        "numberOfBytes": "96"
      },
      "t_struct(Bytes32Set)4025_storage": {
        "encoding": "inplace",
        "label": "struct EnumerableSet.Bytes32Set",
        "members": [
          {
            "astId": 4024,
            "contract": "src/diamond/facets/StakingFacet.sol:StakingFacet",
            "label": "_inner",
            "offset": 0,
            "slot": "0",
            "type": "t_struct(Set)3831_storage"
          }
        ],
        "numberOfBytes": "64"
      },
      "t_struct(Bytes32ToBytes32Map)2714_storage": {
        "encoding": "inplace",
        "label": "struct EnumerableMap.Bytes32ToBytes32Map",
        "members": [
          {
            "astId": 2709,
            "contract": "src/diamond/facets/StakingFacet.sol:StakingFacet",
            "label": "_keys",
            "offset": 0,
            "slot": "0",
            "type": "t_struct(Bytes32Set)4025_storage"
          },
          {
            "astId": 2713,
            "contract": "src/diamond/facets/StakingFacet.sol:StakingFacet",
            "label": "_values",
            "offset": 0,
            "slot": "2",
            "type": "t_mapping(t_bytes32,t_bytes32)"
          }
        ],
        "numberOfBytes": "96"
      },
      "t_struct(Bytes32ToUintMap)3637_storage": {
        "encoding": "inplace",
        "label": "struct EnumerableMap.Bytes32ToUintMap",
        "members": [
          {
            "astId": 3636,
            "contract": "src/diamond/facets/StakingFacet.sol:StakingFacet",
            "label": "_inner",
            "offset": 0,
            "slot": "0",
            "type": "t_struct(Bytes32ToBytes32Map)2714_storage"
          }
        ],
        "numberOfBytes": "96"
      },
      "t_struct(RoleData)8281_storage": {
        "encoding": "inplace",
        "label": "struct AccessControlLib.RoleData",
        "members": [
          {
            "astId": 8278,
            "contract": "src/diamond/facets/StakingFacet.sol:StakingFacet",
            "label": "members",
            "offset": 0,
            "slot": "0",
            "type": "t_mapping(t_address,t_bool)"
          },
          {
            "astId": 8280,
            "contract": "src/diamond/facets/StakingFacet.sol:StakingFacet",
            "label": "adminRole",
            "offset": 0,
            "slot": "1",
            "type": "t_bytes32"
          }
        ],
        "numberOfBytes": "64"
      },
      "t_struct(RoleStore)8292_storage": {
        "encoding": "inplace",
        "label": "struct AccessControlLib.RoleStore",
        "members": [
          {
            "astId": 8286,
            "contract": "src/diamond/facets/StakingFacet.sol:StakingFacet",
            "label": "_roles",
            "offset": 0,
            "slot": "0",
            "type": "t_mapping(t_bytes32,t_struct(RoleData)8281_storage)"
          },
          {
            "astId": 8291,
            "contract": "src/diamond/facets/StakingFacet.sol:StakingFacet",
            "label": "_roleMembers",
            "offset": 0,
            "slot": "1",
            "type": "t_mapping(t_bytes32,t_struct(AddressSet)4132_storage)"
          }
        ],
        "numberOfBytes": "64"
      },
      "t_struct(Set)3831_storage": {
        "encoding": "inplace",
        "label": "struct EnumerableSet.Set",
        "members": [
          {
            "astId": 3826,
            "contract": "src/diamond/facets/StakingFacet.sol:StakingFacet",
            "label": "_values",
            "offset": 0,
            "slot": "0",
            "type": "t_array(t_bytes32)dyn_storage"
          },
          {
            "astId": 3830,
            "contract": "src/diamond/facets/StakingFacet.sol:StakingFacet",
            "label": "_indexes",
            "offset": 0,
            "slot": "1",
            "type": "t_mapping(t_bytes32,t_uint256)"
          }
        ],
        "numberOfBytes": "64"
      },
      "t_struct(StakeStore)9684_storage": {
        "encoding": "inplace",
        "label": "struct StakeLib.StakeStore",
        "members": [
          {
            "astId": 9675,
            "contract": "src/diamond/facets/StakingFacet.sol:StakingFacet",
            "label": "stakedBalances",
            "offset": 0,
            "slot": "0",
            "type": "t_mapping(t_address,t_uint256)"
          },
          {
            "astId": 9681,
            "contract": "src/diamond/facets/StakingFacet.sol:StakingFacet",
            "label": "stakedDeposits",
            "offset": 0,
            "slot": "1",
            "type": "t_mapping(t_address,t_array(t_struct(StakedDeposit)9662_storage)dyn_storage)"
          },
          {
            "astId": 9683,
            "contract": "src/diamond/facets/StakingFacet.sol:StakingFacet",
            "label": "stakeLockingPeriod",
            "offset": 0,
            "slot": "2",
            "type": "t_uint256"
          }
        ],
        "numberOfBytes": "96"
      },
      "t_struct(StakedDeposit)9662_storage": {
        "encoding": "inplace",
        "label": "struct StakeLib.StakedDeposit",
        "members": [
          {
            "astId": 9659,
            "contract": "src/diamond/facets/StakingFacet.sol:StakingFacet",
            "label": "timestamp",
            "offset": 0,
            "slot": "0",
            "type": "t_uint256"
          },
          {
            "astId": 9661,
            "contract": "src/diamond/facets/StakingFacet.sol:StakingFacet",
            "label": "amount",
            "offset": 0,
            "slot": "1",
            "type": "t_uint256"
          }
        ],
        "numberOfBytes": "64"
      },
      "t_struct(Store)9541_storage": {
        "encoding": "inplace",
        "label": "struct MembershipLib.Store",
        "members": [
          {
            "astId": 9540,
            "contract": "src/diamond/facets/StakingFacet.sol:StakingFacet",
            "label": "_inner",
            "offset": 0,
            "slot": "0",
            "type": "t_struct(AddressSet)4132_storage"
          }
        ],
        "numberOfBytes": "64"
      },
      "t_struct(UserStore)8848_storage": {
        "encoding": "inplace",
        "label": "struct BookingMapLib.UserStore",
        "members": [
          {
            "astId": 8837,
            "contract": "src/diamond/facets/StakingFacet.sol:StakingFacet",
            "label": "balance",
            "offset": 0,
            "slot": "0",
            "type": "t_mapping(t_uint16,t_uint256)"
          },
          {
            "astId": 8842,
            "contract": "src/diamond/facets/StakingFacet.sol:StakingFacet",
            "label": "dates",
            "offset": 0,
            "slot": "1",
            "type": "t_mapping(t_uint16,t_struct(Bytes32ToUintMap)3637_storage)"
          },
          {
            "astId": 8847,
            "contract": "src/diamond/facets/StakingFacet.sol:StakingFacet",
            "label": "bookings",
            "offset": 0,
            "slot": "2",
            "type": "t_mapping(t_bytes32,t_struct(Booking)8833_storage)"
          }
        ],
        "numberOfBytes": "96"
      },
      "t_struct(Year)8859_storage": {
        "encoding": "inplace",
        "label": "struct BookingMapLib.Year",
        "members": [
          {
            "astId": 8850,
            "contract": "src/diamond/facets/StakingFacet.sol:StakingFacet",
            "label": "number",
            "offset": 0,
            "slot": "0",
            "type": "t_uint16"
          },
          {
            "astId": 8852,
            "contract": "src/diamond/facets/StakingFacet.sol:StakingFacet",
            "label": "leapYear",
            "offset": 2,
            "slot": "0",
            "type": "t_bool"
          },
          {
            "astId": 8854,
            "contract": "src/diamond/facets/StakingFacet.sol:StakingFacet",
            "label": "start",
            "offset": 0,
            "slot": "1",
            "type": "t_uint256"
          },
          {
            "astId": 8856,
            "contract": "src/diamond/facets/StakingFacet.sol:StakingFacet",
            "label": "end",
            "offset": 0,
            "slot": "2",
            "type": "t_uint256"
          },
          {
            "astId": 8858,
            "contract": "src/diamond/facets/StakingFacet.sol:StakingFacet",
            "label": "enabled",
            "offset": 0,
            "slot": "3",
            "type": "t_bool"
          }
        ],
        "numberOfBytes": "128"
      },
      "t_struct(YearsStore)8868_storage": {
        "encoding": "inplace",
        "label": "struct BookingMapLib.YearsStore",
        "members": [
          {
            "astId": 8862,
            "contract": "src/diamond/facets/StakingFacet.sol:StakingFacet",
            "label": "_inner",
            "offset": 0,
            "slot": "0",
            "type": "t_struct(Bytes32Set)4025_storage"
          },
          {
            "astId": 8867,
            "contract": "src/diamond/facets/StakingFacet.sol:StakingFacet",
            "label": "elems",
            "offset": 0,
            "slot": "2",
            "type": "t_mapping(t_bytes32,t_struct(Year)8859_storage)"
          }
        ],
        "numberOfBytes": "96"
      },
      "t_uint16": {
        "encoding": "inplace",
        "label": "uint16",
        "numberOfBytes": "2"
      },
      "t_uint256": {
        "encoding": "inplace",
        "label": "uint256",
        "numberOfBytes": "32"
      }
    }
  }
}