{
  "address": "0x653505fE91167FCC956e21Dad432B55E4ed73858",
  "abi": [
    {
      "anonymous": false,
      "inputs": [
        {
          "indexed": false,
          "internalType": "address",
          "name": "account",
          "type": "address"
        },
        {
          "indexed": false,
          "internalType": "uint256",
          "name": "amount",
          "type": "uint256"
        }
      ],
      "name": "DepositedTokens",
      "type": "event"
    },
    {
      "anonymous": false,
      "inputs": [
        {
          "indexed": false,
          "internalType": "address",
          "name": "account",
          "type": "address"
        },
        {
          "indexed": false,
          "internalType": "uint256",
          "name": "amount",
          "type": "uint256"
        }
      ],
      "name": "WithdrawnTokens",
      "type": "event"
    },
    {
      "inputs": [
        {
          "internalType": "uint256",
          "name": "amount",
          "type": "uint256"
        }
      ],
      "name": "depositStake",
      "outputs": [],
      "stateMutability": "nonpayable",
      "type": "function"
    },
    {
      "inputs": [
        {
          "internalType": "address",
          "name": "account",
          "type": "address"
        }
      ],
      "name": "depositsStakedFor",
      "outputs": [
        {
          "components": [
            {
              "internalType": "uint256",
              "name": "timestamp",
              "type": "uint256"
            },
            {
              "internalType": "uint256",
              "name": "amount",
              "type": "uint256"
            }
          ],
          "internalType": "struct OrderedStakeLib.Deposit[]",
          "name": "",
          "type": "tuple[]"
        }
      ],
      "stateMutability": "view",
      "type": "function"
    },
    {
      "inputs": [
        {
          "internalType": "address",
          "name": "account",
          "type": "address"
        }
      ],
      "name": "lockedStake",
      "outputs": [
        {
          "internalType": "uint256",
          "name": "",
          "type": "uint256"
        }
      ],
      "stateMutability": "view",
      "type": "function"
    },
    {
      "inputs": [
        {
          "internalType": "uint256",
          "name": "requestedAmount",
          "type": "uint256"
        }
      ],
      "name": "restake",
      "outputs": [],
      "stateMutability": "nonpayable",
      "type": "function"
    },
    {
      "inputs": [],
      "name": "restakeMax",
      "outputs": [],
      "stateMutability": "nonpayable",
      "type": "function"
    },
    {
      "inputs": [
        {
          "internalType": "address",
          "name": "account",
          "type": "address"
        }
      ],
      "name": "stakedBalanceOf",
      "outputs": [
        {
          "internalType": "uint256",
          "name": "",
          "type": "uint256"
        }
      ],
      "stateMutability": "view",
      "type": "function"
    },
    {
      "inputs": [
        {
          "internalType": "address",
          "name": "account",
          "type": "address"
        }
      ],
      "name": "unlockedStake",
      "outputs": [
        {
          "internalType": "uint256",
          "name": "",
          "type": "uint256"
        }
      ],
      "stateMutability": "view",
      "type": "function"
    },
    {
      "inputs": [],
      "name": "withdrawMaxStake",
      "outputs": [],
      "stateMutability": "nonpayable",
      "type": "function"
    },
    {
      "inputs": [
        {
          "internalType": "uint256",
          "name": "requested",
          "type": "uint256"
        }
      ],
      "name": "withdrawStake",
      "outputs": [],
      "stateMutability": "nonpayable",
      "type": "function"
    }
  ],
  "args": [],
  "numDeployments": 1,
  "solcInputHash": "8c8230d47e68c9e0acc10afb2408a0dc",
  "bytecode": "0x608060405234801561001057600080fd5b506001600b5561189e806100256000396000f3fe608060405234801561001057600080fd5b50600436106100a35760003560e01c80633540ce08116100765780634e8240331161005b5780634e82403314610135578063bce1b5201461013d578063cb82cc8f1461015057600080fd5b80633540ce081461011a5780633d9c055b1461012257600080fd5b80630e1b864f146100a857806315c6b078146100d157806316765391146100f257806325d5971f14610105575b600080fd5b6100bb6100b6366004611618565b610163565b6040516100c89190611641565b60405180910390f35b6100e46100df366004611618565b61018d565b6040519081526020016100c8565b6100e4610100366004611618565b6101b8565b610118610113366004611690565b6101d9565b005b610118610201565b6100e4610130366004611618565b610223565b61011861024e565b61011861014b366004611690565b610270565b61011861015e366004611690565b610299565b6001600160a01b0381166000908152600760205260409020606090610187906102be565b92915050565b6001600160a01b0381166000908152600760205260408120610187906101b2336102c9565b90610320565b6001600160a01b03811660009081526007602052604081206101879061033c565b3360008181526007602052604090206101fe9183906101f7906102c9565b9190610346565b50565b3360008181526007602052604090206101fe9161021d906102c9565b90610356565b6001600160a01b038116600090815260076020526040812061018790610248336102c9565b90610394565b3360008181526007602052604090206101fe9161026a906102c9565b906103a9565b33600081815260076020526040902061029591839061028e906102c9565b91906103c9565b5050565b3360008181526007602052604090206101fe9183906102b7906102c9565b91906103ea565b606061018782610441565b6040805160608101825260008082526020820181905291810191909152604080516060810182526001600160a01b038085168252600054620100009004166020820152908101610318846104fb565b905292915050565b600061033561032e846105ca565b83906105d6565b9392505050565b6000610187825490565b6103518383836105ee565b505050565b60008061036c610365856105ca565b8490610662565b905080156103355761038981610381866105ca565b85919061071f565b610335838242610938565b60006103356103a2846105ca565b8390610662565b6000806103b68484610394565b90508015610335576103358484836105ee565b60006103d882610381866105ca565b6103e3838342610938565b5092915050565b6103f683838342610943565b8251604080516001600160a01b039092168252602082018390527f7139450dd757152fecf84363c06fd6e67f35bcfcf09b93c4404aebd43518c69991015b60405180910390a1505050565b6060600061044e8361096c565b67ffffffffffffffff811115610466576104666116a9565b6040519080825280602002602001820160405280156104ab57816020015b60408051808201909152600080825260208201528152602001906001900390816104845790505b50905060005b6104ba8461096c565b8110156103e3576104cb8482610989565b8282815181106104dd576104dd6116bf565b602002602001018190525080806104f3906116eb565b9150506104b1565b6000808061050960046109d1565b905060005b81518161ffff1610156105c15742828261ffff1681518110610532576105326116bf565b6020026020010151606001511015610549576105af565b600061059f838361ffff1681518110610564576105646116bf565b602090810291909101810151516001600160a01b038916600090815260038352604080822061ffff9093168252600190920190925290205490565b9050838111156105ad578093505b505b806105b981611706565b91505061050e565b50909392505050565b60006101878242610b1c565b60006105e28383610662565b83546103359190611728565b610603816105fb856105ca565b84919061071f565b82516020840151610620916001600160a01b039091169083610b2c565b8251604080516001600160a01b039092168252602082018390527f373d92bf7d9cdd58a8c86db5461f3cdcd325b803fdbac8d1b224a0f5fce847b89101610434565b60006106808360010154600f81810b600160801b909204900b131590565b1561068d57506000610187565b60005b6001840154600f81810b600160801b909204900b038110156103e35760006106bb6001860183610bd5565b9050838111610706576003850160006106d76001880185610bd5565b815260200190815260200160002054836106f1919061173f565b92508381141561070157506103e3565b61070c565b506103e3565b5080610717816116eb565b915050610690565b6000821161079a5760405162461bcd60e51b815260206004820152602260248201527f4f7264657265645374616b654c69623a204e6f7468696e67205265717565737460448201527f656400000000000000000000000000000000000000000000000000000000000060648201526084015b60405180910390fd5b82548211156108115760405162461bcd60e51b815260206004820152602360248201527f4f7264657265645374616b654c69623a204e4f545f454e4f5547485f42414c4160448201527f4e434500000000000000000000000000000000000000000000000000000000006064820152608401610791565b60005b8281101561093257600061082785610c75565b9050828160000151116108be5783828260200151610845919061173f565b141561086157602081015161085a908361173f565b915061092c565b83828260200151610872919061173f565b11156108af5760008483836020015161088b919061173f565b6108959190611728565b90506108a686828460000151610cd4565b8492505061092c565b602081015161085a908361173f565b60405162461bcd60e51b815260206004820152602f60248201527f4f7264657265645374616b654c69623a204e4f545f454e4f554748545f554e4c60448201527f4f434b41424c455f42414c414e434500000000000000000000000000000000006064820152608401610791565b50610814565b50505050565b610351838383610d6c565b61094e838383610938565b83516020850151610932916001600160a01b03909116903085610e3a565b60006101878260010154600f81810b600160801b909204900b0390565b604080518082019091526000808252602082015260006109ac6001850184610bd5565b8083526000908152600390940160209081526040909420549382019390935292915050565b606060006109de83610e8b565b90506000815167ffffffffffffffff8111156109fc576109fc6116a9565b604051908082528060200260200182016040528015610a5557816020015b6040805160a081018252600080825260208083018290529282018190526060820181905260808201528252600019909201910181610a1a5790505b50905060005b8251811015610b1457846002016000848381518110610a7c57610a7c6116bf565b6020908102919091018101518252818101929092526040908101600020815160a081018352815461ffff8116825260ff6201000090910481161515948201949094526001820154928101929092526002810154606083015260030154909116151560808201528251839083908110610af657610af66116bf565b60200260200101819052508080610b0c906116eb565b915050610a5b565b509392505050565b60006103356301e1338083611728565b6040516001600160a01b0383166024820152604481018290526103519084907fa9059cbb00000000000000000000000000000000000000000000000000000000906064015b60408051601f198184030181529190526020810180517bffffffffffffffffffffffffffffffffffffffffffffffffffffffff167fffffffff0000000000000000000000000000000000000000000000000000000090931692909217909152610e96565b600080610bf8610be484610f7b565b8554610bf39190600f0b611757565b611017565b8454909150600160801b9004600f90810b9082900b12610c5a5760405162461bcd60e51b815260206004820152600b60248201527f4f75744f66426f756e64730000000000000000000000000000000000000000006044820152606401610791565b600f0b60009081526001939093016020525050604090205490565b60408051808201909152600080825260208201526000610c97836001016110cb565b6000818152600385016020526040812080549082905585549293509182918691610cc2908490611728565b90915550509082526020820152919050565b80610d3d60018501828154600f90810b600019019081900b600090815260018401602052604090209190915581547fffffffffffffffffffffffffffffffff00000000000000000000000000000000166fffffffffffffffffffffffffffffffff909116179055565b60008181526003850160205260408120849055845484918691610d6190849061173f565b909155505050505050565b6001830154600f81810b600160801b909204900b13610d9057610351838383611179565b6000610d9e8460010161124c565b905081811015610db857610db3848484611179565b610932565b81811415610dcb57610db38484846112c6565b6000610dd985600101611384565b9050610de6858585610d6c565b610e3360018601828154600160801b90819004600f0b6000818152600180860160205260409091209390935583546fffffffffffffffffffffffffffffffff908116939091011602179055565b5050505050565b6040516001600160a01b03808516602483015283166044820152606481018290526109329085907f23b872dd0000000000000000000000000000000000000000000000000000000090608401610b71565b606061018782611424565b6000610eeb826040518060400160405280602081526020017f5361666545524332303a206c6f772d6c6576656c2063616c6c206661696c6564815250856001600160a01b03166114809092919063ffffffff16565b8051909150156103515780806020019051810190610f0991906117cb565b6103515760405162461bcd60e51b815260206004820152602a60248201527f5361666545524332303a204552433230206f7065726174696f6e20646964206e60448201527f6f742073756363656564000000000000000000000000000000000000000000006064820152608401610791565b60007f7fffffffffffffffffffffffffffffffffffffffffffffffffffffffffffffff8211156110135760405162461bcd60e51b815260206004820152602860248201527f53616665436173743a2076616c756520646f65736e27742066697420696e206160448201527f6e20696e743235360000000000000000000000000000000000000000000000006064820152608401610791565b5090565b60007fffffffffffffffffffffffffffffffff80000000000000000000000000000000821280159061105957506f7fffffffffffffffffffffffffffffff8213155b6110135760405162461bcd60e51b815260206004820152602760248201527f53616665436173743a2076616c756520646f65736e27742066697420696e203160448201527f32382062697473000000000000000000000000000000000000000000000000006064820152608401610791565b60006110e68254600f81810b600160801b909204900b131590565b1561111b5760405162461bcd60e51b8152602060048201526005602482015264456d70747960d81b6044820152606401610791565b508054600f0b6000818152600180840160205260408220805492905583547fffffffffffffffffffffffffffffffff000000000000000000000000000000001692016fffffffffffffffffffffffffffffffff169190911790915590565b60008181526003840160205260409020548190156111ff5760405162461bcd60e51b815260206004820152602c60248201527f4f7264657265645374616b654c69623a2043414e204e4f54204f56455252494460448201527f452054494d455354414d505300000000000000000000000000000000000000006064820152608401610791565b610d3d60018501828154600160801b90819004600f0b6000818152600180860160205260409091209390935583546fffffffffffffffffffffffffffffffff908116939091011602179055565b60006112678254600f81810b600160801b909204900b131590565b1561129c5760405162461bcd60e51b8152602060048201526005602482015264456d70747960d81b6044820152606401610791565b508054600160801b9004600f90810b60001901900b60009081526001909101602052604090205490565b6000818152600384016020526040902054819061134b5760405162461bcd60e51b815260206004820152602760248201527f4f7264657265645374616b654c69623a20547279696e6720746f20757064617460448201527f6520656d707479000000000000000000000000000000000000000000000000006064820152608401610791565b60008181526003850160205260408120805485929061136b90849061173f565b9091555050835483908590600090610d6190849061173f565b600061139f8254600f81810b600160801b909204900b131590565b156113d45760405162461bcd60e51b8152602060048201526005602482015264456d70747960d81b6044820152606401610791565b508054600160801b90819004600f90810b600019019081900b60009081526001840160205260408120805491905583546fffffffffffffffffffffffffffffffff90811692169092021790915590565b60608160000180548060200260200160405190810160405280929190818152602001828054801561147457602002820191906000526020600020905b815481526020019060010190808311611460575b50505050509050919050565b606061148f8484600085611497565b949350505050565b60608247101561150f5760405162461bcd60e51b815260206004820152602660248201527f416464726573733a20696e73756666696369656e742062616c616e636520666f60448201527f722063616c6c00000000000000000000000000000000000000000000000000006064820152608401610791565b6001600160a01b0385163b6115665760405162461bcd60e51b815260206004820152601d60248201527f416464726573733a2063616c6c20746f206e6f6e2d636f6e74726163740000006044820152606401610791565b600080866001600160a01b031685876040516115829190611819565b60006040518083038185875af1925050503d80600081146115bf576040519150601f19603f3d011682016040523d82523d6000602084013e6115c4565b606091505b50915091506115d48282866115df565b979650505050505050565b606083156115ee575081610335565b8251156115fe5782518084602001fd5b8160405162461bcd60e51b81526004016107919190611835565b60006020828403121561162a57600080fd5b81356001600160a01b038116811461033557600080fd5b602080825282518282018190526000919060409081850190868401855b828110156116835781518051855286015186850152928401929085019060010161165e565b5091979650505050505050565b6000602082840312156116a257600080fd5b5035919050565b634e487b7160e01b600052604160045260246000fd5b634e487b7160e01b600052603260045260246000fd5b634e487b7160e01b600052601160045260246000fd5b60006000198214156116ff576116ff6116d5565b5060010190565b600061ffff8083168181141561171e5761171e6116d5565b6001019392505050565b60008282101561173a5761173a6116d5565b500390565b60008219821115611752576117526116d5565b500190565b6000808212827f7fffffffffffffffffffffffffffffffffffffffffffffffffffffffffffffff03841381151615611791576117916116d5565b827f80000000000000000000000000000000000000000000000000000000000000000384128116156117c5576117c56116d5565b50500190565b6000602082840312156117dd57600080fd5b8151801515811461033557600080fd5b60005b838110156118085781810151838201526020016117f0565b838111156109325750506000910152565b6000825161182b8184602087016117ed565b9190910192915050565b60208152600082518060208401526118548160408501602087016117ed565b601f01601f1916919091016040019291505056fea2646970667358221220f2429c9d1196e92e45a0e856d876f6454b16867e70b6c1700ed0f9c3317824db64736f6c63430008090033",
  "devdoc": {
    "kind": "dev",
    "methods": {},
    "version": 1
  },
  "userdoc": {
    "kind": "user",
    "methods": {},
    "version": 1
  },
  "storageLayout": {
    "storage": [
      {
        "astId": 16047,
        "contract": "src/diamond/facets/StakingFacet.sol:StakingFacet",
        "label": "s",
        "offset": 0,
        "slot": "0",
        "type": "t_struct(AppStorage)16015_storage"
      },
      {
        "astId": 3446,
        "contract": "src/diamond/facets/StakingFacet.sol:StakingFacet",
        "label": "_status",
        "offset": 0,
        "slot": "11",
        "type": "t_uint256"
      }
    ],
    "types": {
      "t_address": {
        "encoding": "inplace",
        "label": "address",
        "numberOfBytes": "20"
      },
      "t_array(t_bytes32)dyn_storage": {
        "base": "t_bytes32",
        "encoding": "dynamic_array",
        "label": "bytes32[]",
        "numberOfBytes": "32"
      },
      "t_bool": {
        "encoding": "inplace",
        "label": "bool",
        "numberOfBytes": "1"
      },
      "t_bytes32": {
        "encoding": "inplace",
        "label": "bytes32",
        "numberOfBytes": "32"
      },
      "t_contract(IERC20)4139": {
        "encoding": "inplace",
        "label": "contract IERC20",
        "numberOfBytes": "20"
      },
      "t_enum(BookingStatus)16314": {
        "encoding": "inplace",
        "label": "enum BookingMapLib.BookingStatus",
        "numberOfBytes": "1"
      },
      "t_int128": {
        "encoding": "inplace",
        "label": "int128",
        "numberOfBytes": "16"
      },
      "t_mapping(t_address,t_bool)": {
        "encoding": "mapping",
        "key": "t_address",
        "label": "mapping(address => bool)",
        "numberOfBytes": "32",
        "value": "t_bool"
      },
      "t_mapping(t_address,t_struct(Store)17340_storage)": {
        "encoding": "mapping",
        "key": "t_address",
        "label": "mapping(address => struct OrderedStakeLib.Store)",
        "numberOfBytes": "32",
        "value": "t_struct(Store)17340_storage"
      },
      "t_mapping(t_address,t_struct(UserStore)16349_storage)": {
        "encoding": "mapping",
        "key": "t_address",
        "label": "mapping(address => struct BookingMapLib.UserStore)",
        "numberOfBytes": "32",
        "value": "t_struct(UserStore)16349_storage"
      },
      "t_mapping(t_bytes32,t_bytes32)": {
        "encoding": "mapping",
        "key": "t_bytes32",
        "label": "mapping(bytes32 => bytes32)",
        "numberOfBytes": "32",
        "value": "t_bytes32"
      },
      "t_mapping(t_bytes32,t_struct(AddressSet)9466_storage)": {
        "encoding": "mapping",
        "key": "t_bytes32",
        "label": "mapping(bytes32 => struct EnumerableSet.AddressSet)",
        "numberOfBytes": "32",
        "value": "t_struct(AddressSet)9466_storage"
      },
      "t_mapping(t_bytes32,t_struct(Booking)16326_storage)": {
        "encoding": "mapping",
        "key": "t_bytes32",
        "label": "mapping(bytes32 => struct BookingMapLib.Booking)",
        "numberOfBytes": "32",
        "value": "t_struct(Booking)16326_storage"
      },
      "t_mapping(t_bytes32,t_struct(RoleData)15622_storage)": {
        "encoding": "mapping",
        "key": "t_bytes32",
        "label": "mapping(bytes32 => struct AccessControlLib.RoleData)",
        "numberOfBytes": "32",
        "value": "t_struct(RoleData)15622_storage"
      },
      "t_mapping(t_bytes32,t_struct(Year)16360_storage)": {
        "encoding": "mapping",
        "key": "t_bytes32",
        "label": "mapping(bytes32 => struct BookingMapLib.Year)",
        "numberOfBytes": "32",
        "value": "t_struct(Year)16360_storage"
      },
      "t_mapping(t_bytes32,t_uint256)": {
        "encoding": "mapping",
        "key": "t_bytes32",
        "label": "mapping(bytes32 => uint256)",
        "numberOfBytes": "32",
        "value": "t_uint256"
      },
      "t_mapping(t_int128,t_bytes32)": {
        "encoding": "mapping",
        "key": "t_int128",
        "label": "mapping(int128 => bytes32)",
        "numberOfBytes": "32",
        "value": "t_bytes32"
      },
      "t_mapping(t_uint16,t_struct(Bytes32ToUintMap)8971_storage)": {
        "encoding": "mapping",
        "key": "t_uint16",
        "label": "mapping(uint16 => struct EnumerableMap.Bytes32ToUintMap)",
        "numberOfBytes": "32",
        "value": "t_struct(Bytes32ToUintMap)8971_storage"
      },
      "t_mapping(t_uint16,t_uint16)": {
        "encoding": "mapping",
        "key": "t_uint16",
        "label": "mapping(uint16 => uint16)",
        "numberOfBytes": "32",
        "value": "t_uint16"
      },
      "t_mapping(t_uint16,t_uint256)": {
        "encoding": "mapping",
        "key": "t_uint16",
        "label": "mapping(uint16 => uint256)",
        "numberOfBytes": "32",
        "value": "t_uint256"
      },
      "t_struct(AddressSet)9466_storage": {
        "encoding": "inplace",
        "label": "struct EnumerableSet.AddressSet",
        "members": [
          {
            "astId": 9465,
            "contract": "src/diamond/facets/StakingFacet.sol:StakingFacet",
            "label": "_inner",
            "offset": 0,
            "slot": "0",
            "type": "t_struct(Set)9165_storage"
          }
        ],
        "numberOfBytes": "64"
      },
      "t_struct(AppStorage)16015_storage": {
        "encoding": "inplace",
        "label": "struct AppStorage",
        "members": [
          {
            "astId": 15988,
            "contract": "src/diamond/facets/StakingFacet.sol:StakingFacet",
            "label": "initialized",
            "offset": 0,
            "slot": "0",
            "type": "t_bool"
          },
          {
            "astId": 15990,
            "contract": "src/diamond/facets/StakingFacet.sol:StakingFacet",
            "label": "paused",
            "offset": 1,
            "slot": "0",
            "type": "t_bool"
          },
          {
            "astId": 15993,
            "contract": "src/diamond/facets/StakingFacet.sol:StakingFacet",
            "label": "communityToken",
            "offset": 2,
            "slot": "0",
            "type": "t_contract(IERC20)4139"
          },
          {
            "astId": 15996,
            "contract": "src/diamond/facets/StakingFacet.sol:StakingFacet",
            "label": "_roleStore",
            "offset": 0,
            "slot": "1",
            "type": "t_struct(RoleStore)15633_storage"
          },
          {
            "astId": 16001,
            "contract": "src/diamond/facets/StakingFacet.sol:StakingFacet",
            "label": "_accommodationBookings",
            "offset": 0,
            "slot": "3",
            "type": "t_mapping(t_address,t_struct(UserStore)16349_storage)"
          },
          {
            "astId": 16004,
            "contract": "src/diamond/facets/StakingFacet.sol:StakingFacet",
            "label": "_accommodationYears",
            "offset": 0,
            "slot": "4",
            "type": "t_struct(YearsStore)16369_storage"
          },
          {
            "astId": 16009,
            "contract": "src/diamond/facets/StakingFacet.sol:StakingFacet",
            "label": "staking",
            "offset": 0,
            "slot": "7",
            "type": "t_mapping(t_address,t_struct(Store)17340_storage)"
          },
          {
            "astId": 16012,
            "contract": "src/diamond/facets/StakingFacet.sol:StakingFacet",
            "label": "members",
            "offset": 0,
            "slot": "8",
            "type": "t_struct(Store)17214_storage"
          },
          {
            "astId": 16014,
            "contract": "src/diamond/facets/StakingFacet.sol:StakingFacet",
            "label": "tdfTreasury",
            "offset": 0,
            "slot": "10",
            "type": "t_address"
          }
        ],
        "numberOfBytes": "352"
      },
      "t_struct(Booking)16326_storage": {
        "encoding": "inplace",
        "label": "struct BookingMapLib.Booking",
        "members": [
          {
            "astId": 16317,
            "contract": "src/diamond/facets/StakingFacet.sol:StakingFacet",
            "label": "status",
            "offset": 0,
            "slot": "0",
            "type": "t_enum(BookingStatus)16314"
          },
          {
            "astId": 16319,
            "contract": "src/diamond/facets/StakingFacet.sol:StakingFacet",
            "label": "year",
            "offset": 1,
            "slot": "0",
            "type": "t_uint16"
          },
          {
            "astId": 16321,
            "contract": "src/diamond/facets/StakingFacet.sol:StakingFacet",
            "label": "dayOfYear",
            "offset": 3,
            "slot": "0",
            "type": "t_uint16"
          },
          {
            "astId": 16323,
            "contract": "src/diamond/facets/StakingFacet.sol:StakingFacet",
            "label": "price",
            "offset": 0,
            "slot": "1",
            "type": "t_uint256"
          },
          {
            "astId": 16325,
            "contract": "src/diamond/facets/StakingFacet.sol:StakingFacet",
            "label": "timestamp",
            "offset": 0,
            "slot": "2",
            "type": "t_uint256"
          }
        ],
        "numberOfBytes": "96"
      },
      "t_struct(Bytes32Deque)13582_storage": {
        "encoding": "inplace",
        "label": "struct CustomDoubleEndedQueue.Bytes32Deque",
        "members": [
          {
            "astId": 13575,
            "contract": "src/diamond/facets/StakingFacet.sol:StakingFacet",
            "label": "_begin",
            "offset": 0,
            "slot": "0",
            "type": "t_int128"
          },
          {
            "astId": 13577,
            "contract": "src/diamond/facets/StakingFacet.sol:StakingFacet",
            "label": "_end",
            "offset": 16,
            "slot": "0",
            "type": "t_int128"
          },
          {
            "astId": 13581,
            "contract": "src/diamond/facets/StakingFacet.sol:StakingFacet",
            "label": "_data",
            "offset": 0,
            "slot": "1",
            "type": "t_mapping(t_int128,t_bytes32)"
          }
        ],
        "numberOfBytes": "64"
      },
      "t_struct(Bytes32Set)9359_storage": {
        "encoding": "inplace",
        "label": "struct EnumerableSet.Bytes32Set",
        "members": [
          {
            "astId": 9358,
            "contract": "src/diamond/facets/StakingFacet.sol:StakingFacet",
            "label": "_inner",
            "offset": 0,
            "slot": "0",
            "type": "t_struct(Set)9165_storage"
          }
        ],
        "numberOfBytes": "64"
      },
      "t_struct(Bytes32ToBytes32Map)8048_storage": {
        "encoding": "inplace",
        "label": "struct EnumerableMap.Bytes32ToBytes32Map",
        "members": [
          {
            "astId": 8043,
            "contract": "src/diamond/facets/StakingFacet.sol:StakingFacet",
            "label": "_keys",
            "offset": 0,
            "slot": "0",
            "type": "t_struct(Bytes32Set)9359_storage"
          },
          {
            "astId": 8047,
            "contract": "src/diamond/facets/StakingFacet.sol:StakingFacet",
            "label": "_values",
            "offset": 0,
            "slot": "2",
            "type": "t_mapping(t_bytes32,t_bytes32)"
          }
        ],
        "numberOfBytes": "96"
      },
      "t_struct(Bytes32ToUintMap)8971_storage": {
        "encoding": "inplace",
        "label": "struct EnumerableMap.Bytes32ToUintMap",
        "members": [
          {
            "astId": 8970,
            "contract": "src/diamond/facets/StakingFacet.sol:StakingFacet",
            "label": "_inner",
            "offset": 0,
            "slot": "0",
            "type": "t_struct(Bytes32ToBytes32Map)8048_storage"
          }
        ],
        "numberOfBytes": "96"
      },
      "t_struct(RoleData)15622_storage": {
        "encoding": "inplace",
        "label": "struct AccessControlLib.RoleData",
        "members": [
          {
            "astId": 15619,
            "contract": "src/diamond/facets/StakingFacet.sol:StakingFacet",
            "label": "members",
            "offset": 0,
            "slot": "0",
            "type": "t_mapping(t_address,t_bool)"
          },
          {
            "astId": 15621,
            "contract": "src/diamond/facets/StakingFacet.sol:StakingFacet",
            "label": "adminRole",
            "offset": 0,
            "slot": "1",
            "type": "t_bytes32"
          }
        ],
        "numberOfBytes": "64"
      },
      "t_struct(RoleStore)15633_storage": {
        "encoding": "inplace",
        "label": "struct AccessControlLib.RoleStore",
        "members": [
          {
            "astId": 15627,
            "contract": "src/diamond/facets/StakingFacet.sol:StakingFacet",
            "label": "_roles",
            "offset": 0,
            "slot": "0",
            "type": "t_mapping(t_bytes32,t_struct(RoleData)15622_storage)"
          },
          {
            "astId": 15632,
            "contract": "src/diamond/facets/StakingFacet.sol:StakingFacet",
            "label": "_roleMembers",
            "offset": 0,
            "slot": "1",
            "type": "t_mapping(t_bytes32,t_struct(AddressSet)9466_storage)"
          }
        ],
        "numberOfBytes": "64"
      },
      "t_struct(Set)9165_storage": {
        "encoding": "inplace",
        "label": "struct EnumerableSet.Set",
        "members": [
          {
            "astId": 9160,
            "contract": "src/diamond/facets/StakingFacet.sol:StakingFacet",
            "label": "_values",
            "offset": 0,
            "slot": "0",
            "type": "t_array(t_bytes32)dyn_storage"
          },
          {
            "astId": 9164,
            "contract": "src/diamond/facets/StakingFacet.sol:StakingFacet",
            "label": "_indexes",
            "offset": 0,
            "slot": "1",
            "type": "t_mapping(t_bytes32,t_uint256)"
          }
        ],
        "numberOfBytes": "64"
      },
      "t_struct(Store)17214_storage": {
        "encoding": "inplace",
        "label": "struct MembershipLib.Store",
        "members": [
          {
            "astId": 17213,
            "contract": "src/diamond/facets/StakingFacet.sol:StakingFacet",
            "label": "_inner",
            "offset": 0,
            "slot": "0",
            "type": "t_struct(AddressSet)9466_storage"
          }
        ],
        "numberOfBytes": "64"
      },
      "t_struct(Store)17340_storage": {
        "encoding": "inplace",
        "label": "struct OrderedStakeLib.Store",
        "members": [
          {
            "astId": 17332,
            "contract": "src/diamond/facets/StakingFacet.sol:StakingFacet",
            "label": "_balance",
            "offset": 0,
            "slot": "0",
            "type": "t_uint256"
          },
          {
            "astId": 17335,
            "contract": "src/diamond/facets/StakingFacet.sol:StakingFacet",
            "label": "_queue",
            "offset": 0,
            "slot": "1",
            "type": "t_struct(Bytes32Deque)13582_storage"
          },
          {
            "astId": 17339,
            "contract": "src/diamond/facets/StakingFacet.sol:StakingFacet",
            "label": "_amounts",
            "offset": 0,
            "slot": "3",
            "type": "t_mapping(t_bytes32,t_uint256)"
          }
        ],
        "numberOfBytes": "128"
      },
      "t_struct(UserStore)16349_storage": {
        "encoding": "inplace",
        "label": "struct BookingMapLib.UserStore",
        "members": [
          {
            "astId": 16330,
            "contract": "src/diamond/facets/StakingFacet.sol:StakingFacet",
            "label": "nights",
            "offset": 0,
            "slot": "0",
            "type": "t_mapping(t_uint16,t_uint16)"
          },
          {
            "astId": 16334,
            "contract": "src/diamond/facets/StakingFacet.sol:StakingFacet",
            "label": "balance",
            "offset": 0,
            "slot": "1",
            "type": "t_mapping(t_uint16,t_uint256)"
          },
          {
            "astId": 16339,
            "contract": "src/diamond/facets/StakingFacet.sol:StakingFacet",
            "label": "dates",
            "offset": 0,
            "slot": "2",
            "type": "t_mapping(t_uint16,t_struct(Bytes32ToUintMap)8971_storage)"
          },
          {
            "astId": 16344,
            "contract": "src/diamond/facets/StakingFacet.sol:StakingFacet",
            "label": "bookings",
            "offset": 0,
            "slot": "3",
            "type": "t_mapping(t_bytes32,t_struct(Booking)16326_storage)"
          },
          {
            "astId": 16348,
            "contract": "src/diamond/facets/StakingFacet.sol:StakingFacet",
            "label": "checkedInNights",
            "offset": 0,
            "slot": "4",
            "type": "t_mapping(t_uint16,t_uint16)"
          }
        ],
        "numberOfBytes": "160"
      },
      "t_struct(Year)16360_storage": {
        "encoding": "inplace",
        "label": "struct BookingMapLib.Year",
        "members": [
          {
            "astId": 16351,
            "contract": "src/diamond/facets/StakingFacet.sol:StakingFacet",
            "label": "number",
            "offset": 0,
            "slot": "0",
            "type": "t_uint16"
          },
          {
            "astId": 16353,
            "contract": "src/diamond/facets/StakingFacet.sol:StakingFacet",
            "label": "leapYear",
            "offset": 2,
            "slot": "0",
            "type": "t_bool"
          },
          {
            "astId": 16355,
            "contract": "src/diamond/facets/StakingFacet.sol:StakingFacet",
            "label": "start",
            "offset": 0,
            "slot": "1",
            "type": "t_uint256"
          },
          {
            "astId": 16357,
            "contract": "src/diamond/facets/StakingFacet.sol:StakingFacet",
            "label": "end",
            "offset": 0,
            "slot": "2",
            "type": "t_uint256"
          },
          {
            "astId": 16359,
            "contract": "src/diamond/facets/StakingFacet.sol:StakingFacet",
            "label": "enabled",
            "offset": 0,
            "slot": "3",
            "type": "t_bool"
          }
        ],
        "numberOfBytes": "128"
      },
      "t_struct(YearsStore)16369_storage": {
        "encoding": "inplace",
        "label": "struct BookingMapLib.YearsStore",
        "members": [
          {
            "astId": 16363,
            "contract": "src/diamond/facets/StakingFacet.sol:StakingFacet",
            "label": "_inner",
            "offset": 0,
            "slot": "0",
            "type": "t_struct(Bytes32Set)9359_storage"
          },
          {
            "astId": 16368,
            "contract": "src/diamond/facets/StakingFacet.sol:StakingFacet",
            "label": "elems",
            "offset": 0,
            "slot": "2",
            "type": "t_mapping(t_bytes32,t_struct(Year)16360_storage)"
          }
        ],
        "numberOfBytes": "96"
      },
      "t_uint16": {
        "encoding": "inplace",
        "label": "uint16",
        "numberOfBytes": "2"
      },
      "t_uint256": {
        "encoding": "inplace",
        "label": "uint256",
        "numberOfBytes": "32"
      }
    }
  }
}