{
  "address": "0x13e879B82E28BF5B614E8d138d7CB1077033673e",
  "abi": [
    {
      "inputs": [
        {
          "internalType": "contract IERC20",
          "name": "_token",
          "type": "address"
        },
        {
          "internalType": "uint256",
          "name": "daysLocked",
          "type": "uint256"
        }
      ],
      "stateMutability": "nonpayable",
      "type": "constructor"
    },
    {
      "anonymous": false,
      "inputs": [
        {
          "indexed": false,
          "internalType": "address",
          "name": "account",
          "type": "address"
        },
        {
          "indexed": false,
          "internalType": "uint256",
          "name": "amount",
          "type": "uint256"
        }
      ],
      "name": "DepositedTokens",
      "type": "event"
    },
    {
      "anonymous": false,
      "inputs": [
        {
          "indexed": false,
          "internalType": "address",
          "name": "account",
          "type": "address"
        },
        {
          "indexed": false,
          "internalType": "uint256",
          "name": "amount",
          "type": "uint256"
        }
      ],
      "name": "WithdrawnTokens",
      "type": "event"
    },
    {
      "inputs": [
        {
          "internalType": "address",
          "name": "account",
          "type": "address"
        }
      ],
      "name": "balanceOf",
      "outputs": [
        {
          "internalType": "uint256",
          "name": "",
          "type": "uint256"
        }
      ],
      "stateMutability": "view",
      "type": "function"
    },
    {
      "inputs": [
        {
          "internalType": "uint256",
          "name": "amount",
          "type": "uint256"
        }
      ],
      "name": "deposit",
      "outputs": [],
      "stateMutability": "nonpayable",
      "type": "function"
    },
    {
      "inputs": [
        {
          "internalType": "address",
          "name": "account",
          "type": "address"
        }
      ],
      "name": "depositsFor",
      "outputs": [
        {
          "components": [
            {
              "internalType": "uint256",
              "name": "timestamp",
              "type": "uint256"
            },
            {
              "internalType": "uint256",
              "name": "amount",
              "type": "uint256"
            }
          ],
          "internalType": "struct TokenLock.Deposit[]",
          "name": "",
          "type": "tuple[]"
        }
      ],
      "stateMutability": "view",
      "type": "function"
    },
    {
      "inputs": [
        {
          "internalType": "address",
          "name": "account",
          "type": "address"
        }
      ],
      "name": "lockedAmount",
      "outputs": [
        {
          "internalType": "uint256",
          "name": "",
          "type": "uint256"
        }
      ],
      "stateMutability": "view",
      "type": "function"
    },
    {
      "inputs": [],
      "name": "lockingPeriod",
      "outputs": [
        {
          "internalType": "uint256",
          "name": "",
          "type": "uint256"
        }
      ],
      "stateMutability": "view",
      "type": "function"
    },
    {
      "inputs": [
        {
          "internalType": "uint256",
          "name": "requestedAmount",
          "type": "uint256"
        }
      ],
      "name": "restake",
      "outputs": [],
      "stateMutability": "nonpayable",
      "type": "function"
    },
    {
      "inputs": [],
      "name": "restakeMax",
      "outputs": [],
      "stateMutability": "nonpayable",
      "type": "function"
    },
    {
      "inputs": [
        {
          "internalType": "address",
          "name": "account",
          "type": "address"
        },
        {
          "internalType": "uint256",
          "name": "amount",
          "type": "uint256"
        },
        {
          "internalType": "uint256",
          "name": "initLockingTm",
          "type": "uint256"
        }
      ],
      "name": "restakeOrDepositAtFor",
      "outputs": [],
      "stateMutability": "nonpayable",
      "type": "function"
    },
    {
      "inputs": [],
      "name": "token",
      "outputs": [
        {
          "internalType": "contract IERC20",
          "name": "",
          "type": "address"
        }
      ],
      "stateMutability": "view",
      "type": "function"
    },
    {
      "inputs": [
        {
          "internalType": "address",
          "name": "account",
          "type": "address"
        }
      ],
      "name": "unlockedAmount",
      "outputs": [
        {
          "internalType": "uint256",
          "name": "",
          "type": "uint256"
        }
      ],
      "stateMutability": "view",
      "type": "function"
    },
    {
      "inputs": [
        {
          "internalType": "uint256",
          "name": "requested",
          "type": "uint256"
        }
      ],
      "name": "withdraw",
      "outputs": [
        {
          "internalType": "uint256",
          "name": "",
          "type": "uint256"
        }
      ],
      "stateMutability": "nonpayable",
      "type": "function"
    },
    {
      "inputs": [],
      "name": "withdrawMax",
      "outputs": [
        {
          "internalType": "uint256",
          "name": "",
          "type": "uint256"
        }
      ],
      "stateMutability": "nonpayable",
      "type": "function"
    }
  ],
  "transactionHash": "0x6e6b8bfe20e23d98433cc72dc6c049d8a0672713a138482ff9e2ca7a56fae51d",
  "args": [
    "0xbB0Ab72644b05Af066b559d5c6dBc1Ac36A6c567",
    365
  ],
  "numDeployments": 1,
  "solcInputHash": "89a4b3e9b4b5981fe95e40da6e23e934",
  "bytecode": "0x60a060405234801561001057600080fd5b5060405161150638038061150683398101604081905261002f91610059565b60016000556001600160a01b03821660805261004e8162015180610093565b600355506100c09050565b6000806040838503121561006c57600080fd5b82516001600160a01b038116811461008357600080fd5b6020939093015192949293505050565b60008160001904831182151516156100bb57634e487b7160e01b600052601160045260246000fd5b500290565b6080516114166100f0600039600081816101a7015281816103f101528181610a920152610c6b01526114166000f3fe608060405234801561001057600080fd5b50600436106100d45760003560e01c8063a8988ce211610081578063e5cd8b6a1161005b578063e5cd8b6a1461019a578063fc0c546a146101a2578063fffac376146101e157600080fd5b8063a8988ce214610161578063b6b55f2514610174578063bce1b5201461018757600080fd5b806362233d3e116100b257806362233d3e1461011257806370a0823114610125578063a153e7081461014e57600080fd5b80632e1a7d4d146100d95780633540ce08146100ff578063550066d514610109575b600080fd5b6100ec6100e73660046111ac565b610201565b6040519081526020015b60405180910390f35b6101076102d7565b005b6100ec60035481565b6101076101203660046111e1565b610354565b6100ec610133366004611214565b6001600160a01b031660009081526001602052604090205490565b6100ec61015c366004611214565b610529565b6100ec61016f366004611214565b610567565b6101076101823660046111ac565b61057f565b6101076101953660046111ac565b61058a565b6100ec610653565b6101c97f000000000000000000000000000000000000000000000000000000000000000081565b6040516001600160a01b0390911681526020016100f6565b6101f46101ef366004611214565b6106cb565b6040516100f6919061122f565b336000908152600160205260408120548211156102655760405162461bcd60e51b815260206004820152601360248201527f4e4f545f454e4f554748545f42414c414e43450000000000000000000000000060448201526064015b60405180910390fd5b6000610272338442610754565b805190915083146102c55760405162461bcd60e51b815260206004820152601e60248201527f4e4f545f454e4f554748545f554e4c4f434b41424c455f42414c414e43450000604482015260640161025c565b6102d0335b826109bf565b5192915050565b336000908152600160205260409020546103335760405162461bcd60e51b815260206004820152601360248201527f4e4f545f454e4f554748545f42414c414e434500000000000000000000000000604482015260640161025c565b6000610343335b60001942610754565b9050610351335b8242610b03565b50565b428110156103a45760405162461bcd60e51b815260206004820152601b60248201527f556e61626c6520746f207374616b6520746f2074686520706173730000000000604482015260640161025c565b6001600160a01b038381166000818152600160205260408082205490517f70a0823100000000000000000000000000000000000000000000000000000000815260048101939093529290917f0000000000000000000000000000000000000000000000000000000000000000909116906370a082319060240160206040518083038186803b15801561043557600080fd5b505afa158015610449573d6000803e3d6000fd5b505050506040513d601f19601f8201168201806040525081019061046d919061127e565b90508361047a82846112ad565b10156104c85760405162461bcd60e51b815260206004820152601360248201527f4e4f545f454e4f554748545f42414c414e434500000000000000000000000000604482015260640161025c565b816104dd576104d8858585610bf5565b610522565b60006104ec8686600019610754565b90506104f9868286610b03565b805185111561052057805160009061051190876112c5565b905061051e878287610bf5565b505b505b5050505050565b6000806105398360001942610754565b80516001600160a01b038516600090815260016020526040902054919250610560916112c5565b9392505050565b6000806105778360001942610754565b519392505050565b610351338242610bf5565b336000908152600160205260409020546105e65760405162461bcd60e51b815260206004820152601360248201527f4e4f545f454e4f554748545f42414c414e434500000000000000000000000000604482015260640161025c565b60006105f3338342610754565b805190915082146106465760405162461bcd60e51b815260206004820152601e60248201527f4e4f545f454e4f554748545f554e4c4f434b41424c455f42414c414e43450000604482015260640161025c565b61064f3361034a565b5050565b336000908152600160205260408120546106af5760405162461bcd60e51b815260206004820152601360248201527f4e4f545f454e4f554748545f42414c414e434500000000000000000000000000604482015260640161025c565b60006106ba3361033a565b90506106c5336102ca565b51919050565b6001600160a01b0381166000908152600260209081526040808320805482518185028101850190935280835260609492939192909184015b8282101561074957838290600052602060002090600202016040518060400160405290816000820154815260200160018201548152505081526020019060010190610703565b505050509050919050565b61077860405180606001604052806000815260200160008152602001606081525090565b6001600160a01b038416600090815260026020908152604080832080548251818502810185019093528083529192909190849084015b828210156107f4578382906000526020600020906002020160405180604001604052908160008201548152602001600182015481525050815260200190600101906107ae565b505050509050600060405180606001604052806000815260200160008152602001600067ffffffffffffffff81111561082f5761082f6112dc565b60405190808252806020026020018201604052801561087457816020015b604080518082019091526000808252602082015281526020019060019003908161084d5790505b50905282519091506108895791506105609050565b60005b82518160ff1610156109b5576000838260ff16815181106108af576108af6112f2565b602002602001015190506108c38187610cda565b80156108cf5750600087115b156109745780602001518710156109455760008782602001516108f291906112c5565b6020830181905284519091508890859061090d9083906112ad565b9052506020840180518291906109249083906112ad565b90525060408401516109369083610cf8565b604085015250600096506109a2565b602081015161095490886112c5565b965080602001518360000181815161096c91906112ad565b9052506109a2565b80602001518360200181815161098a91906112ad565b905250604083015161099c9082610cf8565b60408401525b50806109ad81611308565b91505061088c565b5095945050505050565b80511561064f576001600160a01b03821660009081526002602052604081206109e791611171565b60005b816040015151811015610a68576001600160a01b0383166000908152600260205260409081902090830151805183908110610a2757610a276112f2565b602090810291909101810151825460018181018555600094855293839020825160029092020190815591015191015580610a6081611328565b9150506109ea565b506020808201516001600160a01b03808516600090815260019093526040909220558151610aba917f000000000000000000000000000000000000000000000000000000000000000016908490610def565b8051604080516001600160a01b038516815260208101929092527f373d92bf7d9cdd58a8c86db5461f3cdcd325b803fdbac8d1b224a0f5fce847b8910160405180910390a15050565b6001600160a01b0383166000908152600260205260408120610b2491611171565b60005b826040015151811015610ba5576001600160a01b0384166000908152600260205260409081902090840151805183908110610b6457610b646112f2565b602090810291909101810151825460018181018555600094855293839020825160029092020190815591015191015580610b9d81611328565b915050610b27565b506001600160a01b03909216600090815260026020818152604080842081518083019092529581529351848201908152855460018181018855968552919093209351910290920191825551910155565b6001600160a01b038316600081815260026020818152604080842081518083018352878152808401898152825460018181018555938852858820925196029091019485555193810193909355938352529081208054849290610c589084906112ad565b90915550610c9390506001600160a01b037f000000000000000000000000000000000000000000000000000000000000000016843085610e9d565b604080516001600160a01b0385168152602081018490527f7139450dd757152fecf84363c06fd6e67f35bcfcf09b93c4404aebd43518c699910160405180910390a1505050565b6000816003548460000151610cef91906112ad565b11159392505050565b81516060906000610d0a8260016112ad565b67ffffffffffffffff811115610d2257610d226112dc565b604051908082528060200260200182016040528015610d6757816020015b6040805180820190915260008082526020820152815260200190600190039081610d405790505b50905060005b828160ff161015610dc857858160ff1681518110610d8d57610d8d6112f2565b6020026020010151828260ff1681518110610daa57610daa6112f2565b60200260200101819052508080610dc090611308565b915050610d6d565b5083818381518110610ddc57610ddc6112f2565b6020908102919091010152949350505050565b6040516001600160a01b038316602482015260448101829052610e989084907fa9059cbb00000000000000000000000000000000000000000000000000000000906064015b60408051601f198184030181529190526020810180517bffffffffffffffffffffffffffffffffffffffffffffffffffffffff167fffffffff0000000000000000000000000000000000000000000000000000000090931692909217909152610ef4565b505050565b6040516001600160a01b0380851660248301528316604482015260648101829052610eee9085907f23b872dd0000000000000000000000000000000000000000000000000000000090608401610e34565b50505050565b6000610f49826040518060400160405280602081526020017f5361666545524332303a206c6f772d6c6576656c2063616c6c206661696c6564815250856001600160a01b0316610fd99092919063ffffffff16565b805190915015610e985780806020019051810190610f679190611343565b610e985760405162461bcd60e51b815260206004820152602a60248201527f5361666545524332303a204552433230206f7065726174696f6e20646964206e60448201527f6f74207375636365656400000000000000000000000000000000000000000000606482015260840161025c565b6060610fe88484600085610ff0565b949350505050565b6060824710156110685760405162461bcd60e51b815260206004820152602660248201527f416464726573733a20696e73756666696369656e742062616c616e636520666f60448201527f722063616c6c0000000000000000000000000000000000000000000000000000606482015260840161025c565b6001600160a01b0385163b6110bf5760405162461bcd60e51b815260206004820152601d60248201527f416464726573733a2063616c6c20746f206e6f6e2d636f6e7472616374000000604482015260640161025c565b600080866001600160a01b031685876040516110db9190611391565b60006040518083038185875af1925050503d8060008114611118576040519150601f19603f3d011682016040523d82523d6000602084013e61111d565b606091505b509150915061112d828286611138565b979650505050505050565b60608315611147575081610560565b8251156111575782518084602001fd5b8160405162461bcd60e51b815260040161025c91906113ad565b508054600082556002029060005260206000209081019061035191905b808211156111a8576000808255600182015560020161118e565b5090565b6000602082840312156111be57600080fd5b5035919050565b80356001600160a01b03811681146111dc57600080fd5b919050565b6000806000606084860312156111f657600080fd5b6111ff846111c5565b95602085013595506040909401359392505050565b60006020828403121561122657600080fd5b610560826111c5565b602080825282518282018190526000919060409081850190868401855b828110156112715781518051855286015186850152928401929085019060010161124c565b5091979650505050505050565b60006020828403121561129057600080fd5b5051919050565b634e487b7160e01b600052601160045260246000fd5b600082198211156112c0576112c0611297565b500190565b6000828210156112d7576112d7611297565b500390565b634e487b7160e01b600052604160045260246000fd5b634e487b7160e01b600052603260045260246000fd5b600060ff821660ff81141561131f5761131f611297565b60010192915050565b600060001982141561133c5761133c611297565b5060010190565b60006020828403121561135557600080fd5b8151801515811461056057600080fd5b60005b83811015611380578181015183820152602001611368565b83811115610eee5750506000910152565b600082516113a3818460208701611365565b9190910192915050565b60208152600082518060208401526113cc816040850160208701611365565b601f01601f1916919091016040019291505056fea2646970667358221220830da8fa85de08fb6952b101a872b5ef2a8a324efb2261dd8de56ba36c77270764736f6c63430008090033",
  "devdoc": {
    "kind": "dev",
    "methods": {},
    "version": 1
  },
  "userdoc": {
    "kind": "user",
    "methods": {},
    "version": 1
  },
  "storageLayout": {
    "storage": [
      {
        "astId": 207,
        "contract": "src/TokenLock/TokenLock.sol:TokenLock",
        "label": "_status",
        "offset": 0,
        "slot": "0",
        "type": "t_uint256"
      },
      {
        "astId": 11914,
        "contract": "src/TokenLock/TokenLock.sol:TokenLock",
        "label": "_balances",
        "offset": 0,
        "slot": "1",
        "type": "t_mapping(t_address,t_uint256)"
      },
      {
        "astId": 11920,
        "contract": "src/TokenLock/TokenLock.sol:TokenLock",
        "label": "_deposits",
        "offset": 0,
        "slot": "2",
        "type": "t_mapping(t_address,t_array(t_struct(Deposit)11930_storage)dyn_storage)"
      },
      {
        "astId": 11922,
        "contract": "src/TokenLock/TokenLock.sol:TokenLock",
        "label": "lockingPeriod",
        "offset": 0,
        "slot": "3",
        "type": "t_uint256"
      }
    ],
    "types": {
      "t_address": {
        "encoding": "inplace",
        "label": "address",
        "numberOfBytes": "20"
      },
      "t_array(t_struct(Deposit)11930_storage)dyn_storage": {
        "base": "t_struct(Deposit)11930_storage",
        "encoding": "dynamic_array",
        "label": "struct TokenLock.Deposit[]",
        "numberOfBytes": "32"
      },
      "t_mapping(t_address,t_array(t_struct(Deposit)11930_storage)dyn_storage)": {
        "encoding": "mapping",
        "key": "t_address",
        "label": "mapping(address => struct TokenLock.Deposit[])",
        "numberOfBytes": "32",
        "value": "t_array(t_struct(Deposit)11930_storage)dyn_storage"
      },
      "t_mapping(t_address,t_uint256)": {
        "encoding": "mapping",
        "key": "t_address",
        "label": "mapping(address => uint256)",
        "numberOfBytes": "32",
        "value": "t_uint256"
      },
      "t_struct(Deposit)11930_storage": {
        "encoding": "inplace",
        "label": "struct TokenLock.Deposit",
        "members": [
          {
            "astId": 11927,
            "contract": "src/TokenLock/TokenLock.sol:TokenLock",
            "label": "timestamp",
            "offset": 0,
            "slot": "0",
            "type": "t_uint256"
          },
          {
            "astId": 11929,
            "contract": "src/TokenLock/TokenLock.sol:TokenLock",
            "label": "amount",
            "offset": 0,
            "slot": "1",
            "type": "t_uint256"
          }
        ],
        "numberOfBytes": "64"
      },
      "t_uint256": {
        "encoding": "inplace",
        "label": "uint256",
        "numberOfBytes": "32"
      }
    }
  }
}