{
  "address": "0xFBBE895135AF71D948B59380876CC9709515e5cf",
  "abi": [
    {
      "anonymous": false,
      "inputs": [
        {
          "indexed": false,
          "internalType": "address",
          "name": "account",
          "type": "address"
        },
        {
          "indexed": false,
          "internalType": "uint256",
          "name": "amount",
          "type": "uint256"
        }
      ],
      "name": "DepositedTokens",
      "type": "event"
    },
    {
      "anonymous": false,
      "inputs": [
        {
          "indexed": false,
          "internalType": "address",
          "name": "account",
          "type": "address"
        },
        {
          "indexed": false,
          "internalType": "uint256",
          "name": "amount",
          "type": "uint256"
        }
      ],
      "name": "WithdrawnTokens",
      "type": "event"
    },
    {
      "inputs": [
        {
          "internalType": "address",
          "name": "account",
          "type": "address"
        }
      ],
      "name": "balanceOf",
      "outputs": [
        {
          "internalType": "uint256",
          "name": "",
          "type": "uint256"
        }
      ],
      "stateMutability": "view",
      "type": "function"
    },
    {
      "inputs": [
        {
          "internalType": "uint256",
          "name": "amount",
          "type": "uint256"
        }
      ],
      "name": "deposit",
      "outputs": [],
      "stateMutability": "nonpayable",
      "type": "function"
    },
    {
      "inputs": [
        {
          "internalType": "address",
          "name": "account",
          "type": "address"
        }
      ],
      "name": "depositsFor",
      "outputs": [
        {
          "components": [
            {
              "internalType": "uint256",
              "name": "timestamp",
              "type": "uint256"
            },
            {
              "internalType": "uint256",
              "name": "amount",
              "type": "uint256"
            }
          ],
          "internalType": "struct Deposit[]",
          "name": "",
          "type": "tuple[]"
        }
      ],
      "stateMutability": "view",
      "type": "function"
    },
    {
      "inputs": [
        {
          "internalType": "address",
          "name": "account",
          "type": "address"
        }
      ],
      "name": "lockedAmount",
      "outputs": [
        {
          "internalType": "uint256",
          "name": "",
          "type": "uint256"
        }
      ],
      "stateMutability": "view",
      "type": "function"
    },
    {
      "inputs": [
        {
          "internalType": "uint256",
          "name": "requestedAmount",
          "type": "uint256"
        }
      ],
      "name": "restake",
      "outputs": [],
      "stateMutability": "nonpayable",
      "type": "function"
    },
    {
      "inputs": [],
      "name": "restakeMax",
      "outputs": [],
      "stateMutability": "nonpayable",
      "type": "function"
    },
    {
      "inputs": [
        {
          "internalType": "address",
          "name": "account",
          "type": "address"
        },
        {
          "internalType": "uint256",
          "name": "amount",
          "type": "uint256"
        },
        {
          "internalType": "uint256",
          "name": "initLockingTm",
          "type": "uint256"
        }
      ],
      "name": "restakeOrDepositAtFor",
      "outputs": [],
      "stateMutability": "nonpayable",
      "type": "function"
    },
    {
      "inputs": [
        {
          "internalType": "address",
          "name": "account",
          "type": "address"
        }
      ],
      "name": "unlockedAmount",
      "outputs": [
        {
          "internalType": "uint256",
          "name": "",
          "type": "uint256"
        }
      ],
      "stateMutability": "view",
      "type": "function"
    },
    {
      "inputs": [
        {
          "internalType": "uint256",
          "name": "requested",
          "type": "uint256"
        }
      ],
      "name": "withdraw",
      "outputs": [
        {
          "internalType": "uint256",
          "name": "",
          "type": "uint256"
        }
      ],
      "stateMutability": "nonpayable",
      "type": "function"
    },
    {
      "inputs": [],
      "name": "withdrawMax",
      "outputs": [
        {
          "internalType": "uint256",
          "name": "",
          "type": "uint256"
        }
      ],
      "stateMutability": "nonpayable",
      "type": "function"
    }
  ],
  "transactionHash": "0xb46ada9e0e253b462afb91d7fe18271d56db0982aa6942ec86abc843ddbf0589",
  "args": [],
  "numDeployments": 1,
  "solcInputHash": "f106e37aae6a3f7106f3c0e0aa509e22",
  "bytecode": "0x608060405234801561001057600080fd5b506001600955611362806100256000396000f3fe608060405234801561001057600080fd5b50600436106100be5760003560e01c8063a8988ce211610076578063bce1b5201161005b578063bce1b52014610168578063e5cd8b6a1461017b578063fffac3761461018357600080fd5b8063a8988ce214610142578063b6b55f251461015557600080fd5b806362233d3e116100a757806362233d3e146100f357806370a0823114610106578063a153e7081461012f57600080fd5b80632e1a7d4d146100c35780633540ce08146100e9575b600080fd5b6100d66100d13660046110f8565b6101a3565b6040519081526020015b60405180910390f35b6100f1610279565b005b6100f161010136600461112d565b6102f6565b6100d6610114366004611160565b6001600160a01b031660009081526005602052604090205490565b6100d661013d366004611160565b6104ab565b6100d6610150366004611160565b6104e9565b6100f16101633660046110f8565b610501565b6100f16101763660046110f8565b61050c565b6100d66105d5565b610196610191366004611160565b61064d565b6040516100e0919061117b565b336000908152600560205260408120548211156102075760405162461bcd60e51b815260206004820152601360248201527f4e4f545f454e4f554748545f42414c414e43450000000000000000000000000060448201526064015b60405180910390fd5b60006102143384426106d6565b805190915083146102675760405162461bcd60e51b815260206004820152601e60248201527f4e4f545f454e4f554748545f554e4c4f434b41424c455f42414c414e4345000060448201526064016101fe565b610272335b82610941565b5192915050565b336000908152600560205260409020546102d55760405162461bcd60e51b815260206004820152601360248201527f4e4f545f454e4f554748545f42414c414e43450000000000000000000000000060448201526064016101fe565b60006102e5335b600019426106d6565b90506102f3335b8242610a69565b50565b428110156103465760405162461bcd60e51b815260206004820152601b60248201527f556e61626c6520746f207374616b6520746f207468652070617373000000000060448201526064016101fe565b6001600160a01b0383811660008181526005602052604080822054825491517f70a0823100000000000000000000000000000000000000000000000000000000815260048101949094529391929116906370a082319060240160206040518083038186803b1580156103b757600080fd5b505afa1580156103cb573d6000803e3d6000fd5b505050506040513d601f19601f820116820180604052508101906103ef91906111ca565b9050836103fc82846111f9565b101561044a5760405162461bcd60e51b815260206004820152601360248201527f4e4f545f454e4f554748545f42414c414e43450000000000000000000000000060448201526064016101fe565b8161045f5761045a858585610b5e565b6104a4565b600061046e86866000196106d6565b905061047b868286610a69565b80518511156104a25780516000906104939087611211565b90506104a0878287610b5e565b505b505b5050505050565b6000806104bb83600019426106d6565b80516001600160a01b0385166000908152600560205260409020549192506104e291611211565b9392505050565b6000806104f983600019426106d6565b519392505050565b6102f3338242610b5e565b336000908152600560205260409020546105685760405162461bcd60e51b815260206004820152601360248201527f4e4f545f454e4f554748545f42414c414e43450000000000000000000000000060448201526064016101fe565b60006105753383426106d6565b805190915082146105c85760405162461bcd60e51b815260206004820152601e60248201527f4e4f545f454e4f554748545f554e4c4f434b41424c455f42414c414e4345000060448201526064016101fe565b6105d1336102ec565b5050565b336000908152600560205260408120546106315760405162461bcd60e51b815260206004820152601360248201527f4e4f545f454e4f554748545f42414c414e43450000000000000000000000000060448201526064016101fe565b600061063c336102dc565b90506106473361026c565b51919050565b6001600160a01b0381166000908152600660209081526040808320805482518185028101850190935280835260609492939192909184015b828210156106cb57838290600052602060002090600202016040518060400160405290816000820154815260200160018201548152505081526020019060010190610685565b505050509050919050565b6106fa60405180606001604052806000815260200160008152602001606081525090565b6001600160a01b038416600090815260066020908152604080832080548251818502810185019093528083529192909190849084015b8282101561077657838290600052602060002090600202016040518060400160405290816000820154815260200160018201548152505081526020019060010190610730565b505050509050600060405180606001604052806000815260200160008152602001600067ffffffffffffffff8111156107b1576107b1611228565b6040519080825280602002602001820160405280156107f657816020015b60408051808201909152600080825260208201528152602001906001900390816107cf5790505b509052825190915061080b5791506104e29050565b60005b82518160ff161015610937576000838260ff16815181106108315761083161123e565b602002602001015190506108458187610c27565b80156108515750600087115b156108f65780602001518710156108c75760008782602001516108749190611211565b6020830181905284519091508890859061088f9083906111f9565b9052506020840180518291906108a69083906111f9565b90525060408401516108b89083610c44565b60408501525060009650610924565b60208101516108d69088611211565b96508060200151836000018181516108ee91906111f9565b905250610924565b80602001518360200181815161090c91906111f9565b905250604083015161091e9082610c44565b60408401525b508061092f81611254565b91505061080e565b5095945050505050565b8051156105d1576001600160a01b0382166000908152600660205260408120610969916110bd565b60005b8160400151518110156109ea576001600160a01b03831660009081526006602052604090819020908301518051839081106109a9576109a961123e565b6020908102919091018101518254600181810185556000948552938390208251600290920201908155910151910155806109e281611274565b91505061096c565b506020808201516001600160a01b0380851660009081526005909352604083209190915582519154610a20929116908490610d3b565b8051604080516001600160a01b038516815260208101929092527f373d92bf7d9cdd58a8c86db5461f3cdcd325b803fdbac8d1b224a0f5fce847b8910160405180910390a15050565b6001600160a01b0383166000908152600660205260408120610a8a916110bd565b60005b826040015151811015610b0b576001600160a01b0384166000908152600660205260409081902090840151805183908110610aca57610aca61123e565b602090810291909101810151825460018181018555600094855293839020825160029092020190815591015191015580610b0381611274565b915050610a8d565b506001600160a01b03909216600090815260066020908152604080832081518083019092529481529251838201908152845460018181018755958452919092209251600290910290920191825551910155565b6001600160a01b0383166000818152600660209081526040808320815180830183528681528084018881528254600181810185559387528587209251600290910290920191825551910155928252600590529081208054849290610bc39084906111f9565b9091555050600054610be0906001600160a01b0316843085610de9565b604080516001600160a01b0385168152602081018490527f7139450dd757152fecf84363c06fd6e67f35bcfcf09b93c4404aebd43518c699910160405180910390a1505050565b60075482516000918391610c3b91906111f9565b11159392505050565b81516060906000610c568260016111f9565b67ffffffffffffffff811115610c6e57610c6e611228565b604051908082528060200260200182016040528015610cb357816020015b6040805180820190915260008082526020820152815260200190600190039081610c8c5790505b50905060005b828160ff161015610d1457858160ff1681518110610cd957610cd961123e565b6020026020010151828260ff1681518110610cf657610cf661123e565b60200260200101819052508080610d0c90611254565b915050610cb9565b5083818381518110610d2857610d2861123e565b6020908102919091010152949350505050565b6040516001600160a01b038316602482015260448101829052610de49084907fa9059cbb00000000000000000000000000000000000000000000000000000000906064015b60408051601f198184030181529190526020810180517bffffffffffffffffffffffffffffffffffffffffffffffffffffffff167fffffffff0000000000000000000000000000000000000000000000000000000090931692909217909152610e40565b505050565b6040516001600160a01b0380851660248301528316604482015260648101829052610e3a9085907f23b872dd0000000000000000000000000000000000000000000000000000000090608401610d80565b50505050565b6000610e95826040518060400160405280602081526020017f5361666545524332303a206c6f772d6c6576656c2063616c6c206661696c6564815250856001600160a01b0316610f259092919063ffffffff16565b805190915015610de45780806020019051810190610eb3919061128f565b610de45760405162461bcd60e51b815260206004820152602a60248201527f5361666545524332303a204552433230206f7065726174696f6e20646964206e60448201527f6f7420737563636565640000000000000000000000000000000000000000000060648201526084016101fe565b6060610f348484600085610f3c565b949350505050565b606082471015610fb45760405162461bcd60e51b815260206004820152602660248201527f416464726573733a20696e73756666696369656e742062616c616e636520666f60448201527f722063616c6c000000000000000000000000000000000000000000000000000060648201526084016101fe565b6001600160a01b0385163b61100b5760405162461bcd60e51b815260206004820152601d60248201527f416464726573733a2063616c6c20746f206e6f6e2d636f6e747261637400000060448201526064016101fe565b600080866001600160a01b0316858760405161102791906112dd565b60006040518083038185875af1925050503d8060008114611064576040519150601f19603f3d011682016040523d82523d6000602084013e611069565b606091505b5091509150611079828286611084565b979650505050505050565b606083156110935750816104e2565b8251156110a35782518084602001fd5b8160405162461bcd60e51b81526004016101fe91906112f9565b50805460008255600202906000526020600020908101906102f391905b808211156110f457600080825560018201556002016110da565b5090565b60006020828403121561110a57600080fd5b5035919050565b80356001600160a01b038116811461112857600080fd5b919050565b60008060006060848603121561114257600080fd5b61114b84611111565b95602085013595506040909401359392505050565b60006020828403121561117257600080fd5b6104e282611111565b602080825282518282018190526000919060409081850190868401855b828110156111bd57815180518552860151868501529284019290850190600101611198565b5091979650505050505050565b6000602082840312156111dc57600080fd5b5051919050565b634e487b7160e01b600052601160045260246000fd5b6000821982111561120c5761120c6111e3565b500190565b600082821015611223576112236111e3565b500390565b634e487b7160e01b600052604160045260246000fd5b634e487b7160e01b600052603260045260246000fd5b600060ff821660ff81141561126b5761126b6111e3565b60010192915050565b6000600019821415611288576112886111e3565b5060010190565b6000602082840312156112a157600080fd5b815180151581146104e257600080fd5b60005b838110156112cc5781810151838201526020016112b4565b83811115610e3a5750506000910152565b600082516112ef8184602087016112b1565b9190910192915050565b60208152600082518060208401526113188160408501602087016112b1565b601f01601f1916919091016040019291505056fea264697066735822122002121d5edce460a248aa609da3d762a4f253856dae4c90b1d0afed5738f53ec064736f6c63430008090033",
  "devdoc": {
    "kind": "dev",
    "methods": {},
    "version": 1
  },
  "userdoc": {
    "kind": "user",
    "methods": {},
    "version": 1
  },
  "storageLayout": {
    "storage": [
      {
        "astId": 16221,
        "contract": "src/diamond/facets/TokenLockFacet.sol:TokenLockFacet",
        "label": "s",
        "offset": 0,
        "slot": "0",
        "type": "t_struct(AppStorage)16209_storage"
      },
      {
        "astId": 207,
        "contract": "src/diamond/facets/TokenLockFacet.sol:TokenLockFacet",
        "label": "_status",
        "offset": 0,
        "slot": "9",
        "type": "t_uint256"
      }
    ],
    "types": {
      "t_address": {
        "encoding": "inplace",
        "label": "address",
        "numberOfBytes": "20"
      },
      "t_array(t_bytes32)dyn_storage": {
        "base": "t_bytes32",
        "encoding": "dynamic_array",
        "label": "bytes32[]",
        "numberOfBytes": "32"
      },
      "t_array(t_struct(Deposit)16181_storage)dyn_storage": {
        "base": "t_struct(Deposit)16181_storage",
        "encoding": "dynamic_array",
        "label": "struct Deposit[]",
        "numberOfBytes": "32"
      },
      "t_bool": {
        "encoding": "inplace",
        "label": "bool",
        "numberOfBytes": "1"
      },
      "t_bytes32": {
        "encoding": "inplace",
        "label": "bytes32",
        "numberOfBytes": "32"
      },
      "t_contract(IERC20)900": {
        "encoding": "inplace",
        "label": "contract IERC20",
        "numberOfBytes": "20"
      },
      "t_mapping(t_address,t_array(t_struct(Deposit)16181_storage)dyn_storage)": {
        "encoding": "mapping",
        "key": "t_address",
        "label": "mapping(address => struct Deposit[])",
        "numberOfBytes": "32",
        "value": "t_array(t_struct(Deposit)16181_storage)dyn_storage"
      },
      "t_mapping(t_address,t_struct(UserStore)13095_storage)": {
        "encoding": "mapping",
        "key": "t_address",
        "label": "mapping(address => struct BookingMapLib.UserStore)",
        "numberOfBytes": "32",
        "value": "t_struct(UserStore)13095_storage"
      },
      "t_mapping(t_address,t_uint256)": {
        "encoding": "mapping",
        "key": "t_address",
        "label": "mapping(address => uint256)",
        "numberOfBytes": "32",
        "value": "t_uint256"
      },
      "t_mapping(t_bytes32,t_bytes32)": {
        "encoding": "mapping",
        "key": "t_bytes32",
        "label": "mapping(bytes32 => bytes32)",
        "numberOfBytes": "32",
        "value": "t_bytes32"
      },
      "t_mapping(t_bytes32,t_struct(Booking)13080_storage)": {
        "encoding": "mapping",
        "key": "t_bytes32",
        "label": "mapping(bytes32 => struct BookingMapLib.Booking)",
        "numberOfBytes": "32",
        "value": "t_struct(Booking)13080_storage"
      },
      "t_mapping(t_bytes32,t_struct(Year)13106_storage)": {
        "encoding": "mapping",
        "key": "t_bytes32",
        "label": "mapping(bytes32 => struct BookingMapLib.Year)",
        "numberOfBytes": "32",
        "value": "t_struct(Year)13106_storage"
      },
      "t_mapping(t_bytes32,t_uint256)": {
        "encoding": "mapping",
        "key": "t_bytes32",
        "label": "mapping(bytes32 => uint256)",
        "numberOfBytes": "32",
        "value": "t_uint256"
      },
      "t_mapping(t_uint16,t_struct(Bytes32ToUintMap)14032_storage)": {
        "encoding": "mapping",
        "key": "t_uint16",
        "label": "mapping(uint16 => struct EnumerableMapLib.Bytes32ToUintMap)",
        "numberOfBytes": "32",
        "value": "t_struct(Bytes32ToUintMap)14032_storage"
      },
      "t_mapping(t_uint16,t_uint256)": {
        "encoding": "mapping",
        "key": "t_uint16",
        "label": "mapping(uint16 => uint256)",
        "numberOfBytes": "32",
        "value": "t_uint256"
      },
      "t_struct(AppStorage)16209_storage": {
        "encoding": "inplace",
        "label": "struct AppStorage",
        "members": [
          {
            "astId": 16184,
            "contract": "src/diamond/facets/TokenLockFacet.sol:TokenLockFacet",
            "label": "tdfToken",
            "offset": 0,
            "slot": "0",
            "type": "t_contract(IERC20)900"
          },
          {
            "astId": 16189,
            "contract": "src/diamond/facets/TokenLockFacet.sol:TokenLockFacet",
            "label": "_bookings",
            "offset": 0,
            "slot": "1",
            "type": "t_mapping(t_address,t_struct(UserStore)13095_storage)"
          },
          {
            "astId": 16192,
            "contract": "src/diamond/facets/TokenLockFacet.sol:TokenLockFacet",
            "label": "_years",
            "offset": 0,
            "slot": "2",
            "type": "t_struct(YearsStore)13115_storage"
          },
          {
            "astId": 16196,
            "contract": "src/diamond/facets/TokenLockFacet.sol:TokenLockFacet",
            "label": "_balances",
            "offset": 0,
            "slot": "5",
            "type": "t_mapping(t_address,t_uint256)"
          },
          {
            "astId": 16202,
            "contract": "src/diamond/facets/TokenLockFacet.sol:TokenLockFacet",
            "label": "_deposits",
            "offset": 0,
            "slot": "6",
            "type": "t_mapping(t_address,t_array(t_struct(Deposit)16181_storage)dyn_storage)"
          },
          {
            "astId": 16204,
            "contract": "src/diamond/facets/TokenLockFacet.sol:TokenLockFacet",
            "label": "lockingPeriod",
            "offset": 0,
            "slot": "7",
            "type": "t_uint256"
          },
          {
            "astId": 16206,
            "contract": "src/diamond/facets/TokenLockFacet.sol:TokenLockFacet",
            "label": "paused",
            "offset": 0,
            "slot": "8",
            "type": "t_bool"
          },
          {
            "astId": 16208,
            "contract": "src/diamond/facets/TokenLockFacet.sol:TokenLockFacet",
            "label": "initialized",
            "offset": 1,
            "slot": "8",
            "type": "t_bool"
          }
        ],
        "numberOfBytes": "288"
      },
      "t_struct(Booking)13080_storage": {
        "encoding": "inplace",
        "label": "struct BookingMapLib.Booking",
        "members": [
          {
            "astId": 13073,
            "contract": "src/diamond/facets/TokenLockFacet.sol:TokenLockFacet",
            "label": "year",
            "offset": 0,
            "slot": "0",
            "type": "t_uint16"
          },
          {
            "astId": 13075,
            "contract": "src/diamond/facets/TokenLockFacet.sol:TokenLockFacet",
            "label": "dayOfYear",
            "offset": 2,
            "slot": "0",
            "type": "t_uint16"
          },
          {
            "astId": 13077,
            "contract": "src/diamond/facets/TokenLockFacet.sol:TokenLockFacet",
            "label": "price",
            "offset": 0,
            "slot": "1",
            "type": "t_uint256"
          },
          {
            "astId": 13079,
            "contract": "src/diamond/facets/TokenLockFacet.sol:TokenLockFacet",
            "label": "timestamp",
            "offset": 0,
            "slot": "2",
            "type": "t_uint256"
          }
        ],
        "numberOfBytes": "96"
      },
      "t_struct(Bytes32Set)2071_storage": {
        "encoding": "inplace",
        "label": "struct EnumerableSet.Bytes32Set",
        "members": [
          {
            "astId": 2070,
            "contract": "src/diamond/facets/TokenLockFacet.sol:TokenLockFacet",
            "label": "_inner",
            "offset": 0,
            "slot": "0",
            "type": "t_struct(Set)1877_storage"
          }
        ],
        "numberOfBytes": "64"
      },
      "t_struct(Bytes32ToBytes32Map)13802_storage": {
        "encoding": "inplace",
        "label": "struct EnumerableMapLib.Bytes32ToBytes32Map",
        "members": [
          {
            "astId": 13797,
            "contract": "src/diamond/facets/TokenLockFacet.sol:TokenLockFacet",
            "label": "_keys",
            "offset": 0,
            "slot": "0",
            "type": "t_struct(Bytes32Set)2071_storage"
          },
          {
            "astId": 13801,
            "contract": "src/diamond/facets/TokenLockFacet.sol:TokenLockFacet",
            "label": "_values",
            "offset": 0,
            "slot": "2",
            "type": "t_mapping(t_bytes32,t_bytes32)"
          }
        ],
        "numberOfBytes": "96"
      },
      "t_struct(Bytes32ToUintMap)14032_storage": {
        "encoding": "inplace",
        "label": "struct EnumerableMapLib.Bytes32ToUintMap",
        "members": [
          {
            "astId": 14031,
            "contract": "src/diamond/facets/TokenLockFacet.sol:TokenLockFacet",
            "label": "_inner",
            "offset": 0,
            "slot": "0",
            "type": "t_struct(Bytes32ToBytes32Map)13802_storage"
          }
        ],
        "numberOfBytes": "96"
      },
      "t_struct(Deposit)16181_storage": {
        "encoding": "inplace",
        "label": "struct Deposit",
        "members": [
          {
            "astId": 16178,
            "contract": "src/diamond/facets/TokenLockFacet.sol:TokenLockFacet",
            "label": "timestamp",
            "offset": 0,
            "slot": "0",
            "type": "t_uint256"
          },
          {
            "astId": 16180,
            "contract": "src/diamond/facets/TokenLockFacet.sol:TokenLockFacet",
            "label": "amount",
            "offset": 0,
            "slot": "1",
            "type": "t_uint256"
          }
        ],
        "numberOfBytes": "64"
      },
      "t_struct(Set)1877_storage": {
        "encoding": "inplace",
        "label": "struct EnumerableSet.Set",
        "members": [
          {
            "astId": 1872,
            "contract": "src/diamond/facets/TokenLockFacet.sol:TokenLockFacet",
            "label": "_values",
            "offset": 0,
            "slot": "0",
            "type": "t_array(t_bytes32)dyn_storage"
          },
          {
            "astId": 1876,
            "contract": "src/diamond/facets/TokenLockFacet.sol:TokenLockFacet",
            "label": "_indexes",
            "offset": 0,
            "slot": "1",
            "type": "t_mapping(t_bytes32,t_uint256)"
          }
        ],
        "numberOfBytes": "64"
      },
      "t_struct(UserStore)13095_storage": {
        "encoding": "inplace",
        "label": "struct BookingMapLib.UserStore",
        "members": [
          {
            "astId": 13084,
            "contract": "src/diamond/facets/TokenLockFacet.sol:TokenLockFacet",
            "label": "balance",
            "offset": 0,
            "slot": "0",
            "type": "t_mapping(t_uint16,t_uint256)"
          },
          {
            "astId": 13089,
            "contract": "src/diamond/facets/TokenLockFacet.sol:TokenLockFacet",
            "label": "dates",
            "offset": 0,
            "slot": "1",
            "type": "t_mapping(t_uint16,t_struct(Bytes32ToUintMap)14032_storage)"
          },
          {
            "astId": 13094,
            "contract": "src/diamond/facets/TokenLockFacet.sol:TokenLockFacet",
            "label": "bookings",
            "offset": 0,
            "slot": "2",
            "type": "t_mapping(t_bytes32,t_struct(Booking)13080_storage)"
          }
        ],
        "numberOfBytes": "96"
      },
      "t_struct(Year)13106_storage": {
        "encoding": "inplace",
        "label": "struct BookingMapLib.Year",
        "members": [
          {
            "astId": 13097,
            "contract": "src/diamond/facets/TokenLockFacet.sol:TokenLockFacet",
            "label": "number",
            "offset": 0,
            "slot": "0",
            "type": "t_uint16"
          },
          {
            "astId": 13099,
            "contract": "src/diamond/facets/TokenLockFacet.sol:TokenLockFacet",
            "label": "leapYear",
            "offset": 2,
            "slot": "0",
            "type": "t_bool"
          },
          {
            "astId": 13101,
            "contract": "src/diamond/facets/TokenLockFacet.sol:TokenLockFacet",
            "label": "start",
            "offset": 0,
            "slot": "1",
            "type": "t_uint256"
          },
          {
            "astId": 13103,
            "contract": "src/diamond/facets/TokenLockFacet.sol:TokenLockFacet",
            "label": "end",
            "offset": 0,
            "slot": "2",
            "type": "t_uint256"
          },
          {
            "astId": 13105,
            "contract": "src/diamond/facets/TokenLockFacet.sol:TokenLockFacet",
            "label": "enabled",
            "offset": 0,
            "slot": "3",
            "type": "t_bool"
          }
        ],
        "numberOfBytes": "128"
      },
      "t_struct(YearsStore)13115_storage": {
        "encoding": "inplace",
        "label": "struct BookingMapLib.YearsStore",
        "members": [
          {
            "astId": 13109,
            "contract": "src/diamond/facets/TokenLockFacet.sol:TokenLockFacet",
            "label": "_inner",
            "offset": 0,
            "slot": "0",
            "type": "t_struct(Bytes32Set)2071_storage"
          },
          {
            "astId": 13114,
            "contract": "src/diamond/facets/TokenLockFacet.sol:TokenLockFacet",
            "label": "elems",
            "offset": 0,
            "slot": "2",
            "type": "t_mapping(t_bytes32,t_struct(Year)13106_storage)"
          }
        ],
        "numberOfBytes": "96"
      },
      "t_uint16": {
        "encoding": "inplace",
        "label": "uint16",
        "numberOfBytes": "2"
      },
      "t_uint256": {
        "encoding": "inplace",
        "label": "uint256",
        "numberOfBytes": "32"
      }
    }
  }
}